:020000040800F2
:1040000080080020D1410008C7420008BF420008D4
:10401000C3420008B9420008E14300080000000064
:10402000000000000000000000000000F342000853
:10403000BD42000800000000F1420008F5420008FF
:10404000EB410008EB410008EB410008EB410008A0
:10405000EB410008EB410008EB410008EB41000890
:10406000EB410008EB410008EB410008EB41000880
:10407000EB410008EB410008EB410008EB41000870
:10408000EB410008EB4100088D420008EB410008BD
:10409000EB410008EB410008EB410008EB41000850
:1040A000AD430008EB410008EB410008EB4100087C
:1040B000EB410008EB410008EB410008EB41000830
:1040C000EB410008EB410008EB410008EB41000820
:1040D000EB410008EB410008EB410008EB41000810
:1040E000EB410008EB410008EB410008EB41000800
:1040F000EB410008EB410008EB410008EB410008F0
:10410000EB410008EB410008EB410008EB410008DF
:10411000EB410008EB410008EB410008EB410008CF
:10412000EB410008EB410008EB410008EB410008BF
:1041300000F002F800F03CF80AA090E8000C82447D
:104140008344AAF10107DA4501D100F031F8AFF25A
:10415000090EBAE80F0013F0010F18BFFB1A43F065
:10416000010318474412000064120000103A24BFF3
:1041700078C878C1FAD8520724BF30C830C144BFCC
:1041800004680C607047000000230024002500260E
:10419000103A28BF78C1FBD8520728BF30C148BFAA
:1041A0000B6070471FB501F0FAF81FBD10B510BDC8
:1041B00000F031F81146FFF7F5FF00F0C5FB00F005
:1041C0004FF803B4FFF7F2FF03BC00F057F800000C
:1041D0000948804709480047FEE7FEE7FEE7FEE79B
:1041E000FEE7FEE7FEE7FEE7FEE7FEE704480549D7
:1041F000054A064B7047000005430008314100089E
:10420000800000208008002080040020800400201E
:10421000704770477047754600F02CF8AE460500B1
:104220006946534620F00700854618B020B5FFF7D1
:10423000DDFFBDE820404FF000064FF000074FF0D3
:1042400000084FF0000B21F00701AC46ACE8C009B4
:10425000ACE8C009ACE8C009ACE8C0098D467047BD
:1042600010B50446AFF300802046BDE81040FFF7CC
:10427000A8BF000000487047200000200149182016
:10428000ABBEFEE7260002007047000010B54021DB
:10429000074800F08BFAC0F10100C4B22246402169
:1042A000034800F020FA0421024800F0DDF910BDB7
:1042B000000C01400024014000BFFEE7704700BF32
:1042C000FEE700BFFEE7704710B5002807DA0A07CF
:1042D000140E054A00F00F031B1FD45403E00A0715
:1042E000130E024A135410BD18ED00E000E400E084
:1042F0007047704702480068401C014908607047D9
:104300000000002008B52648006840F470002449E9
:1043100008602448006840F001002249086000BF9E
:104320002048006800F002000028F9D000BF1D48B6
:10433000406840F080001B4948600020009002E087
:104340000098401C009000985028F9D31548406808
:1043500040F09000134948600020009002E000986F
:10436000401C009000985028F9D300BF0D484068C9
:1043700020F003000B494860084600680A490840DD
:10438000084908604FF41F0088600846006820F460
:104390008020086000204860C86200F06FFD08BD02
:1043A00088ED00E000100240FFFFF6FE10B520226D
:1043B00000210A4800F0B2FE20220121074800F047
:1043C000ADFE20220221054800F0A8FE802103480E
:1043D00000F0D6FF022000F08FFA10BD002C014043
:1043E00000BFFEE710B540F2096000F08DFC01202F
:1043F00000F054FC002000F03BF901221102254896
:1044000000F044F900220221224800F03FF9002187
:10441000204800F07FF8042202211E4800F057F8DF
:1044200000231A4619461B4800F0CEF8002301224B
:104430001146184800F0C8F800230222114615481A
:1044400000F0C2F8002303221146124800F0BCF825
:104450004FF4805202210F4800F08FF80122022110
:104460000C4800F06BF802210A4800F0FDF8042126
:10447000084800F0F9F80421064800F0DFF8054884
:1044800000F053F8012000F0FDFC024800F00AF8AB
:1044900010BD00000024014010B500F087F8FFF7C0
:1044A000A1FF10BD816841F00801816000BF8168F3
:1044B00001F008010029FAD1816841F0040181600E
:1044C00000BF816801F004010029FAD1704730B5BE
:1044D000012902D002291AD10CE0C36A23F4700327
:1044E000C362C36A541E4FF4700505EA04542343A3
:1044F000C3620DE0836B23F440138363836B541E0C
:104500004FF4401505EA04542343836300E000BFE1
:1045100000BF30BD21B1826842F40062826003E0D6
:10452000826822F4006282607047816801F00101B4
:1045300019B9816841F001018160704772B101F0E1
:1045400001031BB1836843F48013836001F002030D
:1045500093B1836843F4004383600DE001F00103ED
:104560001BB1836823F48013836001F002031BB145
:10457000836823F4004383607047012902D0022935
:1045800010D107E0836823F46023836083681343BA
:10459000836008E0836823F4E04383608368134307
:1045A000836000E000BF00BF7047000010B540F21C
:1045B000026000F0A9FB0F2304220021014800F053
:1045C00097F810BD00080140F0B50C46876BC7F3A3
:1045D0000156856BE71CBF1B07EB870C1F2707FAEB
:1045E0000CF7BD43E71CBF1B07EB870702FA07F771
:1045F0003D4385630A2A0DD2016902EB420C07276D
:1046000007FA0CF7B94302EB420703FA07F73943FD
:10461000016112E0122A10D2C168A2F10A0707EB69
:10462000470C072707FA0CF7B943A2F10A0707EB73
:10463000470703FA07F73943C160F0BD01F00102F3
:104640001AB1426842F04002426001F002021AB11F
:10465000426842F02002426001F004021AB142684E
:1046600042F0800242607047CA4302607047000017
:104670000549096821F47021034A1160114609684F
:10468000014311607047000004240140AAB101F405
:1046900080731BB1436843F48073436001F480630B
:1046A0001BB1436843F48063436001F00203CBB164
:1046B000836843F00203836014E001F480731BB14C
:1046C000436823F48073436001F480631BB1436843
:1046D00023F48063436001F002031BB1836823F07D
:1046E0000203836070470AB1016100E041617047D5
:1046F000F0B5044616460025002201F00F0501F032
:10470000100747B1042E05D145F00305E76B1F43A1
:10471000E76300E0354300201EE0012787401F408B
:10472000C7B122684FEA800C0F2707FA0CF7BA438B
:10473000870005FA07F73A43282904D10127874063
:104740001F40676105E0482903D1012787401F40CA
:1047500027612260471CB8B20828DED3082022E077
:10476000012787401F40E7B16268A0F108074FEAC0
:10477000870C0F2707FA0CF7BA43A0F10807BF0010
:1047800005FA07F73A43282904D1012787401F403B
:10479000676105E0482903D1012787401F40276151
:1047A0006260471CB8B21028DAD3F0BD0246D06868
:1047B000084008B1012070470020FCE7F0B50A4628
:1047C000002300240021002500F00046B6F1004F30
:1047D00002D11D4EF16901E01B4E7168C0F3034523
:1047E00083B200F44016B6F5401F08D121F0E06115
:1047F000154E766826F0E066134F7E6012E000F4F6
:104800008016B6F5801F06D1032606FA05F4A143EB
:1048100041F0E06106E0460D360103FA06F6B143C9
:1048200041F0E06122B1460D360103FA06F631434C
:1048300000F00046B6F1004F02D1034EF16101E0F5
:10484000014E7160F0BD00000000014010B5002273
:104850001146182000F0C6F802220021122000F0B4
:10486000C1F810BD10B540F2056000F04DFA40F2FD
:10487000046000F049FA40F2026000F045FA4FF49B
:10488000C06000F041FA01211848FFF797FF18496E
:104890000B681849032208681021FFF729FF144903
:1048A0004B681449032248681021FFF721FF104983
:1048B0008B681049032288681021FFF719FF0C4A02
:1048C00011680C4A10680122FFF70DFF084A516871
:1048D000084A50680122FFF706FF054A9168054A19
:1048E00090680122FFF7FFFE10BD000000023000BB
:1048F0001000002004000020034951F82010034A52
:1049000052F8202051617047100000200400002060
:1049100070B504460A4A52F824100A4A52F8240094
:10492000FFF744FFC0F10100C5B2054A52F8241058
:10493000044A52F824002A46FFF7D5FE70BD000055
:10494000100000200400002013481449086062B6DB
:1049500000F0B6FAFFF786FF40F2036000F0D4F9EA
:104960004023032210210E48FFF7C2FE00224021FF
:104970000B48FFF7B8FE00F015F840F6B7325110BB
:10498000481000F019F805E00120FFF7C1FF64208E
:1049900000F078FAF8E700000040000808ED00E0B9
:1049A000000C014010B5FFF751FF00F087F800F050
:1049B000C9F8FFF771FD10BD70B504460D461646E7
:1049C00022460221064800F0D6FB2A46012104486F
:1049D00000F0D1FB32460021014800F0CCFB70BD55
:1049E000002C01402DE9F04103460D4616460024F7
:1049F0000027A0462A48006800F4E060B0F5E06FA8
:104A000003D100BF4FF0040830E02548006800F4EF
:104A1000E060B0F5C06F03D101274FF0030825E037
:104A20001F48006800F4E060B0F5A06F02D10227D3
:104A3000B8461BE01A48006800F4E060B0F5806FEB
:104A400003D103274FF0010810E01548006800F477
:104A5000E060B0F5407F03D104274FF0000805E087
:104A60004FF4A06000F020F80227B846C7F1040018
:104A700005FA00F4C8F104010F20C8403040044397
:104A800024010848C45403F01F0101208840591133
:104A9000890001F1E021C1F80001BDE8F0810000CA
:104AA0000CED00E000E400E002490143024A11601D
:104AB000704700000000FA050CED00E010B540F270
:104AC000026000F021F940F2036000F01DF94FF49C
:104AD000C06000F019F94FF48073032218211748C1
:104AE000FFF706FE4FF40073032218211348FFF767
:104AF000FFFD4FF48063032218211048FFF7F8FDF3
:104B00004FF40053032218210D48FFF7F1FD4FF435
:104B10008043032218210A48FFF7EAFD4FF40043BF
:104B2000032218210648FFF7E3FD4FF480530322C8
:104B300004210348FFF7DCFD10BD00000008014020
:104B4000000C014000B58BB040F20B6000F0DCF8C7
:104B5000514800F051FB0020ADF810004020ADF8A6
:104B600012000020ADF8140041F26F700690002092
:104B7000ADF816008DF81C0004A9474800F0B0FB02
:104B80000120ADF820000420ADF822000020ADF88F
:104B90002400ADF82600ADF82800ADF82A0008AAD8
:104BA00000213D4800F0C4F908AA01213A4800F06C
:104BB000BFF908AA0221384800F0BAF908AA03216F
:104BC000354800F0B5F94FF47A720021324800F010
:104BD000D2FA60220021304800F0A0FA0822002119
:104BE0002D4800F0DBFA4FF47A7201212A4800F0D8
:104BF000C2FA60220121284800F090FA082201211F
:104C0000254800F0CBFA4FF47A720221224800F0D6
:104C1000B2FA60220221204800F080FA0822022124
:104C20001D4800F0BBFA0698421E03211A4800F006
:104C3000A2FA60220321184800F070FA0022032132
:104C4000154800F0ABFA4FF40060ADF800004010DA
:104C5000ADF802008820ADF804004FF40050ADF824
:104C600006004000ADF808000020ADF80A004FF43F
:104C70008050ADF80C006946074800F049F9012161
:104C8000054800F080FB8021034800F075FB0248D6
:104C900000F020FB0BB000BD002C0140184B596800
:104CA000184B1940164BDA6A22F000520C2820D219
:104CB000DFE800F0060708091F0C1F0D151617186E
:104CC00000BF00BF00BF41EA803113E000BF20F009
:104CD00004004FF0805343EA803319430AE000BFD9
:104CE00000BF00BF20F00C0041EA803142F00052CA
:104CF00000E000BF00BF024B5960DA62704700005D
:104D000000100240FF3FFFEF064A02EB90110968D6
:104D100000F01F0301229A401143024B03EB901253
:104D20001160704700100240064A02EB90110968BA
:104D300000F01F0301229A409143024B03EB9012B3
:104D40001160704700100240064A02EB901109689A
:104D500000F01F0301229A401143024B03EB901213
:104D60001160704700100240002000213F4A126885
:104D700042F480323D4B1A6000BF401C3B4A12682F
:104D800002F4003119B94FF6FF729042F5D1374A5B
:104D9000126802F400320AB900BFFEE7334AD26952
:104DA00042F08052314BDA61314A126842F440429B
:104DB0002F4B1A602D4A52682C4B5A601A46526883
:104DC0005A601A46526842F480625A601A46526823
:104DD00022F440325A601A46526842F440325A6015
:104DE0001A465268234B1A40204B5A601A465268A2
:104DF000214B1A431D4B5A601A46126842F08072CA
:104E00001A6000BF194A126802F00072002AF9D035
:104E1000174A126842F48032154B1A6000BF144AD8
:104E2000526802F48032002AF9D0114A126842F422
:104E300000320F4B1A6000BF0D4A526802F4003274
:104E4000002AF9D0094A526822F00302074B5A603F
:104E50001A46526842F002025A6000BF034A526882
:104E600002F00802002AF9D070470000001002404A
:104E700000700040FFFFC3B70000340810B5FFF713
:104E800073FF10BD10B5034600F014F8014600F0A2
:104E900011F80246002400BF00F00CF802468A42D6
:104EA00001D3501A02E0C1F1FF30104404469C4285
:104EB000F2D310BD014800687047000000000020D8
:104EC00010B5124800684FF47A71B0FBF1F4601E1F
:104ED000B0F1807F01D301200FE0601E4FF0E02190
:104EE00048610F214FF0FF30FFF7EEF900204FF03F
:104EF000E021886107200861002008B100BFFEE7BB
:104F00000021481EFFF7E0F910BD00001C00002042
:104F10000A884B881A438B881A43CB881A430B891B
:104F20001A434B891A438B891A4342647047000025
:104F300010B531B101293FD002297DD003297CD1A0
:104F4000BFE0036A23F001030362836923F00303D4
:104F50008361036A148823430362036A23F0020314
:104F60000362036A9488234303626A4B984202D027
:104F7000694B98421FD1036A23F004030362036A5A
:104F8000548823430362036A23F008030362036A1D
:104F9000D48823430362436823F4807343604368E7
:104FA000148923434360436823F4007343604368D8
:104FB000548923434360ABE0036A23F01003036288
:104FC000836923F440738361036A148843EA0413FA
:104FD0000362036A23F020030362036A948843EAAE
:104FE000041303624B4B984202D04B4B984226D19C
:104FF000036A23F040030362036A548843EA0413FC
:105000000362036A23F080030362036AD48843EADD
:1050100004130362436823F4806343604368148984
:1050200043EA84034360436823F4006343604368B6
:10503000548943EA840301E002E068E0436067E0EA
:10504000036A23F480730362C36923F00303C3611B
:10505000036A148843EA04230362036A23F4007397
:105060000362036A948843EA04230362294B98424B
:1050700002D0294B984223D1036A23F48063036250
:10508000036A548843EA04230362036A23F4006337
:105090000362036AD48843EA04230362436823F467
:1050A000805343604368148943EA041343604368B0
:1050B00023F4005343604368548943EA0413436074
:1050C00026E0036A23F480530362C36923F4407328
:1050D000C361036A148843EA04330362036A23F456
:1050E00000530362036A948843EA04330362094B62
:1050F000984202D0084B984208D1436823F4804379
:1051000043604368148943EA8413436000E000BFAE
:1051100000BF10BD002C01400034014031B1012915
:105120000CD0022913D0032922D118E0836923F07F
:10513000700383618369134383611AE0836923F4F5
:10514000E0438361836943EA0223836111E0C36919
:1051500023F07003C361C3691343C36109E0C369EA
:1051600023F4E043C361C36943EA0223C36100E05F
:1051700000BF00BF704731B1012906D0022906D017
:10518000032908D105E0426306E0826304E0C263BC
:1051900002E0026400E000BF00BF704731B10129A6
:1051A0000CD0022913D0032922D118E0836923F0FF
:1051B000080383618369134383611AE0836923F4DD
:1051C00000638361836943EA0223836111E0C36959
:1051D00023F00803C361C3691343C36109E0C369D2
:1051E00023F40063C361C36943EA0223C36100E09F
:1051F00000BF00BF7047000010B504463349601A75
:105200008C4244D00CDCB4F1804F1CD03048204498
:1052100010B3B0F5806F28D0B0F5006F52D12DE0FB
:10522000B0F5806F3CD0B0F58E3F03D0B0F5923F23
:1052300048D13EE040F20B30FFF786FD40F20B30E4
:10524000FFF772FD3FE04FF48060FFF77DFD4FF404
:105250008060FFF769FD36E040F20140FFF774FD22
:1052600040F20140FFF760FD2DE040F20240FFF701
:105270006BFD40F20240FFF757FD24E040F203408F
:10528000FFF762FD40F20340FFF74EFD1BE040F2E6
:105290000440FFF759FD40F20440FFF745FD12E0DE
:1052A00040F20540FFF750FD40F20540FFF73CFD9E
:1052B00009E040F20D30FFF747FD40F20D30FFF7F7
:1052C00033FD00E000BF00BF10BD00000010004033
:1052D00000FCFFBF016841F0010101607047000060
:1052E0000A8882621D4A90420ED0B0F1804F0BD0E6
:1052F0001B4A904208D01B4A904205D01A4A90425D
:1053000002D01A4A90420BD1026822F07002026069
:1053100002684B881A43026002688B881A43026055
:105320008A68C262124A90420AD0124A904207D05A
:10533000026822F4407202600268CB881A4302605D
:10534000064A904202D0094A904201D10A7B026388
:10535000426942F00102426170470000002C0140A6
:105360000004004000080040000C004000340140F0
:105370000010004000140040C2680A43C260704739
:10538000CA4302617047012904D1426C42F40042D1
:10539000426403E0426C22F40042426470474FF0E2
:1053A0004070E1EE100A7047C8530008000000206A
:1053B000200000006C410008E85300082000002095
:1053C000600800008841000800000000001401404F
:1053D000001001400008014004000000001000001F
:0853E00000800000000E270709
:04000005080041317D
:00000001FF
