:020000040800F2
:1040000070050020454100087F44000877440008FF
:104010007B44000871440008994500080000000036
:10402000000000000000000000000000AB44000899
:104030007544000800000000A9440008AD440008D1
:104040005F4100085F4100085F4100085F410008D0
:104050005F4100085F4100085F4100085F410008C0
:104060005F4100085F4100085F4100085F410008B0
:104070005F4100085F4100085F4100085F410008A0
:104080005F4100085F410008AD4200085F41000841
:104090005F4100085F4100085F4100085F41000880
:1040A000654500085F4100085F4100085F41000866
:1040B0005F4100085F4100085F4100085F41000860
:1040C0005F4100085F4100085F4100085F41000850
:1040D0005F4100085F4100085F4100085F41000840
:1040E0005F4100085F4100085F4100085F41000830
:1040F0005F4100085F4100085F4100085F41000820
:104100005F4100085F4100085F4100085F4100080F
:104110005F4100085F4100085F4100085F410008FF
:104120005F4100085F4100085F4100085F410008EF
:10413000DFF80CD000F0A8F800480047AD500008A8
:10414000700500200648804706480047FEE7FEE766
:10415000FEE7FEE7FEE7FEE7FEE7FEE7FEE7FEE737
:10416000BD440008314100089FED1A1AF5EE000A1F
:1041700040EE010ABDEEE00AF5EEC00A10EE100AAC
:10418000F1EE10FA38BF401E00EE100A1349F7EEA8
:10419000001AB8EEC00A30EEC00ADFED0F0A20EEBA
:1041A000200AFCEEC00A10EE900AC0F3080000EEF0
:1041B000900A01EB8000F8EE600A90ED011A70EEB3
:1041C000600A90ED000A71EEE01A21EE800A00EE1E
:1041D000810A704783F9223E0000004424640008ED
:1041E000DFED1D0AB5EEC00A60EE200ABDEEE01A52
:1041F00011EE100AF1EE10FA38BF401E00EE100A60
:10420000B8EEC00A30EEC00ADFED140A20EE200A34
:10421000B4EEE00AF1EE10FAA8BF30EE600AFCEE50
:10422000C00A0F49F7EE001A10EE900AC0F308001A
:1042300000EE900A01EB8000F8EE600A90ED011AA2
:1042400070EE600A90ED000A71EEE01A21EE800A2D
:1042500000EE810A7047000083F9223E000000440E
:104260002464000840EA01039B0703D009E008C961
:10427000121F08C0042AFAD203E011F8013B00F82B
:10428000013B521EF9D27047064C074D06E0E0682C
:1042900040F0010394E8070098471034AC42F6D38D
:1042A000FFF74AFF286C0008486C000800B587B08B
:1042B0009FED640A8DED060A9FED620A8DED050AF9
:1042C0009FED600A8DED040A00200090019002909D
:1042D000039004215C4800F0CAFA5C48007888BB6F
:1042E0005B480088401C5A4908800321564800F06A
:1042F00091FA584908800221534800F08BFA564938
:1043000008805648006853490988084453490860A2
:1043100053480068504909880844514908604C488E
:104320000088B0F5805F0CDB0120484908704B48DD
:104330000068000B4949086049480068000B48497B
:1043400008607DE0FFE703213F4800F063FA414940
:10435000088002213C4800F05DFA3F4908803F4850
:1043600090ED000AF8EE400A3A48008800EE100A84
:10437000B8EE400A30EEC00ADFED3A0A20EE200A1D
:104380008DED060A364890ED000AF8EE400A084620
:10439000008800EE100AB8EE400A30EEC00ADFEDE9
:1043A000310A20EE200A8DED050A9DED060A2E4801
:1043B00080ED030A9DED050A80ED040A00F0C8FFB8
:1043C000294890ED030A8DED060A069800902648CC
:1043D00090ED040A8DED050A05980190224890EDB4
:1043E000090A8DED040A0498029080208DF80E00D1
:1043F0007F208DF80F001021684601F0C5FF1A4894
:1044000090ED2D0ABCEEC00A10EE102A02211748CA
:1044100001F047FD144890ED2E0ABCEEC00A10EEE4
:10442000102A0121114801F03CFD0F4890ED2F0AA0
:10443000BCEEC00A10EE102A00210C4801F031FD3C
:1044400007B000BD00000000002401400000002073
:10445000100000200C0000200E00002004000020AE
:10446000080000200000A53C74000020002C014042
:1044700000BFFEE7704700BFFEE700BFFEE77047E2
:1044800010B5002807DA0A07140E054A00F00F03DA
:104490001B1FD45403E00A07130E024A135410BD25
:1044A00018ED00E000E400E0704770470248006843
:1044B000401C0149086070472C00002008B52648C0
:1044C000006840F47000244908602448006840F007
:1044D00001002249086000BF2048006800F0020087
:1044E0000028F9D000BF1D48406840F080001B49FB
:1044F00048600020009002E00098401C0090009866
:104500005028F9D31548406840F09000134948609E
:104510000020009002E00098401C00900098502875
:10452000F9D300BF0D48406820F003000B494860F4
:10453000084600680A490840084908604FF41F000F
:1045400088600846006820F48020086000204860E9
:10455000C86201F029FB08BD88ED00E000100240B0
:10456000FFFFF6FE10B5202200210A4801F06CFC86
:1045700020220121074801F067FC20220221054882
:1045800001F062FC8021034801F090FD022000F060
:1045900065FD10BD002C014000BFFEE702E008C829
:1045A000121F08C1002AFAD170477047002001E0AD
:1045B00001C1121F002AFBD17047000010B540F264
:1045C000096001F0B7F8012000F0D2FF002000F0F0
:1045D00051F901221102254800F05AF90022022166
:1045E000224800F055F90021204800F07FF804220D
:1045F00002211E4800F057F800231A4619461B48AE
:1046000000F0CEF8002301221146184800F0C8F847
:10461000002302221146154800F0C2F800230322AD
:104620001146124800F0BCF84FF4805202210F48A6
:1046300000F08FF8012202210C4800F06BF80221F3
:104640000A4800F014F90421084800F010F9042188
:10465000064800F0F6F8054800F053F8012001F094
:10466000A7FA024800F00AF810BD0000002401403B
:1046700010B500F087F8FFF7A1FF10BD816841F089
:104680000801816000BF816801F008010029FAD1AA
:10469000816841F00401816000BF816801F004017C
:1046A0000029FAD1704730B5012902D002291AD168
:1046B0000CE0C36A23F47003C362C36A541E4FF450
:1046C000700505EA04542343C3620DE0836B23F4B1
:1046D00040138363836B541E4FF4401505EA045462
:1046E0002343836300E000BF00BF30BD21B1826877
:1046F00042F40062826003E0826822F40062826019
:104700007047816801F0010119B9816841F0010128
:104710008160704772B101F001031BB1836843F4FB
:104720008013836001F0020393B1836843F4004374
:1047300083600DE001F001031BB1836823F4801353
:10474000836001F002031BB1836823F4004383609C
:104750007047012902D0022910D107E0836823F4B1
:104760006023836083681343836008E0836823F4D5
:10477000E043836083681343836000E000BF00BFB1
:104780007047000010B540F2026000F0D3FF0F2325
:1047900004220021014800F02EFB10BD000801405A
:1047A000F0B50C46876BC7F30156856BE71CBF1B42
:1047B00007EB870C1F2707FA0CF7BD43E71CBF1B4D
:1047C00007EB870702FA07F73D4385630A2A0DD2F4
:1047D000016902EB420C072707FA0CF7B94302EB19
:1047E000420703FA07F73943016112E0122A10D297
:1047F000C168A2F10A0707EB470C072707FA0CF775
:10480000B943A2F10A0707EB470703FA07F7394351
:10481000C160F0BD02460B4633B1012B06D0022B1E
:1048200006D0032B08D105E0D16B07E0116C05E041
:10483000516C03E0916C01E0002100BF00BF88B221
:10484000704701F001021AB1426842F04002426032
:1048500001F002021AB1426842F02002426001F007
:1048600004021AB1426842F0800242607047CA43B3
:10487000026070470549096821F47021034A1160FC
:10488000114609680143116070470000042401408B
:10489000AAB101F480731BB1436843F48073436091
:1048A00001F480631BB1436843F48063436001F00B
:1048B0000203CBB1836843F00203836014E001F488
:1048C00080731BB1436823F48073436001F48063F9
:1048D0001BB1436823F48063436001F002031BB102
:1048E000836823F0020383607047D0ED061A90EDD1
:1048F000072A71EEC21AF0EE610AC0ED090AD0ED86
:10490000001A90ED012A42EE201AB0EE610AD0EDB5
:10491000041AF4EEC01AF1EE10FA04D2D0ED041A23
:10492000C0ED081A0DE0D0ED051AF4EEC01AF1EE54
:1049300010FA04DDD0ED051AC0ED081A01E080ED93
:10494000080AD0ED081A30EE611AD0ED001A90ED89
:10495000022A42EE201A90ED032A42EE411AC0EDDF
:10496000001A70471E480078C0B31D488088B0F513
:10497000C86F05D21A488088401C1949888011E008
:10498000174890ED020ADFED170AB4EEE00AF1EEE7
:1049900010FA07D290ED020ADFED130A30EE200A7A
:1049A00080ED020A114890ED000A0D48D0ED020A90
:1049B00030EE200A0D4880ED000A90ED000ADFED90
:1049C0000C0AB4EEE00AF1EE10FA07DD90ED000AF1
:1049D000DFED070A30EE600A80ED000A7047000044
:1049E000400100205177D63BAB68123474000020A0
:1049F000DB0FC94090ED030A80ED060A90ED030A33
:104A0000DFED080A20EE200AD0ED040AB0EE001A0D
:104A100060EE810A9FED031A00EE810A80ED070A1D
:104A2000704700003ACD133F10B540F2026000F02D
:104A300081FE40F21D7000F07DFE20230322002144
:104A40000B4800F0D8F900F041F84021012000F0B7
:104A500073F84FF42061012000F054F8012000F0B9
:104A60003FF84FF41F620021012000F003F810BD51
:104A70000008014090B921B1012905D002290BD1CC
:104A800006E0114B1A6008E00F4B1B1D1A6004E092
:104A90000D4B08331A6000E000BF13E021B101297B
:104AA00006D002290CD107E0074B0C331A6008E04E
:104AB000054B10331A6004E0034B14331A6000E016
:104AC00000BF00BF704700000874004010B540F2FE
:104AD0001D4000F04FFE40F21D4000F03BFE10BDB7
:104AE00030B90749096841F00101054A116005E044
:104AF0000349096841F48031014A116070470000A0
:104B00000074004050B90B4A126822F47062094BDD
:104B10001A601A4612680A431A600AE0054A1268C7
:104B200022F07062034B1A601A46126842EA014290
:104B30001A6070470074004050B90B4A126822F0A6
:104B4000C002094B1A601A4612680A431A600AE04A
:104B5000054A126822F44002034B1A601A46126892
:104B600042EA01421A6070470074004070B5054681
:104B70000C462146284600F01FF908B900BFFEE7A1
:104B800004EB8400810005F10800405840F0010169
:104B900004EB8400820005F10800815070BD70B5FF
:104BA00005460C462146284600F006F908B900BF24
:104BB000FEE704EB8400810005F10800405820F076
:104BC000200104EB8400820005F10800815070BDD3
:104BD00070B504460D462946204600F0EDF808B9A8
:104BE00000BFFEE705EB8500810004F10800405896
:104BF00020F0010105EB8500820004F108008150DE
:104C0000002105EB8500820004F10800815005EBCE
:104C10008500820004F10C00815005EB85008200C4
:104C200004F11000815005EB8500820004F11400AE
:104C300081506068AA000F2191400843606070BDF8
:104C400030B503461C688D0002FA05F52C400CB106
:104C5000012000E0002030BD2DE9F04104460D4662
:104C600016462946204600F0A7F808B900BFFEE71F
:104C700005EB8500820004F110003168815005EBDE
:104C80008500820004F11400B1688150308A81B23D
:104C900005EB8500820004F10C00815005EB8500D6
:104CA000810004F10800475827F47C57F1687068C8
:104CB000084371690843074305EB8500810004F14F
:104CC00008004750307E01280ED105EB8500810099
:104CD00004F10800405840F0400105EB85008200D7
:104CE00004F1080081500DE005EB8500810004F11E
:104CF0000800405820F0400105EB8500820004F1D7
:104D000008008150707E01280ED105EB85008100DE
:104D100004F10800405840F0800105EB8500820056
:104D200004F1080081500DE005EB8500810004F1DD
:104D30000800405820F0800105EB8500820004F156
:104D400008008150B07E70B905EB8500810004F148
:104D50000800405820F0100105EB8500820004F1A6
:104D6000080081500DE005EB8500810004F108008A
:104D7000405840F0100105EB8500820004F1080066
:104D80008150BDE8F08170B505460C4621462846A5
:104D900000F012F808B900BFFEE704EB84008100C0
:104DA00005F10800405820F4804104EB84008200A3
:104DB00005F10800815070BD02460120034B9A4264
:104DC00002D1042900DD00207047000000040240E9
:104DD00008B900BFFEE700210160416001768160F3
:104DE000C160417601618176416170470AB101611C
:104DF00000E041617047F0B50446164600250022E8
:104E000001F00F0501F0100747B1042E05D145F060
:104E10000305E76B1F43E76300E0354300201EE016
:104E2000012787401F40C7B122684FEA800C0F2737
:104E300007FA0CF7BA43870005FA07F73A4328291F
:104E400004D1012787401F40676105E0482903D14D
:104E5000012787401F4027612260471CB8B20828FD
:104E6000DED3082022E0012787401F40E7B16268B7
:104E7000A0F108074FEA870C0F2707FA0CF7BA438F
:104E8000A0F10807BF0005FA07F73A43282904D123
:104E9000012787401F40676105E0482903D10127AA
:104EA00087401F4027616260471CB8B21028DAD3E0
:104EB000F0BD0246D068084008B1012070470020CC
:104EC000FCE70000F0B50A4600230024002100257D
:104ED00000F00046B6F1004F02D11D4EF16901E02D
:104EE0001B4E7168C0F3034583B200F44016B6F55B
:104EF000401F08D121F0E061154E766826F0E0668B
:104F0000134F7E6012E000F48016B6F5801F06D1C4
:104F1000032606FA05F4A14341F0E06106E0460DE0
:104F2000360103FA06F6B14341F0E06122B1460DC5
:104F3000360103FA06F6314300F00046B6F1004FA1
:104F400002D1034EF16101E0014E7160F0BD00003D
:104F5000000001409FED040A80ED000A9FED020A67
:104F600080ED080A704700000000000010B5002224
:104F70001146182000F0D0F802220021122000F083
:104F8000CBF8012211461D2000F0C6F810BD90EDAF
:104F90000A0AD0ED020A20EE200AD0ED0B0A90EDAD
:104FA000011A00EEC10A80ED0C0A90ED0A0AD0ED5C
:104FB000010A20EE200AD0ED0B0A90ED021A00EE55
:104FC000810A80ED0D0A704710B540F2056000F0CF
:104FD000B1FB40F2046000F0ADFB40F2026000F073
:104FE000A9FB4FF4C06000F0A5FB01211848FFF7B2
:104FF00069FF18490B681849032208681021FFF758
:10500000FAFE14494B681449032248681021FFF73F
:10501000F2FE10498B681049032288681021FFF7BF
:10502000EAFE0C4A11680C4A10680122FFF7DEFE06
:10503000084A5168084A50680122FFF7D7FE054A1E
:105040009168054A90680122FFF7D0FE10BD00006C
:10505000000230002000002014000020034951F815
:105060002010034A52F82020516170472000002090
:105070001400002070B504460A4A52F824100A4A67
:1050800052F82400FFF715FFC0F10100C5B2054A30
:1050900052F82410044A52F824002A46FFF7A6FECC
:1050A00070BD0000200000201400002010481149AD
:1050B000086062B600F09AFDFFF786FF01F0B0F8D5
:1050C00000F01EF89FED0C0A0C4880ED2C0A00F051
:1050D000EDF80BE00020FFF7CDFF642000F068FD45
:1050E0000120FFF7C7FF642000F062FDF2E7000037
:1050F0000040000808ED00E0CD985E4574000020F7
:1051000010B5FFF791FCFFF731FF00F039F900F01F
:105110007BF9FFF7ADFA10BD2DE9F04103460D46CE
:10512000164600240027A0462A48006800F4E060E4
:10513000B0F5E06F03D100BF4FF0040830E0254820
:10514000006800F4E060B0F5C06F03D101274FF0B4
:10515000030825E01F48006800F4E060B0F5A06F88
:1051600002D10227B8461BE01A48006800F4E0604C
:10517000B0F5806F03D103274FF0010810E0154808
:10518000006800F4E060B0F5407F03D104274FF0E1
:10519000000805E04FF4A06000F020F80227B846B0
:1051A000C7F1040005FA00F4C8F104010F20C8405B
:1051B0003040044324010848C45403F01F01012077
:1051C00088405911890001F1E021C1F80001BDE8D2
:1051D000F08100000CED00E000E400E00249014332
:1051E000024A1160704700000000FA050CED00E073
:1051F00090ED060AD0ED020A20EE200AD0ED070A53
:1052000090ED011A00EE810A80ED080A90ED070A80
:10521000D0ED020A20EE200AD0ED060A90ED011A28
:1052200000EEC10A80ED090A7047000010B51C4865
:105230000078A0B31A48807838B1002018498870E7
:105240009FED180A084680ED060AB7EE000A1448DA
:1052500080ED070A144890ED090A80ED1F0A1048F6
:1052600090ED070A104880ED1E0A6030FFF73DFB05
:105270000D4890ED200A80ED0B0A90ED080A80EDB4
:10528000150A074890ED060A074880ED140A3830E1
:10529000FFF72BFB044890ED160A80ED0A0A10BDBB
:1052A00040010020000000007400002010B500F054
:1052B00011F8012005494870087088700020888026
:1052C0009FED030A084680ED020A10BD4001002050
:1052D0000000000010B59FED1A0A1A4880ED0F0A71
:1052E0009FED190A80ED100AB6EE000A80ED110A52
:1052F0009FED160A80ED120A90ED120AB1EE400AF7
:1053000080ED130A3830FFF725FE9FED0D0A0D489A
:1053100080ED190A9FED0C0A80ED1A0AB6EE000A1C
:1053200080ED1B0A9FED090A80ED1C0A90ED120A20
:10533000B1EE400A80ED1D0A6030FFF70BFE10BD94
:105340000AD7233C7400002017B7D13858FF7F3F9D
:1053500010B50A48FFF74EFB0848FFF749FFFFF773
:1053600001FBFFF763FF054800F014FA0348FFF75D
:105370000EFE024800F022FA10BD0000740000206A
:1053800010B540F2026000F0D5F940F2036000F081
:10539000D1F94FF4C06000F0CDF94FF480730322CF
:1053A00018211748FFF727FD4FF400730322182137
:1053B0001348FFF720FD4FF48063032218211048A3
:1053C000FFF719FD4FF40053032218210D48FFF792
:1053D00012FD4FF48043032218210A48FFF70BFD0A
:1053E0004FF40043032218210648FFF704FD4FF451
:1053F0008053032204210348FFF7FDFC10BD000089
:1054000000080140000C014000B58BB040F20B6079
:1054100000F090F9554800F085FD0020ADF810002F
:105420004020ADF812000020ADF8140040F6A56051
:1054300006900020ADF816008DF81C0004A94B481A
:1054400000F0E4FD0120ADF820000420ADF82200BA
:105450000020ADF82400ADF82600ADF82800ADF826
:105460002A0008AA0021414800F0F8FB08AA0121FF
:105470003E4800F0F3FB08AA02213C4800F0EEFB96
:1054800008AA0321394800F0E9FB4FF47A720021A1
:10549000364800F006FD60220021344800F0D4FCBC
:1054A00008220021314800F00FFD4FF47A720121EB
:1054B0002E4800F0F6FC602201212C4800F0C4FCCC
:1054C00008220121294800F0FFFC4FF47A720221E2
:1054D000264800F0E6FC60220221244800F0B4FCDB
:1054E00008220221214800F0EFFC0698421E032109
:1054F0001E4800F0D6FC602203211C4800F0A4FCEA
:1055000000220321194800F0DFFC4FF40060ADF8E1
:1055100000004010ADF802008820ADF804004FF400
:105520000050ADF806004000ADF808000020ADF8CE
:105530000A004FF48050ADF80C0069460B4800F0AB
:105540007DFB0121094800F0B4FD0121074800F06E
:10555000A9FD8021054800F0A5FD1021034800F0B9
:10556000A1FD024800F04CFD0BB000BD002C014035
:10557000184B5968184B1940164BDA6A22F0005242
:105580000C2820D2DFE800F0060708091F0C1F0DC9
:105590001516171800BF00BF00BF41EA803113E0A5
:1055A00000BF20F004004FF0805343EA80331943DA
:1055B0000AE000BF00BF00BF20F00C0041EA8031CC
:1055C00042F0005200E000BF00BF024B5960DA62B7
:1055D0007047000000100240FF3FFFEF2DE9F04F41
:1055E0008CB0074600200A904AA090E8004CC068A2
:1055F000CDE905BECDF810A007900FF21C1ADAE92C
:10560000000ACDE9020A0FF2101ADAE9000ACDE920
:10561000000A44484068C0F381000B900B9820B109
:10562000012804D002283FD103E03F4A3EE03E4A31
:105630003CE03C48406800F4803CBCF5803F12D11F
:105640003848C06A00F08048B8F1000F01D1364BED
:1056500000E0364B3348406800F40039B9F5003FAC
:1056600002D15B0800E0324B2E484068C0F3834112
:105670002C48406800F0006008B141F01001294852
:10568000406800F0804008B141F020010F2901D2AC
:10569000891C06E00F2903D33E2901D8491C00E0EC
:1056A0003F2103FB01F201E01F4A00BF00BF1D487C
:1056B0004068C0F3031504A8465D22FA06F41948B1
:1056C0004068C0F3022502A8465D24FA06F009905E
:1056D00014484068C0F3C2251DF8056024FA06F09E
:1056E000089037B1012F06D0022F06D0032F0AD120
:1056F00006E00A9208E00A9406E009980A9003E09E
:1057000008980A9000E000BF00BF0A980CB0BDE8FE
:10571000F08F000000000000000000000102030400
:10572000060708090010024000127A00006CDC0233
:1057300000093D00064A02EB9011096800F01F03C2
:1057400001229A401143024B03EB90121160704703
:1057500000100240064A02EB9011096800F01F0396
:1057600001229A409143024B03EB90121160704763
:1057700000100240064A02EB9011096800F01F0376
:1057800001229A401143024B03EB901211607047C3
:105790000010024010B50446D4ED000AB0EE600AD5
:1057A000FEF71EFD84ED010AD4ED000AB0EE600A9A
:1057B000FEF7DAFC84ED020A10BD00009FEDB34A4B
:1057C000B0EE442A9FEDB14AF0EE442A9FEDAF4A75
:1057D000F0EE443A9FEDAD4AB0EE440A9FEDAB4A7D
:1057E000F0EE440A9FEDA94AB0EE441A9FEDA74A95
:1057F000F0EE441A9FEDA54AB0EE443A90ED0D4A02
:10580000B0EE442A90ED0D4AF1EE444AB0EE005A53
:1058100084EE854AD0ED0C4A9FED9D5A05EE244A50
:10582000F0EE442A90ED0D4AF1EE444AB0EE005AF3
:1058300084EE854AD0ED0C4A9FED955A05EE644AF8
:10584000F0EE443AF5EEC03AF1EE10FA7DDDF5EEF9
:10585000C02AF1EE10FA29DD052180F8C01090ED84
:105860002C4A24EE224AB0EE440A90ED2C4A24EE53
:10587000234AF0EE440A90ED2C4A34EE404A34EECE
:10588000604AF0EE004A84EE245AB0EE451A31EE3A
:10589000004AF0EE441A31EEA04AB0EE443AC0EDB0
:1058A0002D1A80ED2E1A80ED2F3AEDE0B5EEC02ACC
:1058B000F1EE10FA29DD032180F8C01090ED2C4A9A
:1058C00024EE234AB0EE440A90ED2C4A24EE024A1C
:1058D000F0EE440A90ED2C4A34EE404A34EE604A31
:1058E000F0EE004A84EE245AB0EE451A31EE004A3A
:1058F000F0EE441A31EEA04AB0EE443A80ED2D1A93
:1059000080ED2E3AC0ED2F1ABEE0042180F8C010C1
:1059100090ED2C4AF1EE624A24EE244AB0EE440A9D
:1059200090ED2C4AF1EE424A24EE244AF0EE440A6D
:1059300090ED2C4A34EE404A34EE604AF0EE004AD4
:1059400084EE245AB0EE451A00E00EE031EE004A33
:10595000F0EE441A31EEA04AB0EE443A80ED2D1A32
:10596000C0ED2E1A80ED2F3A8EE0F5EEC02AF1EE52
:1059700010FA5CDDB5EEC02AF1EE10FA29DD012146
:1059800080F8C01090ED2C4A24EE024AB0EE440A92
:1059900090ED2C4A24EE224AF0EE440A90ED2C4A77
:1059A00034EE404A34EE604AF0EE004A84EE245A67
:1059B000B0EE451A31EE004AF0EE441A31EEA04A3C
:1059C000B0EE443A80ED2D3AC0ED2E1A80ED2F1A3C
:1059D0005AE0062180F8C01090ED2C4AF1EE424AC0
:1059E00024EE244AB0EE440A90ED2C4AF1EE634ACC
:1059F00024EE244AF0EE440A90ED2C4A34EE404A5C
:105A000034EE604AF0EE004A84EE245AB0EE451AB5
:105A100031EE004AF0EE441A31EEA04AB0EE443ABC
:105A200080ED2D3A80ED2E1AC0ED2F1A2CE00221C8
:105A300080F8C01090ED2C4AF1EE634A24EE244A1F
:105A4000B0EE440A90ED2C4AF1EE624A24EE244A6C
:105A5000F0EE440A90ED2C4A34EE404A34EE604AAF
:105A6000F0EE004A84EE245AB0EE451A31EE004AB8
:105A7000F0EE441A31EEA04AB0EE443AC0ED2D1AD1
:105A800080ED2E3A80ED2F1A7047000000000000D4
:105A9000D7B35D3F002000213F4A126842F48032B4
:105AA0003D4B1A6000BF401C3B4A126802F40031B3
:105AB00019B94FF6FF729042F5D1374A126802F4D5
:105AC00000320AB900BFFEE7334AD26942F0805281
:105AD000314BDA61314A126842F440422F4B1A606E
:105AE0002D4A52682C4B5A601A4652685A601A4620
:105AF000526842F480625A601A46526822F4403278
:105B00005A601A46526842F440325A601A46526845
:105B1000234B1A40204B5A601A465268214B1A43B5
:105B20001D4B5A601A46126842F080721A6000BF1C
:105B3000194A126802F00072002AF9D0174A126856
:105B400042F48032154B1A6000BF144A526802F4C6
:105B50008032002AF9D0114A126842F400320F4B09
:105B60001A6000BF0D4A526802F40032002AF9D0D0
:105B7000094A526822F00302074B5A601A465268DB
:105B800042F002025A6000BF034A526802F0080263
:105B9000002AF9D070470000001002400070004059
:105BA000FFFFC3B70000340810B5FFF773FF10BD47
:105BB00010B5034600F014F8014600F011F8024653
:105BC000002400BF00F00CF802468A4201D3501AAC
:105BD00002E0C1F1FF30104404469C42F2D310BDF4
:105BE00001480068704700002C00002010B51248E2
:105BF00000684FF47A71B0FBF1F4601EB0F1807F61
:105C000001D301200FE0601E4FF0E02148610F2119
:105C10004FF0FF30FEF734FC00204FF0E0218861A8
:105C200007200861002008B100BFFEE70021481EE0
:105C3000FEF726FC10BD0000300000200A884B88CB
:105C40001A438B881A43CB881A430B891A434B8912
:105C50001A438B891A4342647047000010B531B172
:105C600001293FD002297DD003297CD1BFE0036AFE
:105C700023F001030362836923F003038361036A52
:105C8000148823430362036A23F002030362036A56
:105C90009488234303626A4B984202D0694B98422E
:105CA0001FD1036A23F004030362036A5488234369
:105CB0000362036A23F008030362036AD488234360
:105CC0000362436823F48073436043681489234369
:105CD0004360436823F4007343604368548923435B
:105CE0004360ABE0036A23F010030362836923F48B
:105CF00040738361036A148843EA04130362036AEE
:105D000023F020030362036A948843EA04130362C6
:105D10004B4B984202D04B4B984226D1036A23F05A
:105D200040030362036A548843EA04130362036A6C
:105D300023F080030362036AD48843EA04130362F6
:105D4000436823F4806343604368148943EA84030F
:105D50004360436823F4006343604368548943EA23
:105D6000840301E002E068E0436067E0036A23F433
:105D700080730362C36923F00303C361036A148859
:105D800043EA04230362036A23F400730362036A91
:105D9000948843EA04230362294B984202D0294B9A
:105DA000984223D1036A23F480630362036A548810
:105DB00043EA04230362036A23F400630362036A71
:105DC000D48843EA04230362436823F48053436086
:105DD0004368148943EA04134360436823F400537F
:105DE00043604368548943EA0413436026E0036A2E
:105DF00023F480530362C36923F44073C361036ACD
:105E0000148843EA04330362036A23F400530362F1
:105E1000036A948843EA04330362094B984202D030
:105E2000084B984208D1436823F480434360436899
:105E3000148943EA8413436000E000BF00BF10BD33
:105E4000002C01400034014031B101290CD002295D
:105E500013D0032922D118E0836923F070038361F2
:105E60008369134383611AE0836923F4E043836108
:105E7000836943EA0223836111E0C36923F070035D
:105E8000C361C3691343C36109E0C36923F4E043F9
:105E9000C361C36943EA0223C36100E000BF00BFDE
:105EA000704731B1012906D0022906D0032908D153
:105EB00005E0426306E0826304E0C26302E002643C
:105EC00000E000BF00BF704731B101290CD00229AA
:105ED00013D0032922D118E0836923F008038361DA
:105EE0008369134383611AE0836923F40063836148
:105EF000836943EA0223836111E0C36923F0080345
:105F0000C361C3691343C36109E0C36923F4006338
:105F1000C361C36943EA0223C36100E000BF00BF5D
:105F20007047000010B504463349601A8C4244D0D3
:105F30000CDCB4F1804F1CD03048204410B3B0F5D5
:105F4000806F28D0B0F5006F52D12DE0B0F5806F92
:105F50003CD0B0F58E3F03D0B0F5923F48D13EE043
:105F600040F20B30FFF706FC40F20B30FFF7F2FB7C
:105F70003FE04FF48060FFF7FDFB4FF48060FFF7D8
:105F8000E9FB36E040F20140FFF7F4FB40F201404C
:105F9000FFF7E0FB2DE040F20240FFF7EBFB40F2A1
:105FA0000240FFF7D7FB24E040F20340FFF7E2FB9B
:105FB00040F20340FFF7CEFB1BE040F20440FFF746
:105FC000D9FB40F20440FFF7C5FB12E040F2054068
:105FD000FFF7D0FB40F20540FFF7BCFB09E040F2C1
:105FE0000D30FFF7C7FB40F20D30FFF7B3FB00E0C9
:105FF00000BF00BF10BD00000010004000FCFFBF4C
:10600000016841F001010160704700000A88826266
:106010001D4A90420ED0B0F1804F0BD01B4A9042E7
:1060200008D01B4A904205D01A4A904202D01A4A20
:1060300090420BD1026822F07002026002684B8825
:106040001A43026002688B881A4302608A68C2623F
:10605000124A90420AD0124A904207D0026822F4B3
:10606000407202600268CB881A430260064A90427E
:1060700002D0094A904201D10A7B0263426942F090
:106080000102426170470000002C01400004004002
:1060900000080040000C00400034014000100040A7
:1060A00000140040C2680A43C2607047CA430261DC
:1060B0007047012904D1426C42F40042426403E07B
:1060C000426C22F400424264704700002DE9F04720
:1060D00004460D460027B846B94600261D49601AF9
:1060E0008C421CD006DC1C48204470B1B0F5806F97
:1060F0001FD10FE0B0F5806F16D0B0F56C4F18D1FE
:106100000320FFF76BFA074614E00220FFF766FA58
:1061100007460FE00220FFF761FA07460AE0022077
:10612000FFF75CFA074605E00220FFF757FA07463B
:1061300000E000BF00BF07EB5500B0FBF5F64FF6DF
:10614000F07006EA000806F00F0948EA0900A060AE
:10615000BDE8F087004C004000BCFFBF10B504460E
:106160002049601A8C4228D006DC1F48204490B198
:10617000B0F5806F33D117E0B0F5806F26D0B0F561
:106180006C4F2CD140F20E30FFF7F4FA40F20E3093
:10619000FFF7E0FA24E040F21140FFF7EBFA40F29B
:1061A0001140FFF7D7FA1BE040F21240FFF7E2FA86
:1061B00040F21240FFF7CEFA12E040F21340FFF730
:1061C000D9FA40F21340FFF7C5FA09E040F2144053
:1061D000FFF7D0FA40F21440FFF7BCFA00E000BF2E
:1061E00000BF10BD004C004000BCFFBF426922F060
:1061F00040024261426901F040031A434261704724
:10620000426922F080024261426901F080031A4330
:1062100042617047C16841F40051C160704700009D
:1062200000B587B040F20460FFF784FA4FF4A06035
:10623000FFF780FA40F21270FFF77CFA4FF4C0606B
:10624000FFF778FA01214548FEF73CFE4FF48063E2
:10625000032218214248FEF7CEFD4FF400630322CB
:1062600004213F48FEF7C7FD3E48FFF777FF4FF494
:1062700061213C48FFF72AFF04213A4800F07AF8F0
:106280000821384800F0C4F83648FFF7C3FF012161
:106290003548FEF79DFC6846FEF79AFD01208DF813
:1062A0001A003248029001208DF819000020039056
:1062B000202004902B48001D009000208DF818002D
:1062C00001904FF4405005906A4601212648FEF7A0
:1062D000C3FC02212448FEF77BFC6846FEF778FDEC
:1062E00000208DF81A002248029001208DF8190034
:1062F00000200390202004901A48001D00900020E8
:106300008DF8180001904FF4405005906A46022124
:106310001548FEF7A1FC01211348FEF740FC0121BE
:106320001148FEF730FD02210F48FEF738FC02212C
:106330000D48FEF728FD40210A48FFF757FF0121CD
:106340000948FEF713FC80210648FFF759FF022198
:106350000548FEF70BFC07B000BD0000100014005C
:10636000001001400048004000000240540000209E
:1063700034000020C26822F00402C260C26801F04A
:1063800004031A43C260704730B587B005460C4617
:10639000202C34D2022201211A48FEF751FC012898
:1063A0002DD1224629461848FDF75CFF01211548EA
:1063B000FEF70EFC6846FEF70BFD01208DF81A0073
:1063C0001148029001208DF81900002003900494D8
:1063D0000E48009000208DF8180001904FF44050B6
:1063E00005906A4601210748FEF736FC0121054861
:1063F000FEF7D5FB01210348FEF7B8FB00BF07B04D
:1064000030BD00000000024054000020044800405D
:10641000C26822F00802C260C26801F008031A4391
:10642000C260704700000000920E493CB10AC93CAE
:106430002BC3163D2EFB483D752B7B3D04A9963D95
:1064400080B6AF3D36BDC83D2FBCE13D73B2FA3DCD
:1064500087CF093E8340163EB5AB223EA2102F3EA9
:10646000CF6E3B3EC2C5473E0115543E135C603EB5
:106470007F9A6C3ECCCF783EC07D823E938E883E24
:10648000229A8E3E32A0943E86A09A3EE59AA03E85
:10649000128FA63ED47CAC3EEF63B23E2A44B83E97
:1064A000491DBE3E15EFC33E53B9C93ECA7BCF3E20
:1064B0004136D53E80E8DA3E4F92E03E7533E63E07
:1064C000BBCBEB3EEA5AF13ECBE0F63E275DFC3E0D
:1064D000E4E7003F3D9C033F824B063F9BF5083FAE
:1064E0006B9A0B3FDA390E3FCDD3103F2A68133F2A
:1064F000D9F6153FC07F183FC6021B3FD17F1D3F15
:10650000CBF61F3F9967223F25D2243F5636273FBF
:106510001594293F4AEB2B3FDE3B2E3FBB85303F96
:10652000C9C8323FF304353F233A373F4268393F09
:106530003B8F3B3FF9AE3D3F67C73F3F70D8413F80
:1065400001E2433F03E4453F65DE473F12D1493F47
:10655000F8BB4B3F029F4D3F207A4F3F3D4D513F8F
:106560004918533F31DB543FE595563F5348583F58
:106570006AF2593F1A945B3F532D5D3F05BE5E3F63
:106580002146603F97C5613F5A3C633F59AA643F2B
:10659000880F663FD86B673F3CBF683FA7096A3FDB
:1065A0000C4B6B3F5E836C3F93B26D3F9ED86E3F4A
:1065B00073F56F3F0809713F5213723F4714733FE1
:1065C000DD0B743F0BFA743FC6DE753F07BA763FAA
:1065D000C58B773FF853783F9812793F9DC7793F35
:1065E00002737A3FBE147B3FCDAC7B3F283B7C3FA0
:1065F000C9BF7C3FAC3A7D3FCCAB7D3F23137E3F90
:10660000B0707E3F6DC47E3F580E7F3F6D4E7F3F22
:10661000AB847F3F0FB17F3F97D37F3F43EC7F3FFA
:1066200011FB7F3F0000803F11FB7F3F43EC7F3F2A
:1066300097D37F3F0FB17F3FAB847F3F6D4E7F3F4E
:10664000580E7F3F6DC47E3FB0707E3F23137E3F68
:10665000CCAB7D3FAC3A7D3FC9BF7C3F283B7C3F04
:10666000CDAC7B3FBE147B3F02737A3F9DC7793F21
:106670009812793FF853783FC58B773F07BA763F3A
:10668000C6DE753F0BFA743FDD0B743F4714733F52
:106690005213723F0809713F73F56F3F9ED86E3FEA
:1066A00093B26D3F5E836C3F0C4B6B3FA7096A3F13
:1066B0003CBF683FD86B673F880F663F59AA643F6D
:1066C0005A3C633F97C5613F2146603F05BE5E3F30
:1066D000532D5D3F1A945B3F6AF2593F5348583F30
:1066E000E595563F31DB543F4918533F3D4D513FEF
:1066F000207A4F3F029F4D3FF8BB4B3F12D1493F9D
:1067000065DE473F03E4453F01E2433F70D8413F28
:1067100067C73F3FF9AE3D3F3B8F3B3F4268393F44
:10672000233A373FF304353FC9C8323FBB85303F7A
:10673000DE3B2E3F4AEB2B3F1594293F5636273F31
:1067400025D2243F9967223FCBF61F3FD17F1D3FC3
:10675000C6021B3FC07F183FD9F6153F2A68133F7A
:10676000CDD3103FDA390E3F6B9A0B3F9BF5083FB4
:10677000824B063F3D9C033FE4E7003F275DFC3E24
:10678000CBE0F63EEA5AF13EBBCBEB3E7533E63E3C
:106790004F92E03E80E8DA3E4136D53ECA7BCF3E9E
:1067A00053B9C93E15EFC33E491DBE3E2A44B83E0B
:1067B000EF63B23ED47CAC3E128FA63EE59AA03E7B
:1067C00086A09A3E32A0943E229A8E3E938E883EB8
:1067D000C07D823ECCCF783E7F9A6C3E135C603E9B
:1067E0000115543EC2C5473ECF6E3B3EA2102F3E20
:1067F000B5AB223E8340163E87CF093E73B2FA3DC9
:106800002FBCE13D36BDC83D80B6AF3D04A9963DE5
:10681000752B7B3D2EFB483D2BC3163DB10AC93C71
:10682000920E493C00000000920E49BCB10AC9BC5E
:106830002BC316BD2EFB48BD752B7BBD04A996BD91
:1068400080B6AFBD36BDC8BD2FBCE1BD73B2FABDC9
:1068500087CF09BE834016BEB5AB22BEA2102FBEA5
:10686000CF6E3BBEC2C547BE011554BE135C60BEB1
:106870007F9A6CBECCCF78BEC07D82BE938E88BE20
:10688000229A8EBE32A094BE86A09ABEE59AA0BE81
:10689000128FA6BED47CACBEEF63B2BE2A44B8BE93
:1068A000491DBEBE15EFC3BE53B9C9BECA7BCFBE1C
:1068B0004136D5BE80E8DABE4F92E0BE7533E6BE03
:1068C000BBCBEBBEEA5AF1BECBE0F6BE275DFCBE09
:1068D000E4E700BF3D9C03BF824B06BF9BF508BFAA
:1068E0006B9A0BBFDA390EBFCDD310BF2A6813BF26
:1068F000D9F615BFC07F18BFC6021BBFD17F1DBF11
:10690000CBF61FBF996722BF25D224BF563627BFBB
:10691000159429BF4AEB2BBFDE3B2EBFBB8530BF92
:10692000C9C832BFF30435BF233A37BF426839BF05
:106930003B8F3BBFF9AE3DBF67C73FBF70D841BF7C
:1069400001E243BF03E445BF65DE47BF12D149BF43
:10695000F8BB4BBF029F4DBF207A4FBF3D4D51BF8B
:10696000491853BF31DB54BFE59556BF534858BF54
:106970006AF259BF1A945BBF532D5DBF05BE5EBF5F
:10698000214660BF97C561BF5A3C63BF59AA64BF27
:10699000880F66BFD86B67BF3CBF68BFA7096ABFD7
:1069A0000C4B6BBF5E836CBF93B26DBF9ED86EBF46
:1069B00073F56FBF080971BF521372BF471473BFDD
:1069C000DD0B74BF0BFA74BFC6DE75BF07BA76BFA6
:1069D000C58B77BFF85378BF981279BF9DC779BF31
:1069E00002737ABFBE147BBFCDAC7BBF283B7CBF9C
:1069F000C9BF7CBFAC3A7DBFCCAB7DBF23137EBF8C
:106A0000B0707EBF6DC47EBF580E7FBF6D4E7FBF1E
:106A1000AB847FBF0FB17FBF97D37FBF43EC7FBFF6
:106A200011FB7FBF000080BF11FB7FBF43EC7FBF26
:106A300097D37FBF0FB17FBFAB847FBF6D4E7FBF4A
:106A4000580E7FBF6DC47EBFB0707EBF23137EBF64
:106A5000CCAB7DBFAC3A7DBFC9BF7CBF283B7CBF00
:106A6000CDAC7BBFBE147BBF02737ABF9DC779BF1D
:106A7000981279BFF85378BFC58B77BF07BA76BF36
:106A8000C6DE75BF0BFA74BFDD0B74BF471473BF4E
:106A9000521372BF080971BF73F56FBF9ED86EBFE6
:106AA00093B26DBF5E836CBF0C4B6BBFA7096ABF0F
:106AB0003CBF68BFD86B67BF880F66BF59AA64BF69
:106AC0005A3C63BF97C561BF214660BF05BE5EBF2C
:106AD000532D5DBF1A945BBF6AF259BF534858BF2C
:106AE000E59556BF31DB54BF491853BF3D4D51BFEB
:106AF000207A4FBF029F4DBFF8BB4BBF12D149BF99
:106B000065DE47BF03E445BF01E243BF70D841BF24
:106B100067C73FBFF9AE3DBF3B8F3BBF426839BF40
:106B2000233A37BFF30435BFC9C832BFBB8530BF76
:106B3000DE3B2EBF4AEB2BBF159429BF563627BF2D
:106B400025D224BF996722BFCBF61FBFD17F1DBFBF
:106B5000C6021BBFC07F18BFD9F615BF2A6813BF76
:106B6000CDD310BFDA390EBF6B9A0BBF9BF508BFB0
:106B7000824B06BF3D9C03BFE4E700BF275DFCBE20
:106B8000CBE0F6BEEA5AF1BEBBCBEBBE7533E6BE38
:106B90004F92E0BE80E8DABE4136D5BECA7BCFBE9A
:106BA00053B9C9BE15EFC3BE491DBEBE2A44B8BE07
:106BB000EF63B2BED47CACBE128FA6BEE59AA0BE77
:106BC00086A09ABE32A094BE229A8EBE938E88BEB4
:106BD000C07D82BECCCF78BE7F9A6CBE135C60BE97
:106BE000011554BEC2C547BECF6E3BBEA2102FBE1C
:106BF000B5AB22BE834016BE87CF09BE73B2FABDC5
:106C00002FBCE1BD36BDC8BD80B6AFBD04A996BDE1
:106C1000752B7BBD2EFB48BD2BC316BDB10AC9BC6D
:106C2000920E49BC00000080486C00080000002063
:106C3000340000009C4500087C6C000834000020F3
:106C40003C050000AC45000800000000000000000A
:106C500000000000000000000000000000140140DF
:106C60000010014000080140040000000010000076
:0C6C70000080000000000000000E27075C
:04000005080041317D
:00000001FF
