:020000040800F2
:1040000068080020D1410008994200089142000848
:10401000954200088B420008594300080000000048
:104020000000000000000000000000009D420008A9
:104030008F420008000000009B420008A1420008D7
:10404000EB410008EB410008EB410008EB410008A0
:10405000EB410008EB410008EB410008EB41000890
:10406000EB410008EB410008EB410008EB41000880
:10407000EB410008EB410008EB410008EB41000870
:10408000EB410008EB410008EB410008EB41000860
:10409000EB410008EB410008EB410008EB41000850
:1040A000EB410008EB410008EB410008EB41000840
:1040B000EB410008EB410008EB410008EB41000830
:1040C000EB410008EB410008EB410008EB41000820
:1040D000EB410008EB410008EB410008EB41000810
:1040E000EB410008EB410008EB410008EB41000800
:1040F000EB410008EB410008EB410008EB410008F0
:10410000EB410008EB410008EB410008EB410008DF
:10411000EB410008EB410008EB410008EB410008CF
:10412000EB410008EB410008EB410008EB410008BF
:1041300000F002F800F03CF80AA090E8000C82447D
:104140008344AAF10107DA4501D100F031F8AFF25A
:10415000090EBAE80F0013F0010F18BFFB1A43F065
:104160000103184798050000B8050000103A24BF65
:1041700078C878C1FAD8520724BF30C830C144BFCC
:1041800004680C607047000000230024002500260E
:10419000103A28BF78C1FBD8520728BF30C148BFAA
:1041A0000B6070471FB500F0A3FA1FBD10B510BD1E
:1041B00000F031F81146FFF7F5FF00F0CFF900F0FD
:1041C0004FF803B4FFF7F2FF03BC00F057F800000C
:1041D0000948804709480047FEE7FEE7FEE7FEE79B
:1041E000FEE7FEE7FEE7FEE7FEE7FEE704480549D7
:1041F000054A064B70470000B142000831410008F3
:10420000680000206808002068040020680400207E
:10421000704770477047754600F02CF8AE460500B1
:104220006946534620F00700854618B020B5FFF7D1
:10423000DDFFBDE820404FF000064FF000074FF0D3
:1042400000084FF0000B21F00701AC46ACE8C009B4
:10425000ACE8C009ACE8C009ACE8C0098D467047BD
:1042600010B50446AFF300802046BDE81040FFF7CC
:10427000A8BF000000487047040000200149182032
:10428000ABBEFEE726000200704700BFFEE77047A6
:1042900000BFFEE700BFFEE77047704770470000B1
:1042A00002480068401C0149086070470000002077
:1042B00008B52648006840F4700024490860244886
:1042C000006840F001002249086000BF20480068F3
:1042D00000F002000028F9D000BF1D48406840F0FF
:1042E00080001B4948600020009002E00098401CBC
:1042F000009000985028F9D31548406840F090008D
:10430000134948600020009002E00098401C009093
:1043100000985028F9D300BF0D48406820F00300F2
:104320000B494860084600680A4908400849086087
:104330004FF41F0088600846006820F48020086061
:1043400000204860C86200F0CFF908BD88ED00E0A9
:1043500000100240FFFFF6FE00BFFEE790B921B15A
:10436000012905D002290BD106E0114B1A6008E0A3
:104370000F4B1B1D1A6004E00D4B08331A6000E060
:1043800000BF13E021B1012906D002290CD107E0BA
:10439000074B0C331A6008E0054B10331A6004E039
:1043A000034B14331A6000E000BF00BF70470000E9
:1043B0000874004010B540F21D4000F0FBF840F2D8
:1043C0001D4000F0E7F810BD30B90749096841F019
:1043D0000101054A116005E00349096841F4803193
:1043E000014A1160704700000074004010B540F2AF
:1043F000026000F0BFF840F21D7000F0BBF820230F
:10440000032200210B4800F04BF8FFF7D3FF4021B7
:10441000012000F02BF84FF42061012000F00CF88F
:104420000120FFF7D1FF4FF4006200210120FFF7C8
:1044300095FF10BD0008014050B90B4A126822F4E4
:104440007062094B1A601A4612680A431A600AE041
:10445000054A126822F07062034B1A601A4612680D
:1044600042EA01421A6070470074004050B90B4A9A
:10447000126822F0C002094B1A601A4612680A43F9
:104480001A600AE0054A126822F44002034B1A60DF
:104490001A46126842EA01421A60704700740040EE
:1044A000F0B5044616460025002201F00F0501F084
:1044B000100747B1042E05D145F00305E76B1F43F4
:1044C000E76300E0354300201EE0012787401F40DE
:1044D000C7B122684FEA800C0F2707FA0CF7BA43DE
:1044E000870005FA07F73A43282904D101278740B6
:1044F0001F40676105E0482903D1012787401F401D
:1045000027612260471CB8B20828DED3082022E0C9
:10451000012787401F40E7B16268A0F108074FEA12
:10452000870C0F2707FA0CF7BA43A0F10807BF0062
:1045300005FA07F73A43282904D1012787401F408D
:10454000676105E0482903D1012787401F402761A3
:104550006260471CB8B21028DAD3F0BD03480449A2
:10456000086062B6FFF742FF00BFFEE700400008A8
:1045700008ED00E0064A02EB9011096800F01F0305
:1045800001229A401143024B03EB901211607047D5
:1045900000100240064A02EB9011096800F01F0368
:1045A00001229A409143024B03EB90121160704735
:1045B00000100240064A02EB9011096800F01F0348
:1045C00001229A401143024B03EB90121160704795
:1045D00000100240002000213F4A126842F480325D
:1045E0003D4B1A6000BF401C3B4A126802F4003188
:1045F00019B94FF6FF729042F5D1374A126802F4AA
:1046000000320AB900BFFEE7334AD26942F0805255
:10461000314BDA61314A126842F440422F4B1A6042
:104620002D4A52682C4B5A601A4652685A601A46F4
:10463000526842F480625A601A46526822F440324C
:104640005A601A46526842F440325A601A4652681A
:10465000234B1A40204B5A601A465268214B1A438A
:104660001D4B5A601A46126842F080721A6000BFF1
:10467000194A126802F00072002AF9D0174A12682B
:1046800042F48032154B1A6000BF144A526802F49B
:104690008032002AF9D0114A126842F400320F4BDE
:1046A0001A6000BF0D4A526802F40032002AF9D0A5
:1046B000094A526822F00302074B5A601A465268B0
:1046C00042F002025A6000BF034A526802F0080238
:1046D000002AF9D07047000000100240007000402E
:1046E000FFFFC3B70000340810B5FFF773FF10BD1C
:1046F0004FF04070E1EE100A704700001C470008C0
:1047000000000020040000006C4100082047000861
:104710000400002064080000884100080000000038
:04000005080041317D
:00000001FF
