:020000040800F2
:1040000010060020454100089F440008974400081E
:104010009B44000891440008B945000800000000D6
:10402000000000000000000000000000CB44000879
:104030009544000800000000C9440008CD44000871
:104040005F4100085F4100085F4100085F410008D0
:104050005F4100085F4100085F4100085F410008C0
:104060005F4100085F4100085F4100085F410008B0
:104070005F4100085F4100085F4100085F410008A0
:104080005F4100085F410008AD4200085F41000841
:104090005F4100085F4100085F4100085F41000880
:1040A000854500085F4100085F4100085F41000846
:1040B0005F4100085F4100085F4100085F41000860
:1040C0005F4100085F4100085F4100085F41000850
:1040D0005F4100085F4100085F4100085F41000840
:1040E0005F4100085F4100085F4100085F41000830
:1040F0005F4100085F4100085F4100085F41000820
:104100005F4100085F4100085F4100085F4100080F
:104110005F4100085F4100085F4100085F410008FF
:104120005F4100085F4100085F4100085F410008EF
:10413000DFF80CD000F0A8F8004800472954000828
:10414000100600200648804706480047FEE7FEE7C5
:10415000FEE7FEE7FEE7FEE7FEE7FEE7FEE7FEE737
:10416000DD440008314100089FED1A1AF5EE000AFF
:1041700040EE010ABDEEE00AF5EEC00A10EE100AAC
:10418000F1EE10FA38BF401E00EE100A1349F7EEA8
:10419000001AB8EEC00A30EEC00ADFED0F0A20EEBA
:1041A000200AFCEEC00A10EE900AC0F3080000EEF0
:1041B000900A01EB8000F8EE600A90ED011A70EEB3
:1041C000600A90ED000A71EEE01A21EE800A00EE1E
:1041D000810A704783F9223E00000044C87000083D
:1041E000DFED1D0AB5EEC00A60EE200ABDEEE01A52
:1041F00011EE100AF1EE10FA38BF401E00EE100A60
:10420000B8EEC00A30EEC00ADFED140A20EE200A34
:10421000B4EEE00AF1EE10FAA8BF30EE600AFCEE50
:10422000C00A0F49F7EE001A10EE900AC0F308001A
:1042300000EE900A01EB8000F8EE600A90ED011AA2
:1042400070EE600A90ED000A71EEE01A21EE800A2D
:1042500000EE810A7047000083F9223E000000440E
:10426000C870000840EA01039B0703D009E008C9B1
:10427000121F08C0042AFAD203E011F8013B00F82B
:10428000013B521EF9D27047064C074D06E0E0682C
:1042900040F0010394E8070098471034AC42F6D38D
:1042A000FFF74AFFCC780008EC78000800B587B02B
:1042B0009FED6A0A8DED060A9FED680A8DED050AED
:1042C0009FED660A8DED040A002000900190029097
:1042D00003900421624800F0DAFA6248007888BB53
:1042E00061480088401C6049088003215C4800F058
:1042F000A1FA5E4908800221594800F09BFA5C4906
:1043000008805C4800685949098808445949086090
:104310005948006856490988084457490860524876
:104320000088B0F5805F0CDB01204E4908705148D1
:104330000068000B4F4908604F480068000B4E4969
:10434000086089E0FFE74D48006847F6FF41884272
:1043500005D24A480068401C484908607CE00321B7
:104360003F4800F067FA4149088002213C4800F0CC
:1043700061FA3F4908803F4890ED000AF8EE400A94
:104380003A48008800EE100AB8EE400A30EEC00A43
:10439000DFED3B0A20EE200A8DED060A364890ED4F
:1043A000000AF8EE400A0846008800EE100AB8EE4F
:1043B000400A30EEC00ADFED320A20EE200A8DED11
:1043C000050A9DED060A2F4880ED030A9DED050ABA
:1043D00080ED040A01F0C6FA2A4890ED030A8DED3B
:1043E000060A06980090274890ED000A8DED050A10
:1043F00005980190244890ED160A8DED040A049862
:10440000029080208DF80E007F208DF80F00102183
:10441000684602F00BFE1B4890ED2D0ABCEEC00A68
:1044200010EE102A0221194802F0CFFA154890ED3B
:104430002E0ABCEEC00A10EE102A0121134802F029
:10444000C4FA104890ED2F0ABCEEC00A10EE102AF4
:1044500000210E4802F0B9FA07B000BD00000000CC
:104460000024014000000020140000200C00002067
:104470000E00002004000020080000201000002092
:104480000000A53C9C00002094010020002C01406D
:1044900000BFFEE7704700BFFEE700BFFEE77047C2
:1044A00010B5002807DA0A07140E054A00F00F03BA
:1044B0001B1FD45403E00A07130E024A135410BD05
:1044C00018ED00E000E400E0704770470248006823
:1044D000401C0149086070473000002008B526489C
:1044E000006840F47000244908602448006840F0E7
:1044F00001002249086000BF2048006800F0020067
:104500000028F9D000BF1D48406840F080001B49DA
:1045100048600020009002E00098401C0090009845
:104520005028F9D31548406840F09000134948607E
:104530000020009002E00098401C00900098502855
:10454000F9D300BF0D48406820F003000B494860D4
:10455000084600680A490840084908604FF41F00EF
:1045600088600846006820F48020086000204860C9
:10457000C86201F0E5FF08BD88ED00E000100240D0
:10458000FFFFF6FE10B5202200210A4802F0F0F9E4
:1045900020220121074802F0EBF9202202210548E0
:1045A00002F0E6F98021034802F0CBFB022000F084
:1045B00013FF10BD002C014000BFFEE702E008C859
:1045C000121F08C1002AFAD170477047002001E08D
:1045D00001C1121F002AFBD17047000010B540F244
:1045E000096001F0CDFB012001F0E8FA002000F0A5
:1045F00051F901221102254800F05AF90022022146
:10460000224800F055F90021204800F07FF80422EC
:1046100002211E4800F057F800231A4619461B488D
:1046200000F0CEF8002301221146184800F0C8F827
:10463000002302221146154800F0C2F8002303228D
:104640001146124800F0BCF84FF4805202210F4886
:1046500000F08FF8012202210C4800F06BF80221D3
:104660000A4800F014F90421084800F010F9042168
:10467000064800F0F6F8054800F053F8012001F074
:1046800063FF024800F00AF810BD0000002401405A
:1046900010B500F087F8FFF7A1FF10BD816841F069
:1046A0000801816000BF816801F008010029FAD18A
:1046B000816841F00401816000BF816801F004015C
:1046C0000029FAD1704730B5012902D002291AD148
:1046D0000CE0C36A23F47003C362C36A541E4FF430
:1046E000700505EA04542343C3620DE0836B23F491
:1046F00040138363836B541E4FF4401505EA045442
:104700002343836300E000BF00BF30BD21B1826856
:1047100042F40062826003E0826822F400628260F8
:104720007047816801F0010119B9816841F0010108
:104730008160704772B101F001031BB1836843F4DB
:104740008013836001F0020393B1836843F4004354
:1047500083600DE001F001031BB1836823F4801333
:10476000836001F002031BB1836823F4004383607C
:104770007047012902D0022910D107E0836823F491
:104780006023836083681343836008E0836823F4B5
:10479000E043836083681343836000E000BF00BF91
:1047A0007047000010B540F2026001F0E9FA0F23F3
:1047B00004220021014800F040FC10BD0008014027
:1047C000F0B50C46876BC7F30156856BE71CBF1B22
:1047D00007EB870C1F2707FA0CF7BD43E71CBF1B2D
:1047E00007EB870702FA07F73D4385630A2A0DD2D4
:1047F000016902EB420C072707FA0CF7B94302EBF9
:10480000420703FA07F73943016112E0122A10D276
:10481000C168A2F10A0707EB470C072707FA0CF754
:10482000B943A2F10A0707EB470703FA07F7394331
:10483000C160F0BD02460B4633B1012B06D0022BFE
:1048400006D0032B08D105E0D16B07E0116C05E021
:10485000516C03E0916C01E0002100BF00BF88B201
:10486000704701F001021AB1426842F04002426012
:1048700001F002021AB1426842F02002426001F0E7
:1048800004021AB1426842F0800242607047CA4393
:10489000026070470549096821F47021034A1160DC
:1048A000114609680143116070470000042401406B
:1048B000AAB101F480731BB1436843F48073436071
:1048C00001F480631BB1436843F48063436001F0EB
:1048D0000203CBB1836843F00203836014E001F468
:1048E00080731BB1436823F48073436001F48063D9
:1048F0001BB1436823F48063436001F002031BB1E2
:10490000836823F0020383607047D0ED061A90EDB0
:10491000072A71EEC21AF0EE610AC0ED090AD0ED65
:10492000001A90ED012A42EE201AB0EE610AD0ED95
:10493000041AF4EEC01AF1EE10FA04D2D0ED041A03
:10494000C0ED081A0DE0D0ED051AF4EEC01AF1EE34
:1049500010FA04DDD0ED051AC0ED081A01E080ED73
:10496000080AD0ED081A30EE611AD0ED001A90ED69
:10497000022A42EE201A90ED032A42EE411AC0EDBF
:10498000001A704710B52DED028B04469FED4E0ABC
:10499000B0EE408A9FED4C0AF0EE408AD4ED160A44
:1049A00094ED151A70EE810AB0EE600AFFF7DCFB99
:1049B000F0EE408AD4ED160A94ED151A70EE810AD5
:1049C000B0EE600AFFF70CFCB0EE408A94ED040AEA
:1049D000B1EE400A20EE280AD4ED0B0A00EEC80A18
:1049E00084ED1A0A94ED1A0ADFED380AB4EEE00AF3
:1049F000F1EE10FA02DD9FED350A01E094ED1A0A9E
:104A000084ED1A0A94ED1A0ADFED310AB4EEE00AD9
:104A1000F1EE10FA02D29FED2E0A01E094ED1A0A8F
:104A200084ED1A0A94ED1B0AD4ED1A0A30EE200A1E
:104A300084ED1B0A94ED1A0AD4ED1C0A20EE200A1C
:104A4000D4ED1B0A94ED1D1A00EE810A84ED170ABD
:104A500094ED160AD4ED170A9FED1E1A00EE810A96
:104A600084ED160A94ED160ADFED1B0AB4EEE00A97
:104A7000F1EE10FA07DB94ED160ADFED170A30EEBF
:104A8000600A84ED160A94ED160AB5EEC00AF1EE3E
:104A900010FA07D894ED160ADFED0F0A30EE200A5F
:104AA00084ED160A94ED170AD4ED180A70EE600A28
:104AB00094ED180A94ED141A01EE200A84ED180AF8
:104AC000BDEC028B10BD000000000000920A063F02
:104AD000920A06BF6F128338DB0FC9404C4800783A
:104AE000D8B34B488088B0F5C86F05D24848808855
:104AF000401C4749888022E0454890ED020ADFEDDE
:104B0000450AB4EEE00AF1EE10FA08D290ED020A7E
:104B1000DFED410A30EE200A80ED020A0FE03F4847
:104B200090ED000A3E48D0ED160A30EE600A3D488E
:104B300080ED000A0120364988700020087037484F
:104B400090ED000A3248D0ED020A30EE200A3348D8
:104B500080ED000A90ED000A00E00FE0DFED320A80
:104B6000B4EEE00AF1EE10FA50DD90ED000ADFED50
:104B70002E0A30EE600A80ED000A47E0284890EDEA
:104B8000160A2848D0ED000A30EE200A234880EDAE
:104B9000000A244890ED000AB0EEC00ADFED230AB7
:104BA000B4EEE00AF1EE10FA19DD90ED000AB5EE70
:104BB000C00AF1EE10FA08D290ED000ADFED1B0AF0
:104BC00030EE200A80ED000A0EE0164890ED000A53
:104BD000DFED160A30EE600A80ED000A04E09FED7A
:104BE000140A104880ED000A0D4890ED150ADFED1B
:104BF000110AB4EEE00AF1EE10FA07DD90ED150AA5
:104C0000DFED0C0A30EE600A80ED150A70470000F7
:104C1000680100205177D63B009D5B349C0000204A
:104C20009401002050000020DB0FC940CDCC4C3D4A
:104C300000000000A410493890ED030A80ED060A38
:104C400090ED030ADFED080A20EE200AD0ED040AF9
:104C5000B0EE001A60EE810A9FED031A00EE810AA1
:104C600080ED070A704700003ACD133F10B540F2BF
:104C7000026001F085F840F21D7001F081F82023F8
:104C8000032200210B4800F0D8F900F041F8402140
:104C9000012000F073F84FF42061012000F054F877
:104CA000012000F03FF840F6E8220021012000F04A
:104CB00003F810BD0008014090B921B1012905D0C9
:104CC00002290BD106E0114B1A6008E00F4B1B1DA7
:104CD0001A6004E00D4B08331A6000E000BF13E0D7
:104CE00021B1012906D002290CD107E0074B0C3372
:104CF0001A6008E0054B10331A6004E0034B1433CC
:104D00001A6000E000BF00BF704700000874004058
:104D100010B540F21D4001F053F840F21D4001F083
:104D20003FF810BD30B90749096841F00101054A53
:104D3000116005E00349096841F48031014A1160BE
:104D4000704700000074004050B90B4A126822F40A
:104D50007062094B1A601A4612680A431A600AE028
:104D6000054A126822F07062034B1A601A461268F4
:104D700042EA01421A6070470074004050B90B4A81
:104D8000126822F0C002094B1A601A4612680A43E0
:104D90001A600AE0054A126822F44002034B1A60C6
:104DA0001A46126842EA01421A60704700740040D5
:104DB00070B505460C462146284600F01FF908B993
:104DC00000BFFEE704EB8400810005F108004058B5
:104DD00040F0010104EB8400820005F108008150DD
:104DE00070BD70B505460C462146284600F006F910
:104DF00008B900BFFEE704EB8400810005F108005C
:104E0000405820F0200104EB8400820005F10800E6
:104E1000815070BD70B504460D462946204600F00D
:104E2000EDF808B900BFFEE705EB8500810004F14D
:104E30000800405820F0010105EB8500820004F1D4
:104E400008008150002105EB8500820004F1080074
:104E5000815005EB8500820004F10C00815005EBC8
:104E60008500820004F11000815005EB850082006E
:104E700004F1140081506068AA000F21914008439A
:104E8000606070BD30B503461C688D0002FA05F500
:104E90002C400CB1012000E0002030BD2DE9F04194
:104EA00004460D4616462946204600F0A7F808B9E4
:104EB00000BFFEE705EB8500820004F110003168B9
:104EC000815005EB8500820004F11400B168815027
:104ED000308A81B205EB8500820004F10C0081501C
:104EE00005EB8500810004F10800475827F47C5742
:104EF000F1687068084371690843074305EB850052
:104F0000810004F108004750307E01280ED105EBE6
:104F10008500810004F10800405840F0400105EB95
:104F20008500820004F1080081500DE005EB85004A
:104F3000810004F10800405820F0400105EB850095
:104F4000820004F108008150707E01280ED105EB2B
:104F50008500810004F10800405840F0800105EB15
:104F60008500820004F1080081500DE005EB85000A
:104F7000810004F10800405820F0800105EB850015
:104F8000820004F108008150B07E70B905EB850005
:104F9000810004F10800405820F0100105EB850065
:104FA000820004F1080081500DE005EB85008100CE
:104FB00004F10800405840F0100105EB8500820024
:104FC00004F108008150BDE8F08170B505460C463B
:104FD0002146284600F012F808B900BFFEE704EBAE
:104FE0008400810005F10800405820F4804104EB62
:104FF0008400820005F10800815070BD0246012046
:10500000034B9A4202D1042900DD002070470000C2
:105010000004024008B900BFFEE7002101604160C2
:1050200001768160C160417601618176416170479E
:105030000AB1016100E041617047F0B504461646CF
:105040000025002201F00F0501F0100747B1042EE2
:1050500005D145F00305E76B1F43E76300E03543E7
:1050600000201EE0012787401F40C7B122684FEA99
:10507000800C0F2707FA0CF7BA43870005FA07F7E9
:105080003A43282904D1012787401F40676105E082
:10509000482903D1012787401F4027612260471C10
:1050A000B8B20828DED3082022E0012787401F403D
:1050B000E7B16268A0F108074FEA870C0F2707FAEB
:1050C0000CF7BA43A0F10807BF0005FA07F73A4307
:1050D000282904D1012787401F40676105E048293E
:1050E00003D1012787401F4027616260471CB8B287
:1050F0001028DAD3F0BD0246D068084008B101207C
:1051000070470020FCE70000F0B50A4600230024A9
:105110000021002500F00046B6F1004F02D11D4EDF
:10512000F16901E01B4E7168C0F3034583B200F4DE
:105130004016B6F5401F08D121F0E061154E7668A3
:1051400026F0E066134F7E6012E000F48016B6F59C
:10515000801F06D1032606FA05F4A14341F0E06161
:1051600006E0460D360103FA06F6B14341F0E06170
:1051700022B1460D360103FA06F6314300F000462F
:10518000B6F1004F02D1034EF16101E0014E7160B2
:10519000F0BD00000000014010B540F2046000F0D6
:1051A000EFFD40F2046000F0EBFD40F2046000F01F
:1051B000E7FD4FF4C06000F0E3FD01210C48FFF76C
:1051C000A3FF4023032204210A48FFF736FF802370
:1051D000032204210748FFF730FF4FF480730322B6
:1051E00004210448FFF729FF00F006F810BD000075
:1051F000000C1A000010014000B587B040F20170A9
:1052000000F0BEFD314801F021FC7720ADF804002C
:105210000020ADF80600ADF808004FF6FF700390CF
:105220000020ADF80A008DF8100001A9274801F010
:105230008DFC0020ADF814000320ADF8160000200E
:10524000ADF81800ADF81A0005AA00211F4801F0BA
:10525000C9FC0020ADF814000320ADF816000020B2
:10526000ADF81800ADF81A0005AA0121174801F0A1
:10527000B9FC0020ADF814000320ADF816000020A2
:10528000ADF81800ADF81A0005AA02210F4801F088
:10529000A9FC40210D4801F048FD04210B4801F014
:1052A0005FFD0021094801F044FC084801F028FA9C
:1052B0000221064801F045FD0221044801F03DFDB0
:1052C000024801F031FC07B000BD000000040040BE
:1052D0009FED040A80ED000A9FED020A80ED080AA6
:1052E000704700000000000010B500221146182091
:1052F00000F0CAF802220021122000F0C5F80122B5
:1053000011461D2000F0C0F810BD90ED0A0AD0ED46
:10531000020A20EE200AD0ED0B0A90ED011A00EEF1
:10532000C10A80ED0C0A90ED0A0AD0ED010A20EEC8
:10533000200AD0ED0B0A90ED021A00EE810A80EDF2
:105340000D0A704710B540F2056000F019FD40F2FB
:10535000046000F015FD40F2026000F011FD4FF412
:10536000C06000F00DFD01211848FFF7CDFE18497F
:105370000B681849032208681021FFF75EFE1449E4
:105380004B681449032248681021FFF756FE104964
:105390008B681049032288681021FFF74EFE0C4AE3
:1053A00011680C4A10680122FFF742FE084A516852
:1053B000084A50680122FFF73BFE054A9168054AFA
:1053C00090680122FFF734FE10BD0000000230009B
:1053D0002400002018000020034951F82010034A3F
:1053E00052F820205161704724000020180000204E
:1053F00070B504460A4A52F824100A4A52F82400AA
:10540000FFF779FEC0F10100C5B2054A52F8241039
:10541000044A52F824002A46FFF70AFE70BD000035
:1054200024000020180000200C480D49086062B6D6
:1054300001F0A8F8FFF786FF01F044FD01F0CAF87B
:1054400000F014F89FED070A074880ED2C0A00F0E1
:105450000FFA01E001F0C0F8FCE70000004000088E
:1054600008ED00E0CD985E459C00002010B5FFF7E8
:10547000FDFBFFF739FF00F0A9FA00F0EBFAFFF7A8
:105480008BFEFFF705F910BD2DE9F04103460D46EF
:10549000164600240027A0462A48006800F4E06071
:1054A000B0F5E06F03D100BF4FF0040830E02548AD
:1054B000006800F4E060B0F5C06F03D101274FF041
:1054C000030825E01F48006800F4E060B0F5A06F15
:1054D00002D10227B8461BE01A48006800F4E060D9
:1054E000B0F5806F03D103274FF0010810E0154895
:1054F000006800F4E060B0F5407F03D104274FF06E
:10550000000805E04FF4A06000F020F80227B8463C
:10551000C7F1040005FA00F4C8F104010F20C840E7
:105520003040044324010848C45403F01F01012003
:1055300088405911890001F1E021C1F80001BDE85E
:10554000F08100000CED00E000E400E002490143BE
:10555000024A1160704700000000FA050CED00E0FF
:1055600090ED060AD0ED020A20EE200AD0ED070ADF
:1055700090ED011A00EE810A80ED080A90ED070A0D
:10558000D0ED020A20EE200AD0ED060A90ED011AB5
:1055900000EEC10A80ED090A7047000010B52DED3C
:1055A000028BA7480078A8B3A548807838B10020BE
:1055B000A34988709FEDA30A084680ED060AB0EE65
:1055C000000A9F4880ED070A9F4890ED090A80ED88
:1055D0001F0A9B4890ED070A9B4880ED1E0A603029
:1055E000FFF793F9984890ED200A80ED0B0A90EDB3
:1055F000080A80ED150A924890ED060A924880ED5F
:10560000140A3830FFF781F98F4890ED160A80EDC3
:105610000A0A12E1FFE79FED8B0AF0EE408A9FED48
:10562000890AB0EE408A8648807890B1002084498B
:1056300088709FED860A084680ED040A9FED810A76
:1056400080ED060AB0EE000A7F4880ED220A0A20AB
:1056500048627B4890ED030AD0ED040A30EE600A00
:1056600080ED050A90ED050ADFED790AB4EEE00A57
:10567000F1EE10FA08DB90ED040ADFED760A30EE69
:10568000200A80ED040A17E06D4890ED050ADFED71
:10569000720AB4EEE00AF1EE10FA08D890ED040AAE
:1056A000DFED6C0A30EE600A80ED040A04E0644825
:1056B00090ED030A80ED040A6148416A406A401C8B
:1056C0005F4A50620A2917D3002011464862634896
:1056D00090ED180A5C4880ED290A084690ED040A0E
:1056E000594880ED280A8830FFF70FF9564890EDA9
:1056F0002A0A534880ED070A514890ED070A52489C
:10570000D0ED090A30EE600A554880ED000A90EDB0
:10571000000AF7EE000AB4EEE00AF1EE10FA15DD29
:1057200050480068401C4F49086008460068B0F5C2
:10573000FA6F2DD300200860434890ED260AF6EE5C
:10574000000A30EE600A80ED260A21E04548006834
:1057500028B144480068401E4249086018E03A48B1
:1057600090ED260AF2EE040AB4EEE00AF1EE10FA29
:1057700007D290ED260AF6EE000A30EE200A80ED00
:10578000260A314890ED260AB1EE400A80ED270A3C
:105790002D4890ED080A80ED150A294890ED060A7B
:1057A000294880ED140A3830FFF7AFF8264890ED0D
:1057B000160A80ED0A0A90ED0A0A20EE000AF0EEC1
:1057C000408A9FED290A30EE680AB0EE408AB0EEBA
:1057D000480A7030B5EEC00AF1EE10FA04DBF1EEC3
:1057E000C00AC0ED000A04E0DFED160AC0ED000AB1
:1057F00000BF154890ED1C0AB1EE400A80ED1D0A6D
:1058000090ED090A80ED1F0A0D4890ED070A0E4839
:1058100080ED1E0A6030FFF778F80B4890ED200A03
:1058200080ED0B0A064890ED070ADFED100A20EE26
:10583000200A0A4880ED100A00BFBDEC028B10BDA3
:1058400068010020000000009C0000208470D1420C
:10585000DB0F493E7CD9203DDB0F49BE940100207F
:1058600054000020580000206666663FA4707D3F0B
:1058700010B500F01DF801200949487008708870C3
:10588000002088809FED070A084680ED020A9FED00
:10589000060A80ED030A054800F0DEFA10BD00009C
:1058A000680100200000000063141D4494010020E2
:1058B00010B59FED270A274880ED0F0A9FED260AB5
:1058C00080ED100AB6EE000A80ED110A9FED230A62
:1058D00080ED120A90ED120AB1EE400A80ED130A33
:1058E0003830FFF7F5FC9FED1A0A1A4880ED190AC7
:1058F0009FED190A80ED1A0AB6EE000A80ED1B0A28
:105900009FED160A80ED1C0A90ED1C0AB1EE400ACC
:1059100080ED1D0A6030FFF7DBFC9FED0D0A0D489E
:1059200080ED230A9FED0E0A80ED240AB6EE000AF0
:1059300080ED250AB2EE040A80ED260A90ED260AD3
:10594000B1EE400A80ED270A8830FFF7C1FC10BD98
:105950000AD7A33C9C00002017B7513958FF7F3F5E
:10596000BD37063610B51748FFF766F91548FFF73B
:10597000F7FD144890ED060A134880ED070A114818
:1059800090ED070A104880ED0E0A0E4890ED0C0AC3
:105990000D4880ED020A0B4890ED0D0A0A4880ED93
:1059A000090A00F0F9FAFFF799F8FFF7F7FD054843
:1059B00000F03EFA0348FFF7A8FC024800F0CAFBDB
:1059C00010BD00009C0000209401002010B540F2A2
:1059D000026000F0D5F940F2036000F0D1F94FF415
:1059E000C06000F0CDF94FF48073032218211748EE
:1059F000FFF723FB4FF40073032218211348FFF72E
:105A00001CFB4FF48063032218211048FFF715FB9D
:105A10004FF40053032218210D48FFF70EFB4FF4FB
:105A20008043032218210A48FFF707FB4FF4004385
:105A3000032218210648FFF700FB4FF4805303228E
:105A400004210348FFF7F9FA10BD000000080140E7
:105A5000000C014000B58BB040F20B6000F090F9F3
:105A6000554800F0F3FF0020ADF810004020ADF8DD
:105A700012000020ADF8140040F6A560069000204A
:105A8000ADF816008DF81C0004A94B4801F05EF833
:105A90000120ADF820000420ADF822000020ADF870
:105AA0002400ADF82600ADF82800ADF82A0008AAB9
:105AB0000021414800F066FE08AA01213E4800F09E
:105AC00061FE08AA02213C4800F05CFE08AA0321FE
:105AD000394800F057FE4FF47A720021364800F042
:105AE00074FF60220021344800F042FF08220021A8
:105AF000314800F07DFF4FF47A7201212E4800F00A
:105B000064FF602201212C4800F032FF08220121AD
:105B1000294800F06DFF4FF47A720221264800F008
:105B200054FF60220221244800F022FF08220221B3
:105B3000214800F05DFF0698421E03211E4800F038
:105B400044FF602203211C4800F012FF00220321C1
:105B5000194800F04DFF4FF40060ADF80000401010
:105B6000ADF80200B820ADF804004FF40050ADF8D5
:105B700006004000ADF808000020ADF80A004FF420
:105B80008050ADF80C0069460B4800F0BEFD0121C5
:105B9000094801F0D9F80121074801F0CEF8802129
:105BA000054801F0CAF81021034801F0C6F8024880
:105BB00000F0BAFF0BB000BD002C0140184B596833
:105BC000184B1940164BDA6A22F000520C2820D2EA
:105BD000DFE800F0060708091F0C1F0D151617183F
:105BE00000BF00BF00BF41EA803113E000BF20F0DA
:105BF00004004FF0805343EA803319430AE000BFAA
:105C000000BF00BF20F00C0041EA803142F000529A
:105C100000E000BF00BF024B5960DA62704700002D
:105C200000100240FF3FFFEF2DE9F04F8CB0074618
:105C300000200A904AA090E8004CC068CDE905BE5B
:105C4000CDF810A007900FF21C1ADAE9000ACDE98E
:105C5000020A0FF2101ADAE9000ACDE9000A4448F4
:105C60004068C0F381000B900B9820B1012804D04C
:105C700002283FD103E03F4A3EE03E4A3CE03C4838
:105C8000406800F4803CBCF5803F12D13848C06ABF
:105C900000F08048B8F1000F01D1364B00E0364BE0
:105CA0003348406800F40039B9F5003F02D15B0881
:105CB00000E0324B2E484068C0F383412C484068D6
:105CC00000F0006008B141F010012948406800F080
:105CD000804008B141F020010F2901D2891C06E063
:105CE0000F2903D33E2901D8491C00E03F2103FBC3
:105CF00001F201E01F4A00BF00BF1D484068C0F329
:105D0000031504A8465D22FA06F419484068C0F35A
:105D1000022502A8465D24FA06F00990144840685E
:105D2000C0F3C2251DF8056024FA06F0089037B1CB
:105D3000012F06D0022F06D0032F0AD106E00A92C7
:105D400008E00A9406E009980A9003E008980A908F
:105D500000E000BF00BF0A980CB0BDE8F08F000063
:105D6000000000000000000001020304060708090B
:105D70000010024000127A00006CDC0200093D00B5
:105D8000064A02EB9011096800F01F0301229A40B5
:105D90001143024B03EB9012116070470010024058
:105DA000064A02EB9011096800F01F0301229A4095
:105DB0009143024B03EB90121160704700100240B8
:105DC000064A02EB9011096800F01F0301229A4075
:105DD0001143024B03EB9012116070470010024018
:105DE000704770470B48007890B90A4840780128FE
:105DF0000ED1094890ED180ADFED080A20EE200ABE
:105E000080ED140A90ED140A80ED130A80ED120A59
:105E10007047000068010020940100206F12833851
:105E20007047704710B50020FFF7E2FA10BD7047C9
:105E300010B50446D4ED000AB0EE600AFEF7D0F9C2
:105E400084ED010AD4ED000AB0EE600AFEF78CF989
:105E500084ED020A10BD00009FED490A80ED020AA0
:105E60009FED470A80ED030A9FED450A80ED040A85
:105E70009FED430A80ED050A9FED410A80ED000A7F
:105E80009FED3F0A80ED060A9FED3D0A80ED010A75
:105E90009FED3B0A80ED090A9FED390A80ED0A0A61
:105EA0009FED370A80ED0B0A9FED350A80ED0C0A55
:105EB0009FED330A80ED0D0A9FED310A80ED070A50
:105EC0009FED2F0A80ED080A9FED2D0A80ED100A44
:105ED0009FED2B0A80ED110A9FED290A80ED0E0A35
:105EE0009FED270A80ED0F0A9FED250A80ED120A2B
:105EF0009FED230A80ED130A9FED210A80ED140A1D
:105F00009FED1F0A80ED150A9FED1D0A80ED160A10
:105F10009FED1B0A80ED170A9FED190A80ED180A04
:105F20009FED170A80ED190A9FED160A80ED010A10
:105F30009FED150A80ED000AB2EE000A80ED100A0E
:105F40009FED120A80ED110A9FED110A80ED140AEF
:105F500090ED140A80ED130A80ED120A9FED0D0AF0
:105F600080ED150A9FED060A80ED1B0AB3EE040AC8
:105F700080ED1C0A9FED050A80ED1D0A70470000A8
:105F800000000000B7276B3FE1663F3CCDCCCC3D25
:105F90002FE3CD3BDB0FC93F10B5044694ED010A5A
:105FA000D4ED060A20EE200AD4ED020A94ED031A7D
:105FB00070EEC10A94ED051A70EEC10A94ED001A54
:105FC00001EE200A84ED060A94ED010AD4ED0D0AD3
:105FD00020EE200AD4ED090A94ED0A1A70EEC10AE7
:105FE00094ED0C1A70EEC10A94ED001A01EE200A2D
:105FF00084ED0D0A94ED060AD4ED070A30EE600A2E
:1060000084ED080A94ED0D0AD4ED0E0A30EE600A14
:1060100084ED0F0A94ED080AB5EEC00AF1EE10FA0D
:1060200004D294ED080AB1EE400A01E094ED080AAA
:10603000D4ED110AB4EEE00AF1EE10FA0CD294EDB0
:10604000100AD4ED080A20EE200AD4ED110A80EEE1
:10605000201A84ED051A0FE094ED080AB5EEC00A87
:10606000F1EE10FA02DD94ED100A03E094ED100A4F
:10607000B1EE400A84ED050A94ED0F0AB5EEC00AB0
:10608000F1EE10FA04D294ED0F0AB1EE400A01E0ED
:1060900094ED0F0AD4ED110AB4EEE00AF1EE10FA15
:1060A0000CD294ED100AD4ED0F0A20EE200AD4EDA4
:1060B000110A80EE201A84ED0C1A0FE094ED0F0AFD
:1060C000B5EEC00AF1EE10FA02DD94ED100A03E01D
:1060D00094ED100AB1EE400A84ED0C0A94ED050A25
:1060E000D4ED030A70EE600A94ED030A94ED121ADF
:1060F00001EE200A84ED030A94ED0C0AD4ED0A0A9D
:1061000070EE600A94ED0A0A94ED121A01EE200A6C
:1061100084ED0A0A94ED030AD4ED040A70EE600AD5
:1061200094ED040A94ED131A01EE200A84ED040A9A
:1061300094ED0A0AD4ED0B0A70EE600A94ED0B0A96
:1061400094ED131A01EE200A84ED0B0A2046FEF7A7
:1061500019FC10BD9FEDB34AB0EE442A9FEDB14A41
:10616000F0EE442A9FEDAF4AF0EE443A9FEDAD4A7F
:10617000B0EE440A9FEDAB4AF0EE440A9FEDA94A07
:10618000B0EE441A9FEDA74AF0EE441A9FEDA54ADF
:10619000B0EE443A90ED0D4AB0EE442A90ED0D4A2F
:1061A000F1EE444AB0EE005A84EE854AD0ED0C4A36
:1061B0009FED9D5A05EE244AF0EE442A90ED0D4ADB
:1061C000F1EE444AB0EE005A84EE854AD0ED0C4A16
:1061D0009FED955A05EE644AF0EE443AF5EEC03A6A
:1061E000F1EE10FA7DDDF5EEC02AF1EE10FA29DDB0
:1061F000052180F8C01090ED2C4A24EE224AB0EE22
:10620000440A90ED2C4A24EE234AF0EE440A90ED25
:106210002C4A34EE404A34EE604AF0EE004A84EEF6
:10622000245AB0EE451A31EE004AF0EE441A31EE2F
:10623000A04AB0EE443AC0ED2D1A80ED2E1A80ED42
:106240002F3AEDE0B5EEC02AF1EE10FA29DD032178
:1062500080F8C01090ED2C4A24EE234AB0EE440A98
:1062600090ED2C4A24EE024AF0EE440A90ED2C4ABE
:1062700034EE404A34EE604AF0EE004A84EE245A8E
:10628000B0EE451A31EE004AF0EE441A31EEA04A63
:10629000B0EE443A80ED2D1A80ED2E3AC0ED2F1A63
:1062A000BEE0042180F8C01090ED2C4AF1EE624A65
:1062B00024EE244AB0EE440A90ED2C4AF1EE424A14
:1062C00024EE244AF0EE440A90ED2C4A34EE404A83
:1062D00034EE604AF0EE004A84EE245AB0EE451ADD
:1062E00000E00EE031EE004AF0EE441A31EEA04A32
:1062F000B0EE443A80ED2D1AC0ED2E1A80ED2F3A03
:106300008EE0F5EEC02AF1EE10FA5CDDB5EEC02AA3
:10631000F1EE10FA29DD012180F8C01090ED2C4A31
:1063200024EE024AB0EE440A90ED2C4A24EE224AB2
:10633000F0EE440A90ED2C4A34EE404A34EE604AC6
:10634000F0EE004A84EE245AB0EE451A31EE004ACF
:10635000F0EE441A31EEA04AB0EE443A80ED2D3A08
:10636000C0ED2E1A80ED2F1A5AE0062180F8C010D9
:1063700090ED2C4AF1EE424A24EE244AB0EE440A53
:1063800090ED2C4AF1EE634A24EE244AF0EE440AE2
:1063900090ED2C4A34EE404A34EE604AF0EE004A6A
:1063A00084EE245AB0EE451A31EE004AF0EE441A5B
:1063B00031EEA04AB0EE443A80ED2D3A80ED2E1A2F
:1063C000C0ED2F1A2CE0022180F8C01090ED2C4A6D
:1063D000F1EE634A24EE244AB0EE440A90ED2C4AD2
:1063E000F1EE624A24EE244AF0EE440A90ED2C4A83
:1063F00034EE404A34EE604AF0EE004A84EE245A0D
:10640000B0EE451A31EE004AF0EE441A31EEA04AE1
:10641000B0EE443AC0ED2D1A80ED2E3A80ED2F1AE1
:106420007047000000000000D7B35D3F002000214E
:106430003F4A126842F480323D4B1A6000BF401C54
:106440003B4A126802F4003119B94FF6FF729042CC
:10645000F5D1374A126802F400320AB900BFFEE7EC
:10646000334AD26942F08052314BDA61314A1268C4
:1064700042F440422F4B1A602D4A52682C4B5A600E
:106480001A4652685A601A46526842F480625A604C
:106490001A46526822F440325A601A46526842F450
:1064A00040325A601A465268234B1A40204B5A60B9
:1064B0001A465268214B1A431D4B5A601A461268FD
:1064C00042F080721A6000BF194A126802F000722E
:1064D000002AF9D0174A126842F48032154B1A602C
:1064E00000BF144A526802F48032002AF9D0114ADF
:1064F000126842F400320F4B1A6000BF0D4A526816
:1065000002F40032002AF9D0094A526822F003024C
:10651000074B5A601A46526842F002025A6000BFA6
:10652000034A526802F00802002AF9D070470000BE
:106530000010024000700040FFFFC3B700003408A5
:1065400010B5FFF773FF10BD10B5034600F014F847
:10655000014600F011F80246002400BF00F00CF8DC
:1065600002468A4201D3501A02E0C1F1FF301044C2
:1065700004469C42F2D310BD0148006870470000F9
:106580003000002010B5124800684FF47A71B0FB5B
:10659000F1F4601EB0F1807F01D301200FE0601E96
:1065A0004FF0E02148610F214FF0FF30FDF778FFF9
:1065B00000204FF0E021886107200861002008B129
:1065C00000BFFEE70021481EFDF76AFF10BD000076
:1065D0004C0000207047000070B50126FFF7CCFF8B
:1065E000044641480068844203D33F480068201AAB
:1065F00004E03D480068C0F1FF302044054625B165
:1066000039480460FFF70CFC0026384800688442D3
:1066100003D336480068201A04E034480068C0F10B
:10662000FF3020440546052D04D330480460FFF7B1
:10663000FEFB00262E480068844203D32C480068E5
:10664000201A04E02A480068C0F1FF3020440546C3
:106650000A2D04D326480460FFF7C4FB0026254812
:106660000068844203D323480068201A04E02148CC
:106670000068C0F1FF3020440546642D04D31D4856
:106680000460FFF7AEFB00261B480068844203D37A
:1066900019480068201A04E017480068C0F1FF306C
:1066A00020440546B5F5FA7F04D313480460FFF78C
:1066B000B9FB002611480068844203D30F480068E4
:1066C000201A04E00D480068C0F1FF302044054660
:1066D000B5F57A7F04D309480460FFF7A2FB0026D2
:1066E0000EB1FFF77DFB70BD3400002038000020A4
:1066F0003C00002040000020440000204800002012
:10670000016841F08001016070470A884B881A4394
:106710008B881A43CB881A430B891A434B891A4337
:106720008B891A434264704731B101290CD0022988
:1067300013D0032922D118E0836923F00C0383616D
:106740008369134383611AE0836923F4406383619F
:10675000836943EA0223836111E0C36923F00C03D8
:10676000C361C3691343C36109E0C36923F4406390
:10677000C361C36943EA0223C36100E000BF00BFF5
:106780007047000010B531B101293FD002297DD0FA
:1067900003297CD1BFE0036A23F00103036283690C
:1067A00023F003038361036A148823430362036AAB
:1067B00023F002030362036A9488234303626A4B53
:1067C000984202D0694B98421FD1036A23F0040318
:1067D0000362036A548823430362036A23F00803B5
:1067E0000362036AD48823430362436823F48073FB
:1067F00043604368148923434360436823F4007370
:1068000043604368548923434360ABE0036A23F049
:1068100010030362836923F440738361036A14885D
:1068200043EA04130362036A23F020030362036A4A
:10683000948843EA041303624B4B984202D04B4BBB
:10684000984226D1036A23F040030362036A548806
:1068500043EA04130362036A23F080030362036ABA
:10686000D48843EA04130362436823F480634360DB
:106870004368148943EA84034360436823F4006354
:1068800043604368548943EA840301E002E068E01E
:10689000436067E0036A23F480730362C36923F0F3
:1068A0000303C361036A148843EA04230362036A8F
:1068B00023F400730362036A948843EA04230362A7
:1068C000294B984202D0294B984223D1036A23F4E2
:1068D00080630362036A548843EA04230362036A01
:1068E00023F400630362036AD48843EA0423036247
:1068F000436823F4805343604368148943EA0413D4
:106900004360436823F4005343604368548943EA77
:106910000413436026E0036A23F480530362C369CF
:1069200023F44073C361036A148843EA04330362A7
:10693000036A23F400530362036A948843EA04332E
:106940000362094B984202D0084B984208D1436831
:1069500023F4804343604368148943EA841343600B
:1069600000E000BF00BF10BD002C0140003401401A
:1069700031B101290CD0022913D0032922D118E00A
:10698000836923F0700383618369134383611AE091
:10699000836923F4E0438361836943EA02238361CB
:1069A00011E0C36923F07003C361C3691343C3617A
:1069B00009E0C36923F4E043C361C36943EA0223E6
:1069C000C36100E000BF00BF704731B1012906D0AC
:1069D000022906D0032908D105E0426306E082635C
:1069E00004E0C26302E0026400E000BF00BF704741
:1069F00031B101290CD0022913D0032922D118E08A
:106A0000836923F0080383618369134383611AE078
:106A1000836923F400638361836943EA022383610A
:106A200011E0C36923F00803C361C3691343C36161
:106A300009E0C36923F40063C361C36943EA022325
:106A4000C36100E000BF00BF7047000010B50446FE
:106A50003349601A8C4244D00CDCB4F1804F1CD016
:106A60003048204410B3B0F5806F28D0B0F5006FE7
:106A700052D12DE0B0F5806F3CD0B0F58E3F03D001
:106A8000B0F5923F48D13EE040F20B30FFF798F965
:106A900040F20B30FFF784F93FE04FF48060FFF7DE
:106AA0008FF94FF48060FFF77BF936E040F2014048
:106AB000FFF786F940F20140FFF772F92DE040F24E
:106AC0000240FFF77DF940F20240FFF769F924E048
:106AD00040F20340FFF774F940F20340FFF760F91A
:106AE0001BE040F20440FFF76BF940F20440FFF76F
:106AF00057F912E040F20540FFF762F940F2054015
:106B0000FFF74EF909E040F20D30FFF759F940F276
:106B10000D30FFF745F900E000BF00BF10BD0000D9
:106B20000010004000FCFFBF016841F0010101605E
:106B3000704721B9426842F08002426005E00129B5
:106B400003D1426822F08002426070470A88826264
:106B50001D4A90420ED0B0F1804F0BD01B4A90429C
:106B600008D01B4A904205D01A4A904202D01A4AD5
:106B700090420BD1026822F07002026002684B88DA
:106B80001A43026002688B881A4302608A68C262F4
:106B9000124A90420AD0124A904207D0026822F468
:106BA000407202600268CB881A430260064A904233
:106BB00002D0094A904201D10A7B0263426942F045
:106BC0000102426170470000002C014000040040B7
:106BD00000080040000C004000340140001000405C
:106BE0000014004070B504460E46154636B1012E1D
:106BF00026D0022E48D0032E7DD168E0206A20F0F6
:106C000001002062206A20F00A002062206A2988A0
:106C100008432062A06920F00300A061A069698890
:106C20000843A061A06920F0F000A061A069E98894
:106C300040EA0110A061206A40F0010020626DE08E
:106C4000206A20F010002062206A20F0A00020625C
:106C5000206A298840EA01102062A06920F440706F
:106C6000A061A069698840EA0120A061A06920F4C0
:106C70007040A061A069E98840EA0130A061206A03
:106C800040F01000206249E0206A20F48070206209
:106C9000206A20F420602062206A298840EA0120CE
:106CA0002062E06920F00300E061E0696988084340
:106CB000E061E06920F0F000E061E069E98840EA25
:106CC0000110E061206A40F48070206226E0206AB2
:106CD00020F480502062206A20F400502062206A54
:106CE000298840EA01302062E06920F44070E061C8
:106CF000E069698800E010E040EA0120E061E069B5
:106D000020F47040E061E069E98840EA0130E06128
:106D1000206A40F48050206200E000BF00BFAA88D3
:106D200031462046FFF700FD70BD826822F07002F8
:106D3000826082680A4382607047C2680A43C26008
:106D40007047CA4302617047012904D1426C42F482
:106D50000042426403E0426C22F400424264704705
:106D6000826822F00702826082680A43826070476C
:106D70002DE9F04704460D460027B846B9460026DF
:106D80001D49601A8C421CD006DC1C48204470B19E
:106D9000B0F5806F1FD10FE0B0F5806F16D0B0F561
:106DA0006C4F18D10320FEF73FFF074614E0022086
:106DB000FEF73AFF07460FE00220FEF735FF0746D1
:106DC0000AE00220FEF730FF074605E00220FEF74A
:106DD0002BFF074600E000BF00BF07EB5500B0FBEC
:106DE000F5F64FF6F07006EA000806F00F0948EADB
:106DF0000900A060BDE8F087004C004000BCFFBF68
:106E000010B504462049601A8C4228D006DC1F4881
:106E1000204490B1B0F5806F33D117E0B0F5806FAA
:106E200026D0B0F56C4F2CD140F20E30FEF7C8FFE3
:106E300040F20E30FEF7B4FF24E040F21140FEF7BE
:106E4000BFFF40F21140FEF7ABFF1BE040F21240E3
:106E5000FEF7B6FF40F21240FEF7A2FF12E040F24A
:106E60001340FEF7ADFF40F21340FEF799FF09E033
:106E700040F21440FEF7A4FF40F21440FEF790FFEA
:106E800000E000BF00BF10BD004C004000BCFFBFD1
:106E9000426922F040024261426901F040031A4314
:106EA00042617047426922F080024261426901F00A
:106EB00080031A4342617047C16841F40051C160C8
:106EC0007047000000B587B040F20460FEF758FF3D
:106ED0004FF4A060FEF754FF40F21270FEF750FF2F
:106EE0004FF4C060FEF74CFF01214548FEF70CF956
:106EF0004FF48063032218214248FEF79EF84FF4B6
:106F00000063032204213F48FEF797F83E48FFF74D
:106F100077FF4FF461213C48FFF72AFF04213A48EC
:106F200000F07AF80821384800F0C4F83648FFF736
:106F3000C3FF01213548FDF76DFF6846FEF76AF88B
:106F400001208DF81A003248029001208DF81900B6
:106F500000200390202004902B48001D009000206A
:106F60008DF8180001904FF4405005906A460121B9
:106F70002648FDF793FF02212448FDF74BFF6846A2
:106F8000FEF748F800208DF81A00224802900120F0
:106F90008DF8190000200390202004901A48001D4D
:106FA000009000208DF8180001904FF4405005909B
:106FB0006A4602211548FDF771FF01211348FDF7CC
:106FC00010FF01211148FEF700F802210F48FDF7DC
:106FD00008FF02210D48FDF7F8FF40210A48FFF79E
:106FE00057FF01210948FDF7E3FE80210648FFF71E
:106FF00059FF02210548FDF7DBFE07B000BD000088
:107000001000140000100140004800400000024041
:107010007C0000205C000020C26822F00402C260F4
:10702000C26801F004031A43C260704730B587B0EC
:1070300005460C46202C34D2022201211A48FDF7C5
:1070400021FF01282DD1224629461848FDF70AF9CB
:1070500001211548FDF7DEFE6846FDF7DBFF012044
:107060008DF81A001148029001208DF819000020B7
:10707000039004940E48009000208DF818000190B1
:107080004FF4405005906A4601210748FDF706FF7E
:1070900001210548FDF7A5FE01210348FDF788FE03
:1070A00000BF07B030BD0000000002407C0000209F
:1070B00004480040C26822F00802C260C26801F0C1
:1070C00008031A43C260704700000000920E493C5A
:1070D000B10AC93C2BC3163D2EFB483D752B7B3DA9
:1070E00004A9963D80B6AF3D36BDC83D2FBCE13DFD
:1070F00073B2FA3D87CF093E8340163EB5AB223EC0
:10710000A2102F3ECF6E3B3EC2C5473E0115543EF6
:10711000135C603E7F9A6C3ECCCF783EC07D823E51
:10712000938E883E229A8E3E32A0943E86A09A3E4E
:10713000E59AA03E128FA63ED47CAC3EEF63B23EF1
:107140002A44B83E491DBE3E15EFC33E53B9C93E61
:10715000CA7BCF3E4136D53E80E8DA3E4F92E03ED4
:107160007533E63EBBCBEB3EEA5AF13ECBE0F63E52
:10717000275DFC3EE4E7003F3D9C033F824B063F1A
:107180009BF5083F6B9A0B3FDA390E3FCDD3103F8A
:107190002A68133FD9F6153FC07F183FC6021B3F30
:1071A000D17F1D3FCBF61F3F9967223F25D2243F59
:1071B0005636273F1594293F4AEB2B3FDE3B2E3FA7
:1071C000BB85303FC9C8323FF304353F233A373FD0
:1071D0004268393F3B8F3B3FF9AE3D3F67C73F3F7A
:1071E00070D8413F01E2433F03E4453F65DE473F3E
:1071F00012D1493FF8BB4B3F029F4D3F207A4F3F92
:107200003D4D513F4918533F31DB543FE595563FC3
:107210005348583F6AF2593F1A945B3F532D5D3FE4
:1072200005BE5E3F2146603F97C5613F5A3C633FC4
:1072300059AA643F880F663FD86B673F3CBF683FE1
:10724000A7096A3F0C4B6B3F5E836C3F93B26D3F67
:107250009ED86E3F73F56F3F0809713F5213723F1E
:107260004714733FDD0B743F0BFA743FC6DE753F66
:1072700007BA763FC58B773FF853783F9812793F2E
:107280009DC7793F02737A3FBE147B3FCDAC7B3FF5
:10729000283B7C3FC9BF7C3FAC3A7D3FCCAB7D3FB8
:1072A00023137E3FB0707E3F6DC47E3F580E7F3FFC
:1072B0006D4E7F3FAB847F3F0FB17F3F97D37F3FC2
:1072C00043EC7F3F11FB7F3F0000803F11FB7F3F7E
:1072D00043EC7F3F97D37F3F0FB17F3FAB847F3F2E
:1072E0006D4E7F3F580E7F3F6DC47E3FB0707E3F36
:1072F00023137E3FCCAB7D3FAC3A7D3FC9BF7C3F83
:10730000283B7C3FCDAC7B3FBE147B3F02737A3F72
:107310009DC7793F9812793FF853783FC58B773FE7
:1073200007BA763FC6DE753F0BFA743FDD0B743F3C
:107330004714733F5213723F0809713F73F56F3F53
:107340009ED86E3F93B26D3F5E836C3F0C4B6B3F9C
:10735000A7096A3F3CBF683FD86B673F880F663F0D
:1073600059AA643F5A3C633F97C5613F2146603F3D
:1073700005BE5E3F532D5D3F1A945B3F6AF2593F55
:107380005348583FE595563F31DB543F4918533F2A
:107390003D4D513F207A4F3F029F4D3FF8BB4B3F41
:1073A00012D1493F65DE473F03E4453F01E2433FD9
:1073B00070D8413F67C73F3FF9AE3D3F3B8F3B3FF2
:1073C0004268393F233A373FF304353FC9C8323F5B
:1073D000BB85303FDE3B2E3F4AEB2B3F1594293FC8
:1073E0005636273F25D2243F9967223FCBF61F3FD1
:1073F000D17F1D3FC6021B3FC07F183FD9F6153F06
:107400002A68133FCDD3103FDA390E3F6B9A0B3FFA
:107410009BF5083F824B063F3D9C033FE4E7003F5E
:10742000275DFC3ECBE0F63EEA5AF13EBBCBEB3E9D
:107430007533E63E4F92E03E80E8DA3E4136D53E77
:10744000CA7BCF3E53B9C93E15EFC33E491DBE3E70
:107450002A44B83EEF63B23ED47CAC3E128FA63EC7
:10746000E59AA03E86A09A3E32A0943E229A8E3E95
:10747000938E883EC07D823ECCCF783E7F9A6C3E14
:10748000135C603E0115543EC2C5473ECF6E3B3E85
:10749000A2102F3EB5AB223E8340163E87CF093E59
:1074A00073B2FA3D2FBCE13D36BDC83D80B6AF3D5D
:1074B00004A9963D752B7B3D2EFB483D2BC3163D05
:1074C000B10AC93C920E493C00000000920E49BC32
:1074D000B10AC9BC2BC316BD2EFB48BD752B7BBDA5
:1074E00004A996BD80B6AFBD36BDC8BD2FBCE1BDF9
:1074F00073B2FABD87CF09BE834016BEB5AB22BEBC
:10750000A2102FBECF6E3BBEC2C547BE011554BEF2
:10751000135C60BE7F9A6CBECCCF78BEC07D82BE4D
:10752000938E88BE229A8EBE32A094BE86A09ABE4A
:10753000E59AA0BE128FA6BED47CACBEEF63B2BEED
:107540002A44B8BE491DBEBE15EFC3BE53B9C9BE5D
:10755000CA7BCFBE4136D5BE80E8DABE4F92E0BED0
:107560007533E6BEBBCBEBBEEA5AF1BECBE0F6BE4E
:10757000275DFCBEE4E700BF3D9C03BF824B06BF16
:107580009BF508BF6B9A0BBFDA390EBFCDD310BF86
:107590002A6813BFD9F615BFC07F18BFC6021BBF2C
:1075A000D17F1DBFCBF61FBF996722BF25D224BF55
:1075B000563627BF159429BF4AEB2BBFDE3B2EBFA3
:1075C000BB8530BFC9C832BFF30435BF233A37BFCC
:1075D000426839BF3B8F3BBFF9AE3DBF67C73FBF76
:1075E00070D841BF01E243BF03E445BF65DE47BF3A
:1075F00012D149BFF8BB4BBF029F4DBF207A4FBF8E
:107600003D4D51BF491853BF31DB54BFE59556BFBF
:10761000534858BF6AF259BF1A945BBF532D5DBFE0
:1076200005BE5EBF214660BF97C561BF5A3C63BFC0
:1076300059AA64BF880F66BFD86B67BF3CBF68BFDD
:10764000A7096ABF0C4B6BBF5E836CBF93B26DBF63
:107650009ED86EBF73F56FBF080971BF521372BF1A
:10766000471473BFDD0B74BF0BFA74BFC6DE75BF62
:1076700007BA76BFC58B77BFF85378BF981279BF2A
:107680009DC779BF02737ABFBE147BBFCDAC7BBFF1
:10769000283B7CBFC9BF7CBFAC3A7DBFCCAB7DBFB4
:1076A00023137EBFB0707EBF6DC47EBF580E7FBFF8
:1076B0006D4E7FBFAB847FBF0FB17FBF97D37FBFBE
:1076C00043EC7FBF11FB7FBF000080BF11FB7FBF7A
:1076D00043EC7FBF97D37FBF0FB17FBFAB847FBF2A
:1076E0006D4E7FBF580E7FBF6DC47EBFB0707EBF32
:1076F00023137EBFCCAB7DBFAC3A7DBFC9BF7CBF7F
:10770000283B7CBFCDAC7BBFBE147BBF02737ABF6E
:107710009DC779BF981279BFF85378BFC58B77BFE3
:1077200007BA76BFC6DE75BF0BFA74BFDD0B74BF38
:10773000471473BF521372BF080971BF73F56FBF4F
:107740009ED86EBF93B26DBF5E836CBF0C4B6BBF98
:10775000A7096ABF3CBF68BFD86B67BF880F66BF09
:1077600059AA64BF5A3C63BF97C561BF214660BF39
:1077700005BE5EBF532D5DBF1A945BBF6AF259BF51
:10778000534858BFE59556BF31DB54BF491853BF26
:107790003D4D51BF207A4FBF029F4DBFF8BB4BBF3D
:1077A00012D149BF65DE47BF03E445BF01E243BFD5
:1077B00070D841BF67C73FBFF9AE3DBF3B8F3BBFEE
:1077C000426839BF233A37BFF30435BFC9C832BF57
:1077D000BB8530BFDE3B2EBF4AEB2BBF159429BFC4
:1077E000563627BF25D224BF996722BFCBF61FBFCD
:1077F000D17F1DBFC6021BBFC07F18BFD9F615BF02
:107800002A6813BFCDD310BFDA390EBF6B9A0BBFF6
:107810009BF508BF824B06BF3D9C03BFE4E700BF5A
:10782000275DFCBECBE0F6BEEA5AF1BEBBCBEBBE99
:107830007533E6BE4F92E0BE80E8DABE4136D5BE73
:10784000CA7BCFBE53B9C9BE15EFC3BE491DBEBE6C
:107850002A44B8BEEF63B2BED47CACBE128FA6BEC3
:10786000E59AA0BE86A09ABE32A094BE229A8EBE91
:10787000938E88BEC07D82BECCCF78BE7F9A6CBE10
:10788000135C60BE011554BEC2C547BECF6E3BBE81
:10789000A2102FBEB5AB22BE834016BE87CF09BE55
:1078A00073B2FABD2FBCE1BD36BDC8BD80B6AFBD59
:1078B00004A996BD752B7BBD2EFB48BD2BC316BD01
:1078C000B10AC9BC920E49BC00000080EC780008E7
:1078D000000000205C000000BC450008487900085A
:1078E0005C000020B4050000CC450008000000004A
:1078F0000000000000000000000000000000000088
:107900000000000000140140001001400008014088
:1079100004000000001000000080000000000000D3
:107920000000000000000000000000000000000057
:107930000000000000000000000E2707000000000B
:0879400000000000000000003F
:04000005080041317D
:00000001FF
