:020000040800F2
:1040000080080020D14100082546000891420008A0
:10401000214600088B4200080D4700080000000000
:1040200000000000000000000000000053460008EF
:104030008F42000800000000514600085546000865
:10404000EB410008EB410008EB410008EB410008A0
:10405000EB410008EB410008EB410008EB41000890
:10406000EB410008EB410008EB410008EB41000880
:10407000EB410008EB410008EB410008EB41000870
:10408000EB410008EB410008EB410008EB41000860
:10409000EB410008EB410008EB410008EB41000850
:1040A000EB410008EB410008EB410008EB41000840
:1040B000EB410008EB410008EB410008EB41000830
:1040C000EB410008EB410008EB410008EB41000820
:1040D000EB410008EB410008EB410008EB41000810
:1040E000EB410008EB410008EB410008EB41000800
:1040F000EB410008EB410008EB410008EB410008F0
:10410000EB410008EB410008EB410008EB410008DF
:10411000EB410008EB410008EB410008EB410008CF
:10412000EB410008EB410008EB410008EB410008BF
:1041300000F002F800F03CF80AA090E8000C82447D
:104140008344AAF10107DA4501D100F031F8AFF25A
:10415000090EBAE80F0013F0010F18BFFB1A43F065
:10416000010318471C0801003C080100103A24BF55
:1041700078C878C1FAD8520724BF30C830C144BFCC
:1041800004680C607047000000230024002500260E
:10419000103A28BF78C1FBD8520728BF30C148BFAA
:1041A0000B6070471FB500F055FD1FBD10B510BD69
:1041B00000F031F81146FFF7F5FF00F0C3FB00F007
:1041C0004FF803B4FFF7F2FF03BC00F057F800000C
:1041D0000948804709480047FEE7FEE7FEE7FEE79B
:1041E000FEE7FEE7FEE7FEE7FEE7FEE704480549D7
:1041F000054A064B7047000065460008314100083B
:10420000800000208008002080040020800400201E
:10421000704770477047754600F02CF8AE460500B1
:104220006946534620F00700854618B020B5FFF7D1
:10423000DDFFBDE820404FF000064FF000074FF0D3
:1042400000084FF0000B21F00701AC46ACE8C009B4
:10425000ACE8C009ACE8C009ACE8C0098D467047BD
:1042600010B50446AFF300802046BDE81040FFF7CC
:10427000A8BF000000487047200000200149182016
:10428000ABBEFEE726000200704700BFFEE77047A6
:1042900000BFFEE72DE9F04104460D4616461F46D5
:1042A0002A2000F097F904F1280188B200F083F980
:1042B00006F1280188B200F07EF92B2000F08AF97F
:1042C00005F1350188B200F076F907F1350188B2C1
:1042D00000F071F92C2000F07DF9BDE8F0812DE9A6
:1042E000F04706460F4614461D46DDF820A0681E1E
:1042F00083B2601E82B239463046FFF7CBFFB84624
:104300000EE0B14606E0504600F055F909F1010013
:104310001FFA80F9A145F6DB08F101001FFA80F8C9
:10432000A845EEDBBDE8F08710B540F2046000F070
:1043300033FB40F2036000F02FFB4FF400530322E5
:104340001021164800F0E9F901225103134800F04A
:10435000DFF94FF4804303221021104800F0DDF90B
:10436000012291030D4800F0D3F94FF400430322DA
:1043700010210A4800F0D1F90122D103074800F0CA
:10438000C7F9022303221021044800F0C6F90122D4
:104390000221024800F0BCF910BD000000100140ED
:1043A00010B5FFF7C1FF00F007FB00224FF40041FA
:1043B000664800F0ADF9642000F006FC0122D1034C
:1043C000624800F0A5F9642000F0FEFB01225103D1
:1043D0005E4800F09DF9642000F0F6FB112000F02B
:1043E000F9F8782000F0F0FB362000F0F3F87020A8
:1043F00000F0EAF83A2000F0EDF8052000F0E4F8CB
:10440000B22000F0E7F80C2000F0DEF80C2000F0FD
:10441000DBF8002000F0D8F8332000F0D5F8332086
:1044200000F0D2F8B72000F0D5F8352000F0CCF835
:10443000BB2000F0CFF8192000F0C6F8C02000F033
:10444000C9F82C2000F0C0F8C22000F0C3F8012009
:1044500000F0BAF8C32000F0BDF8122000F0B4F864
:10446000C42000F0B7F8202000F0AEF8C62000F01D
:10447000B1F80F2000F0A8F8D02000F0ABF8A4208D
:1044800000F0A2F8A12000F09FF8E02000F0A2F8D0
:10449000D02000F099F8042000F096F80D2000F0EC
:1044A00093F8112000F090F8132000F08DF82B20E5
:1044B00000F08AF83F2000F087F8542000F084F8DC
:1044C0004C2000F081F8182000F07EF80D2000F05C
:1044D0007BF80B2000F078F81F2000F075F82320FF
:1044E00000F072F8E12000F075F8D02000F06CF8D0
:1044F000042000F069F80C2000F066F8112000F0AC
:1045000063F8132000F060F82C2000F05DF83F20E5
:1045100000F05AF8442000F057F8512000F054F809
:104520002F2000F051F81F2000F04EF81F2000F05F
:104530004BF8202000F048F8232000F045F8212017
:1045400000F048F8292000F045F810BD00100140A7
:104550002DE9F05F0746884615461E46DDF828908F
:10456000002408EB0600401E83B27819401E82B278
:1045700041463846FFF78EFEA24618E04FF0000B8A
:104580000FE019F8140000F01FF8012101EB4401BD
:1045900019F8010000F018F8641C0BF101001FFA73
:1045A00080FBB345EDDB0AF101001FFA80FAAA4552
:1045B000E4DBBDE8F09F10B50446201200F01EF8C1
:1045C000E0B200F01BF810BD10B50446204600F024
:1045D00015F810BD10B5044600224FF4804106487E
:1045E00000F096F8204600F009F8012291030248F5
:1045F00000F08EF810BD00000010014010B5044618
:1046000000220221054800F083F8204600F006FA57
:1046100001220221014800F07BF810BD001001408A
:1046200000BFFEE77047000010B5002807DA0A0750
:10463000140E054A00F00F031B1FD45403E00A07B1
:10464000130E024A135410BD18ED00E000E400E020
:104650007047704702480068401C01490860704775
:104660000000002008B52648006840F47000244986
:1046700008602448006840F001002249086000BF3B
:104680002048006800F002000028F9D000BF1D4853
:10469000406840F080001B4948600020009002E024
:1046A0000098401C009000985028F9D315484068A5
:1046B00040F09000134948600020009002E000980C
:1046C000401C009000985028F9D300BF0D48406866
:1046D00020F003000B494860084600680A4908407A
:1046E000084908604FF41F0088600846006820F4FD
:1046F0008020086000204860C86200F061FA08BDB0
:1047000088ED00E000100240FFFFF6FE00BFFEE76C
:104710000AB1016100E041617047F0B504461646F8
:104720000025002201F00F0501F0100747B1042E0B
:1047300005D145F00305E76B1F43E76300E0354310
:1047400000201EE0012787401F40C7B122684FEAC2
:10475000800C0F2707FA0CF7BA43870005FA07F712
:104760003A43282904D1012787401F40676105E0AB
:10477000482903D1012787401F4027612260471C39
:10478000B8B20828DED3082022E0012787401F4066
:10479000E7B16268A0F108074FEA870C0F2707FA14
:1047A0000CF7BA43A0F10807BF0005FA07F73A4330
:1047B000282904D1012787401F40676105E0482967
:1047C00003D1012787401F4027616260471CB8B2B0
:1047D0001028DAD3F0BD0246D068084008B10120A5
:1047E00070470020FCE70000F0B50A4600230024D3
:1047F0000021002500F00046B6F1004F02D11D4E09
:10480000F16901E01B4E7168C0F3034583B200F407
:104810004016B6F5401F08D121F0E061154E7668CC
:1048200026F0E066134F7E6012E000F48016B6F5C5
:10483000801F06D1032606FA05F4A14341F0E0618A
:1048400006E0460D360103FA06F6B14341F0E06199
:1048500022B1460D360103FA06F6314300F0004658
:10486000B6F1004F02D1034EF16101E0014E7160DB
:10487000F0BD00000000014010B540F2056000F0FE
:104880008BF840F2046000F087F840F2026000F01C
:1048900083F84FF4C06000F07FF801211848FFF75B
:1048A000A3FF18490B681849032208681021FFF775
:1048B00034FF14494B681449032248681021FFF75C
:1048C0002CFF10498B681049032288681021FFF7DC
:1048D00024FF0C4A11680C4A10680122FFF718FFE8
:1048E000084A5168084A50680122FFF711FF054A3B
:1048F0009168054A90680122FFF70AFF10BD000089
:1049000000023000100000200400002070B50446B2
:104910000A4A52F824100A4A52F82400FFF75BFFB3
:10492000C0F10100C5B2054A52F82410044A52F8F9
:1049300024002A46FFF7ECFE70BD000010000020A6
:104940000400002008B511481149086062B600F063
:1049500059F9FFF791FFFFF723FD4FF6FF7087230B
:10496000F022002100900846FFF7B9FC0948872390
:10497000F022002100900846FFF7EAFD05E0012043
:10498000FFF7C4FF642000F01FF9F8E700400008BB
:1049900008ED00E05E4C0008064A02EB9011096841
:1049A00000F01F0301229A401143024B03EB9012C7
:1049B000116070470010024000B587B040F20360FC
:1049C000FFF7EAFF40F20F70FFF7E6FF0121104802
:1049D000FFF70AFF2823032218210E48FFF79DFE48
:1049E000002001904FF4827000900020029005900A
:1049F0004FF400700390002006900490694606482A
:104A000000F03BF8044800F025F807B000BD0000B6
:104A100000023000000C0140003C004010B504468C
:104A200000BF02210A4800F020F80028F9D02146F2
:104A3000074800F018F800BF0121054800F015F8FC
:104A40000028F9D0024800F00AF8C0B210BD0000FA
:104A5000003C0040016841F04001016070470146A0
:104A6000C86880B27047C1607047024690680840CD
:104A700008B1012070470020FCE7024600201068C2
:104A800000F441500B6818434B6818438B68184377
:104A9000CB6818430B6918434B6918438B6918435B
:104AA0001060D36923F40063D361704700200021B4
:104AB0003F4A126842F480323D4B1A6000BF401CEE
:104AC0003B4A126802F4003119B94FF6FF72904266
:104AD000F5D1374A126802F400320AB900BFFEE786
:104AE000334AD26942F08052314BDA61314A12685E
:104AF00042F440422F4B1A602D4A52682C4B5A60A8
:104B00001A4652685A601A46526842F480625A60E5
:104B10001A46526822F440325A601A46526842F4E9
:104B200040325A601A465268234B1A40204B5A6052
:104B30001A465268214B1A431D4B5A601A46126896
:104B400042F080721A6000BF194A126802F00072C7
:104B5000002AF9D0174A126842F48032154B1A60C5
:104B600000BF144A526802F48032002AF9D0114A78
:104B7000126842F400320F4B1A6000BF0D4A5268AF
:104B800002F40032002AF9D0094A526822F00302E6
:104B9000074B5A601A46526842F002025A6000BF40
:104BA000034A526802F00802002AF9D07047000058
:104BB0000010024000700040FFFFC3B7000034083F
:104BC00010B5FFF773FF10BD10B5034600F014F8E1
:104BD000014600F011F80246002400BF00F00CF876
:104BE00002468A4201D3501A02E0C1F1FF3010445C
:104BF00004469C42F2D310BD014800687047000093
:104C00000000002010B5124800684FF47A71B0FB24
:104C1000F1F4601EB0F1807F01D301200FE0601E2F
:104C20004FF0E02148610F214FF0FF30FFF7FCFC0F
:104C300000204FF0E021886107200861002008B1C2
:104C400000BFFEE70021481EFFF7EEFC10BD00008C
:104C50001C0000204FF04070E1EE100A7047FFFF8B
:104C6000FFFFFFFFFFFFFFFFFFFFFFFFFFFFFFFF54
:104C7000FFFFFFFFFFFFFFFFFFFFFFFFFFFFFFFF44
:104C8000FFFFFFFFFFFFFFFFFFFFFFFFFFFFFFFF34
:104C9000FFFFFFFFFFFFFFFFFFFFFFFFFFFFFFFF24
:1061E000FFFFFFFFFFFFFFFFFFDFF79EF7BEFFFF91
:1061F000FFFFFFFFFFFFFFFFFFFFFFFFFFFFFFFFAF
:10620000FFFFFFFFFFFFFFFFFFFFFFFFFFFFFFFF9E
:10621000FFFFFFFFFFFFFFFFFFFFFFFFFFFFFFFF8E
:10622000FFFFFFFFFFFFFFFFFFFFFFFFFFFFFFFF7E
:10623000FFFFFFFFFFFFFFFFFFFFFFFFFFFFFFFF6E
:10624000FFFFFFFFFFFFFFFFFFFFFFFFFFFFFFFF5E
:10625000FFFFFFFFFFFFFFFFFFFFFFFFFFFFFFFF4E
:10626000FFFFFFFFFFFFFFFFFFFFFFFFFFFFFFFF3E
:10627000FFFFFFFFFFFFFFFFFFFFFFFFFFFFFFFF2E
:10628000FFFFFFFFFFFFFFFFFFFFFFFFFFFFFFFF1E
:10629000FFFFFFFFFFFFFFFFFFFFFFFFFFFFFFFF0E
:1062A000FFFFFFFFFFFFFFFFFFFFFFFFFFFFFFFFFE
:1062B000FFFFFFFFFFFFFFFFFFFFFFFFFFFFFFFFEE
:1062C000FFFFFFFFFFFFFFFFFFFFFFFFFFFFFFFFDE
:1062D000FFFFFFFFFFFFFFFFFFFFFFFFFFFFFFFFCE
:1062E000FFFFFFFFFFFFFFFFFFFFFFFFFFFFFFFFBE
:1062F000FFFFFFFFFFFFFFFFFFFFFFFFFFFFFFFFAE
:10630000FFFFFFFFFFFFFFFFFFFFFFFFFFFFFFFF9D
:10631000FFFFFFFFFFFFFFFFFFFFFFFFFFFFFFFF8D
:10632000FFFFFFFFFFFFFFFFFFFFFFFFFFFFFFFF7D
:10633000FFFFFFFFFFFFFFFFFFFFFFFFFFFFFFFF6D
:10634000FFFFFFFFFFFFFFFFFFFFFFFFFFFFFFFF5D
:10635000FFFFFFFFFFFFFFFFFFFFFFFFFFFFFFFF4D
:10636000FFFFFFFFFFFFFFFFFFFFFFFFFFFFFFFF3D
:10637000FFFFFFFFFFFFFFFFFFFFFFFFFFFFFFFF2D
:10638000FFFFFFFFFFFFFFFFFFFFFFFFFFFFFFFF1D
:10639000FFFFFFFFFFFFFFFFFFFFFFFFFFFFFFFF0D
:1063A000FFFFFFFFFFFFFFFFFFFFFFFFFFFFFFFFFD
:1063B000FFFFFFFFFFFFFFFFFFFFFFFFFFFFF79E56
:1063C000E71CDEDBBDF7A5349492630CA514FFFF38
:1063D000FFFFFFFFFFFFFFFFFFFFFFFFFFFFFFFFCD
:1063E000FFFFFFFFFFFFFFFFFFFFFFFFFFFFFFFFBD
:1063F000FFFFFFFFFFFFFFFFFFFFFFFFFFFFFFFFAD
:10640000FFFFFFFFFFFFFFFFFFFFFFFFFFFFFFFF9C
:10641000FFFFFFFFFFFFFFFFFFFFFFFFFFFFFFFF8C
:10642000FFFFFFFFFFFFFFFFFFFFFFFFFFFFFFFF7C
:10643000FFFFFFFFFFFFFFFFFFFFFFFFFFFFFFFF6C
:10644000FFFFFFFFFFFFFFFFFFFFFFFFFFFFFFFF5C
:10645000FFFFFFFFFFFFFFFFFFFFFFFFFFFFFFFF4C
:10646000FFFFFFFFFFFFFFFFFFFFFFFFFFFFFFFF3C
:10647000FFFFFFFFFFFFFFFFFFFFFFFFFFFFFFFF2C
:10648000FFFFFFFFFFFFFFFFFFFFFFFFFFFFFFFF1C
:10649000FFFFFFFFFFFFFFFFFFFFFFFFFFFFFFFF0C
:1064A000FFFFFFFFFFFFFFFFFFFFFFFFFFFFFFFFFC
:1064B000FFFFFFFFFFFFFFFFFFFFFFFFFFFFFFFFEC
:1064C000FFFFFFFFFFFFFFFFFFFFFFFFFFFFFFFFDC
:1064D000FFFFFFFFFFFFFFFFFFFFFFFFFFFFFFFFCC
:1064E000FFFFFFFFFFFFFFFFFFFFFFFFFFFFFFFFBC
:1064F000FFFFFFFFFFFFFFFFFFFFFFFFFFFFFFFFAC
:10650000FFFFFFFFFFFFFFFFFFFFFFFFFFFFFFFF9B
:10651000FFFFFFFFFFFFFFFFFFFFFFFFFFFFFFFF8B
:10652000FFFFFFFFFFFFFFFFFFFFFFFFFFFFFFFF7B
:10653000FFFFFFFFFFFFFFFFFFFFFFFFFFFFFFFF6B
:10654000FFFFFFFFFFFFFFFFFFFFFFFFFFFFFFFF5B
:10655000FFFFFFFFFFFFFFFFFFFFFFFFFFFFFFFF4B
:10656000FFFFFFFFFFFFFFFFFFFFFFFFFFFFFFFF3B
:10657000FFFFFFFFFFFFFFFFFFFFFFFFFFFFFFFF2B
:10658000FFFFFFFFFFFFFFFFFFFFFFFFFFFFFFFF1B
:10659000FFFFFFFFFFFFFFDFDEFBC638A5147BEF29
:1065A000632C5ACB4A69528A4A494A69DEFBFFFF8B
:1065B000FFFFFFFFFFFFFFFFFFFFFFFFFFFFFFFFEB
:1065C000FFFFFFFFFFFFFFFFFFFFFFFFFFFFFFFFDB
:1065D000FFFFFFFFFFFFFFFFFFFFFFFFFFFFFFFFCB
:1065E000FFFFFFFFFFFFFFFFFFFFFFFFFFFFFFFFBB
:1065F000FFFFFFFFFFFFFFFFFFFFFFFFFFFFFFFFAB
:10660000FFFFFFFFFFFFFFFFFFFFFFFFFFFFFFFF9A
:10661000FFFFFFFFFFFFFFFFFFFFFFFFFFFFFFFF8A
:10662000FFFFFFFFFFFFFFFFFFFFFFFFFFFFFFFF7A
:10663000FFFFFFFFFFFFFFFFFFFFFFFFFFFFFFFF6A
:10664000FFFFFFFFFFFFFFFFFFFFFFFFFFFFFFFF5A
:10665000FFFFFFFFFFFFFFFFFFFFFFFFFFFFFFFF4A
:10666000FFFFFFFFFFFFFFFFFFFFFFFFFFFFFFFF3A
:10667000FFFFFFFFFFFFFFFFFFFFFFFFFFFFFFFF2A
:10668000FFFFFFFFFFFFFFFFFFFFFFFFFFFFFFFF1A
:10669000FFFFFFFFFFFFFFFFFFFFFFFFFFFFFFFF0A
:1066A000FFFFFFFFFFFFFFFFFFFFFFFFFFFFFFFFFA
:1066B000FFFFFFFFFFFFFFFFFFFFFFFFFFFFFFFFEA
:1066C000FFFFFFFFFFFFFFFFFFFFFFFFFFFFFFFFDA
:1066D000FFFFFFFFFFFFFFFFFFFFFFFFFFFFFFFFCA
:1066E000FFFFFFFFFFFFFFFFFFFFFFFFFFFFFFFFBA
:1066F000FFFFFFFFFFFFFFFFFFFFFFFFFFFFFFFFAA
:10670000FFFFFFFFFFFFFFFFFFFFFFFFFFFFFFFF99
:10671000FFFFFFFFFFFFFFFFFFFFFFFFFFFFFFFF89
:10672000FFFFFFFFFFFFFFFFFFFFFFFFFFFFFFFF79
:10673000FFFFFFFFFFFFFFFFFFFFFFFFFFFFFFFF69
:10674000FFFFFFFFFFFFFFFFFFFFFFFFFFFFFFFF59
:10675000FFFFFFFFFFFFFFFFFFFFFFFFFFFFFFFF49
:10676000FFFFFFFFFFFFFFFFFFFFFFFFFFFFFFFF39
:10677000FFFFDEDBAD7584105AEB528A4A494A6945
:10678000528A52AA5AEB5AEB39E7A514FFFFFFFFD2
:10679000FFFFFFFFFFFFFFFFFFFFFFFFFFFFFFFF09
:1067A000FFFFFFFFFFFFFFFFFFFFFFFFFFFFFFFFF9
:1067B000FFFFFFFFFFFFFFFFFFFFFFFFFFFFFFFFE9
:1067C000FFFFFFFFFFFFFFFFFFFFFFFFFFFFFFFFD9
:1067D000FFFFFFFFFFFFFFFFFFFFFFFFFFFFFFFFC9
:1067E000FFFFFFFFFFFFFFFFFFFFFFFFFFFFFFFFB9
:1067F000FFFFFFFFFFFFFFFFFFFFFFFFFFFFFFFFA9
:10680000FFFFFFFFFFFFFFFFFFFFFFFFFFFFFFFF98
:10681000FFFFFFFFFFFFFFFFFFFFFFFFFFFFFFFF88
:10682000FFFFFFFFFFFFFFFFFFFFFFFFFFFFFFFF78
:10683000FFFFFFFFFFFFFFFFFFFFFFFFFFFFFFFF68
:10684000FFFFFFFFFFFFFFFFFFFFFFFFFFFFFFFF58
:10685000FFFFFFFFFFFFFFFFFFFFFFFFFFFFFFFF48
:10686000FFFFFFFFFFFFFFFFFFFFFFFFFFFFFFFF38
:10687000FFFFFFFFFFFFFFFFFFFFFFFFFFFFFFFF28
:10688000FFFFFFFFFFFFFFFFFFFFFFFFFFFFFFFF18
:10689000FFFFFFFFFFFFFFFFFFFFFFFFFFFFFFFF08
:1068A000FFFFFFFFFFFFFFFFFFFFFFFFFFFFFFFFF8
:1068B000FFFFFFFFFFFFFFFFFFFFFFFFFFFFFFFFE8
:1068C000FFFFFFFFFFFFFFFFFFFFFFFFFFFFFFFFD8
:1068D000FFFFFFFFFFFFFFFFFFFFFFFFFFFFFFFFC8
:1068E000FFFFFFFFFFFFFFFFFFFFFFFFFFFFFFFFB8
:1068F000FFFFFFFFFFFFFFFFFFFFFFFFFFFFFFFFA8
:10690000FFFFFFFFFFFFFFFFFFFFFFFFFFFFFFFF97
:10691000FFFFFFFFFFFFFFFFFFFFFFFFFFFFFFFF87
:10692000FFFFFFFFFFFFFFFFFFFFFFFFFFFFFFFF77
:10693000FFFFFFFFFFFFFFFFFFFFFFFFFFFFFFFF67
:10694000FFFFFFFFFFFFFFFFFFFFFFFFF7BEB59653
:106950007BCF528A4A4952AA5ACB52AA5ACB5ACB17
:106960005ACB5ACB5AEB4A694A49FFFFFFFFFFFF58
:10697000FFFFFFFFFFFFFFFFFFFFFFFFFFFFFFFF27
:10698000FFFFFFFFFFFFFFFFFFFFFFFFFFFFFFFF17
:10699000FFFFFFFFFFFFFFFFFFFFFFFFFFFFFFFF07
:1069A000FFFFFFFFFFFFFFFFFFFFFFFFFFFFFFFFF7
:1069B000FFFFFFFFFFFFFFFFFFFFFFFFFFFFFFFFE7
:1069C000FFFFFFFFFFFFFFFFFFFFFFFFFFFFFFFFD7
:1069D000FFFFFFFFFFFFFFFFFFFFFFFFFFFFFFFFC7
:1069E000FFFFFFFFFFFFFFFFFFFFFFFFFFFFFFFFB7
:1069F000FFFFFFFFFFFFFFFFFFFFFFFFFFFFFFFFA7
:106A0000FFFFFFFFFFFFFFFFFFFFFFFFFFFFFFFF96
:106A1000FFFFFFFFFFFFFFFFFFFFFFFFFFFFFFFF86
:106A2000FFFFFFFFFFFFFFFFFFFFFFFFFFFFFFFF76
:106A3000FFFFFFFFFFFFFFFFFFFFFFFFFFFFFFFF66
:106A4000FFFFFFFFFFFFFFFFFFFFFFFFFFFFFFFF56
:106A5000FFFFFFFFFFFFFFFFFFFFFFFFFFFFFFFF46
:106A6000FFFFFFFFFFFFFFFFFFFFFFFFFFFFFFFF36
:106A7000FFFFFFFFFFFFFFFFFFFFFFFFFFFFFFFF26
:106A8000FFFFFFFFFFFFFFFFFFFFFFFFFFFFFFFF16
:106A9000FFFFFFFFFFFFFFFFFFFFFFFFFFFFFFFF06
:106AA000FFFFFFFFFFFFFFFFFFFFFFFFFFFFFFFFF6
:106AB000FFFFFFFFFFFFFFFFFFFFFFFFFFFFFFFFE6
:106AC000FFFFFFFFFFFFFFFFFFFFFFFFFFFFFFFFD6
:106AD000FFFFFFFFFFFFFFFFFFFFFFFFFFFFFFFFC6
:106AE000FFFFFFFFFFFFFFFFFFFFFFFFFFFFFFFFB6
:106AF000FFFFFFFFFFFFFFFFFFFFFFFFFFFFFFFFA6
:106B0000FFFFFFFFFFFFFFFFFFFFFFFFFFFFFFFF95
:106B1000FFFFFFFFFFFFFFFFFFFFFFFFFFFFFFFF85
:106B2000FFFFFFFFFFFFFFFFD69A7BEF422839E709
:106B30004A4952AA5ACB5ACB5ACB5ACB5ACB5ACBE8
:106B40005ACB5ACB5ACB4228BDF7FFFFFFFFFFFFBE
:106B5000FFFFFFFFFFFFFFFFFFFFFFFFFFFFFFFF45
:106B6000FFFFFFFFFFFFFFFFFFFFFFFFFFFFFFFF35
:106B7000FFFFFFFFFFFFFFFFFFFFFFFFFFFFFFFF25
:106B8000FFFFFFFFFFFFFFFFFFFFFFFFFFFFFFFF15
:106B9000FFFFFFFFFFFFFFFFFFFFFFFFFFFFFFFF05
:106BA000FFFFFFFFFFFFFFFFFFFFFFFFFFFFFFFFF5
:106BB000FFFFFFFFFFFFFFFFFFFFFFFFFFFFFFFFE5
:106BC000FFFFFFFFFFFFFFFFFFFFFFFFFFFFFFFFD5
:106BD000FFFFFFFFFFFFFFFFFFFFFFFFFFFFFFFFC5
:106BE000FFFFFFFFFFFFFFFFFFFFFFFFFFFFFFFFB5
:106BF000FFFFFFFFFFFFFFFFFFFFFFFFFFFFFFFFA5
:106C0000FFFFFFFFFFFFFFFFFFFFFFFFFFFFFFFF94
:106C1000FFFFFFFFFFFFFFFFFFFFFFFFFFFFFFFF84
:106C2000FFFFFFFFFFFFFFFFFFFFFFFFFFFFFFFF74
:106C3000FFFFFFFFFFFFFFFFFFFFFFFFFFFFFFFF64
:106C4000FFFFFFFFFFFFFFFFFFFFFFFFFFFFFFFF54
:106C5000FFFFFFFFFFFFFFFFFFFFFFFFFFFFFFFF44
:106C6000FFFFFFFFFFFFFFFFFFFFFFFFFFFFFFFF34
:106C7000FFFFFFFFFFFFFFFFFFFFFFFFFFFFFFFF24
:106C8000FFFFFFFFFFFFFFFFFFFFFFFFFFFFFFFF14
:106C9000FFFFFFFFFFFFFFFFFFFFFFFFFFFFFFFF04
:106CA000FFFFFFFFFFFFFFFFFFFFFFFFFFFFFFFFF4
:106CB000FFFFFFFFFFFFFFFFFFFFFFFFFFFFFFFFE4
:106CC000FFFFFFFFFFFFFFFFFFFFFFFFFFFFFFFFD4
:106CD000FFFFFFFFFFFFFFFFFFFFFFFFFFFFFFFFC4
:106CE000FFFFFFFFFFFFFFFFFFFFFFFFFFFFFFFFB4
:106CF000FFFFFFFFFFFFFFFFFFFFFFFFFFFFFFFFA4
:106D0000FFDFE71CB5966B4D422842285AEB5ACB61
:106D10005ACB5ACB5ACB5ACB5ACB5ACB5ACB5ACB4B
:106D20005ACB5ACB4A498410FFFFFFFFFFFFFFFFFA
:106D3000FFFFFFFFFFFFFFFFFFFFFFFFFFFFFFFF63
:106D4000FFFFFFFFFFFFFFFFFFFFFFFFFFFFFFFF53
:106D5000FFFFFFFFFFFFFFFFFFFFFFFFFFFFFFFF43
:106D6000FFFFFFFFFFFFFFFFFFFFFFFFFFFFFFFF33
:106D7000FFFFFFFFFFFFFFFFFFFFFFFFFFFFFFFF23
:106D8000FFFFFFFFFFFFFFFFFFFFFFFFFFFFFFFF13
:106D9000FFFFFFFFFFFFFFFFFFFFFFFFFFFFFFFF03
:106DA000FFFFFFFFFFFFFFFFFFFFFFFFFFFFFFFFF3
:106DB000FFFFFFFFFFFFFFFFFFFFFFFFFFFFFFFFE3
:106DC000FFFFFFFFFFFFFFFFFFFFFFFFFFFFFFFFD3
:106DD000FFFFFFFFFFFFFFFFFFFFFFFFFFFFFFFFC3
:106DE000FFFFFFFFFFFFFFFFFFFFFFFFFFFFFFFFB3
:106DF000FFFFFFFFFFFFFFFFFFFFFFFFFFFFFFFFA3
:106E0000FFFFFFFFFFFFFFFFFFFFFFFFFFFFFFFF92
:106E1000FFFFFFFFFFFFFFFFFFFFFFFFFFFFFFFF82
:106E2000FFFFFFFFFFFFFFFFFFFFFFFFFFFFFFFF72
:106E3000FFFFFFFFFFFFFFFFFFFFFFFFFFFFFFFF62
:106E4000FFFFFFFFFFFFFFFFFFFFFFFFFFFFFFFF52
:106E5000FFFFFFFFFFFFFFFFFFFFFFFFFFFFFFFF42
:106E6000FFFFFFFFFFFFFFFFFFFFFFFFFFFFFFFF32
:106E7000FFFFFFFFFFFFFFFFFFFFFFFFFFFFFFFF22
:106E8000FFFFFFFFFFFFFFFFFFFFFFFFFFFFFFFF12
:106E9000FFFFFFFFFFFFFFFFFFFFFFFFFFFFFFFF02
:106EA000FFFFFFFFFFFFFFFFFFFFFFFFFFFFFFFFF2
:106EB000FFFFFFFFFFFFFFFFFFFFFFFFFFFFFFFFE2
:106EC000FFFFFFFFFFFFFFFFFFFFFFFFFFFFFFFFD2
:106ED000FFFFFFFFFFFFFFFFFFFFFFFFFFDFD69A70
:106EE0008C715ACB4228528A5ACB5ACB5AEB5ACB86
:106EF0005ACB5ACB5ACB5ACB5ACB5ACB5ACB5ACB6A
:106F00005AEB52AA5AEBDEDBFFFFFFFFFFFFFFFF4A
:106F1000FFFFFFFFFFFFFFFFFFFFFFFFFFFFFFFF81
:106F2000FFFFFFFFFFFFFFFFFFFFFFFFFFFFFFFF71
:106F3000FFFFFFFFFFFFFFFFFFFFFFFFFFFFFFFF61
:106F4000FFFFFFFFFFFFFFFFFFFFFFFFFFFFFFFF51
:106F5000FFFFFFFFFFFFFFFFFFFFFFFFFFFFFFFF41
:106F6000FFFFFFFFFFFFFFFFFFFFFFFFFFFFFFFF31
:106F7000FFFFFFFFFFFFFFFFFFFFFFFFFFFFFFFF21
:106F8000FFFFFFFFFFFFFFFFFFFFFFFFFFFFFFFF11
:106F9000FFFFFFFFFFFFFFFFFFFFFFFFFFFFFFFF01
:106FA000FFFFFFFFFFFFFFFFFFFFFFFFFFFFFFFFF1
:106FB000FFFFFFFFFFFFFFFFFFFFFFFFFFFFFFFFE1
:106FC000FFFFFFFFFFFFFFFFFFFFFFFFFFFFFFFFD1
:106FD000FFFFFFFFFFFFFFFFFFFFFFFFFFFFFFFFC1
:106FE000FFFFFFFFFFFFFFFFFFFFFFFFFFFFFFFFB1
:106FF000FFFFFFFFFFFFFFFFFFFFFFFFFFFFFFFFA1
:10700000FFFFFFFFFFFFFFFFFFFFFFFFFFFFFFFF90
:10701000FFFFFFFFFFFFFFFFFFFFFFFFFFFFFFFF80
:10702000FFFFFFFFFFFFFFFFFFFFFFFFFFFFFFFF70
:10703000FFFFFFFFFFFFFFFFFFFFFFFFFFFFFFFF60
:10704000FFFFFFFFFFFFFFFFFFFFFFFFFFFFFFFF50
:10705000FFFFFFFFFFFFFFFFFFFFFFFFFFFFFFFF40
:10706000FFFFFFFFFFFFFFFFFFFFFFFFFFFFFFFF30
:10707000FFFFFFFFFFFFFFFFFFFFFFFFFFFFFFFF20
:10708000FFFFFFFFFFFFFFFFFFFFFFFFFFFFFFFF10
:10709000FFFFFFFFFFFFFFFFFFFFFFFFFFFFFFFF00
:1070A000FFFFFFFFFFFFFFFFFFFFFFFFFFFFFFFFF0
:1070B000FFFFFFFFFFFFFFFFFFFFCE598C5152AADA
:1070C0004A49528A5ACB5AEB5ACB5ACB5ACB5AEB33
:1070D0005ACB5ACB5ACB5ACB5ACB5ACB5ACB5ACB88
:1070E00052AA4A49B596FFFFFFFFFFFFFFFFFFFFD0
:1070F000FFFFFFFFFFFFFFFFFFFFFFFFFFFFFFFFA0
:10710000FFFFFFFFFFFFFFFFFFFFFFFFFFFFFFFF8F
:10711000FFFFFFFFFFFFFFFFFFFFFFFFFFFFFFFF7F
:10712000FFFFFFFFFFFFFFFFFFFFFFFFFFFFFFFF6F
:10713000FFFFFFFFFFFFFFFFFFFFFFFFFFFFFFFF5F
:10714000FFFFFFFFFFFFFFFFFFFFFFFFFFFFFFFF4F
:10715000FFFFFFFFFFFFFFFFFFFFFFFFFFFFFFFF3F
:10716000FFFFFFFFFFFFFFFFFFFFFFFFFFFFFFFF2F
:10717000FFFFFFFFFFFFFFFFFFFFFFFFFFFFFFFF1F
:10718000FFFFFFFFFFFFFFFFFFFFFFFFFFFFFFFF0F
:10719000FFFFFFFFFFFFFFFFFFFFFFFFFFFFFFFFFF
:1071A000FFFFFFFFFFFFFFFFFFFFFFFFFFFFFFFFEF
:1071B000FFFFFFFFFFFFFFFFFFFFFFFFFFFFFFFFDF
:1071C000FFFFFFFFFFFFFFFFFFFFFFFFFFFFFFFFCF
:1071D000FFFFFFFFFFFFFFFFFFFFFFFFFFFFFFFFBF
:1071E000FFFFFFFFFFFFFFFFFFFFFFFFFFFFFFFFAF
:1071F000FFFFFFFFFFFFFFFFFFFFFFFFFFFFFFFF9F
:10720000FFFFFFFFFFFFFFFFFFFFFFFFFFFFFFFF8E
:10721000FFFFFFFFFFFFFFFFFFFFFFFFFFFFFFFF7E
:10722000FFFFFFFFFFFFFFFFFFFFFFFFFFFFFFFF6E
:10723000FFFFFFFFFFFFFFFFFFFFFFFFFFFFFFFF5E
:10724000FFFFFFFFFFFFFFFFFFFFFFFFFFFFFFFF4E
:10725000FFFFFFFFFFFFFFFFFFFFFFFFFFFFFFFF3E
:10726000FFFFFFFFFFFFFFFFFFFFFFFFFFFFFFFF2E
:10727000FFFFFFFFFFFFFFFFFFFFFFFFFFFFFFFF1E
:10728000FFFFFFFFFFFFFFFFFFFFFFFFFFFFFFFF0E
:10729000FFFFFFFFFFFFC63873AE528A528A528A41
:1072A0005ACB5ACB5ACB5ACB5ACB5ACB5ACB5ACBB6
:1072B0005ACB5ACB5ACB5ACB5ACB5ACB5ACB630C5C
:1072C00042288C71FFFFFFFFFFFFFFFFFFFFFFFF63
:1072D000FFFFFFFFFFFFFFFFFFFFFFFFFFFFFFFFBE
:1072E000FFFFFFFFFFFFFFFFFFFFFFFFFFFFFFFFAE
:1072F000FFFFFFFFFFFFFFFFFFFFFFFFFFFFFFFF9E
:10730000FFFFFFFFFFFFFFFFFFFFFFFFFFFFFFFF8D
:10731000FFFFFFFFFFFFFFFFFFFFFFFFFFFFFFFF7D
:10732000FFFFFFFFFFFFFFFFFFFFFFFFFFFFFFFF6D
:10733000FFFFFFFFFFFFFFFFFFFFFFFFFFFFFFFF5D
:10734000FFFFFFFFFFFFFFFFFFFFFFFFFFFFFFFF4D
:10735000FFFFFFFFFFFFFFFFFFFFFFFFFFFFFFFF3D
:10736000FFFFFFFFFFFFFFFFFFFFFFFFFFFFFFFF2D
:10737000FFFFFFFFFFFFFFFFFFFFFFFFFFFFFFFF1D
:10738000FFFFFFFFFFFFFFFFFFFFFFFFFFFFFFFF0D
:10739000FFFFFFFFFFFFFFFFFFFFFFFFFFFFFFFFFD
:1073A000FFFFFFFFFFFFFFFFFFFFFFFFFFFFFFFFED
:1073B000FFFFFFFFFFFFFFFFFFFFFFFFFFFFFFFFDD
:1073C000FFFFFFFFFFFFFFFFFFFFFFFFFFFFFFFFCD
:1073D000FFFFFFFFFFFFFFFFFFFFFFFFFFFFFFFFBD
:1073E000FFFFFFFFFFFFFFFFFFFFFFFFFFFFFFFFAD
:1073F000FFFFFFFFFFFFFFFFFFFFFFFFFFFFFFFF9D
:10740000FFFFFFFFFFFFFFFFFFFFFFFFFFFFFFFF8C
:10741000FFFFFFFFFFFFFFFFFFFFFFFFFFFFFFFF7C
:10742000FFFFFFFFFFFFFFFFFFFFFFFFFFFFFFFF6C
:10743000FFFFFFFFFFFFFFFFFFFFFFFFFFFFFFFF5C
:10744000FFFFFFFFFFFFFFFFFFFFFFFFFFFFFFFF4C
:10745000FFFFFFFFFFFFFFFFFFFFFFFFFFFFFFFF3C
:10746000FFFFFFFFFFFFFFFFFFFFFFFFFFFFFFFF2C
:10747000FFFFD6BA6B6D42084A4952AA630C632CCF
:107480005ACB5ACB5ACB5ACB5ACB5ACB5ACB5ACBD4
:107490005ACB5ACB5ACB5ACB5ACB5ACB632C422815
:1074A0006B4DFFFFFFFFFFFFFFFFFFFFFFFFFFFF32
:1074B000FFFFFFFFFFFFFFFFFFFFFFFFFFFFFFFFDC
:1074C000FFFFFFFFFFFFFFFFFFFFFFFFFFFFFFFFCC
:1074D000FFFFFFFFFFFFFFFFFFFFFFFFFFFFFFFFBC
:1074E000FFFFFFFFFFFFFFFFFFFFFFFFFFFFFFFFAC
:1074F000FFFFFFFFFFFFFFFFFFFFFFFFFFFFFFFF9C
:10750000FFFFFFFFFFFFFFFFFFFFFFFFFFFFFFFF8B
:10751000FFFFFFFFFFFFFFFFFFFFFFFFFFFFFFFF7B
:10752000FFFFFFFFFFFFFFFFFFFFFFFFFFFFFFFF6B
:10753000FFFFFFFFFFFFFFFFFFFFFFFFFFFFFFFF5B
:10754000FFFFFFFFFFFFFFFFFFFFFFFFFFFFFFFF4B
:10755000FFFFFFFFFFFFFFFFFFFFFFFFFFFFFFFF3B
:10756000FFFFFFFFFFFFFFFFFFFFFFFFFFFFFFFF2B
:10757000FFFFFFFFFFFFFFFFFFFFFFFFFFFFFFFF1B
:10758000FFFFFFFFFFFFFFFFFFFFFFFFFFFFFFFF0B
:10759000FFFFFFFFFFFFFFFFFFFFFFFFFFFFFFFFFB
:1075A000FFFFFFFFFFFFFFFFFFFFFFFFFFFFFFFFEB
:1075B000FFFFFFFFFFFFFFFFFFFFFFFFFFFFFFFFDB
:1075C000FFFFFFFFFFFFFFFFFFFFFFFFFFFFFFFFCB
:1075D000FFFFFFFFFFFFFFFFFFFFFFFFFFFFFFFFBB
:1075E000FFFFFFFFFFFFFFFFFFFFFFFFFFFFFFFFAB
:1075F000FFFFFFFFFFFFFFFFFFFFFFFFFFFFFFFF9B
:10760000FFFFFFFFFFFFFFFFFFFFFFFFFFFFFFFF8A
:10761000FFFFFFFFFFFFFFFFFFFFFFFFFFFFFFFF7A
:10762000FFFFFFFFFFFFFFFFFFFFFFFFFFFFFFFF6A
:10763000FFFFFFFFFFFFFFFFFFFFFFFFFFFFFFFF5A
:10764000FFFFFFFFFFFFFFFFFFFFFFFFFFDFD69AF8
:1076500073AE39E742285AEB5ACB5ACB5ACB5ACBA6
:107660005ACB5ACB5ACB5ACB5ACB5ACB5ACB5ACBF2
:107670005ACB5ACB5ACB5ACB630C5ACB4A4952AA53
:10768000EF7DFFFFFFFFFFFFFFFFFFFFFFFFFFFF9C
:10769000FFFFFFFFFFFFFFFFFFFFFFFFFFFFFFFFFA
:1076A000FFFFFFFFFFFFFFFFFFFFFFFFFFFFFFFFEA
:1076B000FFFFFFFFFFFFFFFFFFFFFFFFFFFFFFFFDA
:1076C000FFFFFFFFFFFFFFFFFFFFFFFFFFFFFFFFCA
:1076D000FFFFFFFFFFFFFFFFFFFFFFFFFFFFFFFFBA
:1076E000FFFFFFFFFFFFFFFFFFFFFFFFFFFFFFFFAA
:1076F000FFFFFFFFFFFFFFFFFFFFFFFFFFFFFFFF9A
:10770000FFFFFFFFFFFFFFFFFFFFFFFFFFFFFFFF89
:10771000FFFFFFFFFFFFFFFFFFFFFFFFFFFFFFFF79
:10772000FFFFFFFFFFFFFFFFFFFFFFFFFFFFFFFF69
:10773000FFFFFFFFFFFFFFFFFFFFFFFFFFFFFFFF59
:10774000FFFFFFFFFFFFFFFFFFFFFFFFFFFFFFFF49
:10775000FFFFFFFFFFFFFFFFFFFFFFFFFFFFFFFF39
:10776000FFFFFFFFFFFFFFFFFFFFFFFFFFFFFFFF29
:10777000FFFFFFFFFFFFFFFFFFFFFFFFFFFFFFFF19
:10778000FFFFFFFFFFFFFFFFFFFFFFFFFFFFFFFF09
:10779000FFFFFFFFFFFFFFFFFFFFFFFFFFFFFFFFF9
:1077A000FFFFFFFFFFFFFFFFFFFFFFFFFFFFFFFFE9
:1077B000FFFFFFFFFFFFFFFFFFFFFFFFFFFFFFFFD9
:1077C000FFFFFFFFFFFFFFFFFFFFFFFFFFFFFFFFC9
:1077D000FFFFFFFFFFFFFFFFFFFFFFFFFFFFFFFFB9
:1077E000FFFFFFFFFFFFFFFFFFFFFFFFFFFFFFFFA9
:1077F000FFFFFFFFFFFFFFFFFFFFFFFFFFFFFFFF99
:10780000FFFFFFFFFFFFFFFFFFFFFFFFFFFFFFFF88
:10781000FFFFFFFFFFFFFFFFFFFFFFFFFFFFFFFF78
:10782000FFFFFFFFFFFFFFFFFFFFD69A8C514A6962
:1078300042285ACB5ACB5ACB5ACB5ACB5ACB630C91
:107840005ACB5ACB5ACB5ACB5ACB5ACB5ACB5ACB10
:107850005ACB5ACB5AEB5ACB5AEB4A69528AD69A30
:10786000FFFFFFFFFFFFFFFFFFFFFFFFFFFFFFFF28
:10787000FFFFFFFFFFFFFFFFFFFFFFFFFFFFFFFF18
:10788000FFFFFFFFFFFFFFFFFFFFFFFFFFFFFFFF08
:10789000FFFFFFFFFFFFFFFFFFFFFFFFFFFFFFFFF8
:1078A000FFFFFFFFFFFFFFFFFFFFFFFFFFFFFFFFE8
:1078B000FFFFFFFFFFFFFFFFFFFFFFFFFFFFFFFFD8
:1078C000FFFFFFFFFFFFFFFFFFFFFFFFFFFFFFFFC8
:1078D000FFFFFFFFFFFFFFFFFFFFFFFFFFFFFFFFB8
:1078E000FFFFFFFFFFFFFFFFFFFFFFFFFFFFFFFFA8
:1078F000FFFFFFFFFFFFFFFFFFFFFFFFFFFFFFFF98
:10790000FFFFFFFFFFFFFFFFFFFFFFFFFFFFFFFF87
:10791000FFFFFFFFFFFFFFFFFFFFFFFFFFFFFFFF77
:10792000FFFFFFFFFFFFFFFFFFFFFFFFFFFFFFFF67
:10793000FFFFFFFFFFFFFFFFFFFFFFFFFFFFFFFF57
:10794000FFFFFFFFFFFFFFFFFFFFFFFFFFFFFFFF47
:10795000FFFFFFFFFFFFFFFFFFFFFFFFFFFFFFFF37
:10796000FFFFFFFFFFFFFFFFFFFFFFFFFFFFFFFF27
:10797000FFFFFFFFFFFFFFFFFFFFFFFFFFFFFFFF17
:10798000FFFFFFFFFFFFFFFFFFFFFFFFFFFFFFFF07
:10799000FFFFFFFFFFFFFFFFFFFFFFFFFFFFFFFFF7
:1079A000FFFFFFFFFFFFFFFFFFFFFFFFFFFFFFFFE7
:1079B000FFFFFFFFFFFFFFFFFFFFFFFFFFFFFFFFD7
:1079C000FFFFFFFFFFFFFFFFFFFFFFFFFFFFFFFFC7
:1079D000FFFFFFFFFFFFFFFFFFFFFFFFFFFFFFFFB7
:1079E000FFFFFFFFFFFFFFFFFFFFFFFFFFFFFFFFA7
:1079F000FFFFFFFFFFFFFFFFFFFFFFFFFFFFFFFF97
:107A0000FFFFFFFFFFFFDEDB9CD3528A4A49528A09
:107A10005ACB5ACB5ACB5ACB5ACB5ACB5ACB5ACB3E
:107A20005ACB5ACB5ACB5ACB5ACB5ACB5ACB5ACB2E
:107A30005AEB5ACB5AEB5B0B5289528AC618FFFF9E
:107A4000FFFFFFFFFFFFFFFFFFFFFFFFFFFFFFFF46
:107A5000FFFFFFFFFFFFFFFFFFFFFFFFFFFFFFFF36
:107A6000FFFFFFFFFFFFFFFFFFFFFFFFFFFFFFFF26
:107A7000FFFFFFFFFFFFFFFFFFFFFFFFFFFFFFFF16
:107A8000FFFFFFFFFFFFFFFFFFFFFFFFFFFFFFFF06
:107A9000FFFFFFFFFFFFFFFFFFFFFFFFFFFFFFFFF6
:107AA000FFFFFFFFFFFFFFFFFFFFFFFFFFFFFFFFE6
:107AB000FFFFFFFFFFFFFFFFFFFFFFFFFFFFFFFFD6
:107AC000FFFFFFFFFFFFFFFFFFFFFFFFFFFFFFFFC6
:107AD000FFFFFFFFFFFFFFFFFFFFFFFFFFFFFFFFB6
:107AE000FFFFFFFFFFFFFFFFFFFFFFFFFFFFFFFFA6
:107AF000FFFFFFFFFFFFFFFFFFFFFFFFFFFFFFFF96
:107B0000FFFFFFFFFFFFFFFFFFFFFFFFFFFFFFFF85
:107B1000FFFFFFFFFFFFFFFFFFFFFFFFFFFFFFFF75
:107B2000FFFFFFFFFFFFFFFFFFFFFFFFFFFFFFFF65
:107B3000FFFFFFFFFFFFFFFFFFFFFFFFFFFFFFFF55
:107B4000FFFFFFFFFFFFFFFFFFFFFFFFFFFFFFFF45
:107B5000FFFFFFFFFFFFFFFFFFFFFFFFFFFFFFFF35
:107B6000FFFFFFFFFFFFFFFFFFFFFFFFFFFFFFFF25
:107B7000FFFFFFFFFFFFFFFFFFFFFFFFFFFFFFFF15
:107B8000FFFFFFFFFFFFFFFFFFFFFFFFFFFFFFFF05
:107B9000FFFFFFFFFFFFFFFFFFFFFFFFFFFFFFFFF5
:107BA000FFFFFFFFFFFFFFFFFFFFFFFFFFFFFFFFE5
:107BB000FFFFFFFFFFFFFFFFFFFFFFFFFFFFFFFFD5
:107BC000FFFFFFFFFFFFFFFFFFFFFFFFFFFFFFFFC5
:107BD000FFFFFFFFFFFFFFFFFFFFFFFFFFFFFFFFB5
:107BE000FFFFF7BEA5345AEB4A695ACB5ACB5ACBA2
:107BF0005ACB5ACB5ACB5ACB5ACC5ACC5ACB5ACB5B
:107C00005ACB5ACB5AEB5AEB62CC62CC5ACC5ACBF9
:107C10005AEC62CC62CB526A5269BDF7FFFFFFFF9C
:107C2000FFFFFFFFFFFFFFFFFFFFFFFFFFFFFFFF64
:107C3000FFFFFFFFFFFFFFFFFFFFFFFFFFFFFFFF54
:107C4000FFFFFFFFFFFFFFFFFFFFFFFFFFFFFFFF44
:107C5000FFFFFFFFFFFFFFFFFFFFFFFFFFFFFFFF34
:107C6000FFFFFFFFFFFFFFFFFFFFFFFFFFFFFFFF24
:107C7000FFFFFFFFFFFFFFFFFFFFFFFFFFFFFFFF14
:107C8000FFFFFFFFFFFFFFFFFFFFFFFFFFFFFFFF04
:107C9000FFFFFFFFFFFFFFFFFFFFFFFFFFFFFFFFF4
:107CA000FFFFFFFFFFFFFFFFFFFFFFFFFFFFFFFFE4
:107CB000FFFFFFFFFFFFFFFFFFFFFFFFFFFFFFFFD4
:107CC000FFFFFFFFFFFFFFFFFFFFFFFFFFFFFFFFC4
:107CD000FFFFFFFFFFFFFFFFFFFFFFFFFFFFFFFFB4
:107CE000FFFFFFFFFFFFFFFFFFFFFFFFFFFFFFFFA4
:107CF000FFFFFFFFFFFFFFFFFFFFFFFFFFFFFFFF94
:107D0000FFFFFFFFFFFFFFFFFFFFFFFFFFFFFFFF83
:107D1000FFFFFFFFFFFFFFFFFFFFFFFFFFFFFFFF73
:107D2000FFFFFFFFFFFFFFFFFFFFFFFFFFFFFFFF63
:107D3000FFFFFFFFFFFFFFFFFFFFFFFFFFFFFFFF53
:107D4000FFFFFFFFFFFFFFFFFFFFFFFFFFFFFFFF43
:107D5000FFFFFFFFFFFFFFFFFFFFFFFFFFFFFFFF33
:107D6000FFFFFFFFFFFFFFFFFFFFFFFFFFFFFFFF23
:107D7000FFFFFFFFFFFFFFFFFFFFFFFFFFFFFFFF13
:107D8000FFFFFFFFFFFFFFFFFFFFFFFFFFFFFFFF03
:107D9000FFFFFFFFFFFFFFFFFFFFFFFFFFFFFFFFF3
:107DA000FFFFFFFFFFFFFFFFFFFFFFFFFFFFFFFFE3
:107DB000FFFFFFFFFFFFFFFFFFFFFFFFFFFFFFFFD3
:107DC000C63852AA4228528B5ACB5ACB5AEB630C74
:107DD0005ACB5ACB5ACB5AEB5B0B5ACB5ACB5ACB1A
:107DE00062CB62CB62CB5ACB5ACB5ACB5ACB5AEB33
:107DF0005ACB5B0B4AA94A29C618FFFFFFFFFFFFBA
:107E0000FFFFFFFFFFFFFFFFFFFFFFFFFFFFFFFF82
:107E1000FFFFFFFFFFFFFFFFFFFFFFFFFFFFFFFF72
:107E2000FFFFFFFFFFFFFFFFFFFFFFFFFFFFFFFF62
:107E3000FFFFFFFFFFFFFFFFFFFFFFFFFFFFFFFF52
:107E4000FFFFFFFFFFFFFFFFFFFFFFFFFFFFFFFF42
:107E5000FFFFFFFFFFFFFFFFFFFFFFFFFFFFFFFF32
:107E6000FFFFFFFFFFFFFFFFFFFFFFFFFFFFFFFF22
:107E7000FFFFFFFFFFFFFFFFFFFFFFFFFFFFFFFF12
:107E8000FFFFFFFFFFFFFFFFFFFFFFFFFFFFFFFF02
:107E9000FFFFFFFFFFFFFFFFFFFFFFFFFFFFFFFFF2
:107EA000FFFFFFFFFFFFFFFFFFFFFFFFFFFFFFFFE2
:107EB000FFFFFFFFFFFFFFFFFFFFFFFFFFFFFFFFD2
:107EC000FFFFFFFFFFFFFFFFFFFFFFFFFFFFFFFFC2
:107ED000FFFFFFFFFFFFFFFFFFFFFFFFFFFFFFFFB2
:107EE000FFFFFFFFFFFFFFFFFFFFFFFFFFFFFFFFA2
:107EF000FFFFFFFFFFFFFFFFFFFFFFFFFFFFFFFF92
:107F0000FFFFFFFFFFFFFFFFFFFFFFFFFFFFFFFF81
:107F1000FFFFFFFFFFFFFFFFFFFFFFFFFFFFFFFF71
:107F2000FFFFFFFFFFFFFFFFFFFFFFFFFFFFFFFF61
:107F3000FFFFFFFFFFFFFFFFFFFFFFFFFFFFFFFF51
:107F4000FFFFFFFFFFFFFFFFFFFFFFFFFFFFFFFF41
:107F5000FFFFFFFFFFFFFFFFFFFFFFFFFFFFFFFF31
:107F6000FFFFFFFFFFFFFFFFFFFFFFFFFFFFFFFF21
:107F7000FFFFFFFFFFFFFFFFFFFFFFFFFFFFFFFF11
:107F8000FFFFFFFFFFFFFFFFFFFFFFFFFFFFFFFF01
:107F9000FFFFFFFFFFFFFFFFFFFFFFFFDEFB6B6D3C
:107FA00039C7528A62CB5ACB5ACB5ACB5ACB5ACB0F
:107FB0005ACB5ACB5ACB5ACB5ACB5ACB5ACB5ACB99
:107FC0005ACC5ACC5ACC5ACC5ACB5ACB5AEB5AEB45
:107FD00062EC4A694A6BE71BFFFFFFDFFFFFFFFF11
:107FE000FFFFFFFFFFFFFFFFFFFFFFFFFFFFFFFFA1
:107FF000FFFFFFFFFFFFFFFFFFFFFFFFFFFFFFFF91
:10800000FFFFFFFFFFFFFFFFFFFFFFFFFFFFFFFF80
:10801000FFFFFFFFFFFFFFFFFFFFFFFFFFFFFFFF70
:10802000FFFFFFFFFFFFFFFFFFFFFFFFFFFFFFFF60
:10803000FFFFFFFFFFFFFFFFFFFFFFFFFFFFFFFF50
:10804000FFFFFFFFFFFFFFFFFFFFFFFFFFFFFFFF40
:10805000FFFFFFFFFFFFFFFFFFFFFFFFFFFFFFFF30
:10806000FFFFFFFFFFFFFFFFFFFFFFFFFFFFFFFF20
:10807000FFFFFFFFFFFFFFFFFFFFFFFFFFFFFFFF10
:10808000FFFFFFFFFFFFFFFFFFFFFFFFFFFFFFFF00
:10809000FFFFFFFFFFFFFFFFFFFFFFFFFFFFFFFFF0
:1080A000FFFFFFFFFFFFFFFFFFFFFFFFFFFFFFFFE0
:1080B000FFFFFFFFFFFFFFFFFFFFFFFFFFFFFFFFD0
:1080C000FFFFFFFFFFFFFFFFFFFFFFFFFFFFFFFFC0
:1080D000FFFFFFFFFFFFFFFFFFFFFFFFFFFFFFFFB0
:1080E000FFFFFFFFFFFFFFFFFFFFFFFFFFFFFFFFA0
:1080F000FFFFFFFFFFFFFFFFFFFFFFFFFFFFFFFF90
:10810000FFFFFFFFFFFFFFFFFFFFFFFFFFFFFFFF7F
:10811000FFFFFFFFFFFFFFFFFFFFFFFFFFFFFFFF6F
:10812000FFFFFFFFFFFFFFFFFFFFFFFFFFFFFFFF5F
:10813000FFFFFFFFFFFFFFFFFFFFFFFFFFFFFFFF4F
:10814000FFFFFFFFFFFFFFFFFFFFFFFFFFFFFFFF3F
:10815000FFFFFFFFFFFFFFFFFFFFFFFFFFFFFFFF2F
:10816000FFFFFFFFFFFFFFFFFFFFFFFFFFFFFFFF1F
:10817000FFFFFFFFFFFFFFFFE71C9CF34A69422858
:108180005AEB630C5ACB5ACB5ACB5ACB5ACB5ACB5D
:108190005ACB5ACC5ACC5ACC5ACC5ACC5ACC5ACCB0
:1081A0005ACC5AEC5B0C5AEC5ACB5AEB5AEB52AB0A
:1081B0004A49630DE73DFFFFFFFFFFFFFFFFFFFFA2
:1081C000FFFFFFFFFFFFFFFFFFFFFFFFFFFFFFFFBF
:1081D000FFFFFFFFFFFFFFFFFFFFFFFFFFFFFFFFAF
:1081E000FFFFFFFFFFFFFFFFFFFFFFFFFFFFFFFF9F
:1081F000FFFFFFFFFFFFFFFFFFFFFFFFFFFFFFFF8F
:10820000FFFFFFFFFFFFFFFFFFFFFFFFFFFFFFFF7E
:10821000FFFFFFFFFFFFFFFFFFFFFFFFFFFFFFFF6E
:10822000FFFFFFFFFFFFFFFFFFFFFFFFFFFFFFFF5E
:10823000FFFFFFFFFFFFFFFFFFFFFFFFFFFFFFFF4E
:10824000FFFFFFFFFFFFFFFFFFFFFFFFFFFFFFFF3E
:10825000FFFFFFFFFFFFFFFFFFFFFFFFFFFFFFFF2E
:10826000FFFFFFFFFFFFFFFFFFFFFFFFFFFFFFFF1E
:10827000FFFFFFFFFFFFFFFFFFFFFFFFFFFFFFFF0E
:10828000FFFFFFFFFFFFFFFFFFFFFFFFFFFFFFFFFE
:10829000FFFFFFFFFFFFFFFFFFFFFFFFFFFFFFFFEE
:1082A000FFFFFFFFFFFFFFFFFFFFFFFFFFFFFFFFDE
:1082B000FFFFFFFFFFFFFFFFFFFFFFFFFFFFFFFFCE
:1082C000FFFFFFFFFFFFFFFFFFFFFFFFFFFFFFFFBE
:1082D000FFFFFFFFFFFFFFFFFFFFFFFFFFFFFFFFAE
:1082E000FFFFFFFFFFFFFFFFFFFFFFFFFFFFFFFF9E
:1082F000FFFFFFFFFFFFFFFFFFFFFFFFFFFFFFFF8E
:10830000FFFFFFFFFFFFFFFFFFFFFFFFFFFFFFFF7D
:10831000FFFFFFFFFFFFFFFFFFFFFFFFFFFFFFFF6D
:10832000FFFFFFFFFFFFFFFFFFFFFFFFFFFFFFFF5D
:10833000FFFFFFFFFFFFFFFFFFFFFFFFFFFFFFFF4D
:10834000FFFFFFFFFFFFFFFFFFFFFFFFFFFFFFFF3D
:10835000FFFFFFFFFFFFB5B6630C422852AA5ACBBE
:108360005ACB5ACB5ACB5ACB5ACB5ACB5ACB5ACBE5
:108370005ACB5ACB5ACB5AEB5AEB5AEC5ACB5ACA75
:108380005ACA5ACA5AAA5AA9526952C94A6952A91A
:1083900094B2EF7EFFFFFFFFFFFFFFFFFFFFFFFF36
:1083A000FFFFFFFFFFFFFFFFFFFFFFFFFFFFFFFFDD
:1083B000FFFFFFFFFFFFFFFFFFFFFFFFFFFFFFFFCD
:1083C000FFFFFFFFFFFFFFFFFFFFFFFFFFFFFFFFBD
:1083D000FFFFFFFFFFFFFFFFFFFFFFFFFFFFFFFFAD
:1083E000FFFFFFFFFFFFFFFFFFFFFFFFFFFFFFFF9D
:1083F000FFFFFFFFFFFFFFFFFFFFFFFFFFFFFFFF8D
:10840000FFFFFFFFFFFFFFFFFFFFFFFFFFFFFFFF7C
:10841000FFFFFFFFFFFFFFFFFFFFFFFFFFFFFFFF6C
:10842000FFFFFFFFFFFFFFFFFFFFFFFFFFFFFFFF5C
:10843000FFFFFFFFFFFFFFFFFFFFFFFFFFFFFFFF4C
:10844000FFFFFFFFFFFFFFFFFFFFFFFFFFFFFFFF3C
:10845000FFFFFFFFFFFFFFFFFFFFFFFFFFFFFFFF2C
:10846000FFFFFFFFFFFFFFFFFFFFFFFFFFFFFFFF1C
:10847000FFFFFFFFFFFFFFFFFFFFFFFFFFFFFFFF0C
:10848000FFFFFFFFFFFFFFFFFFFFFFFFFFFFFFFFFC
:10849000FFFFFFFFFFFFFFFFFFFFFFFFFFFFFFFFEC
:1084A000FFFFFFFFFFFFFFFFFFFFFFFFFFFFFFFFDC
:1084B000FFFFFFFFFFFFFFFFFFFFFFFFFFFFFFFFCC
:1084C000FFFFFFFFFFFFFFFFFFFFFFFFFFFFFFFFBC
:1084D000FFFFFFFFFFFFFFFFFFFFFFFFFFFFFFFFAC
:1084E000FFFFFFFFFFFFFFFFFFFFFFFFFFFFFFFF9C
:1084F000FFFFFFFFFFFFFFFFFFFFFFFFFFFFFFFF8C
:10850000FFFFFFFFFFFFFFFFFFFFFFFFFFFFFFFF7B
:10851000FFFFFFFFFFFFFFFFFFFFFFFFFFFFFFFF6B
:10852000FFFFFFFFFFFFFFFFFFFFFFFFFFFFFFFF5B
:10853000FFFFDEDB7BEF4A49528A5AEB5AEB5ACBFC
:108540005ACB5ACB5ACB5ACB5ACB5ACB5ACB5ACB03
:108550005ACB5ACB5ACB5AEB52AA52A94A48422874
:108560004A284A495269528952AA5AEB736EBDF79A
:10857000FFFFFFFFFFFFFFFFFFFFFFFFFFFFFFFF0B
:10858000FFFFFFFFFFFFFFFFFFFFFFFFFFFFFFFFFB
:10859000FFFFFFFFFFFFFFFFFFFFFFFFFFFFFFFFEB
:1085A000FFFFFFFFFFFFFFFFFFFFFFFFFFFFFFFFDB
:1085B000FFFFFFFFFFFFFFFFFFFFFFFFFFFFFFFFCB
:1085C000FFFFFFFFFFFFFFFFFFFFFFFFFFFFFFFFBB
:1085D000FFFFFFFFFFFFFFFFFFFFFFFFFFFFFFFFAB
:1085E000FFFFFFFFFFFFFFFFFFFFFFFFFFFFFFFF9B
:1085F000FFFFFFFFFFFFFFFFFFFFFFFFFFFFFFFF8B
:10860000FFFFFFFFFFFFFFFFFFFFFFFFFFFFFFFF7A
:10861000FFFFFFFFFFFFFFFFFFFFFFFFFFFFFFFF6A
:10862000FFFFFFFFFFFFFFFFFFFFFFFFFFFFFFFF5A
:10863000FFFFFFFFFFFFFFFFFFFFFFFFFFFFFFFF4A
:10864000FFFFFFFFFFFFFFFFFFFFFFFFFFFFFFFF3A
:10865000FFFFFFFFFFFFFFFFFFFFFFFFFFFFFFFF2A
:10866000FFFFFFFFFFFFFFFFFFFFFFFFFFFFFFFF1A
:10867000FFFFFFFFFFFFFFFFFFFFFFFFFFFFFFFF0A
:10868000FFFFFFFFFFFFFFFFFFFFFFFFFFFFFFFFFA
:10869000FFFFFFFFFFFFFFFFFFFFFFFFFFFFFFFFEA
:1086A000FFFFFFFFFFFFFFFFFFFFFFFFFFFFFFFFDA
:1086B000FFFFFFFFFFFFFFFFFFFFFFFFFFFFFFFFCA
:1086C000FFFFFFFFFFFFFFFFFFFFFFFFFFFFFFFFBA
:1086D000FFFFFFFFFFFFFFFFFFFFFFFFFFFFFFFFAA
:1086E000FFFFFFFFFFFFFFFFFFFFFFFFFFFFFFFF9A
:1086F000FFFFFFFFFFFFFFFFFFFFFFFFFFFFFFFF8A
:10870000FFFFFFFFFFFFFFFFFFFFFFFFFFFFFFFF79
:10871000A53452AA4A4952AA5ACB5ACB5ACB5ACB61
:108720005ACB5ACB5ACB5ACC5ACB5ACC52AA4A49DA
:10873000420839E742284A495AAB6B4D841094925B
:10874000A536B5F7C67AD6FCE77DEF7DF79EFFFF2D
:10875000FFFFFFFFFFFFFFFFFFFFFFFFFFFFFFFF29
:10876000FFFFFFFFFFFFFFFFFFFFFFFFFFFFFFFF19
:10877000FFFFFFFFFFFFFFFFFFFFFFFFFFFFFFFF09
:10878000FFFFFFFFFFFFFFFFFFFFFFFFFFFFFFFFF9
:10879000FFFFFFFFFFFFFFFFFFFFFFFFFFFFFFFFE9
:1087A000FFFFFFFFFFFFFFFFFFFFFFFFFFFFFFFFD9
:1087B000FFFFFFFFFFFFFFFFFFFFFFFFFFFFFFFFC9
:1087C000FFFFFFFFFFFFFFFFFFFFFFFFFFFFFFFFB9
:1087D000FFFFFFFFFFFFFFFFFFFFFFFFFFFFFFFFA9
:1087E000FFFFFFFFFFFFFFFFFFFFFFFFFFFFFFFF99
:1087F000FFFFFFFFFFFFFFFFFFFFFFFFFFFFFFFF89
:10880000FFFFFFFFFFFFFFFFFFFFFFFFFFFFFFFF78
:10881000FFFFFFFFFFFFFFFFFFFFFFFFFFFFFFFF68
:10882000FFFFFFFFFFFFFFFFFFFFFFFFFFFFFFFF58
:10883000FFFFFFFFFFFFFFFFFFFFFFFFFFFFFFFF48
:10884000FFFFFFFFFFFFFFFFFFFFFFFFFFFFFFFF38
:10885000FFFFFFFFFFFFFFFFFFFFFFFFFFFFFFFF28
:10886000FFFFFFFFFFFFFFFFFFFFFFFFFFFFFFFF18
:10887000FFFFFFFFFFFFFFFFFFFFFFFFFFFFFFFF08
:10888000FFFFFFFFFFFFFFFFFFFFFFFFFFFFFFFFF8
:10889000FFFFFFFFFFFFFFFFFFFFFFFFFFFFFFFFE8
:1088A000FFFFFFFFFFFFFFFFFFFFFFFFFFFFFFFFD8
:1088B000FFFFFFFFFFFFFFFFFFFFFFFFFFFFFFFFC8
:1088C000FFFFFFFFFFFFFFFFFFFFFFFFFFFFFFFFB8
:1088D000FFFFFFFFFFFFFFFFFFFFFFFFFFFFFFFFA8
:1088E000FFFFFFFFFFFFFFFFFFFFFFFFD6BB6B4D4B
:1088F0004208528A5ACB5ACB5ACB5ACB62CB62CB64
:1089000052AA528A4A6A4249422942285AEB738E35
:108910008C51AD55C678E73DF7FFFFFFFFFFFFFF26
:10892000FFFFFFFFFFFFFFFFFFFFFFFFFFFFFFFF57
:10893000FFFFFFFFFFFFFFFFFFFFFFFFFFFFFFFF47
:10894000FFFFFFFFFFFFFFFFFFFFFFFFFFFFFFFF37
:10895000FFFFFFFFFFFFFFFFFFFFFFFFFFFFFFFF27
:10896000FFFFFFFFFFFFFFFFFFFFFFFFFFFFFFFF17
:10897000FFFFFFFFFFFFFFFFFFFFFFFFFFFFFFFF07
:10898000FFFFFFFFFFFFFFFFFFFFFFFFFFFFFFFFF7
:10899000FFFFFFFFFFFFFFFFFFFFFFFFFFFFFFFFE7
:1089A000FFFFFFFFFFFFFFFFFFFFFFFFFFFFFFFFD7
:1089B000FFFFFFFFFFFFFFFFFFFFFFFFFFFFFFFFC7
:1089C000FFFFFFFFFFFFFFFFFFFFFFFFFFFFFFFFB7
:1089D000FFFFFFFFFFFFFFFFFFFFFFFFFFFFFFFFA7
:1089E000FFFFFFFFFFFFFFFFFFFFFFFFFFFFFFFF97
:1089F000FFFFFFFFFFFFFFFFFFFFFFFFFFFFFFFF87
:108A0000FFFFFFFFFFFFFFFFFFFFFFFFFFFFFFFF76
:108A1000FFFFFFFFFFFFFFFFFFFFFFFFFFFFFFFF66
:108A2000FFFFFFFFFFFFFFFFFFFFFFFFFFFFFFFF56
:108A3000FFFFFFFFFFFFFFFFFFFFFFFFFFFFFFFF46
:108A4000FFFFFFFFFFFFFFFFFFFFFFFFFFFFFFFF36
:108A5000FFFFFFFFFFFFFFFFFFFFFFFFFFFFFFFF26
:108A6000FFFFFFFFFFFFFFFFFFFFFFFFFFFFFFFF16
:108A7000FFFFFFFFFFFFFFFFFFFFFFFFFFFFFFFF06
:108A8000FFFFFFFFFFFFFFFFFFFFFFFFFFFFFFFFF6
:108A9000FFFFFFFFFFFFFFFFFFFFFFFFFFFFFFFFE6
:108AA000FFFFFFFFFFFFFFFFFFFFFFFFFFFFFFFFD6
:108AB000FFFFFFFFFFFFFFFFFFFFFFFFFFFFFFFFC6
:108AC000FFFFFFFFFFFFFFFFF7BE94B242084A48D7
:108AD0005ACB630C5ACB528A528A52AA4A694A49E3
:108AE0005AAA6B4C7C0F9D14BDF8E73CFFFFFFFFBB
:108AF000FFFFFFFFFFFFFFBDFF9CFF5BFEF8FE5681
:108B0000F5F3F5B2ED50E50FE4ADE4ACE44CDC2B4D
:108B1000E46BE48BE42BE42BE48CE4ADE4EEECEFCB
:108B2000ED52F5D3F635F6B7FF18FF9CFFBEFFDF19
:108B3000FFFFFFFFFFFFFFFFFFFFFFFFFFFFFFFF45
:108B4000FFFFFFFFFFFFFFFFFFFFFFFFFFFFFFFF35
:108B5000FFFFFFFFFFFFFFFFFFFFFFFFFFFFFFFF25
:108B6000FFFFFFFFFFFFFFFFFFFFFFFFFFFFFFFF15
:108B7000FFFFFFFFFFFFFFFFFFFFFFFFFFFFFFFF05
:108B8000FFFFFFFFFFFFFFFFFFFFFFFFFFFFFFFFF5
:108B9000FFFFFFFFFFFFFFFFFFFFFFFFFFFFFFFFE5
:108BA000FFFFFFFFFFFFFFFFFFFFFFFFFFFFFFFFD5
:108BB000FFFFFFFFFFFFFFFFFFFFFFFFFFFFFFFFC5
:108BC000FFFFFFFFFFFFFFFFFFFFFFFFFFFFFFFFB5
:108BD000FFFFFFFFFFFFFFFFFFFFFFFFFFFFFFFFA5
:108BE000FFFFFFFFFFFFFFFFFFFFFFFFFFFFFFFF95
:108BF000FFFFFFFFFFFFFFFFFFFFFFFFFFFFFFFF85
:108C0000FFFFFFFFFFFFFFFFFFFFFFFFFFFFFFFF74
:108C1000FFFFFFFFFFFFFFFFFFFFFFFFFFFFFFFF64
:108C2000FFFFFFFFFFFFFFFFFFFFFFFFFFFFFFFF54
:108C3000FFFFFFFFFFFFFFFFFFFFFFFFFFFFFFFF44
:108C4000FFFFFFFFFFFFFFFFFFFFFFFFFFFFFFFF34
:108C5000FFFFFFFFFFFFFFFFFFFFFFFFFFFFFFFF24
:108C6000FFFFFFFFFFFFFFFFFFFFFFFFFFFFFFFF14
:108C7000FFFFFFFFFFFFFFFFFFFFFFFFFFFFFFFF04
:108C8000FFFFFFFFFFFFFFFFFFFFFFFFFFFFFFFFF4
:108C9000FFFFFFFFFFFFFFFFFFFFFFFFFFFFFFDE05
:108CA000FFFFFFFFFFFFC638734C42285ACA5ACB5A
:108CB00052AA4A49528952895B0B73CF94D3B5B6F5
:108CC000DEBBEF9DFFFFFFFFFFFFFF7CFF3AFEB71C
:108CD000FE34F551E4AEEC4BEBE9F3C8F3A6FB66CA
:108CE000FB45FB45FB25FB45FB46FB45FB65FB6563
:108CF000FB45FB45FB66FB66FB45FB45FB45FB85F2
:108D0000FB66FB45F345FB86FBA6EC29E46CEE37DE
:108D1000FFFFFFFFFFFFFFFFFFFFFFFFFFFFFFFF63
:108D2000FFFFFFFFFFFFFFFFFFFFFFFFFFFFFFFF53
:108D3000FFFFFFFFFFFFFFFFFFFFFFFFFFFFFFFF43
:108D4000FFFFFFFFFFFFFFFFFFFFFFFFFFFFFFFF33
:108D5000FFFFFFFFFFFFFFFFFFFFFFFFFFFFFFFF23
:108D6000FFFFFFFFFFFFFFFFFFFFFFFFFFFFFFFF13
:108D7000FFFFFFFFFFFFFFFFFFFFFFFFFFFFFFFF03
:108D8000FFFFFFFFFFFFFFFFFFFFFFFFFFFFFFFFF3
:108D9000FFFFFFFFFFFFFFFFFFFFFFFFFFFFFFFFE3
:108DA000FFFFFFFFFFFFFFFFFFFFFFFFFFFFFFFFD3
:108DB000FFFFFFFFFFFFFFFFFFFFFFFFFFFFFFFFC3
:108DC000FFFFFFFFFFFFFFFFFFFFFFFFFFFFFFFFB3
:108DD000FFFFFFFFFFFFFFFFFFFFFFFFFFFFFFFFA3
:108DE000FFFFFFFFFFFFFFFFFFFFFFFFFFFFFFFF93
:108DF000FFFFFFFFFFFFFFFFFFFFFFFFFFFFFFFF83
:108E0000FFFFFFFFFFFFFFFFFFFFFFFFFFFFFFFF72
:108E1000FFFFFFFFFFFFFFFFFFFFFFFFFFFFFFFF62
:108E2000FFFFFFFFFFFFFFFFFFFFFFFFFFFFFFFF52
:108E3000FFFFFFFFFFFFFFFFFFFFFFFFFFFFFFFF42
:108E4000FFFFFFFFFFFFFFFFFFFFFFFFFFFFFFFF32
:108E5000FFFFFFFFFFFFFFFFFFFFFFFFFFFFFFFF22
:108E6000FFFFFFFFFFFFFFFFFFFFFFFFFFFFFFFF12
:108E7000FFFFFFFFFFFFFFFFFFFFFFFFF7FFFFFE0B
:108E8000FFFFEF7D94D35AAA5249526A4A294A4AAF
:108E90005B0C73AD9CF3C658D6DBF79EFFFFFFFF5C
:108EA000FFBDFEF9F676F593E4CFEC4BF3E8FBA5B6
:108EB000FB65FB65FB45FB46FB67FB67FB87FB87A9
:108EC000FBA7FBC7FBC7FBE7FBA8FBA8FBA8FBC7EF
:108ED000FBE7FBE7FBE8FBE8FBE7FBC7FB87FBA740
:108EE000FBE8FBC7FBA7F3A7F3A7FB64F2E4F5F5E8
:108EF000F7FFFFFFFFFFFFFFFFFFFFFFFFFFFFFF8A
:108F0000FFFFFFFFFFFFFFFFFFFFFFFFFFFFFFFF71
:108F1000FFFFFFFFFFFFFFFFFFFFFFFFFFFFFFFF61
:108F2000FFFFFFFFFFFFFFFFFFFFFFFFFFFFFFFF51
:108F3000FFFFFFFFFFFFFFFFFFFFFFFFFFFFFFFF41
:108F4000FFFFFFFFFFFFFFFFFFFFFFFFFFFFFFFF31
:108F5000FFFFFFFFFFFFFFFFFFFFFFFFFFFFFFFF21
:108F6000FFFFFFFFFFFFFFFFFFFFFFFFFFFFFFFF11
:108F7000FFFFFFFFFFFFFFFFFFFFFFFFFFFFFFFF01
:108F8000FFFFFFFFFFFFFFFFFFFFFFFFFFFFFFFFF1
:108F9000FFFFFFFFFFFFFFFFFFFFFFFFFFFFFFFFE1
:108FA000FFFFFFFFFFFFFFFFFFFFFFFFFFFFFFFFD1
:108FB000FFFFFFFFFFFFFFFFFFFFFFFFFFFFFFFFC1
:108FC000FFFFFFFFFFFFFFFFFFFFFFFFFFFFFFFFB1
:108FD000FFFFFFFFFFFFFFFFFFFFFFFFFFFFFFFFA1
:108FE000FFFFFFFFFFFFFFFFFFFFFFFFFFFFFFFF91
:108FF000FFFFFFFFFFFFFFFFFFFFFFFFFFFFFFFF81
:10900000FFFFFFFFFFFFFFFFFFFFFFFFFFFFFFFF70
:10901000FFFFFFFFFFFFFFFFFFFFFFFFFFFFFFFF60
:10902000FFFFFFFFFFFFFFFFFFFFFFFFFFFFFFFF50
:10903000FFFFFFFFFFFFFFFFFFFFFFFFFFFFFFFF40
:10904000FFFFFFFFFFFFFFFFFFFFFFFFFFFFFFFF30
:10905000FFFFFFFFFFFFFFFFFFFFFFFFFFFFFFFF20
:10906000CE7A732D41C739E749E85B2B8492BE184D
:10907000E73CF79EFFFFFFFFFFFFFF5CF656E57141
:10908000EC4BFBA7FB85FB64FB65FB66FB67FB67A3
:10909000FBA7FBC7FBC8FBC7FBC7FBC7FB87FB875F
:1090A000FB87FBA7FBA8FBA8FB88FB88FBC7FBC7CC
:1090B000FBC7FBC7FBC8FBC8FBC7FBA7FB87FB873E
:1090C000FBA7FBA8FBA7FBC8F3E7FBA6FBC8F73A87
:1090D000F7FFFFFFFFFFFFFFFFFDFFFFFFFFFFFFAA
:1090E000FFFFFFFFFFFFFFFFFFFFFFFFFFFFFFFF90
:1090F000FFFFFFFFFFFFFFFFFFFFFFFFFFFFFFFF80
:10910000FFFFFFFFFFFFFFFFFFFFFFFFFFFFFFFF6F
:10911000FFFFFFFFFFFFFFFFFFFFFFFFFFFFFFFF5F
:10912000FFFFFFFFFFFFFFFFFFFFFFFFFFFFFFFF4F
:10913000FFFFFFFFFFFFFFFFFFFFFFFFFFFFFFFF3F
:10914000FFFFFFFFFFFFFFFFFFFFFFFFFFFFFFFF2F
:10915000FFFFFFFFFFFFFFFFFFFFFFFFFFFFFFFF1F
:10916000FFFFFFFFFFFFFFFFFFFFFFFFFFFFFFFF0F
:10917000FFFFFFFFFFFFFFFFFFFFFFFFFFFFFFFFFF
:10918000FFFFFFFFFFFFFFFFFFFFFFFFFFFFFFFFEF
:10919000FFFFFFFFFFFFFFFFFFFFFFFFFFFFFFFFDF
:1091A000FFFFFFFFFFFFFFFFFFFFFFFFFFFFFFFFCF
:1091B000FFFFFFFFFFFFFFFFFFFFFFFFFFFFFFFFBF
:1091C000FFFFFFFFFFFFFFFFFFFFFFFFFFFFFFFFAF
:1091D000FFFFFFFFFFFFFFFFFFFFFFFFFFFFFFFF9F
:1091E000FFFFFFFFFFFFFFFFFFFFFFFFFFFFFFFF8F
:1091F000FFFFFFFFFFFFFFFFFFFFFFFFFFFFFFFF7F
:10920000FFFFFFFFFFFFFFFFFFFFFFFFFFFFFFFF6E
:10921000FFFFFFFFFFFFFFFFFFFFFFFFFFFFFFFF5E
:10922000FFFFFFFFFFFFFFFFFFFFFFFFFFFFFFFF4E
:10923000FFFFFFFFFFFFFFFFFFFFFFFFFFFF9CF4AC
:1092400018C43187632C94D2C679F7FFFFFFFFFF64
:10925000FFFFFFFEFED9DD70EC4AFB45FB23FB243C
:10926000FB65FB67FB87FBA7FBC8FBC8FB89FB888B
:10927000FBC8FBC8FBC7F3C6F3C6FBC6FBC6FBC6F1
:10928000FBC7FBC8FBA8FB88FB88FBC8FBC7FBC66A
:10929000FBC6FBA8FB87FBA8FBC8FBC8FBC8FBC839
:1092A000FBC8FBC8FBC8FBC8FB87F365F4AFFFFF37
:1092B000FFDFFFFFFFFFFFFFFFFFFFFFFFFFFFFFDE
:1092C000FFFFFFFFFFFFFFFFFFFFFFFFFFFFFFFFAE
:1092D000FFFFFFFFFFFFFFFFFFFFFFFFFFFFFFFF9E
:1092E000FFFFFFFFFFFFFFFFFFFFFFFFFFFFFFFF8E
:1092F000FFFFFFFFFFFFFFFFFFFFFFFFFFFFFFFF7E
:10930000FFFFFFFFFFFFFFFFFFFFFFFFFFFFFFFF6D
:10931000FFFFFFFFFFFFFFFFFFFFFFFFFFFFFFFF5D
:10932000FFFFFFFFFFFFFFFFFFFFFFFFFFFFFFFF4D
:10933000FFFFFFFFFFFFFFFFFFFFFFFFFFFFFFFF3D
:10934000FFFFFFFFFFFFFFFFFFFFFFFFFFFFFFFF2D
:10935000FFFFFFFFFFFFFFFFFFFFFFFFFFFFFFFF1D
:10936000FFFFFFFFFFFFFFFFFFFFFFFFFFFFFFFF0D
:10937000FFFFFFFFFFFFFFFFFFFFFFFFFFFFFFFFFD
:10938000FFFFFFFFFFFFFFFFFFFFFFFFFFFFFFFFED
:10939000FFFFFFFFFFFFFFFFFFFFFFFFFFFFFFFFDD
:1093A000FFFFFFFFFFFFFFFFFFFFFFFFFFFFFFFFCD
:1093B000FFFFFFFFFFFFFFFFFFFFFFFFFFFFFFFFBD
:1093C000FFFFFFFFFFFFFFFFFFFFFFFFFFFFFFFFAD
:1093D000FFFFFFFFFFFFFFFFFFFFFFFFFFFFFFFF9D
:1093E000FFFFFFFFFFFFFFFFFFFFFFFFFFFFFFFF8D
:1093F000FFFFFFFFFFFFFFFFFFFFFFFFFFFFFFFF7D
:10940000FFFFFFFFFFFFFFFFFFFFFFFFFFFFFFFF6C
:10941000FFFFFFFFFFFFFFFFFFFFC6595B0B51E69A
:10942000AD33D6FCFFFFFFFFFFFFFFFFFF9CE656BB
:10943000ECAEF3A8FB23FB04FB25FB67FBC8F3E7BB
:10944000FBE7FBC7FB88FB88FBC8FBC7FBC7FBC769
:10945000FBC7FBC6FB88FBA8FBC8FBC8FBC8FBC857
:10946000FBC8FBC8FBC8FBE8FBE8FBC8FBC8FBC8A4
:10947000FBC8FBC8FBC8FBC8FBC8FBC8FBC8FBC8D4
:10948000FBC8FBC8FBC8FBC8FB87F305F679FFFFE9
:10949000FFDFFFFFFFFFFFBFF7FFFFFFFFFFFFFF44
:1094A000FFFFFFFFFFFFFFFFFFFFFFFFFFFFFFFFCC
:1094B000FFFFFFFFFFFFFFFFFFFFFFFFFFFFFFFFBC
:1094C000FFFFFFFFFFFFFFFFFFFFFFFFFFFFFFFFAC
:1094D000FFFFFFFFFFFFFFFFFFFFFFFFFFFFFFFF9C
:1094E000FFFFFFFFFFFFFFFFFFFFFFFFFFFFFFFF8C
:1094F000FFFFFFFFFFFFFFFFFFFFFFFFFFFFFFFF7C
:10950000FFFFFFFFFFFFFFFFFFFFFFFFFFFFFFFF6B
:10951000FFFFFFFFFFFFFFFFFFFFFFFFFFFFFFFF5B
:10952000FFFFFFFFFFFFFFFFFFFFFFFFFFFFFFFF4B
:10953000FFFFFFFFFFFFFFFFFFFFFFFFFFFFFFFF3B
:10954000FFFFFFFFFFFFFFFFFFFFFFFFFFFFFFFF2B
:10955000FFFFFFFFFFFFFFFFFFFFFFFFFFFFFFFF1B
:10956000FFFFFFFFFFFFFFFFFFFFFFFFFFFFFFFF0B
:10957000FFFFFFFFFFFFFFFFFFFFFFFFFFFFFFFFFB
:10958000FFFFFFFFFFFFFFFFFFFFFFFFFFFFFFFFEB
:10959000FFFFFFFFFFFFFFFFFFFFFFFFFFFFFFFFDB
:1095A000FFFFFFFFFFFFFFFFFFFFFFFFFFFFFFFFCB
:1095B000FFFFFFFFFFFFFFFFFFFFFFFFFFFFFFFFBB
:1095C000FFFFFFFFFFFFFFFFFFFFFFFFFFFFFFFFAB
:1095D000FFFFFFFFFFFFFFFFFFFFFFFFFFFFFFFF9B
:1095E000FFFFFFFFFFFFFFFFFFFFFFFFFFFFFFFF8B
:1095F000FFFFFFFFFFFFF7BEAD957C30B5B6FFBEA6
:10960000FFFFFFFFFFDEFF7CEE57ECAEFBA8F3256C
:10961000F325FB86FBA7FBC8FBE7FBE7FBC7FBC902
:10962000FBC8FBC8F3E7FBC8FBC8FBC8FBC8FBC70C
:10963000FBC8FBC7FBC7FBA8FB88FB88FB88FB8834
:10964000FBC8FBC8FBC7FBC6FBC8FBC8FBC8FBC805
:10965000FBC8FBC8FBC8FBC8FBC8FBC8FBC8FBC8F2
:10966000FBC8FBA7FBA7FBC7FB65EC4AF7FFFFFFA7
:10967000FFFFFFFFF7FFFFFFFFFFFFFFFFFFFFFF02
:10968000FFFFFFFFFFFFFFFFFFFFFFFFFFFFFFFFEA
:10969000FFFFFFFFFFFFFFFFFFFFFFFFFFFFFFFFDA
:1096A000FFFFFFFFFFFFFFFFFFFFFFFFFFFFFFFFCA
:1096B000FFFFFFFFFFFFFFFFFFFFFFFFFFFFFFFFBA
:1096C000FFFFFFFFFFFFFFFFFFFFFFFFFFFFFFFFAA
:1096D000FFFFFFFFFFFFFFFFFFFFFFFFFFFFFFFF9A
:1096E000FFFFFFFFFFFFFFFFFFFFFFFFFFFFFFFF8A
:1096F000FFFFFFFFFFFFFFFFFFFFFFFFFFFFFFFF7A
:10970000FFFFFFFFFFFFFFFFFFFFFFFFFFFFFFFF69
:10971000FFFFFFFFFFFFFFFFFFFFFFFFFFFFFFFF59
:10972000FFFFFFFFFFFFFFFFFFFFFFFFFFFFFFFF49
:10973000FFFFFFFFFFFFFFFFFFFFFFFFFFFFFFFF39
:10974000FFFFFFFFFFFFFFFFFFFFFFFFFFFFFFFF29
:10975000FFFFFFFFFFFFFFFFFFFFFFFFFFFFFFFF19
:10976000FFFFFFFFFFFFFFFFFFFFFFFFFFFFFFFF09
:10977000FFFFFFFFFFFFFFFFFFFFFFFFFFFFFFFFF9
:10978000FFFFFFFFFFFFFFFFFFFFFFFFFFFFFFFFE9
:10979000FFFFFFFFFFFFFFFFFFFFFFFFFFFFFFFFD9
:1097A000FFFFFFFFFFFFFFFFFFFFFFFFFFFFFFFFC9
:1097B000FFFFFFFFFFFFFFFFFFFFFFFFFFFFFFFFB9
:1097C000FFFFFFFFFFFFFFFFFFFFFFFFFFFFFFFFA9
:1097D000FFFFFFFFFFFFEF5DCE7AFFDFFFFFFFFF21
:1097E000FF7CEE77F52EF429F366F365FB86FBA785
:1097F000FBA8FBA8F3A8FB86FBC7FBC8FB87FB877E
:10980000FB87FBC8FBC8FBA7FBA7FBC6FBC6FBC6C9
:10981000FBC7FBC8FBA8FBA8FBA7FBA8FBA7FBA7F4
:10982000FBA8FBA8FBA7FB87FBC7FBC8FBC8FBC8C3
:10983000FBC8FBC8FBC8FBC7FBC7FBC8FBC8FBC812
:10984000FBC8FBA8FBC8FBC8F2C3F696FFFFFFFFEF
:10985000FFFFFFFFFFFFFFFFFFFFFFFFFFFFFFFF18
:10986000FFFFFFFFFFFFFFFFFFFFFFFFFFFFFFFF08
:10987000FFFFFFFFFFFFFFFFFFFFFFFFFFFFFFFFF8
:10988000FFFFFFFFFFFFFFFFFFFFFFFFFFFFFFFFE8
:10989000FFFFFFFFFFFFFFFFFFFFFFFFFFFFFFFFD8
:1098A000FFFFFFFFFFFFFFFFFFFFFFFFFFFFFFFFC8
:1098B000FFFFFFFFFFFFFFFFFFFFFFFFFFFFFFFFB8
:1098C000FFFFFFFFFFFFFFFFFFFFFFFFFFFFFFFFA8
:1098D000FFFFFFFFFFFFFFFFFFFFFFFFFFFFFFFF98
:1098E000FFFFFFFFFFFFFFFFFFFFFFFFFFFFFFFF88
:1098F000FFFFFFFFFFFFFFFFFFFFFFFFFFFFFFFF78
:10990000FFFFFFFFFFFFFFFFFFFFFFFFFFFFFFFF67
:10991000FFFFFFFFFFFFFFFFFFFFFFFFFFFFFFFF57
:10992000FFFFFFFFFFFFFFFFFFFFFFFFFFFFFFFF47
:10993000FFFFFFFFFFFFFFFFFFFFFFFFFFFFFFFF37
:10994000FFFFFFFFFFFFFFFFFFFFFFFFFFFFFFFF27
:10995000FFFFFFFFFFFFFFFFFFFFFFFFFFFFFFFF17
:10996000FFFFFFFFFFFFFFFFFFFFFFFFFFFFFFFF07
:10997000FFFFFFFFFFFFFFFFFFFFFFFFFFFFFFFFF7
:10998000FFFFFFFFFFFFFFFFFFFFFFFFFFFFFFFFE7
:10999000FFFFFFFFFFFFFFFFFFFFFFFFFFFFFFFFD7
:1099A000FFFFFFFFFFFFFFFFFFFFFFFFFFFFFFFFC7
:1099B000FFFFFFFFFFFFFFFFFFFFFFFFF71BEDB202
:1099C000FC09FBA6F385FB85FBA6FBA7FBA8FBE830
:1099D000FBC7FBC7FBC7FBC8FBC8FBC8FBC8FB87B3
:1099E000FB87FBC8FBC7FBC6FBA7FBC7FBC7FBC7C7
:1099F000FBC7FBC7FBC7FBC7FBC7FBC7FBC6FBC659
:109A0000FBC8FBC8FBC8FBC7FBC6FBC8FBC8FBC841
:109A1000FBC8FBC8FBC8FBC6FBC7FBC8FBC7FBE812
:109A2000FB88FB88FBC8FB65F3E9F7FFFFDFFFFF5F
:109A3000FFFFFFFFFFFEFFFFFFFFFFFFFFFFFFFF37
:109A4000FFFFFFFFFFFFFFFFFFFFFFFFFFFFFFFF26
:109A5000FFFFFFFFFFFFFFFFFFFFFFFFFFFFFFFF16
:109A6000FFFFFFFFFFFFFFFFFFFFFFFFFFFFFFFF06
:109A7000FFFFFFFFFFFFFFFFFFFFFFFFFFFFFFFFF6
:109A8000FFFFFFFFFFFFFFFFFFFFFFFFFFFFFFFFE6
:109A9000FFFFFFFFFFFFFFFFFFFFFFFFFFFFFFFFD6
:109AA000FFFFFFFFFFFFFFFFFFFFFFFFFFFFFFFFC6
:109AB000FFFFFFFFFFFFFFFFFFFFFFFFFFFFFFFFB6
:109AC000FFFFFFFFFFFFFFFFFFFFFFFFFFFFFFFFA6
:109AD000FFFFFFFFFFFFFFFFFFFFFFFFFFFFFFFF96
:109AE000FFFFFFFFFFFFFFFFFFFFFFFFFFFFFFFF86
:109AF000FFFFFFFFFFFFFFFFFFFFFFFFFFFFFFFF76
:109B0000FFFFFFFFFFFFFFFFFFFFFFFFFFFFFFFF65
:109B1000FFFFFFFFFFFFFFFFFFFFFFFFFFFFFFFF55
:109B2000FFFFFFFFFFFFFFFFFFFFFFFFFFFFFFFF45
:109B3000FFFFFFFFFFFFFFFFFFFFFFFFFFFFFFFF35
:109B4000FFFFFFFFFFFFFFFFFFFFFFFFFFFFFFFF25
:109B5000FFFFFFFFFFFFFFFFFFFFFFFFFFFFFFFF15
:109B6000FFFFFFFFFFFFFFFFFFFFFFFFFFFFFFFF05
:109B7000FFFFFFFFF7FFFFFEFFFFFFFFFFFFFFFFFE
:109B8000FFFFFFFFFFFFFFFFFFFFFFFFF7FEFFFFEE
:109B9000FFFFFFFFFFFFFFFFEEB8ECCEFBA8FB24AB
:109BA000FB65FBC7FBC8FBC8FBC8FBC8FBC8FBC801
:109BB000FBC8FBC8FBC8FBC8FBC8FBC8FBC8FBC88D
:109BC000FBC8FBC8FBC8FBC8FBC8FBC8FBC8FBC87D
:109BD000FBC8FBC8FBC8FBC8FBC8FBC8FBC8FBC86D
:109BE000FBC8FBC8FBC8FBC8FBC8FBC8FBC8FBC85D
:109BF000FBC8FBC8FBC8FBC8FBC8FBC7FBC6FB8791
:109C0000FB88FBC9FB66F324F695FFFFFFFFFFFF10
:109C1000FFFFFFFFFFFFFFFFFFFFFFFFFFFFFFFF54
:109C2000FFFFFFFFFFFFFFFFFFFFFFFFFFFFFFFF44
:109C3000FFFFFFFFFFFFFFFFFFFFFFFFFFFFFFFF34
:109C4000FFFFFFFFFFFFFFFFFFFFFFFFFFFFFFFF24
:109C5000FFFFFFFFFFFFFFFFFFFFFFFFFFFFFFFF14
:109C6000FFFFFFFFFFFFFFFFFFFFFFFFFFFFFFFF04
:109C7000FFFFFFFFFFFFFFFFFFFFFFFFFFFFFFFFF4
:109C8000FFFFFFFFFFFFFFFFFFFFFFFFFFFFFFFFE4
:109C9000FFFFFFFFFFFFFFFFFFFFFFFFFFFFFFFFD4
:109CA000FFFFFFFFFFFFFFFFFFFFFFFFFFFFFFFFC4
:109CB000FFFFFFFFFFFFFFFFFFFFFFFFFFFFFFFFB4
:109CC000FFFFFFFFFFFFFFFFFFFFFFFFFFFFFFFFA4
:109CD000FFFFFFFFFFFFFFFFFFFFFFFFFFFFFFFF94
:109CE000FFFFFFFFFFFFFFFFFFFFFFFFFFFFFFFF84
:109CF000FFFFFFFFFFFFFFFFFFFFFFFFFFFFFFFF74
:109D0000FFFFFFFFFFFFFFFFFFFFFFFFFFFFFFFF63
:109D1000FFFFFFFFFFFFFFFFFFFFFFFFFFFFFFFF53
:109D2000FFFFFFFFFFFFFFFFFFFFFFFFFFFFFFFF43
:109D3000FFFFFFFFFFFFFFFFFFFFFFFFFFFFFFFF33
:109D4000FFFFFFFFFFFFFFFFFFFFFFFFFFFFFFFF23
:109D5000FFFFFFFFFFFFFFFFFFFFFFFFF7FFFFFF1B
:109D6000FFFFFFFFFFFFFFFFFFFFFFFFFFFFFFFF03
:109D7000FFFFFFDEEE53F42BF305FB24FBC6F3C815
:109D8000F3C8FB89FBA8FBC8FBC8FBC8FBC8FBC822
:109D9000FBC8FBC8FBC8FBC8FBC8FBC8FBC8FBC8AB
:109DA000FBC8FBC8FBC8FBC8FBC8FBC8FBC8FBC89B
:109DB000FBC8FBC8FBC8FBC8FBC8FBC8FBC8FBC88B
:109DC000FBC8FBC8FBC8FBC8FBC8FBC8FBC8FBC87B
:109DD000FBC8FBC8FBC8FBC8FBC6FBC7FBC8FBE74F
:109DE000FBA7FBE7FB23F510FFFFFFFFFFFFFFFFD4
:109DF000FFFFFFFFFFFFFFFFFFFFFFFFFFFFFFFF73
:109E0000FFFFFFFFFFFFFFFFFFFFFFFFFFFFFFFF62
:109E1000FFFFFFFFFFFFFFFFFFFFFFFFFFFFFFFF52
:109E2000FFFFFFFFFFFFFFFFFFFFFFFFFFFFFFFF42
:109E3000FFFFFFFFFFFFFFFFFFFFFFFFFFFFFFFF32
:109E4000FFFFFFFFFFFFFFFFFFFFFFFFFFFFFFFF22
:109E5000FFFFFFFFFFFFFFFFFFFFFFFFFFFFFFFF12
:109E6000FFFFFFFFFFFFFFFFFFFFFFFFFFFFFFFF02
:109E7000FFFFFFFFFFFFFFFFFFFFFFFFFFFFFFFFF2
:109E8000FFFFFFFFFFFFFFFFFFFFFFFFFFFFFFFFE2
:109E9000FFFFFFFFFFFFFFFFFFFFFFFFFFFFFFFFD2
:109EA000FFFFFFFFFFFFFFFFFFFFFFFFFFFFFFFFC2
:109EB000FFFFFFFFFFFFFFFFFFFFFFFFFFFFFFFFB2
:109EC000FFFFFFFFFFFFFFFFFFFFFFFFFFFFFFFFA2
:109ED000FFFFFFFFFFFFFFFFFFFFFFFFFFFFFFFF92
:109EE000FFFFFFFFFFFFFFFFFFFFFFFFFFFFFFFF82
:109EF000FFFFFFFFFFFFFFFFFFFFFFFFFFFFFFFF72
:109F0000FFFFFFFFFFFFFFFFFFFFFFFFFFFFFFFF61
:109F1000FFFFFFFFFFFFFFFFFFFFFFFFFFFFFFFF51
:109F2000FFFFFFFFFFFFFFFFFFFFFFFFFFFFFFFF41
:109F3000FFFFFFFFFFFFFFFFFFFFFFFFFFFFFFFF31
:109F4000FFFFFFFFFFFFFFFFFFFFFFFFFFFFF73BED
:109F5000F5B1F407F325FB45FBA7FBC7FBE7FBC700
:109F6000FBC7FBE7FBC8FBC8FBC8FBC8FBC8FBC8BB
:109F7000FBC8FBC8FBC8FBC8FBC8FBC8FBC8FBC8C9
:109F8000FBC8FBC8FBC8FBC8FBC8FBC8FBC8FBC8B9
:109F9000FBC8FBC8FBC8FBC8FBC8FBC8FBC8FBC8A9
:109FA000FBC8FBC8FBC8FBC8FBC8FBC8FBC8FBC899
:109FB000FBC8FBC8FBC8FBC8FBA7FBC7FB88F3C8F3
:109FC000F426FB43F44CFFBEFFFFFFFFFFFFFFFF44
:109FD000FFFFFFFFFFFFFFFFFFFFFFFFFFFFFFFF91
:109FE000FFFFFFFFFFFFFFFFFFFFFFFFFFFFFFFF81
:109FF000FFFFFFFFFFFFFFFFFFFFFFFFFFFFFFFF71
:10A00000FFFFFFFFFFFFFFFFFFFFFFFFFFFFFFFF60
:10A01000FFFFFFFFFFFFFFFFFFFFFFFFFFFFFFFF50
:10A02000FFFFFFFFFFFFFFFFFFFFFFFFFFFFFFFF40
:10A03000FFFFFFFFFFFFFFFFFFFFFFFFFFFFFFFF30
:10A04000FFFFFFFFFFFFFFFFFFFFFFFFFFFFFFFF20
:10A05000FFFFFFFFFFFFFFFFFFFFFFFFFFFFFFFF10
:10A06000FFFFFFFFFFFFFFFFFFFFFFFFFFFFFFFF00
:10A07000FFFFFFFFFFFFFFFFFFFFFFFFFFFFFFFFF0
:10A08000FFFFFFFFFFFFFFFFFFFFFFFFFFFFFFFFE0
:10A09000FFFFFFFFFFFFFFFFFFFFFFFFFFFFFFFFD0
:10A0A000FFFFFFFFFFFFFFFFFFFFFFFFFFFFFFFFC0
:10A0B000FFFFFFFFFFFFFFFFFFFFFFFFFFFFFFFFB0
:10A0C000FFFFFFFFFFFFFFFFFFFFFFFFFFFFFFFFA0
:10A0D000FFFFFFFFFFFFFFFFFFFFFFFFFFFFFFFF90
:10A0E000FFFFFFFFFFFFFFFFFFFFFFFFFFFFFFFF80
:10A0F000FFFFFFFFFFFFFFFFFFFFFFFFFFFFFFFF70
:10A10000FFFFFFFFFFFFFFFFFFFFFFFFFFFFFFFF5F
:10A11000FFFFFFFFFFFFFFFFFFFFFFFFFFFFFFFF4F
:10A12000FFFFFFFFFFFFFFFFF7FFF71AFD51F409E5
:10A13000F345FB45FBA6FBA7FBC8FBA8FBA7FBC79A
:10A14000FBA7FBA7FBC8FBC8FBC8FBC8FBC8FBC839
:10A15000FBC8FBC8FBC8FBC8FBC8FBC8FBC8FBC8E7
:10A16000FBC8FBC8FBC8FBC8FBC8FBC8FBC8FBC8D7
:10A17000FBC8FBC8FBC8FBC8FBC8FBC8FBC8FBC8C7
:10A18000FBC8FBC8FBC8FBC8FBC8FBC8FBC8FBC8B7
:10A19000FBC8FBC8FBC8FBC7FBA8FBC8FBA7FBE7CA
:10A1A000F385F3C8FEF9FFFFFFFFFFFFFFFFFFFF8F
:10A1B000FFFFFFFFFFFFFFFFFFFFFFFFFFFFFFFFAF
:10A1C000FFFFFFFFFFFFFFFFFFFFFFFFFFFFFFFF9F
:10A1D000FFFFFFFFFFFFFFFFFFFFFFFFFFFFFFFF8F
:10A1E000FFFFFFFFFFFFFFFFFFFFFFFFFFFFFFFF7F
:10A1F000FFFFFFFFFFFFFFFFFFFFFFFFFFFFFFFF6F
:10A20000FFFFFFFFFFFFFFFFFFFFFFFFFFFFFFFF5E
:10A21000FFFFFFFFFFFFFFFFFFFFFFFFFFFFFFFF4E
:10A22000FFFFFFFFFFFFFFFFFFFFFFFFFFFFFFFF3E
:10A23000FFFFFFFFFFFFFFFFFFFFFFFFFFFFFFFF2E
:10A24000FFFFFFFFFFFFFFFFFFFFFFFFFFFFFFFF1E
:10A25000FFFFFFFFFFFFFFFFFFFFFFFFFFFFFFFF0E
:10A26000FFFFFFFFFFFFFFFFFFFFFFFFFFFFFFFFFE
:10A27000FFFFFFFFFFFFFFFFFFFFFFFFFFFFFFFFEE
:10A28000FFFFFFFFFFFFFFFFFFFFFFFFFFFFFFFFDE
:10A29000FFFFFFFFFFFFFFFFFFFFFFFFFFFFFFFFCE
:10A2A000FFFFFFFFFFFFFFFFFFFFFFFFFFFFFFFFBE
:10A2B000FFFFFFFFFFFFFFFFFFFFFFFFFFFFFFFFAE
:10A2C000FFFFFFFFFFFFFFFFFFFFFFFFFFFFFFFF9E
:10A2D000FFFFFFFFFFFFFFFFFFFFFFFFFFFFFFFF8E
:10A2E000FFFFFFFFFFFFFFFFFFFFFFFFFFFFFFFF7E
:10A2F000FFFFFFFFFFFFFFFEFFFFFFFFFFFFFFFE70
:10A30000FFFFFFFFFFFFF73AF591F3E7F345FB8609
:10A31000FB88FBC9FBE7FBC7FB87FB87FBA8FBC8E8
:10A32000FBC8FB88FBA7FBC8FBC8FBC8FBC8FBC876
:10A33000FBC8FBC8FBC8FBC8FBC8FBC8FBC8FBC805
:10A34000FBC8FBC8FBC8FBC8FBC8FBC8FBC8FBC8F5
:10A35000FBC8FBC8FBC8FBC8FBC8FBC8FBC8FBC8E5
:10A36000FBC8FBC8FBC8FBC8FBC8FBC8FBC8FBC8D5
:10A37000FBC8FBC8FBC8FBC7FBE8FBA7FBC7FB652B
:10A38000F348F697FFFFFFFFFFFEFFFFFFFFFFFF12
:10A39000FFFFFFFFFFFFFFFFFFFFFFFFFFFFFFFFCD
:10A3A000FFFFFFFFFFFFFFFFFFFFFFFFFFFFFFFFBD
:10A3B000FFFFFFFFFFFFFFFFFFFFFFFFFFFFFFFFAD
:10A3C000FFFFFFFFFFFFFFFFFFFFFFFFFFFFFFFF9D
:10A3D000FFFFFFFFFFFFFFFFFFFFFFFFFFFFFFFF8D
:10A3E000FFFFFFFFFFFFFFFFFFFFFFFFFFFFFFFF7D
:10A3F000FFFFFFFFFFFFFFFFFFFFFFFFFFFFFFFF6D
:10A40000FFFFFFFFFFFFFFFFFFFFFFFFFFFFFFFF5C
:10A41000FFFFFFFFFFFFFFFFFFFFFFFFFFFFFFFF4C
:10A42000FFFFFFFFFFFFFFFFFFFFFFFFFFFFFFFF3C
:10A43000FFFFFFFFFFFFFFFFFFFFFFFFFFFFFFFF2C
:10A44000FFFFFFFFFFFFFFFFFFFFFFFFFFFFFFFF1C
:10A45000FFFFFFFFFFFFFFFFFFFFFFFFFFFFFFFF0C
:10A46000FFFFFFFFFFFFFFFFFFFFFFFFFFFFFFFFFC
:10A47000FFFFFFFFFFFFFFFFFFFFFFFFFFFFFFFFEC
:10A48000FFFFFFFFFFFFFFFFFFFFFFFFFFFFFFFFDC
:10A49000FFFFFFFFFFFFFFFFFFFFFFFFFFFFFFFFCC
:10A4A000FFFFFFFFFFFFFFFFFFFFFFFFFFFFFFFFBC
:10A4B000FFFFFFFFFFFFFFFFFFFFFFFFFFFFFFFFAC
:10A4C000FFFFFFFFFFFFFFFFFFFFFFFFFFFFFFFF9C
:10A4D000FFFFFFFFFFFFFFFFFFFFFFFFFFFFFFFF8C
:10A4E000FFFFF7DCEDB1F3EAFB26FB65FB86FBC75C
:10A4F000FBC7FBA7FBC8FBC7F3C6F3C6FBC7FBC77D
:10A50000FBC7FBC7FBC7FBC8FBC8FBC8FBC8FBC836
:10A51000FBC8FBC8FBC8FBC8FBC8FBC8FBC8FBC823
:10A52000FBC8FBC8FBC8FBC8FBC8FBC8FBC8FBC813
:10A53000FBC8FBC8FBC8FBC8FBC8FBC8FBC8FBC803
:10A54000FBC8FBC8FBC8FBC8FBC8FBC8FBC8FBC8F3
:10A55000FBC8FBC8FBE8FBC8FBA6FBE6FB25F2E655
:10A56000F6B6FFFFFFFFFFFEFFFFFFFFFFFFFFFF4E
:10A57000FFFFFFFFFFFFFFFFFFFFFFFFFFFFFFFFEB
:10A58000FFFFFFFFFFFFFFFFFFFFFFFFFFFFFFFFDB
:10A59000FFFFFFFFFFFFFFFFFFFFFFFFFFFFFFFFCB
:10A5A000FFFFFFFFFFFFFFFFFFFFFFFFFFFFFFFFBB
:10A5B000FFFFFFFFFFFFFFFFFFFFFFFFFFFFFFFFAB
:10A5C000FFFFFFFFFFFFFFFFFFFFFFFFFFFFFFFF9B
:10A5D000FFFFFFFFFFFFFFFFFFFFFFFFFFFFFFFF8B
:10A5E000FFFFFFFFFFFFFFFFFFFFFFFFFFFFFFFF7B
:10A5F000FFFFFFFFFFFFFFFFFFFFFFFFFFFFFFFF6B
:10A60000FFFFFFFFFFFFFFFFFFFFFFFFFFFFFFFF5A
:10A61000FFFFFFFFFFFFFFFFFFFFFFFFFFFFFFFF4A
:10A62000FFFFFFFFFFFFFFFFFFFFFFFFFFFFFFFF3A
:10A63000FFFFFFFFFFFFFFFFFFFFFFFFFFFFFFFF2A
:10A64000FFFFFFFFFFFFFFFFFFFFFFFFFFFFFFFF1A
:10A65000FFFFFFFFFFFFFFFFFFFFFFFFFFFFFFFF0A
:10A66000FFFFFFFFFFFFFFFFFFFFFFFFFFFFFFFFFA
:10A67000FFFFFFFFFFFFFFFFFFFFFFFFFFFFFFFFEA
:10A68000FFFFFFFFFFFFFFFFFFFFFFFFFFFFFFFFDA
:10A69000FFFFFFFFFFFFFFFFFFFFFFFFFFFFFFFFCA
:10A6A000FFFFFFFFFFFFFFFFFFFFFFFFFFFFFFFFBA
:10A6B000FFFFFFFFFFFFFFFFFFFFFFFFFFFFF7FFB2
:10A6C000F5F1F3A7F346FBA8F3C7FBC8F3C8FBC833
:10A6D000FBA7FBC6FB88FBA8FBC8FBC8FBC7FBC6E8
:10A6E000FBC7FBC8FBC8FBC8FBC8FBC8FBC8FBC853
:10A6F000FBC8FBC8FBC8FBC8FBC8FBC8FBC8FBC842
:10A70000FBC8FBC8FBC8FBC8FBC8FBC8FBC8FBC831
:10A71000FBC8FBC8FBC8FBC8FBC8FBC8FBC8FBC821
:10A72000FBC8FBC8FBC8FBC8FB87FBC8FBC8FBC852
:10A73000FBC8FBA7FB87FBA8FC07FB44EB27F6D76E
:10A74000FFFFFFFFFFFFFFDFFFBFFFFFFFFFFFFF79
:10A75000FFFFFFFFFFFFFFFFFFFFFFFFFFFFFFFF09
:10A76000FFFFFFFFFFFFFFFFFFFFFFFFFFFFFFFFF9
:10A77000FFFFFFFFFFFFFFFFFFFFFFFFFFFFFFFFE9
:10A78000FFFFFFFFFFFFFFFFFFFFFFFFFFFFFFFFD9
:10A79000FFFFFFFFFFFFFFFFFFFFFFFFFFFFFFFFC9
:10A7A000FFFFFFFFFFFFFFFFFFFFFFFFFFFFFFFFB9
:10A7B000FFFFFFFFFFFFFFFFFFFFFFFFFFFFFFFFA9
:10A7C000FFFFFFFFFFFFFFFFFFFFFFFFFFFFFFFF99
:10A7D000FFFFFFFFFFFFFFFFFFFFFFFFFFFFFFFF89
:10A7E000FFFFFFFFFFFFFFFFFFFFFFFFFFFFFFFF79
:10A7F000FFFFFFFFFFFFFFFFFFFFFFFFFFFFFFFF69
:10A80000FFFFFFFFFFFFFFFFFFFFFFFFFFFFFFFF58
:10A81000FFFFFFFFFFFFFFFFFFFFFFFFFFFFFFFF48
:10A82000FFFFFFFFFFFFFFFFFFFFFFFFFFFFFFFF38
:10A83000FFFFFFFFFFFFFFFFFFFFFFFFFFFFFFFF28
:10A84000FFFFFFFFFFFFFFFFFFFFFFFFFFFFFFFF18
:10A85000FFFFFFFFFFFFFFFFFFFFFFFFFFFFFFFF08
:10A86000FFFFFFFFFFFFFFFFFFFFFFFFFFFFFFFFF8
:10A87000FFFFFFFFFFFFFFFFFFFFFFFFFFFFFFFFE8
:10A88000FFFFFFFFFFFFFFFFFFFFFFFFFFFFFFFFD8
:10A89000FFFFF7FFFFFFFFFFFFFFFFFEFEB6EC2B02
:10A8A000EB25FB66FBA8FBC7F3C6F3C6FBC8FB881A
:10A8B000FBC8FBC8FBA7FB87FBA8FBC8FBC8FBC703
:10A8C000FBC7FBC8FBC8FBC8FBC8FBC8FBC8FBC871
:10A8D000FBC8FBC8FBC8FBC8FBC8FBC8FBC8FBC860
:10A8E000FBC8FBC8FBC8FBC8FBC8FBC8FBC8FBC850
:10A8F000FBC8FBC8FBC8FBC8FBC8FBC8FBC8FBC840
:10A90000FBC8FBC8FBC8FBC8FBC8FBC8FBC7FB8771
:10A91000FB86FBC8FBE8FB66F364EC4BFEFAFFFF2B
:10A92000FFFFFFFFFFFFF7FFFFFFFFFFFFFFFFFF3F
:10A93000FFFFFFFFFFFFFFFFFFFFFFFFFFFFFFFF27
:10A94000FFFFFFFFFFFFFFFFFFFFFFFFFFFFFFFF17
:10A95000FFFFFFFFFFFFFFFFFFFFFFFFFFFFFFFF07
:10A96000FFFFFFFFFFFFFFFFFFFFFFFFFFFFFFFFF7
:10A97000FFFFFFFFFFFFFFFFFFFFFFFFFFFFFFFFE7
:10A98000FFFFFFFFFFFFFFFFFFFFFFFFFFFFFFFFD7
:10A99000FFFFFFFFFFFFFFFFFFFFFFFFFFFFFFFFC7
:10A9A000FFFFFFFFFFFFFFFFFFFFFFFFFFFFFFFFB7
:10A9B000FFFFFFFFFFFFFFFFFFFFFFFFFFFFFFFFA7
:10A9C000FFFFFFFFFFFFFFFFFFFFFFFFFFFFFFFF97
:10A9D000FFFFFFFFFFFFFFFFFFFFFFFFFFFFFFFF87
:10A9E000FFFFFFFFFFFFFFFFFFFFFFFFFFFFFFFF77
:10A9F000FFFFFFFFFFFFFFFFFFFFFFFFFFFFFFFF67
:10AA0000FFFFFFFFFFFFFFFFFFFFFFFFFFFFFFFF56
:10AA1000FFFFFFFFFFFFFFFFFFFFFFFFFFFFFFFF46
:10AA2000FFFFFFFFFFFFFFFFFFFFFFFFFFFFFFFF36
:10AA3000FFFFFFFFFFFFFFFFFFFFFFFFFFFFFFFF26
:10AA4000FFFFFFFFFFFFFFFFFFFFFFFFFFFFFFFF16
:10AA5000FFFFFFFFFFFFFFFFFFFFFFFFFFFFFFFF06
:10AA6000FFFFFFFFFFFFFFFFFFFFFFFFFFDFFFFF16
:10AA7000FFFFFFFFFFFFFFFFF6B8F4CCF385FB04F9
:10AA8000FB88FBE9FBC7FBC7FBC7FBC7FBA7FBE7D3
:10AA9000FBC8FBA7FBC6FBC7FBE7FBA8FB88FBA724
:10AAA000FBA8FBC7FBC7FBC6FBC8FBC8FBC8FBC8B2
:10AAB000FBC7FBC7FBC7FBC8FBC8FBC8FBC8FBC881
:10AAC000FBC8FBC8FBC7FBC8FBA8FBA8FBC8FBC8AF
:10AAD000FBC8FBC8FBC8FBC8FBA6FBA7FBC8FBC8A1
:10AAE000FBC8FBC8FBA8FB87FBA6FBC8FB88FBA831
:10AAF000FB87FBC6FB67FB67ED0FF79CFFFFFFFFC4
:10AB0000FFFFFFFFFFFFFFFFFFFFFFFFFFFFFFFF55
:10AB1000FFFFFFFFFFFFFFFFFFFFFFFFFFFFFFFF45
:10AB2000FFFFFFFFFFFFFFFFFFFFFFFFFFFFFFFF35
:10AB3000FFFFFFFFFFFFFFFFFFFFFFFFFFFFFFFF25
:10AB4000FFFFFFFFFFFFFFFFFFFFFFFFFFFFFFFF15
:10AB5000FFFFFFFFFFFFFFFFFFFFFFFFFFFFFFFF05
:10AB6000FFFFFFFFFFFFFFFFFFFFFFFFFFFFFFFFF5
:10AB7000FFFFFFFFFFFFFFFFFFFFFFFFFFFFFFFFE5
:10AB8000FFFFFFFFFFFFFFFFFFFFFFFFFFFFFFFFD5
:10AB9000FFFFFFFFFFFFFFFFFFFFFFFFFFFFFFFFC5
:10ABA000FFFFFFFFFFFFFFFFFFFFFFFFFFFFFFFFB5
:10ABB000FFFFFFFFFFFFFFFFFFFFFFFFFFFFFFFFA5
:10ABC000FFFFFFFFFFFFFFFFFFFFFFFFFFFFFFFF95
:10ABD000FFFFFFFFFFFFFFFFFFFFFFFFFFFFFFFF85
:10ABE000FFFFFFFFFFFFFFFFFFFFFFFFFFFFFFFF75
:10ABF000FFFFFFFFFFFFFFFFFFFFFFFFFFFFFFFF65
:10AC0000FFFFFFFFFFFFFFFFFFFFFFFFFFFFFFFF54
:10AC1000FFFFFFFFFFFFFFFFFFFFFFFFFFFFFFFF44
:10AC2000FFFFFFFFFFFFFFFFFFFFFFFFFFFFFFFF34
:10AC3000FFFFFFFFFFFFFFFFFFFFFFFFFFFFFFFF24
:10AC4000FFFFFFFFFFFFFFFEFFDFFFFFFFDFFFFF55
:10AC5000FFFFFFFFF77CF570EBC8FB26FB67FBC827
:10AC6000FBA7FBC7FBC8FBC8FBC8FBC8FBC8FBC8EE
:10AC7000FBC7FBE7FBA8FBA7FBE8FBC7FBC7FBE7A2
:10AC8000FBA8FBC7FBE8FBE7FBE8FBE8FBE8FBE80E
:10AC9000FBE8FBC7FBC7FBA8FBC8FBC8FBC8FBC89E
:10ACA000FBC8FBC8FBC7FBC7FBA7FBA7FBC7FBC7D2
:10ACB000FBC7FBA7FBA7FB88FBA7FBC7FBA8FBA861
:10ACC000FBC8FBC7FBA7FBA7FBE7FBA8FBC8F3E799
:10ACD000FB84FB04E42BF656FFDEFFFFFFFFFFFFC4
:10ACE000FFFFFFFFFFFFFFFFFFFFFFFFFFFFFFFF74
:10ACF000FFFFFFFFFFFFFFFFFFFFFFFFFFFFFFFF64
:10AD0000FFFFFFFFFFFFFFFFFFFFFFFFFFFFFFFF53
:10AD1000FFFFFFFFFFFFFFFFFFFFFFFFFFFFFFFF43
:10AD2000FFFFFFFFFFFFFFFFFFFFFFFFFFFFFFFF33
:10AD3000FFFFFFFFFFFFFFFFFFFFFFFFFFFFFFFF23
:10AD4000FFFFFFFFFFFFFFFFFFFFFFFFFFFFFFFF13
:10AD5000FFFFFFFFFFFFFFFFFFFFFFFFFFFFFFFF03
:10AD6000FFFFFFFFFFFFFFFFFFFFFFFFFFFFFFFFF3
:10AD7000FFFFFFFFFFFFFFFFFFFFFFFFFFFFFFFFE3
:10AD8000FFFFFFFFFFFFFFFFFFFFFFFFFFFFFFFFD3
:10AD9000FFFFFFFFFFFFFFFFFFFFFFFFFFFFFFFFC3
:10ADA000FFFFFFFFFFFFFFFFFFFFFFFFFFFFFFFFB3
:10ADB000FFFFFFFFFFFFFFFFFFFFFFFFFFFFFFFFA3
:10ADC000FFFFFFFFFFFFFFFFFFFFFFFFFFFFFFFF93
:10ADD000FFFFFFFFFFFFFFFFFFFFFFFFFFFFFFFF83
:10ADE000FFFFFFFFFFFFFFFFFFFFFFFFFFFFFFFF73
:10ADF000FFFFFFFFFFFFFFFFFFFFFFFFFFFFFFFF63
:10AE0000FFFFFFFFFFFFFFFFFFFFFFFFFFFFFFFF52
:10AE1000FFFFFFFFFFFFFFFFFFFFFFFFFFFFFFFF42
:10AE2000FFFFFFFFFFFFFFFFFFFFFFFFF7FFFFFF3A
:10AE3000FFFFF657EC0BFB45FBA6FBC8FBC8FBC7A7
:10AE4000FBE6FBC7FBC8FBC8FBC8FBC8FBC8FBC8CD
:10AE5000FBC8FBA8FB88FBC8FBA6FBE7FBA7FBE83E
:10AE6000FBE7FB85FB64FB44FB44FB43FB44FB44E7
:10AE7000FB45FB85FB85FB86FBC6FBA7FBC7FBE70A
:10AE8000FBE7FBC8FBC8FBC7FBE7FBE7FBE7FBC730
:10AE9000FBC7FBC7FBC7FBC8FBC8FBC8FBC8FBC89D
:10AEA000FBC8FBC7FBE7FBE8FBA9FBC7FB85F3235C
:10AEB000EBE7F592FF7DFFFFFFFFFFFFFFFFFFFFC7
:10AEC000FFFFFFFFFFFFFFFFFFFFFFFFFFFFFFFF92
:10AED000FFFFFFFFFFFFFFFFFFFFFFFFFFFFFFFF82
:10AEE000FFFFFFFFFFFFFFFFFFFFFFFFFFFFFFFF72
:10AEF000FFFFFFFFFFFFFFFFFFFFFFFFFFFFFFFF62
:10AF0000FFFFFFFFFFFFFFFFFFFFFFFFFFFFFFFF51
:10AF1000FFFFFFFFFFFFFFFFFFFFFFFFFFFFFFFF41
:10AF2000FFFFFFFFFFFFFFFFFFFFFFFFFFFFFFFF31
:10AF3000FFFFFFFFFFFFFFFFFFFFFFFFFFFFFFFF21
:10AF4000FFFFFFFFFFFFFFFFFFFFFFFFFFFFFFFF11
:10AF5000FFFFFFFFFFFFFFFFFFFFFFFFFFFFFFFF01
:10AF6000FFFFFFFFFFFFFFFFFFFFFFFFFFFFFFFFF1
:10AF7000FFFFFFFFFFFFFFFFFFFFFFFFFFFFFFFFE1
:10AF8000FFFFFFFFFFFFFFFFFFFFFFFFFFFFFFFFD1
:10AF9000FFFFFFFFFFFFFFFFFFFFFFFFFFFFFFFFC1
:10AFA000FFFFFFFFFFFFFFFFFFFFFFFFFFFFFFFFB1
:10AFB000FFFFFFFFFFFFFFFFFFFFFFFFFFFFFFFFA1
:10AFC000FFFFFFFFFFFFFFFFFFFFFFFFFFFFFFFF91
:10AFD000FFFFFFFFFFFFFFFFFFFFFFFFFFFFFFFF81
:10AFE000FFFFFFFFFFFFFFFFFFFFFFFFFFFFFFFF71
:10AFF000FFFFFFFFFFFFFFFFFFFFFFFFFFFFFFFF61
:10B00000FFFFFFFEFFFEFFFFFFFFFFFFFFFFFF9DB4
:10B01000ECEFF304FB66FBC8FBA7FBE7F3C7FBE61B
:10B02000FB86FBC7FBC8FBC8FBC8FBC8FBC8FBC84B
:10B03000FBC8FBC8F3C8FB88FBA8FBE8FBA8FB2503
:10B04000F305EBA7F44AF48CF4ACFCADFCACF48C47
:10B05000FC2AF3E9E3A8EB66EB45F344FB23FB246E
:10B06000FB44FB86FB87FBC7FB88FB88FB88FB88D0
:10B07000FBC8FBC8FBC8FBC8FBC8FBC7FBE7FBE77B
:10B08000FBE7FBC7FB87FB86FB25EB05F389FD117F
:10B09000F75BFFFFF7FFFFFFFFFFFFFFFFFFFFFF74
:10B0A000FFFFFFFFFFFFFFFFFFFFFFFFFFFFFFFFB0
:10B0B000FFFFFFFFFFFFFFFFFFFFFFFFFFFFFFFFA0
:10B0C000FFFFFFFFFFFFFFFFFFFFFFFFFFFFFFFF90
:10B0D000FFFFFFFFFFFFFFFFFFFFFFFFFFFFFFFF80
:10B0E000FFFFFFFFFFFFFFFFFFFFFFFFFFFFFFFF70
:10B0F000FFFFFFFFFFFFFFFFFFFFFFFFFFFFFFFF60
:10B10000FFFFFFFFFFFFFFFFFFFFFFFFFFFFFFFF4F
:10B11000FFFFFFFFFFFFFFFFFFFFFFFFFFFFFFFF3F
:10B12000FFFFFFFFFFFFFFFFFFFFFFFFFFFFFFFF2F
:10B13000FFFFFFFFFFFFFFFFFFFFFFFFFFFFFFFF1F
:10B14000FFFFFFFFFFFFFFFFFFFFFFFFFFFFFFFF0F
:10B15000FFFFFFFFFFFFFFFFFFFFFFFFFFFFFFFFFF
:10B16000FFFFFFFFFFFFFFFFFFFFFFFFFFFFFFFFEF
:10B17000FFFFFFFFFFFFFFFFFFFFFFFFFFFFFFFFDF
:10B18000FFFFFFFFFFFFFFFFFFFFFFFFFFFFFFFFCF
:10B19000FFFFFFFFFFFFFFFFFFFFFFFFFFFFFFFFBF
:10B1A000FFFFFFFFFFFFFFFFFFFFFFFFFFFFFFFFAF
:10B1B000FFFFFFFFFFFFFFFFFFFFFFFFFFFFFFFF9F
:10B1C000FFFFFFFFFFFFFFFFFFFFFFFFFFFFFFFF8F
:10B1D000FFFFFFFFFFFFFFFFFFFFFFFFFFFFFFFF7F
:10B1E000FFFFFFFEF7FEF7FFFFFFFFFFF5F3E3664C
:10B1F000FB24FB86FBE8FB89FB87FBA7F3C8FB88E6
:10B20000FB88FBC7FBC8FBC8FBC8FBC8FBC8FBC867
:10B21000FBC8FBC8F3C8FB87FBA6FB85EB46FC8D90
:10B22000F6B7F7BDFFFFF7FFFFFFFFFFF7FFF7FFE1
:10B23000F7FFF7FFEFBFF71AF677FDF4F52FF48C61
:10B24000F40AE3A7E346F366F386F366FB66FB6660
:10B25000FBA6FBA6FBA6FBC6FBC6FBA6FB85FB6508
:10B26000FB66F365EB66F3E8F48BF616EFDFFFFFA2
:10B27000FFFFFFFFF7FEFFFFFFFFFFFFFFFFFFFFE7
:10B28000FFFFFFFFFFFFFFFFFFFFFFFFFFFFFFFFCE
:10B29000FFFFFFFFFFFFFFFFFFFFFFFFFFFFFFFFBE
:10B2A000FFFFFFFFFFFFFFFFFFFFFFFFFFFFFFFFAE
:10B2B000FFFFFFFFFFFFFFFFFFFFFFFFFFFFFFFF9E
:10B2C000FFFFFFFFFFFFFFFFFFFFFFFFFFFFFFFF8E
:10B2D000FFFFFFFFFFFFFFFFFFFFFFFFFFFFFFFF7E
:10B2E000FFFFFFFFFFFFFFFFFFFFFFFFFFFFFFFF6E
:10B2F000FFFFFFFFFFFFFFFFFFFFFFFFFFFFFFFF5E
:10B30000FFFFFFFFFFFFFFFFFFFFFFFFFFFFFFFF4D
:10B31000FFFFFFFFFFFFFFFFFFFFFFFFFFFFFFFF3D
:10B32000FFFFFFFFFFFFFFFFFFFFFFFFFFFFFFFF2D
:10B33000FFFFFFFFFFFFFFFFFFFFFFFFFFFFFFFF1D
:10B34000FFFFFFFFFFFFFFFFFFFFFFFFFFFFFFFF0D
:10B35000FFFFFFFFFFFFFFFFFFFFFFFFFFFFFFFFFD
:10B36000FFFFFFFFFFFFFFFFFFFFFFFFFFFFFFFFED
:10B37000FFFFFFFFFFFFFFFFFFFFFFFFFFFFFFFFDD
:10B38000FFFFFFFFFFFFFFFFFFFFFFFFFFFFFFFFCD
:10B39000FFFFFFFFFFFFFFFFFFFFFFFFFFFFFFFFBD
:10B3A000FFFFFFFFFFFFFFFFFFFFFFFFFFFFFFFFAD
:10B3B000FFFFFFFFFFFFFFFFFFFFFFFFFFFFFFFF9D
:10B3C000FFFFFFDFFFFFFFFFFF3BEC8DF304FB649C
:10B3D000FBC7FBC9FBC8F3E6FBC7FB88FBA8FBA7C1
:10B3E000FBE8FBC7FBC8FBC8FBC8FBC8FBC8FBC826
:10B3F000FBC8FBE8FB88FBE5FB84F3C9EE56FFFFC7
:10B40000FFFFFFFFFFFFFFFFFFFFFFFFF7FFFFFF54
:10B41000FFFFFFFFFFFFFFFFFFFFFFFFFFFFFFFF3C
:10B42000F7BDEF3AEEB7F5D3FD51FD0EEC8CF42AE3
:10B43000F409F3C7EB85EB86EBA6F3A7F3C8F3EAB1
:10B44000F4ADF591EE95EF59FFFFFFFFF7FFFFDF3A
:10B45000FFFFFFFFFFFFFFFFFFFFFFFFFFFFFFFFFC
:10B46000FFFFFFFFFFFFFFFFFFFFFFFFFFFFFFFFEC
:10B47000FFFFFFFFFFFFFFFFFFFFFFFFFFFFFFFFDC
:10B48000FFFFFFFFFFFFFFFFFFFFFFFFFFFFFFFFCC
:10B49000FFFFFFFFFFFFFFFFFFFFFFFFFFFFFFFFBC
:10B4A000FFFFFFFFFFFFFFFFFFFFFFFFFFFFFFFFAC
:10B4B000FFFFFFFFFFFFFFFFFFFFFFFFFFFFFFFF9C
:10B4C000FFFFFFFFFFFFFFFFFFFFFFFFFFFFFFFF8C
:10B4D000FFFFFFFFFFFFFFFFFFFFFFFFFFFFFFFF7C
:10B4E000FFFFFFFFFFFFFFFFFFFFFFFFFFFFFFFF6C
:10B4F000FFFFFFFFFFFFFFFFFFFFFFFFFFFFFFFF5C
:10B50000FFFFFFFFFFFFFFFFFFFFFFFFFFFFFFFF4B
:10B51000FFFFFFFFFFFFFFFFFFFFFFFFFFFFFFFF3B
:10B52000FFFFFFFFFFFFFFFFFFFFFFFFFFFFFFFF2B
:10B53000FFFFFFFFFFFFFFFFFFFFFFFFFFFFFFFF1B
:10B54000FFFFFFFFFFFFFFFFFFFFFFFFFFFFFFFF0B
:10B55000FFFFFFFFFFFFFFFFFFFFFFFFFFFFFFFFFB
:10B56000FFFFFFFFFFFFFFFFFFFFFFFFFFFFFFFFEB
:10B57000FFFFFFFFFFFFFFFFFFFFFFFFFFFFFFFFDB
:10B58000FFFFFFFFFFFFFFFFFFFFFFFFFFFFFFFFCB
:10B59000FFFFFFFFFFFFFFFFFFFFFFFFFFFFFFFFBB
:10B5A000FFFFFFFFFFBEF636EBC8FB43FBA7FBC860
:10B5B000FBC8FB87FBC6FBC7FBE7FBA8FBA7FBE7BA
:10B5C000FBC8FBA8FBC8FBC8FBC8FBC8FBC8FBC883
:10B5D000FBC7FBA8FBA8FBC5F3A8F678FFFFFFFF9E
:10B5E000FFDFFFFEFFFEFFFFFFFFFFFFFFFFFFFF8D
:10B5F000FFFFFFFFFFFEFFFEFFFEFFFFFFFFFFFF5E
:10B60000FFFFFFFFFFFFFFFFFFFFFFFEFF9CF73B7A
:10B61000F6FAF6D9EE97EE57F656F6B8F71AF73B64
:10B62000FFBEFFFFFFFFFFFFFFFFFFFFFFFFFFFF6B
:10B63000FFFFFFFFFFFFFFFFFFFFFFFFFFFFFFFF1A
:10B64000FFFFFFFFFFFFFFFFFFFFFFFFFFFFFFFF0A
:10B65000FFFFFFFFFFFFFFFFFFFFFFFFFFFFFFFFFA
:10B66000FFFFFFFFFFFFFFFFFFFFFFFFFFFFFFFFEA
:10B67000FFFFFFFFFFFFFFFFFFFFFFFFFFFFFFFFDA
:10B68000FFFFFFFFFFFFFFFFFFFFFFFFFFFFFFFFCA
:10B69000FFFFFFFFFFFFFFFFFFFFFFFFFFFFFFFFBA
:10B6A000FFFFFFFFFFFFFFFFFFFFFFFFFFFFFFFFAA
:10B6B000FFFFFFFFFFFFFFFFFFFFFFFFFFFFFFFF9A
:10B6C000FFFFFFFFFFFFFFFFFFFFFFFFFFFFFFFF8A
:10B6D000FFFFFFFFFFFFFFFFFFFFFFFFFFFFFFFF7A
:10B6E000FFFFFFFFFFFFFFFFFFFFFFFFFFFFFFFF6A
:10B6F000FFFFFFFFFFFFFFFFFFFFFFFFFFFFFFFF5A
:10B70000FFFFFFFFFFFFFFFFFFFFFFFFFFFFFFFF49
:10B71000FFFFFFFFFFFFFFFFFFFFFFFFFFFFFFFF39
:10B72000FFFFFFFFFFFFFFFFFFFFFFFFFFFFFFFF29
:10B73000FFFFFFFFFFFFFFFFFFFFFFFFFFFFFFFF19
:10B74000FFFFFFFFFFFFFFFFFFFFFFFFFFFFFFFF09
:10B75000FFFFFFFFFFFFFFFFFFFFFFFFFFFFFFFFF9
:10B76000FFFFFFFFFFFFFFFFFFFFFFFFFFFFFFFFE9
:10B77000FFFFFFFFFFFFFFFFFFFFFFFFFFFFFFFFD9
:10B78000FFFFFF5CF4D0F347FB85FBE6FBC8FBE75C
:10B79000FBA6FBA6FBC7FBA7FBC7FBC8FBA8FBA838
:10B7A000FBC7FBC7FBC8FBC8FBC8FBC8FBC8FBC883
:10B7B000FBC7FBC7FBA9FB46F551FFFFFFFFFFFFE0
:10B7C000F7FFFFFFFFFFFFFFFFFFFFFFFFFFFFFF91
:10B7D000FFFFFFFFFFFFFFFFFFFFFFFFFFFFFFFF79
:10B7E000FFFFFFFFFFFFFFFFFFFFFFFFFFFFFFFF69
:10B7F000FFFFFFFFFFFFFFFFFFFFFFFFFFFFFFFF59
:10B80000FFFFFFFFFFFFFFFFFFFFFFFFFFFFFFFF48
:10B81000FFFFFFFFFFFFFFFEFFFFFFFFFFFFFFFF39
:10B82000FFFFFFFFFFFFFFFFFFFFFFFFFFFFFFFF28
:10B83000FFFFFFFFFFFFFFFFFFFFFFFFFFFFFFFF18
:10B84000FFFFFFFFFFFFFFFFFFFFFFFFFFFFFFFF08
:10B85000FFFFFFFFFFFFFFFFFFFFFFFFFFFFFFFFF8
:10B86000FFFFFFFFFFFFFFFFFFFFFFFFFFFFFFFFE8
:10B87000FFFFFFFFFFFFFFFFFFFFFFFFFFFFFFFFD8
:10B88000FFFFFFFFFFFFFFFFFFFFFFFFFFFFFFFFC8
:10B89000FFFFFFFFFFFFFFFFFFFFFFFFFFFFFFFFB8
:10B8A000FFFFFFFFFFFFFFFFFFFFFFFFFFFFFFFFA8
:10B8B000FFFFFFFFFFFFFFFFFFFFFFFFFFFFFFFF98
:10B8C000FFFFFFFFFFFFFFFFFFFFFFFFFFFFFFFF88
:10B8D000FFFFFFFFFFFFFFFFFFFFFFFFFFFFFFFF78
:10B8E000FFFFFFFFFFFFFFFFFFFFFFFFFFFFFFFF68
:10B8F000FFFFFFFFFFFFFFFFFFFFFFFFFFFFFFFF58
:10B90000FFFFFFFFFFFFFFFFFFFFFFFFFFFFFFFF47
:10B91000FFFFFFFFFFFFFFFFFFFFFFFFFFFFFFFF37
:10B92000FFFFFFFFFFFFFFFFFFFFFFFFFFFFFFFF27
:10B93000FFFFFFFFFFFFFFFFFFFFFFFFFFFFFFFF17
:10B94000FFFFFFFFFFFFFFFFFFFFFFFFFFFFFFFF07
:10B95000FFFFFFFFFFFFFFFFFFFFFFFFFFFFFFFFF7
:10B96000E6B8EC08FB45FB66FBC6F3E7FBC8FB88C3
:10B97000FBA8FBC7FBC8FB89FB89FBA8FBC7FBC770
:10B98000FBC6FBC7FBC8FBC8FBC8FBC8FBC8FBC8A2
:10B99000FBC8FBC8FBA7FBA5FF17FFFFFFFFFFFED0
:10B9A000FFFFFFFFFFFFFFFFFFFFFFFFFFFFFFFFA7
:10B9B000FFFFFFFFFFFFFFFFFFFFFFFFFFFFFFFF97
:10B9C000FFFFFFFFFFFFFFFFFFFFFFFFFFFFFFFF87
:10B9D000FFFFFFFFFFFFFFFFFFFFFFFFFFFFFFFF77
:10B9E000FFFFFFFFFFFFFFFFFFFFFFFFFFFFFFFF67
:10B9F000FFFFFFFFFFFFFFFFFFFFFFFFFFFFFFFF57
:10BA0000FFFFFFFFFFFFFFFFFFFFFFFFFFFFFFFF46
:10BA1000FFFFFFFFFFFFFFFFFFFFFFFFFFFFFFFF36
:10BA2000FFFFFFFFFFFFFFFFFFFFFFFFFFFFFFFF26
:10BA3000FFFFFFFFFFFFFFFFFFFFFFFFFFFFFFFF16
:10BA4000FFFFFFFFFFFFFFFFFFFFFFFFFFFFFFFF06
:10BA5000FFFFFFFFFFFFFFFFFFFFFFFFFFFFFFFFF6
:10BA6000FFFFFFFFFFFFFFFFFFFFFFFFFFFFFFFFE6
:10BA7000FFFFFFFFFFFFFFFFFFFFFFFFFFFFFFFFD6
:10BA8000FFFFFFFFFFFFFFFFFFFFFFFFFFFFFFFFC6
:10BA9000FFFFFFFFFFFFFFFFFFFFFFFFFFFFFFFFB6
:10BAA000FFFFFFFFFFFFFFFFFFFFFFFFFFFFFFFFA6
:10BAB000FFFFFFFFFFFFFFFFFFFFFFFFFFFFFFFF96
:10BAC000FFFFFFFFFFFFFFFFFFFFFFFFFFFFFFFF86
:10BAD000FFFFFFFFFFFFFFFFFFFFFFFFFFFFFFFF76
:10BAE000FFFFFFFFFFFFFFFFFFFFFFFFFFFFFFFF66
:10BAF000FFFFFFFFFFFFFFFFFFFFFFFFFFFFFFFD58
:10BB0000FFFFFFFFFFFFFFFFFFFFFFFFFFFFFFFF45
:10BB1000FFFFFFFFFFFFFFFFFFFFFFFFFFFFFFFF35
:10BB2000FFFFFFFFFFFFFFFFFFFFFFFFFFFEFFFF26
:10BB3000FFFFFFFFF7FFFFFFFFFFFFFFF7FFEDB284
:10BB4000F2E3FB45FB86FBC8FBC8FB88FBC8FBC8D0
:10BB5000FBC8FBC8FBC8FBC6FBC6FBC7FBC8FBC8D2
:10BB6000FBC8FBC8FBC8FBC8FBC8FBC8FBC8FBC8BD
:10BB7000FBA8FBC8F3C6FB67FEF9F7FFFFFFFFFF5B
:10BB8000FFFFFFFFFFFFFFFFFFFFFFFFFFFFFFFFC5
:10BB9000FFFFFFFFFFFFFFFFFFFFFFFFFFFFFFFFB5
:10BBA000FFFFFFFFFFFFFFFFFFFFFFFFFFFFFFFFA5
:10BBB000FFFFFFFFFFFFFFFFFFFFFFFFFFFFFFFF95
:10BBC000FFFFFFFFFFFFFFFFFFFFFFFFFFFFFFFF85
:10BBD000FFFFFFFFFFFFFFFFFFFFFFFFFFFFFFFF75
:10BBE000FFFFFFFFFFFFFFFFFFFFFFFFFFFFFFFF65
:10BBF000FFFFFFFFFFFFFFFFFFFFFFFFFFFFFFFF55
:10BC0000FFFFFFFFFFFFFFFFFFFFFFFFFFFFFFFF44
:10BC1000FFFFFFFFFFFFFFFFFFFFFFFFFFFFFFFF34
:10BC2000FFFFFFFFFFFFFFFFFFFFFFFFFFFFFFFF24
:10BC3000FFFFFFFFFFFFFFFFFFFFFFFFFFFFFFFF14
:10BC4000FFFFFFFFFFFFFFFFFFFFFFFFFFFFFFFF04
:10BC5000FFFFFFFFFFFFFFFFFFFFFFFFFFFFFFFFF4
:10BC6000FFFFFFFFFFFFFFFFFFFFFFFFFFFFFFFFE4
:10BC7000FFFFFFFFFFFFFFFFFFFFFFFFFFFFFFFFD4
:10BC8000FFFFFFFFFFFFFFFFFFFFFFFFFFFFFFFFC4
:10BC9000FFFFFFFFFFFFFFFFFFFFFFFFFFFFFFFFB4
:10BCA000FFFFFFFFFFFFFFFFFFFFFFFFFFFFFFFFA4
:10BCB000FFFFFFFFFFFFFFFFFFFFFFFFFFFFFFFF94
:10BCC000FFFFFFFFFFFFFFFFFFFFFFFFFFFFFFFF84
:10BCD000FFFFFFFFFFFFFFFFFFFFFFFFFFFFFFFF74
:10BCE000FFFFFFFFFFFFFFFFFFFFFFFFFFFFFFFF64
:10BCF000FFFFFFFFFFFFFFFFFFFFFFFFFFFFFFFF54
:10BD0000FFFFFFFFF7FFFFFFFFFFFFFFFFFFFFFF4B
:10BD1000FFFFFFFFFFFFFFFFFFFFF75BECACFB0444
:10BD2000FBA7FB87FBC7FBC8FBA7FBE8FBC8FBC85F
:10BD3000FBC8FBC8FBC8FBC8FBC8FBC8FBC8FBC8EB
:10BD4000FBC8FBC8FBC8FBC8FBC8FBC8FBC8FBC8DB
:10BD5000FBC8FBC8FB88F365EDD1F7FFFFFFFFFED3
:10BD6000FFFFFFFFFFFFFFFFFFFFFFFFFFFFFFFFE3
:10BD7000FFFFFFFFFFFFFFFFFFFFFFFFFFFFFFFFD3
:10BD8000FFFFFFFFFFFFFFFFFFFFFFFFFFFFFFFFC3
:10BD9000FFFFFFFFFFFFFFFFFFFFFFFFFFFFFFFFB3
:10BDA000FFFFFFFFFFFFFFFFFFFFFFFFFFFFFFFFA3
:10BDB000FFFFFFFFFFFFFFFFFFFFFFFFFFFFFFFF93
:10BDC000FFFFFFFFFFFFFFFFFFFFFFFFFFFFFFFF83
:10BDD000FFFFFFFFFFFFFFFFFFFFFFFFFFFFFFFF73
:10BDE000FFFFFFFFFFFFFFFFFFFFFFFFFFFFFFFF63
:10BDF000FFFFFFFFFFFFFFFFFFFFFFFFFFFFFFFF53
:10BE0000FFFFFFFFFFFFFFFFFFFFFFFFFFFFFFFF42
:10BE1000FFFFFFFFFFFFFFFFFFFFFFFFFFFFFFFF32
:10BE2000FFFFFFFFFFFFFFFFFFFFFFFFFFFFFFFF22
:10BE3000FFFFFFFFFFFFFFFFFFFFFFFFFFFFFFFF12
:10BE4000FFFFFFFFFFFFFFFFFFFFFFFFFFFFFFFF02
:10BE5000FFFFFFFFFFFFFFDFFFFFFFDFFFDFFFFF52
:10BE6000FFFFFFFFFFFFFFFFFFFFFFFFFFFFFFFFE2
:10BE7000FFFFFFFFFFFFFFFFFFFFFFFFFFFFFFFFD2
:10BE8000FFFFFFFFFFFFFFFFFFFFFFFFFFFFFFFFC2
:10BE9000FFFFFFFFFFFFFFFFFFFFFFFFFFFFFFFFB2
:10BEA000FFFFFFFFFFFFFFFFFFFFFFFFFFFFFFFFA2
:10BEB000FFFFFFFFFFFFFFFFFFFFFFFFFFFFFFFF92
:10BEC000FFFFFFFFFFFFFFFFFFFFFFFFFFFFFFFF82
:10BED000FFFFFFFFFFFFFFFFFFFFFFFFFFFFFFFF72
:10BEE000FFFFFFFFFFFFFFFFFFFFFFFFFFFFFFFF62
:10BEF000FFFEFFFFFFFFFFFFFEB8F44AFB64FB8776
:10BF0000FBC8FBA7FBC7FBA7FBA7FBC8FBC8FBC87D
:10BF1000FBC8FBC8FBC8FBC8FBC8FBC8FBC8FBC809
:10BF2000FBC8FBC8FBC8FBC8FBC8FBC8FBC8FBC8F9
:10BF3000FBC7FBA7FB8AF3C4F3C9FEFBFFFFFFFFB0
:10BF4000FFFFFFFFFFFFFFFFFFFFFFFFFFFFFFFF01
:10BF5000FFFFFFFFFFFFFFFFFFFFFFFFFFFFFFFFF1
:10BF6000FFFFFFFFFFFFFFFFF7BEF79EF79EF79E65
:10BF7000F79EF79EF79EF79EF79EF79EEF7DFFFFD9
:10BF8000FFFFFFFFFFFFEF7D9CF3AD55A534A51428
:10BF9000DEDBDEDB9CD3A534A514A534EF7DFFFFEB
:10BFA000FFFFFFFFFFFFFFFFFFFFFFFFFFFFFFFFA1
:10BFB000BDF79CF3A534A534E73CFFFFFFFFFFFF6F
:10BFC000FFFFFFFFFFFFFFFFFFFFFFFFFFFFFFFF81
:10BFD000FFFFFFFFFFFFFFFFFFFFFFFFFFFFFFFF71
:10BFE000FFFFFFFFFFFFFFFFFFFFFFFFF79EEF5D7C
:10BFF000EF5DE73CE73CE71CDEFBDEFBDEDBDEDB88
:10C00000D6BACE79EF7DFFFFEF5DEF7DEF7DEF5D7F
:10C01000F7BEFFFFFFFFFFFFEF7DC638C638C6380B
:10C02000C618DEDBFFFFFFFFFFFFFFFFFFFFFFFF85
:10C03000FFFFFFFFCE598C519CF3949294B2FFDF27
:10C04000FFFFFFFFFFFFFFFFFFFFFFFFFFFFFFFF00
:10C05000FFFFDEDBA534B596A534BDF7FFDFFFFF9C
:10C06000FFFFFFFFFFFFFFFFFFFFFFFFFFFFFFFFE0
:10C07000FFFFFFFFFFFFFFFFFFFFFFFFFFFFFFFFD0
:10C08000FFFFFFFFFFFFFFFFFFFFFFFFFFFFFFFFC0
:10C09000FFFFFFFFFFFFFFFFFFFFFFFFFFFFFFFFB0
:10C0A000FFFFFFFFFFFFFFFFFFFFFFFFFFFFFFFFA0
:10C0B000FFFFFFFFFFFFFFFFFFFFFFFFFFFFFFFF90
:10C0C000FFFFFFFFFFFFFFFFFFFFFFFFFFFEFFFE82
:10C0D000FFFFFFFFFFFFEE56F3A8FB66FBE7FBC881
:10C0E000FBA8FBC7FB87FBC7FBA7FBC8FBC8FBC8BC
:10C0F000FBC8FBC8FBC8FBC8FBC8FBC8FBC8FBC828
:10C10000FBC8FBC8FBC8FBC8FBC8FBC8FBC8FBC817
:10C11000FBC7FBE8FBA8FBE6FB66F4AEFFBEFFFF38
:10C12000FFFFFFDFFFFFFFFFFFFFFFFFFFFFFFFF3F
:10C13000FFFFFFFFFFFFFFFFFFFFFFFFFFFFFFFF0F
:10C14000FFFFFFFFFFFFFFFF9CD3738E7BEF7BEFB3
:10C150007BEF7BEF7BEF7BEF7BEF7BEF6B4DBDF7F7
:10C16000FFFFFFDFFFFFE71C42284A694A6939E702
:10C17000BDD7BDD739C7528A4228528AE71CFFFF74
:10C18000FFDFFFDFFFDFFFFFFFFFFFFFFFFFE73CFA
:10C190005AEB42284A694A69C638E73CDEFBDEFBB7
:10C1A000DEFBDEFBDEFBDEFBDEFBDEFBDEFBDEFBC7
:10C1B000DEFBDEFBDEFBDEFBDEFBDEFBDEFBDEFBB7
:10C1C000DEFBDEDBDEDBFFDFFFFFFFDF9492632CB5
:10C1D000738E6B6D6B6D632C630C630C630C5AEB8D
:10C1E00052AA528AC618FFFF7BCF6B6D73AE632CC9
:10C1F00094B2FFFFFFFFFFFFCE7952AA528A52AAE4
:10C200004A499CF3FFFFFFFFFFFFFFFFFFFFFFFF18
:10C21000FFFFFFFFAD552965528A420852AAFFFF72
:10C22000FFFFFFFFFFFFFFFFFFFFFFFFFFFFFFFF1E
:10C23000FFFFAD5539C752AA420873AEF7BEFFFFE4
:10C24000FFFFFFFFFFFFFFFFFFFFFFFFFFFFFFFFFE
:10C25000FFFFFFFFFFFFFFFFFFFFFFFFFFFFFFFFEE
:10C26000FFFFFFFFFFFFFFFFFFFFFFFFFFFFFFFFDE
:10C27000FFFFFFFFFFFFFFFFFFFFFFFFFFFFFFFFCE
:10C28000FFFFFFFFFFFFFFFFFFFFFFFFFFFFFFFFBE
:10C29000FFFFFFFFFFFFFFFFFFFFFFFFFFFFFFFFAE
:10C2A000FFFFFFFFFFFFFFFFF7FFFFFEFFFEFFFFA8
:10C2B000FFFFFFFFEE13F365FB66FBC7FBA8FBC7A1
:10C2C000FBC7FBC8FBC8FBC8FBC8FBC8FBC8FBC857
:10C2D000FBC8FBC8FBC8FBC8FBC8FBC8FBC8FBC846
:10C2E000FBC8FBC8FBC8FBC8FBC8FBC8FBC8FBC836
:10C2F000FBC8FBA8F3E8FBA6FBC6FB46F4ADF7DFE3
:10C30000FFFFFFDEFFFFFFFFFFFFFFFFFFFFFFFF5E
:10C31000FFFFFFFFFFFFFFFFFFFFFFFFFFFFFFFF2D
:10C32000FFFFFFFFFFFFFFFF738E39C7528A528A5C
:10C33000528A528A528A528A528A528A4A495AEBFD
:10C340008430738EC638EF5D528A5ACB52AA4A693E
:10C35000C618BDF742085AEB4A695AEBEF7DCE5931
:10C36000630C73AEB596FFFFFFFFFFFFFFFFCE79B3
:10C37000528A5AEB5ACB52AA630C5AEB5AEB5AEB3D
:10C380005AEB5AEB5AEB5AEB5AEB5AEB5AEB5AEB85
:10C390005AEB5ACB630C5ACB5ACB630C5AEB5AEB81
:10C3A000630C4A69A514FFFFFFFFFFDF6B6D39E7E0
:10C3B000528A528A528A528A5ACB52AA528A5ACBEB
:10C3C000528A4A49BDF7FFFF9CD331A6528A4228C0
:10C3D000528AE71CFFFFFFFFD69A52AA528A52AA3E
:10C3E0004A499CF3FFFFFFFFFFFFFFFFEF7DBDD733
:10C3F000BDF7D69A8C714A49630C52AA632CBDF7DB
:10C40000C638BDF7C638FFDFFFFFFFFFFFFFFFFFA6
:10C41000FFFFC61839E75ACB4A698430FFFFFFFF98
:10C42000FFFFFFFFFFFFFFFFFFFFFFFFFFFFFFFF1C
:10C43000FFFFFFFFFFFFFFFFFFFFFFFFFFFFFFFF0C
:10C44000FFFFFFFFFFFFFFFFFFFFFFFFFFFFFFFFFC
:10C45000FFFFFFFFFFFFFFFFFFFFFFFFFFFFFFFFEC
:10C46000FFFFFFFFFFFFFFFFFFFFFFFFFFFFFFFFDC
:10C47000FFFFFFFFFFFFFFFFFFFFFFFFFFFFFFFFCC
:10C48000FFFFFFFFFFFFF7FFFFFEFFFFF7FFF7FFD5
:10C49000FFFFF5D2EB66FB66FBA5FBA7FB88FB87DE
:10C4A000FBC7FBC8FBC8FBC8FBC8FBC8FBC8FBC875
:10C4B000FBC8FBC8FBC8FBC8FBC8FBC8FBC8FBC864
:10C4C000FBC8FBC8FBC8FBC8FBC8FBC8FBC8FBC854
:10C4D000FBC7FBC8FB88FBC6FBC7FBC6F345F3EBFA
:10C4E000F7FFFFFFFFFFFFFFFFFFFFFFFFFFFFFF64
:10C4F000FFFFFFFFFFFFFFFFFFFFFFFFFFFFFFFF4C
:10C50000FFFFFFFFFFFFFFFF84104A695ACB5ACBA2
:10C510004A4939E74208528A5AEB5AEB5AEB73AE52
:10C520004A6942089492EF7D528A5ACB52AA4A69CC
:10C53000C618BDF742085ACB528A630CF7BE94B2B4
:10C5400031864A49B5B6FFFFFFFFFFFFFFFF9CF3AF
:10C550004A695ACB632C630C52AA52AA52AA52AA15
:10C5600052AA52AA52AA52AA52AA52AA52AA52AAEB
:10C5700052AA52AA52AA52AA52AA52AA52AA5AEB92
:10C580004208632CEF5DFFFFFFFFF7BE6B4D31A646
:10C59000422839E75ACB5ACB630C5ACB42084A4956
:10C5A00039C739C7B5B6FFFFEF5D42285ACB630CD8
:10C5B00042089CF3FFFFFFFFD69A5ACB52AA5ACBF0
:10C5C000528AA534FFFFFFFFFFFFFFFFD69A420804
:10C5D00039E74A49528A5ACB5ACB630C5ACB528A12
:10C5E0004A4931A65AEBEF7DA514A534A534A534EC
:10C5F000AD558C514A69630C528A6B4DAD55A534CB
:10C60000A534A5349CF3A534F7BEFFFFFFFFFFFF61
:10C61000FFFFFFFFFFFFFFFFFFFFFFFFFFFFFFFF2A
:10C62000FFFFFFFFFFFFFFFFFFFFFFFFFFFFFFFF1A
:10C63000FFFFFFFFFFFFFFFFFFFFFFFFFFFFFFFF0A
:10C64000FFFFFFFFFFFFFFFFFFFFFFFFFFFFFFFFFA
:10C65000FFFFFFFFFFFFFFFFFFFFFFFFFFFFFFFFEA
:10C66000FFFFFFFFFFFFFFFFFFBEFFFFF7FFF7DE4C
:10C67000F54EF324FB88FBE7FBE7FBA7FBC6FBE8D3
:10C68000FBC8FBC8FBC8FBC8FBC8FBC8FBC8FBC892
:10C69000FBC8FBC8FBC8FBC8FBC8FBC8FBC8FBC882
:10C6A000FBC8FBC8FBC8FBC8FBC8FBC8FBC8FBC872
:10C6B000FBC8FBC8FB86F388F3C8FBC6FBA6FB24BC
:10C6C000EBA8FEFAFFFFFFFFFFFFFFFFFFFFFFFFEB
:10C6D000FFFFFFFFFFFFFFFFFFFFFFFFFFFFFFFF6A
:10C6E000FFFFFFFFFFFFFFFF84104A695ACB5ACBC1
:10C6F0009CD3CE59CE7984104A695ACB5ACBAD75AA
:10C70000632C4A497BEFEF5D52AA5ACB52AA4A6981
:10C71000C618BDF742085AEB4A69632CEF5D73AE49
:10C720004A495AEBD6BAFFFFFFFFFFFFE73C632CF5
:10C730004A494A6952AA4A494A694A694A694A6958
:10C740004A694A694A694A694A694A694A694A6951
:10C750004A694A694A69528A5ACB5ACB5ACB5AEB30
:10C76000528AD69AFFFFFFFFFFFFFFDFAD5594B25D
:10C77000AD75C6186B4D52AA528A6B6DD69AD69A71
:10C78000DEDBDEFBF7BEFFFFFFFF841042285AEB23
:10C790004A49528AFFFFFFFFD69A5ACB528A5ACB98
:10C7A0004A69A514FFFFFFFFFFFFFFFFD6BA4A69E2
:10C7B000528A52AA5ACB632C5AEB5ACB630C5ACBEF
:10C7C00052AA4A498430D6BA39E739E742084208C2
:10C7D00042084A495ACB5ACB5AEB52AA42084A4914
:10C7E0004208420839C7528AF7BEFFFFFFFFFFFF2A
:10C7F000FFFFFFFFFFFFFFFFFFFFFFFFFFFFFFFF49
:10C80000FFFFFFFFFFFFFFFFFFFFFFFFFFFFFFFF38
:10C81000FFFFFFFFFFFFFFFFFFFFFFFFFFFFFFFF28
:10C82000FFFFFFFFFFFFFFFFFFFFFFFFFFFFFFFF18
:10C83000FFFFFFFFFFFFFFFFFFFFFFFFFFFFFFFF08
:10C84000FFFFFFFFFFFFFFFFFFDFFFFFFFFFF5B071
:10C85000F344FBC7FB88FB88FBC7FBC6FBC6FBC7D3
:10C86000FBC7FBC8FBC8FBC8FBC8FBC8FBC8FBC8B1
:10C87000FBC8FBC8FBC8FBC8FBC8FBC8FBC8FBC8A0
:10C88000FBC8FBC8FBC8FBC8FBC8FBC8FBC8FBC890
:10C89000FBC8FBA7FBA7FB88FBC8FBC7FBA7FBE705
:10C8A000FB46F3E8F697FFFFFFFFFFFFFFFFFFFFE9
:10C8B000FFFFFFFFFFFFFFFFFFFFFFFFFFFFFFFF88
:10C8C000FFFFFFFFFFFFFFFF84104A695ACB528A28
:10C8D000B5B6FFFFFFFF94924A695AEB528ACE59D0
:10C8E000841042087BCFEF5D630C5ACB5ACB52AA1F
:10C8F000C618BDF742085ACB4A696B6DE73C632CFA
:10C90000528A632CDEFBFFFFFFFFFFFFEF5D949277
:10C9100094B29CF39CD39CF39CF39CF39CF39CF308
:10C920009CF39CF39CF39CF39CF39CF39CF39CF38F
:10C930009CF39CF39CF39CD3630C5ACB5AEB422898
:10C94000AD55FFFFFFFFFFFFFFFFFFFFFFFFFFFFF3
:10C95000FFFFFFFF7BCF4A694A698410FFFFFFFF9B
:10C96000FFFFFFFFFFFFFFFFFFFFC63842285ACB44
:10C970005AEB39E7D69AFFFFD69A5ACB52AA5ACB2E
:10C980004A69A514FFFFFFFFFFFFFFFFD69A4A6920
:10C9900042284A6952AA5ACB5ACB5ACB5ACB52AAEE
:10C9A0004A6939C7738EDEFB4A694A694A6952AAE5
:10C9B000528A528A5AEB5ACB5AEB52AA4A69528A85
:10C9C000528A52AA4228630CFFFFFFFFFFFFFFFFBE
:10C9D000FFFFFFFFFFFFFFFFFFFFFFFFFFFFFFFF67
:10C9E000FFFFFFFFFFFFFFFFFFFFFFFFFFFFFFFF57
:10C9F000FFFFFFFFFFFFFFFFFFFFFFFFFFFFFFFF47
:10CA0000FFFFFFFFFFFFFFFFFFFFFFFFFFFFFFFF36
:10CA1000FFFFFFFFFFFFFFFFFFFFFFFFFFFFFFFF26
:10CA2000FFFFFFFFFFFFFFFFFFFFFFFFF5F2FB65CB
:10CA3000FB87FBC7FBA7FBA8FBA8FBC7FBA7FBC7A4
:10CA4000FBC7FBC8FBC8FBC8FBC8FBC8FBC8FBC8CF
:10CA5000FBC8FBC8FBC8FBC8FBC8FBC8FBC8FBC8BE
:10CA6000FBC8FBC8FBC8FBC8FBC8FBC8FBC8FBC8AE
:10CA7000FBC8FBC8FBC7FBA7FBA8FBC8FBA7FBA623
:10CA8000FBC8FB44F3A7F5D3FFFFFFFFFFFFFFFF4A
:10CA9000FFFFFFFFFFFFFFFFFFFFFFFFFFFFFFFFA6
:10CAA000FFFFFFFFFFFFFFFF84104A695ACB52AA26
:10CAB000B596FFFFFFFF94B2528A630C4228D6BAA4
:10CAC000949239E76B4DCE595AEB5ACB5ACB528AD6
:10CAD000C618BDF742085ACB528A738EDEDB5ACB9A
:10CAE000528A7BCFF79EFFFFFFFFFFFFFFDFFFFFB5
:10CAF000FFFFFFFFFFFFFFFFFFFFFFFFFFFFFFFF46
:10CB0000FFFFFFFFFFFFFFFFFFFFFFFFFFFFFFFF35
:10CB1000FFFFFFFFFFFFAD75528A52AA4A697BEF04
:10CB2000FFFFF7BEEF7DFFFFFFFFFFDFE71CE73CE6
:10CB3000E73CF79E738E528A4A697BCFDEFBE73C67
:10CB4000E71CE71CF79EFFFFFFFFFFFF6B4D4A4905
:10CB5000630C42288430FFFFD69A5ACB5ACB5ACB6B
:10CB60004A69A514FFFFFFFFFFFFFFFFEF7DBDD761
:10CB7000BDD7C6388C714A695ACB52AA630CB5B678
:10CB8000BDF7B596CE79DEFB738E73AE7BCF73AEF9
:10CB90007BCF6B4D5ACB5ACB5ACB5AEB738E738EDD
:10CBA00073AE7BCF6B4D7BEFF7BEFFFFFFFFFFFF49
:10CBB000FFFFFFFFFFFFFFFFFFFFFFFFFFFFFFFF85
:10CBC000FFFFFFFFFFFFFFFFFFFFFFFFFFFFFFFF75
:10CBD000FFFFFFFFFFFFFFFFFFFFFFFFFFFFFFFF65
:10CBE000FFFEFFFFFFFFFFFFFFFFFFFFFFFFFFFF56
:10CBF000FFFFFFFFFFFFFFFFFFFFFFFFFFFFFFFF45
:10CC0000FFFFFFFFFFFFFFFFFFFFEED8EB87FB8675
:10CC1000FB88FBC8FBC7FBC7FBC8FBC8FBC8FBC83E
:10CC2000FBC8FBC8FBC8FBC8FBC8FBC8FBC8FBC8EC
:10CC3000FBC8FBC8FBC8FBC8FBC8FBC8FBC8FBC8DC
:10CC4000FBC8FBC8FBC8FBC8FBC8FBC8FBC8FBC8CC
:10CC5000FBC8FBC8FBC8FBC8FBC8FBC8FBC8FB86FE
:10CC6000FBE8FBC8FB86EB66FD91FFFFFFFFFFFFC4
:10CC7000FFFFFFFFFFFFFFFFFFFFFFFFFFFFFFFFC4
:10CC8000FFFFFFFFFFFFFFFF84104A695ACB52AA44
:10CC9000BDD7FFFFFFFF73AE528A5AEB4208CE7931
:10CCA0009CF34208630CA5345AEB5ACB52AA4A694A
:10CCB000C618BDF742085AEB4A697BCFBDF7528AC6
:10CCC0004A699492FFFFFFFFFFFFFFFFBDD773AEDE
:10CCD00084108410841084108410841084108410B4
:10CCE00084108410841084108410841084108410A4
:10CCF0007BEF843084105ACB5ACB5AEB528A73AEF6
:10CD00008C717BCF73AEDEFBFFFFE71C630C6B4DBA
:10CD10006B6D738E5AEB630C5ACB5ACB6B6D6B4DAC
:10CD2000632C632CD69AFFFFAD75B5B67BEF528AA4
:10CD30005ACB4A694A69F79ED69A52AA5ACB5ACB1D
:10CD40004A69A514FFFFFFFFFFFFFFFFFFFFFFFF83
:10CD5000FFFFFFFFB5B639C7630C52AA5AEBFFFFBE
:10CD6000FFFFFFFFFFFFFFDFEF5DEF7DEF7DEF7D5B
:10CD7000F7BEB5B642085ACB4A697BEFEF5DEF7D4F
:10CD8000EF7DEF7DEF7DEF7DFFFFFFFFFFFFFFFFFB
:10CD9000FFFFFFFFFFFFFFFFFFFFFFFFFFFFFFFFA3
:10CDA000FFFFFFFFFFFFFFFFFFFFFFFFFFFFFFFF93
:10CDB000FFFFFFFFFFFFFFFFFFFFFFFFFFFFFFFF83
:10CDC000FFFEFFFFFFFFFFFFFFFFFFFFFFFFFFFF74
:10CDD000FFFFFFFFFFFFFFFFFFFFFFFFFFFFFFFF63
:10CDE000FFFFFFFFFFFFFFFFF79EEBA6F386FBC8E9
:10CDF000FBC8FBC8FBC8FBC8FBC8FBC8FBC8FBC81B
:10CE0000FBC8FBC8FBC8FBC8FBC8FBC8FBC8FBC80A
:10CE1000FBC8FBC8FBC8FBC8FBC8FBC8FBC8FBC8FA
:10CE2000FBC8FBC8FBC8FBC8FBC8FBC8FBC8FBC8EA
:10CE3000FBC8FBC8FBC8FBC8FBC8FBA7FB87FBC83C
:10CE4000FB87FBC8FBA7FB86EB03ED50FFFFFFFF53
:10CE5000FFDFF7FFF7FFFFFFFFFFFFFFFFFFFFFF12
:10CE6000FFFFFFFFFFFFFFFF84104A695ACB5ACB39
:10CE70006B4D7BEF738E528A5ACB52AA31A6EF5D6F
:10CE8000C6184A495ACB8C516B4D5ACB630C528A07
:10CE9000C618BDF742085ACB528A738E9492528AB2
:10CEA000528AAD75FFFFFFFFFFFFFFFFA514420889
:10CEB000528A52AA528A52AA52AA52AA52AA52AAD2
:10CEC00052AA52AA52AA52AA52AA52AA52AA52AA82
:10CED00052AA4A6952AA5ACB5ACB5ACB630C52AACD
:10CEE0004A694A694A49D69AFFFFDEFB4A494A69BC
:10CEF00052AA528A5ACB5ACB5AEB5AEB528A52AAAE
:10CF00004A694A69CE79FFFF738E31A65ACB5ACB54
:10CF10005ACB5ACB3186A514DEFB5ACB5AEB630CA5
:10CF20004A69A514FFFFFFFFFFFFFFFFFFFFFFFFA1
:10CF3000FFFFFFFFAD5542085AEB528A5AEBFFFF45
:10CF4000FFFFFFFFFFFFFFFFFFFFFFFFFFFFFFFFF1
:10CF5000FFFFC63839E75AEB4A698C51FFFFFFFFE4
:10CF6000FFFFFFFFFFFFFFFFFFFFFFFFFFFFFFFFD1
:10CF7000FFFFFFFFFFFFFFFFFFFFFFFFFFFFFFFFC1
:10CF8000FFFFFFFFFFFFFFFFFFFFFFFFFFFFFFFFB1
:10CF9000FFFFFFFFFFFFFFFFFFFFFFFFFFFFF7FFA9
:10CFA000FFDFFFFFFFFFFFFFFFFFFFFFFFFFFFFFB1
:10CFB000FFFFFFFFFFFFFFFFFFFFFFFFFFFFFFFF81
:10CFC000FFFFFFFFFFDFFFFFF4ADF322FBA6FBC86F
:10CFD000FBC8FBC8FBC8FBC8FBC8FBC8FBC8FBC839
:10CFE000FBC8FBC8FBC8FBC8FBC8FBC8FBC8FBC829
:10CFF000FBC8FBC8FBC8FBC8FBC8FBC8FBC8FBC819
:10D00000FBC8FBC8FBC8FBC8FBC8FBC8FBC8FBC808
:10D01000FBC8FBC8FBC8FBC8FBC8FBA7FB86FBC85B
:10D02000FB87FBA8FBC6FBE6FB88F304ED2DF7FEB0
:10D03000FFDFFFFFFFFEFFFFFFFFFFFFFFFFFFFF21
:10D04000FFFFFFFFFFFFFFFF84104A4952AA52AAC9
:10D050004A694A694A695AEB5AEB39E78C71FFFF12
:10D06000DEDB4A69528A630C632C5ACB5ACB528A54
:10D07000C618BDF742085ACB5ACB630C630C52AAB0
:10D08000528ABDF7FFFFFFFFFFFFFFFFB5964A493A
:10D0900052AA5ACB632C52AA52AA52AA52AA52AAF4
:10D0A00052AA52AA5ACB5ACB5ACB5ACB5ACB52AAD3
:10D0B00052AA52AA52AA52AA52AA52AA52AA632CFD
:10D0C0005ACB52AA5ACBD6BAFFFFDEFB42284A6996
:10D0D00052AA528A5ACB5ACB5ACB5ACB52AA52AAEC
:10D0E0004A694A69CE59FFFFD69A39C75ACB5ACBFB
:10D0F0004A69B5B6EF7DEF5DDEDB5AEB528A5ACB5B
:10D100004A69A514FFFFFFFFFFFFFFFFFFFFFFFFBF
:10D11000FFFFFFFFA53439C75AEB528A5AEBAD75B2
:10D12000BDF7BDF7AD55B5B6DEDBCE79CE79CE799C
:10D13000E71CA5344A495ACB528A738EDEDBD69A55
:10D14000CE79CE79CE79D69AFFFFFFFFFFFFFFFFA2
:10D15000FFFFFFFFFFFFFFFFFFFFFFFFFFFFFFFFDF
:10D16000FFFFFFFFFFFFFFFFFFFFFFFFFFFFFFFFCF
:10D17000FFFFFFFFFFFFFFFFFFFFFFFFFFFFFFFEC0
:10D18000FFDFFFFFFFFFFFFFFFFFFFFFFFFFFFFFCF
:10D19000FFFFFFFFFFFFFFFFFFFFFFFFFFFFFFFF9F
:10D1A000FFFFFFFFF7FFF615FB43FBA7FBE7FBC7FE
:10D1B000FBC8FBC8FBC8FBC8FBC8FBC8FBC8FBC857
:10D1C000FBC8FBC8FBC8FBC8FBC8FBC8FBC8FBC847
:10D1D000FBC8FBC8FBC8FBC8FBC8FBC8FBC8FBC837
:10D1E000FBC8FBC8FBC8FBC8FBC8FBC8FBC8FBC827
:10D1F000FBC8FBC8FBC8FBC8FBC8FBC8FBA7FB8779
:10D20000FBC8FBA8FBC7FBC8FB89FBA6FB23ED31D2
:10D21000FFDEFFFFFFFEFFFFFFFFFFFFFFFFFFFF40
:10D22000FFFFFFFFFFFFFFFF7BEF4A695ACB5ACB9F
:10D230005ACB5ACB5ACB5ACB5ACB9492FFFFFFFF13
:10D24000E73C4A694A494A695ACB5ACB52AA4A69C9
:10D25000C618BDF742085ACB5ACB5ACB4A494A693D
:10D260004208DEFBFFFFFFFFFFFFFFFFAD754A69CE
:10D270005ACB630C52AA632C6B6D6B6D6B6D6B6D2F
:10D280006B6D630C5ACB5ACB5ACB52AA630C6B6DA5
:10D290006B4D6B6D632C632C6B6D6B6D5AEB52AAEF
:10D2A000630C528A52AAD6BAFFFFF7BECE79D6BA1D
:10D2B000DEFBDEFB6B4D4A69528A738ED69AE71C01
:10D2C000D6BAD6BAEF7DFFFFFFFF630C4A695AEB6F
:10D2D00042287BEFFFFFFFFFD69A5ACB528A5ACBE8
:10D2E0004A69A514FFFFFFFFFFFFFFFFFFFFFFFFDE
:10D2F000FFFFFFFFA53439E75ACB5ACB5ACB4A4937
:10D30000422839C74A699CF3528A4A494A494A49DC
:10D310004A69528A5ACB630C5ACB5AEB4A49528A11
:10D32000528A4A6939E752AAF7BEFFFFFFFFFFFFA3
:10D33000FFFFFFFFFFFFFFFFFFFFFFFFFFFFFFFFFD
:10D34000FFFFFFFFFFFFFFFFFFFFFFFFFFFFFFFFED
:10D35000FFFFFFFFFFFFFFFFFFFFFFFFFFFFFFFFDD
:10D36000FFFFFFFFFFFFFFFFFFFFFFFFFFFFFFFFCD
:10D37000FFFFFFFFFFFFFFFFFFFFFFFFFFFFFFFFBD
:10D38000FFFFFFFFF79CF40AFB65FBE8FBC7FBC749
:10D39000FBC8FBC8FBC8FBC8FBC8FBC8FBC8FBC875
:10D3A000FBC8FBC8FBC8FBC8FBC8FBC8FBC8FBC865
:10D3B000FBC8FBC8FBC8FBC8FBC8FBC8FBC8FBC855
:10D3C000FBC8FBC8FBC8FBC8FBC8FBC8FBC8FBC845
:10D3D000FBC8FBC8FBC8FBC8FBC8FBC8FBC8FBC835
:10D3E000FBC8FBC7FBC8FBA9FBA7FBC7FB67F32672
:10D3F000F591F7FFFFDFFFFFFFFFFFFFFFFFFFFFDD
:10D40000FFFFFFFFFFFFFFFFDEFBD6BADEFBE71CDF
:10D41000B5B65ACB5ACB52AA7BEFF79EFFFFFFFF60
:10D42000FFDFBDD7B596A53452AA5ACB52AA4A6996
:10D43000C618BDF742085ACB52AA630CA534BDD713
:10D44000B596FFDFFFFFFFFFFFFFFFFFA5344A494F
:10D450005ACB5ACB4A69B5B6FFFFF79EF79EF79EA7
:10D46000FFDFB59652AA5ACB5ACB4A4994B2FFDF96
:10D47000EF7DF79EF79EEF7DF79EFFDF94B24A495E
:10D480005AEB52AA5ACBD6BAFFFFFFFFD6BAA51461
:10D490009CF3EF5D84304A494A498C51F79EA514AC
:10D4A000A514BDD7FFFFFFFFFFFFA51442285ACBED
:10D4B00052AA4208EF7DFFFFD69A5ACB528A5ACB26
:10D4C0004A69A514FFFFFFFFFFFFFFFFFFFFFFFFFC
:10D4D000FFFFFFFFA53442085ACB5ACB5ACB5ACB99
:10D4E00052AA4A49BDF7E73C42084A494A694A6993
:10D4F0004A6952AA52AA528A52AA52AA528A4A493E
:10D500005ACB5AEB528A632CFFFFFFFFFFFFFFFF4E
:10D51000FFFFFFFFFFFFFFFFFFFFFFFFFFFFFFFF1B
:10D52000FFFFFFFFFFFFFFFFFFFFFFFFFFFFFFFF0B
:10D53000FFFFFFFFFFFFFFFFFFFFFFFFFFFFFFFFFB
:10D54000FFFFFFFFFFFFFFFFFFFFFFFFFFFFFFFFEB
:10D55000FFFFFFFFFFFFFFFFFFFFFFFFFFFFFFFFDB
:10D56000FFFFFFFFF655FB65FB88FBC7FBC7FBA86A
:10D57000FBA8FBC8FBC8FBC8FBC8FBC8FBC8FBC8B3
:10D58000FBC8FBC8FBC8FBC8FBC8FBC8FBC8FBC883
:10D59000FBC8FBC8FBC8FBC8FBC8FBC8FBC8FBC873
:10D5A000FBC8FBC8FBC8FBC8FBC8FBC8FBC8FBC863
:10D5B000FBC8FBC8FBC8FBC8FBC8FBC8FBC8FBC853
:10D5C000FBC8FBC7FBA8FB87FBC7FBA7FBC8FB8708
:10D5D000FB47F635F7FFFFFFFFFFFFFFFFFFFFFFF2
:10D5E000FFFFFFFFFFFFFFFFCE798C719CD3B5B625
:10D5F000DEFB5ACB52AA528A7BEFF79EFFFFFFFF5A
:10D60000FFFFDEDBDEFBCE59528A5ACB52AA4A69B3
:10D61000C618BDF742085ACB528A5AEBC638DEDB31
:10D62000DEDBFFFFFFFFFFFFFFFFFFFFAD554A49B6
:10D630005ACB5ACB4A49CE59FFFFFFFFFFFFFFFFEE
:10D64000FFFFC638528A52AA5ACB4A49A534FFFF77
:10D65000FFFFFFFFFFFFFFFFFFFFFFFF8C714A4946
:10D66000632C52AA5ACBD6BAFFFFFFFFA53439C7A5
:10D6700039C7C61894924A694A498C71DEFB39E76A
:10D6800039E773AEF7BEFFFFFFFFE71C528A52AACD
:10D690005AEB39E7AD55FFFFD69A5ACB528A5ACB8F
:10D6A0004A69A514FFFFFFFFFFFFFFFFFFFFFFFF1A
:10D6B000FFFFFFFFA53439C75AEB5ACB5AEB630C77
:10D6C00042288C51FFFFD69A4A6952AA5ACB52AAD5
:10D6D00052AA52AA528A528A52AA5ACB52AA5AEB38
:10D6E0005AEB5AEB528A632CFFDFFFFFFFFFFFFF6D
:10D6F000FFFFFFFFFFFFFFFFFFFFFFFFFFFFFFFF3A
:10D70000FFFFFFFFFFFFFFFFFFFFFFFFFFFFFFFF29
:10D71000FFFFFFFFFFFFFFFFFFFFFFFFFFFFFFDF39
:10D72000F7DEFFFFFFFFFFFFFFFFFFFFFFFFFFFF32
:10D73000FFFFFFFFFFFFFFFFFFFFFFFFFFFFFFFFF9
:10D74000FFFFFFFFFCEEFB65FB89FBC7F3C7FBA7F1
:10D75000FBA7FBC8FBC8FBC8FBC8FBC8FBC8FBC8D2
:10D76000FBC8FBC8FBC8FBC8FBC8FBC8FBC8FBC8A1
:10D77000FBC8FBC8FBC8FBC8FBC8FBC8FBC8FBC891
:10D78000FBC8FBC8FBC8FBC8FBC8FBC8FBC8FBC881
:10D79000FBC8FBC8FBC8FBC8FBC8FBC8FBC8FBC871
:10D7A000FBC8FBC8FB88FBA7FBC7FBA8F3E7FBA7ED
:10D7B000FB25F3A8F7BCFFFFFFFFFFFFFFFFFFFF05
:10D7C000FFFFFFFFFFFFFFFFA534318642086B6DAF
:10D7D000D6BA5AEB52AA528A8410FFDFFFFFFFFF2E
:10D7E000EF5D5AEB4A6952AA5AEB5ACB52AA4A69E0
:10D7F000C618BDF742085ACB5AEB5ACB528A5ACBBD
:10D80000528AE73CFFFFFFFFFFFFFFFFAD554A498C
:10D810005ACB5ACB52AA8430A534A514A514A5140A
:10D82000AD557BEF52AA5ACB5ACB52AA7BCFA53427
:10D83000A514A514A514A514A51494925ACB52AA04
:10D840005AEB528A528ADEDBFFFFFFFFA5344228E3
:10D850004A49CE798C514A694A498C51E73C4A6918
:10D860004A697BCFFFDFFFFFFFFFFFDF7BCF4A4926
:10D870005AEB4A496B4DFFFFCE7952AA52AA5ACBB6
:10D880004A69A514FFFFFFFFFFFFFFFFFFFFFFFF38
:10D89000FFFFFFFFAD7539C75AEB5ACB5AEB528ADF
:10D8A000630CEF5DFFFFF79EE71CF7BEEF7DF79E71
:10D8B000E73CD6BADEFBDEFBDEDBDEDBE73CE71C6B
:10D8C0005ACB5ACB528A6B4DFFFFFFFFFFFFFFFF82
:10D8D000FFFFFFFFFFFFFFFFFFFFFFFFFFFFFFFF58
:10D8E000FFFFFFFFFFFFFFFFFFFFFFFFFFFFFFFF48
:10D8F000FFFFFFFFFFFFFFFFFFFFFFFFFFFFFFFF38
:10D90000F77CFFFFFFFFFFFFFFFFFFFFFFFFFFFFB2
:10D91000FFFFFFFFFFFFFFFFFFFFFFFFFFFFFFFF17
:10D92000FFFFFFFFFC0AFB65FBE7F3C8FBC6FBA795
:10D93000FBC8FBC8FBC8FBC8FBC8FBC8FBC8FBC8CF
:10D94000FBC8FBC8FBC8FBC8FBC8FBC8FBC8FBC8BF
:10D95000FBC8FBC8FBC8FBC8FBC8FBC8FBC8FBC8AF
:10D96000FBC8FBC8FBC8FBC8FBC8FBC8FBC8FBC89F
:10D97000FBC8FBC8FBC8FBC8FBC8FBC8FBC8FBC88F
:10D98000FBC8FBC8FB88FBC8F3E7FB88FBC8FBE5CB
:10D99000FB86FB26ECACFFFFFFDFFFDFFFFFFFFF97
:10D9A000FFFFFFFFFFFFFFFFAD754208528A7BCFED
:10D9B000D6BA5AEB52AA52AA738EAD55AD55FFFF97
:10D9C000E73C4A69528A5AEB632C5ACB5ACB528AAB
:10D9D000C618BDF742085ACB5ACB5AEB630C52AA71
:10D9E0004A69CE79FFFFFFFFFFFFFFFFA5344A49D9
:10D9F0005ACB5ACB632C528A4228422842284228CA
:10DA00004A6952AA632C5AEB630C5ACB52AA4A6950
:10DA100042284A694228422842284A495AEB5ACBAE
:10DA20005AEB528A630CE73CFFFFFFFF9CF342086E
:10DA3000528ADEDB84304A694A698430EF5D5ACB12
:10DA4000422873AEF79EFFFFFFFFFFFFBDD74208DE
:10DA500042084A693186C618DEDB5ACB528A5ACB55
:10DA60004A69A514FFFFFFFFFFFFFFFFFFFFFFFF56
:10DA7000FFFFFFFFB59639C75ACB630C5AEB39C786
:10DA8000CE79FFFFFFFFFFFF9CD3738E84107BEFE7
:10DA9000D6BAFFFFFFFFFFFFFFFFFFFFFFFFA53429
:10DAA00042085AEB42289CD3FFFFFFFFFFFFFFFF16
:10DAB000FFFFFFFFFFFFFFFFFFFFFFFFFFFFFFFF76
:10DAC000FFFFFFFFFFFFFFFFFFFFFFFFFFFFFFFF66
:10DAD000FFFFFFFFFFFFFFFFFFFFFFFFFFFFF7FF5E
:10DAE000FF3AFFFFFFFFFFFFFFFFFFFFFFFFFFFF0B
:10DAF000FFFFFFFFFFFFFFFFFFFFFFFFFFFFFFFF36
:10DB0000FFFFFFFFFBC7F385F3C7FBC8FB86FB875F
:10DB1000FBC8FBC8FBC8FBC8FBC8FBC8FBC8FBC8ED
:10DB2000FBC8FBC8FBC8FBC8FBC8FBC8FBC8FBC8DD
:10DB3000FBC8FBC8FBC8FBC8FBC8FBC8FBC8FBC8CD
:10DB4000FBC8FBC8FBC8FBC8FBC8FBC8FBC8FBC8BD
:10DB5000FBC8FBC8FBC8FBC8FBC8FBC8FBC8FBC8AD
:10DB6000FBC8FBC8FBE8FBA8FBC8FBE7FBC8FBC87E
:10DB7000FBE8FBA7F303F675FFFFFFDFF7FFFFFFEF
:10DB8000FFFEFFFFFFFFFFFFAD754208528A7BCF0C
:10DB9000D6BA5AEB52AA5AEB5ACB420831A6FFDF4B
:10DBA000CE794A495AEB8430632C5ACB5ACB528AED
:10DBB000C618BDF742085ACB528A6B6D8410528A40
:10DBC000528AAD75FFFFFFFFFFFFFFFFAD754228D3
:10DBD000528A52AA528A528A52AA52AA528A5ACBBC
:10DBE0005ACB5ACB5ACB5ACB630C52AA52AA52AA3E
:10DBF00052AA52AA52AA52AA52AA528A5AEB52AA1C
:10DC000052AA4A49BDD7FFFFFFFFFFFF9492420887
:10DC10005ACBDEFB84304A694A698430F7BE630C14
:10DC2000422873AEF79EFFFFFFFFFFFFF79EA5148C
:10DC300094B29CF394B2C618DEFB5ACB5ACB5ACBA3
:10DC40004A69A514FFFFFFFFFFFFFFFFFFFFFFFF74
:10DC5000FFFFFFDF5AEB528A5AEB5AEB4208AD55F1
:10DC6000FFFFFFFFFFFFFFFFBDF721244A494208E6
:10DC70005ACBEF5DFFFFFFFFFFFFFFFFBDF739C787
:10DC80005AEB528A630CF79EFFFFFFFFFFFFFFFF77
:10DC9000FFFFFFFFFFFFFFFFFFFFFFFFFFFFFFFF94
:10DCA000FFFFFFFFFFFFFFFFFFFFFFFFFFFFFFFF84
:10DCB000FFFFFFFFFFFFFFFFFFFFFFFFFFFFFFFF74
:10DCC000FF1BFFFFFFFFFFFFFFFFFFFFFFFFFFFF48
:10DCD000FFFFFFFFFFFFFFFFFFFFFFFFFFFFFFFF54
:10DCE000FFFFFFFFFBC6FB86FB88FBA8FBA6FBA78D
:10DCF000FBC8FBC8FBC8FBC8FBC8FBC8FBC8FBC80C
:10DD0000FBC8FBC8FBC8FBC8FBC8FBC8FBC8FBC8FB
:10DD1000FBC8FBC8FBC8FBC8FBC8FBC8FBC8FBC8EB
:10DD2000FBC8FBC8FBC8FBC8FBC8FBC8FBC8FBC8DB
:10DD3000FBC8FBC8FBC8FBC8FBC8FBC8FBC8FBC8CB
:10DD4000FBC8FBC8FBC8FBC8FBC8FBC8FBA7FBA7FD
:10DD5000FBA7FBE8FB45F48EFFFFF7FFFFFFFFFF8C
:10DD6000FFFEFFFFFFFFFFFFAD754208528A7BCF2A
:10DD7000D6BA5AEB52AA5ACB5ACB52AA528AFFFFB2
:10DD8000A5344228630C9CF35AEB5ACB5ACB528AE7
:10DD9000BDF7BDF742085ACB528A73AEAD55528AD1
:10DDA0004A699CD3FFFFFFFFFFFFFFFFA534528AA4
:10DDB000630C5AEB5AEB5AEB5AEB5AEB6B4D632C54
:10DDC00052AA5ACB5AEB5ACB52AA52AA6B4D632C89
:10DDD000632C630C5AEB5AEB630C5AEB630C630C29
:10DDE0006B4DB5B6FFFFFFFFFFFFFFFF8C7139E7FB
:10DDF0005ACBEF5D84104A694A698430FFDF630CB7
:10DE00004228738EEF7DFFFFFFDFFFDFFFFFFFFF85
:10DE1000FFFFFFFFFFFFFFFFD69A5ACB52AA5ACB54
:10DE20004A69A534FFFFFFDFFFFFFFFFFFFFFFFF92
:10DE3000FFFF841042285ACB5ACB528A52AAFFDFE6
:10DE4000FFFFFFFFFFFFFFFFFFFF84104228630C6F
:10DE50004A496B4DFFDFFFFFFFFFD6BA5ACB528A0C
:10DE60005ACB4A69AD75FFFFFFFFFFFFFFFFFFFFC2
:10DE7000FFFFFFFFFFFFFFFFFFFFFFFFFFFFFFFFB2
:10DE8000FFFFFFFFFFFFFFFFFFFFFFFFFFFFFFFFA2
:10DE9000FFFFFFFFFFFFFFFFFFFFFFFFFFFFFFFF92
:10DEA000FF5BFFFFFFFFFFFFFFFFFFFFFFFFFFFF26
:10DEB000FFFFFFFFFFFFFFFFFFFFFFFFFFFFFFFF72
:10DEC000FFFFFFFFFBC7FB67FBC8FBC8FBA7FBE629
:10DED000FBC7FBC8FBC8FBC8FBC8FBC8FBC8FBC82B
:10DEE000FBC8FBC8FBC8FBC8FBC8FBC8FBC8FBC81A
:10DEF000FBC8FBC8FBC8FBC8FBC8FBC8FBC8FBC80A
:10DF0000FBC8FBC8FBC8FBC8FBC8FBC8FBC8FBC8F9
:10DF1000FBC8FBC8FBC8FBC8FBC8FBC8FBC8FBC8E9
:10DF2000FBC8FBC8FBC8FBC8FBC8FBC8FB87FBA73B
:10DF3000FB87FBA8FBA6FB66F6B8EFFFF7FEFFFF2B
:10DF4000FFFFFFFFFFFFFFFFAD754208528A7BCF47
:10DF5000D6BA5AEB52AA5ACB5AEB52AA4A69FFFFD9
:10DF6000949242086B4DBDF75AEB5ACB5ACB528A6A
:10DF7000C618BDF742085AEB528A73AED69A528A37
:10DF80004A698430FFDFFFFFFFFFFFFFEF5DD69A96
:10DF9000D6BAD6BAD6BAD6BAD6BADEDBEF5D7BCF62
:10DFA0004A69630C5AEB52AA4A49B5B6EF7DEF5D58
:10DFB000E73CDEDBDEDBDEFBDEFBDEFBDEFBDEFB8F
:10DFC000EF5DFFFFFFFFFFDFFFFFFFFF8C51420808
:10DFD0005AEBEF7D7BCF4A694A698430FFFF632C9F
:10DFE0004228738EEF7DA534843094928C71949284
:10DFF00094928C718C719CF384305ACB5ACB5ACB4F
:10E000005ACB738E94B28410C618FFFFFFFFFFFF38
:10E01000AD5542285ACB5ACB5AEB52AA5AEBFFFFC6
:10E02000FFFFFFFFFFFFFFFFFFFFE71C5ACB528AF6
:10E030005AEB42088410FFFFE73C630C4A695ACB55
:10E040004A498410F79EFFFFFFFFFFFFFFFFFFFF1E
:10E05000FFFFFFFFFFFFFFFFFFFFFFFFFFFFFFFFD0
:10E06000FFFFFFFFFFFFFFFFFFFFFFFFFFFFFFFFC0
:10E07000FFFFFFFFFFFFFFFFFFFFFFFFFFFFF7FFB8
:10E08000FF7DFFFFFFFFFFFFFFFFFFFFFFFFFFFF22
:10E09000FFFFFFFFFFFFFFFFFFFFFFFFFFFFFFFF90
:10E0A000FFFFFFFFF42CF385FBA6F3E8FBC6FBC7DD
:10E0B000FBC8FBC8FBC8FBC8FBC8FBC8FBC8FBC848
:10E0C000FBC8FBC8FBC8FBC8FBC8FBC8FBC8FBC838
:10E0D000FBC8FBC8FBC8FBC8FBC8FBC8FBC8FBC828
:10E0E000FBC8FBC8FBC8FBC8FBC8FBC8FBC8FBC818
:10E0F000FBC8FBC8FBC8FBC8FBC8FBC8FBC8FBC808
:10E10000FBC8FBC8FBC8FBC8FBC8FBC8FBC7FBC8F8
:10E11000FBC8FBC8FBC6FB84F511FFFFF7FFFFFF41
:10E12000FFFFF7FFFFFFFFFFAD754208528A7BCF6D
:10E13000D6BA5AEB52AA52AA7BCFCE79DEFBFFFFAA
:10E140006B4D420873AEDEFB5AEB5ACB52AA4A69BA
:10E15000C618C63842085AEB52AA6B6DE71C5ACB58
:10E16000528A6B6DEF5DFFFFFFFFFFFFFFFFFFFFB9
:10E17000FFFFFFFFFFFFFFFFFFFFFFFF94B2528A89
:10E180005AEB5ACB5ACB4A695AEBAD55AD55A5342B
:10E19000A514F7BEFFFFDEFBD69ADEDBDEDBDEDB9F
:10E1A000FFDFFFFFFFFFFFFFFFFFFFFF843042089D
:10E1B000630CF7BE7BEF4A694A698410FFFF738ED8
:10E1C000422873AEEF7D73AE422852AA528A528A19
:10E1D000528A528A528A528A52AA5ACB5ACB5ACB64
:10E1E0005AEB52AA528A39E7A534FFFFFFFFD6BA8D
:10E1F00052AA5ACB5ACB5AEB5ACB528A5AEBFFFF50
:10E20000FFFFFFFFFFFFFFFFFFFFFFFFC6184A49A9
:10E21000528A5ACB4A4984307BCF4A69630C4A6997
:10E220005ACBE71CFFFFFFFFFFFFFFFFFFFFFFFFD2
:10E23000FFFFFFFFFFFFFFFFFFFFFFFFFFFFFFFFEE
:10E24000FFFFFFFFFFFFFFFFFFFFFFFFFFFFFFFFDE
:10E25000FFFFFFFFFFFFFFFFFFFFFFFFFFFFFFFECF
:10E26000F7FFFFFFFFFFFFFFFFFFFFFFFFFFFFFFC6
:10E27000FFFFFFFFFFFFFFFFFFFFFFFFFFFFFFFFAE
:10E28000FFFFFFFFE614F343FBC7FB89FBE6FBA799
:10E29000FBA8FBC8FBC8FBC8FBC8FBC8FBC8FBC886
:10E2A000FBC8FBC8FBC8FBC8FBC8FBC8FBC8FBC856
:10E2B000FBC8FBC8FBC8FBC8FBC8FBC8FBC8FBC846
:10E2C000FBC8FBC8FBC8FBC8FBC8FBC8FBC8FBC836
:10E2D000FBC8FBC8FBC8FBC8FBC8FBC8FBC8FBC826
:10E2E000FBC8FBC8FBC8FBC8FBC8FBC8FBC8FBC816
:10E2F000FBC8FBC8FBE7FBA4F42CFF5EFFFFFFFF9E
:10E30000FFFFFFFFFFFFFFFFAD754208528A7BCF83
:10E31000D6BA5AEB52AA52AA8410F79EFFFFF7BE54
:10E320004A494A497BCFF79E52AA5ACB5ACB528AC6
:10E33000C618CE5942085ACB4A696B6DE73C632C2C
:10E34000528A5ACBDEDBFFFFFFFFFFFFFFFFFFFF1D
:10E35000FFFFFFFFFFFFFFFFFFFF8C714228630CF1
:10E360005ACB5ACB4228A514AD5539C74A69422821
:10E370004208E71CFFFFAD5539C74A494A6931A633
:10E38000AD55FFFFFFFFFFFFFFFFFFDF84104208D7
:10E39000630CFFDF7BEF4A694A697BEFFFFF738EF7
:10E3A0004228738EE73C738E39E74A494A494A4905
:10E3B0004A494A494A494A49528A5ACB5ACB5ACBC6
:10E3C0005ACB528A4A4931869CF3FFFFEF7D6B4D51
:10E3D0004A495ACB5ACB5ACB5ACB528A5AEBFFFFF7
:10E3E000FFFFFFFFFFFFFFFFFFFFFFFFFFFFA51482
:10E3F00039E752AA630C528A528A5ACB528A39C7D9
:10E40000D69AFFFFFFFFFFFFFFFFFFFFFFFFFFFFAA
:10E41000FFFFFFFFFFFFFFFFFFFFFFFFFFFFFFFF0C
:10E42000FFFFFFFFFFFFFFFFFFFFFFFFFFFFFFFFFC
:10E43000FFFFFFFFFFFFFFFFFFFFFFFFFFFFFFBF2C
:10E44000FFFFFFFFFFFFFFFFFFFFFFFFFFFFFFFFDC
:10E45000FFFFFFFFFFFFFFFFFFFFFFFFFFFFFFFFCC
:10E46000FFFFFFFFFFBEF46CFB45FB88FB88FBE76B
:10E47000FBC7FBC8FBC8FBC8FBC8FBC8FBC8FBC885
:10E48000FBC8FBC8FBC8FBC8FBC8FBC8FBC8FBC874
:10E49000FBC8FBC8FBC8FBC8FBC8FBC8FBC8FBC864
:10E4A000FBC8FBC8FBC8FBC8FBC8FBC8FBC8FBC854
:10E4B000FBC8FBC8FBC8FBC8FBC8FBC8FBC8FBC844
:10E4C000FBC8FBC8FBC8FBC8FBC8FBC8FBC8FBC834
:10E4D000FBC8FBC8FB87FBA6EBC8F6FAFFFFFFFFF4
:10E4E000FFFFFFFFFFFFFFFFAD754208528A7BCFA2
:10E4F000D6BA5AEB52AA528A7BCFEF7DFFFFDEFBE2
:10E5000042084A698C71EF7D52AA5ACB52AA4A69D5
:10E51000BDF7BDF74228632C528A632CF79E8430E6
:10E520004228528ACE59FFFFFFFFFFFFFFFFFFFF88
:10E53000FFFFFFFFFFFFFFDF8C714208630C5ACB28
:10E54000630C42088C51FFFF9CF34208630C5ACBCA
:10E5500052AAE73CFFFFF79E738E528A5AEB52AAEB
:10E560005ACBEF7DFFFFFFFFFFFFFFDF7BCF39E7D8
:10E57000632CFFFF7BCF4A694A697BEFFFFF7BEF8C
:10E5800042286B6DDEFB9CD37BEF8C518C518C5100
:10E590008C518C518C518C517BCF5ACB5ACB5ACB4E
:10E5A0005ACB738E8C7173AEBDF7FFFF8C7139E758
:10E5B00052AA5ACB52AA5ACB5ACB528A5AEBFFFFD5
:10E5C000FFFFFFFFFFFFFFFFFFFFFFFFFFFFFFFF5B
:10E5D000BDD74A695ACB5ACB5ACB528A4A69EF5DAA
:10E5E000FFFFFFFFFFFFFFFFFFFFFFFFFFFFFFFF3B
:10E5F000FFFFFFFFFFFFFFFFFFFFFFFFFFFFFFFF2B
:10E60000FFFFFFFFFFFFFFFFFFFFFFFFFFFFFFFF1A
:10E61000FFFFFFFFFFFFFFFFFFFFFFFFFFFFFFFF0A
:10E62000FFDEFFFFFFFFFFFFFFFFFFFFFFFFFFFF1B
:10E63000FFFFFFFFFFFFFFFFFFFFFFFFFFFFFFFFEA
:10E64000FFFFFFFFFFFFF6FAF3A9FB85FBA8FBE83E
:10E65000FBA7FBA7FBC7FBA7FBC8FBC8FBC8FBC806
:10E66000FBC8FBC7FBC8FBC8FBC8FBC8FBC8FBC893
:10E67000FBC8FBC8FBC8FBC8FBC8FBC8FBC8FBC882
:10E68000FBC8FBC8FBC8FBC8FBC8FBC8FBC8FBC872
:10E69000FBC8FBC8FBC8FBC8FBC8FBC8FBC8FBC862
:10E6A000FBC8FBC8FBC8FBC8FBC8FBC8FBC8FBC852
:10E6B000FBC8FBC8FBC8FB67EB85EE96FFFFFFFFBF
:10E6C000FFFFFFFFFFFFFFFFAD754208528A7BCFC0
:10E6D000D6BA5ACB52AA528A7BEFF79EFFFFBDD71C
:10E6E00039C74A69AD75B5964A495ACB5ACB4A697A
:10E6F000BDF7C63842085ACB528A632CF7BEA51420
:10E7000039C74A69AD75FFFFFFFFFFFFFFFFFFFF3E
:10E71000FFFFFFFFFFFF9CD3420852AA5ACB630CB6
:10E720004A4973AEF79EFFFF8C714208630C528A10
:10E7300052AAE73CFFFFFFFFB59642084A49528ABA
:10E7400039E7A514FFFFFFFFFFFFF7BE738E39E720
:10E750006B6DFFFF7BCF4A694A697BEFFFFF7BEF61
:10E7600039E75AEBDEDBFFFFFFFFFFFFFFFFFFFF95
:10E77000FFFFFFFFFFFFFFFFDEDB5ACB528A630C78
:10E780004A69A534FFFFFFFFFFFFFFDFD6BAE71C92
:10E79000EF5DF7BE9CF342085AEB528A5AEBFFFF3B
:10E7A000FFFFFFFFFFFFFFFFFFFFFFFFFFFFF79EE2
:10E7B000A5344A695ACB630C5AEB528A630CCE7962
:10E7C000FFDFFFFFFFFFFFFFFFFFFFFFFFFFFFFF79
:10E7D000FFFFFFFFFFFFFFFFFFFFFFFFFFFFFFFF49
:10E7E000FFFFFFFFFFFFFFFFFFFFFFFFFFFFFFFF39
:10E7F000FFFFFFFFFFFFFFFFFFFFFFFFFFFFFFFE2A
:10E80000FFFFFFFFFFFFFFFFFFFFFFFFFFFFFFFF18
:10E81000FFFFFFFFFFFFFFFFFFFFFFFFFFFFFFFF08
:10E82000FFFFFFFFFFFFFFFFF718F3E7FB24FBA647
:10E83000FBE8FBA7FBA7FBC8FBA7FBC7FBC7FBC706
:10E84000FBC8FBC7FBC7FBC7FBC7FBA8FBA8FBA814
:10E85000FBA8FBC8FBC8FBC8FBC8FBC8FBC8FBC8C0
:10E86000FBC8FBC8FBC8FBC8FBC8FBC8FBC8FBC890
:10E87000FBC8FBC8FBC8FBC8FBC8FBC8FBC8FBC880
:10E88000FBC8FBC8FBC8FBC8FBC8FBC8FBC8FBC870
:10E89000FBC8FBC8FBC8FB86FB85F5D2FFFFFFFF6B
:10E8A000FFFFFFFFFFFFFFFFAD7542084A698410BD
:10E8B000E73C5AEB52AA52AA8410EF7DFFFF8C71FD
:10E8C00039C7528ABDD78410528A5ACB528A5AEB22
:10E8D000E73CBDD74208630C52AA632CF79EBDF7F4
:10E8E000296542289492FFDFFFFFFFFFFFFFFFFF34
:10E8F000FFFFFFFF9CF339E75ACB630C5ACB4A4921
:10E90000738EEF7DFFFFFFFF8C514208630C52AA0C
:10E91000528AE73CFFFFFFFFEF7D9CD394929CD38C
:10E920009492AD55FFFFFFFFFFFFF7BE738E39E7EF
:10E930006B6DFFFF738E4A694A697BCFFFFF84309E
:10E9400039E75AEBD6BAFFFFFFFFFFFFFFFFFFFFDC
:10E95000FFFFFFFFFFFFFFFFD69A5ACB528A5ACB29
:10E960004A69A514FFFFFFFFFFFFFFFFFFFFFFFF47
:10E97000FFFFFFFFB5B639E75AEB52AA5AEBFFFF8C
:10E98000FFFFFFFFFFFFFFFFFFFFFFFFC6186B6DDD
:10E990004A695ACB5ACB4A694A695ACB5ACB422860
:10E9A0008430DEDBFFFFFFFFFFFFFFFFFFFFFFFF06
:10E9B000FFFFFFFFFFFFFFFFFFFFFFFFFFFFFFFF67
:10E9C000FFFFFFFFFFFFFFFFFFFFFFFFFFFFFFFF57
:10E9D000FFFFFFFFFFFFFFFFFFFFFFFFFFFFFFFF47
:10E9E000FFFFFFFFFFFFFFFFFFFFFFFFFFFFFFFF37
:10E9F000FFFFFFFFFFFFFFFFFFFFFFFFFFFFFFFF27
:10EA0000FFFFFFFFFFFFFFFFFFFFF73BECAEF3450C
:10EA1000F385F3C8FBE8FBC7FBC6FBE6FBC6FBC6FA
:10EA2000FBC8FBA8FB88FBC7FBC6FBA8FB88FB88D1
:10EA3000FBA8FBC8FBC8FBC8FBC8FBC8FBC8FBC8DE
:10EA4000FBC8FBC8FBC8FBC8FBC8FBC8FBC8FBC8AE
:10EA5000FBC8FBC8FBC8FBC8FBC8FBC8FBC8FBC89E
:10EA6000FBC8FBC8FBC8FBC8FBC8FBC8FBC8FBC88E
:10EA7000FBC8FBC7FBC8FBA8FB66F571F7FFFFFFF0
:10EA8000FFFFFFFFFFFFFFFFB57539E7528A73AE47
:10EA9000BDD75ACB52AA5ACB632C6B6D9CD3DEDB0D
:10EAA000C618D69ABDD75ACB52AA5ACB528A8C5185
:10EAB000FFFFB59642085AEB52AA5AEBEF5DFFDF13
:10EAC000CE59D69AE71CFFFFFFFFFFFFFFFFFFFFB6
:10EAD000FFFFA53442085ACB5AEB5AEB42285AEBB7
:10EAE000EF7DFFFFFFFFFFFF949242285ACB5AEBC6
:10EAF000528A94B2D6BACE59CE79D6BAD6BAD6BA46
:10EB0000D69AD69ACE79BDF7F7BEF7BE6B4D4208BE
:10EB100073AEFFFF738E4A694A697BEFFFFF8C512A
:10EB200039E75AEBD69AFFFFFFFFFFFFFFFFFFFF1A
:10EB3000FFFFFFFFFFFFFFFFD69A5ACB528A5ACB47
:10EB40004A69A514FFFFFFFFFFFFFFFFFFFFFFFF65
:10EB5000FFFFFFFF9CF34228630C528A5AEBF7BE7B
:10EB6000FFFFFFFFFFFFEF7DC618841052AA4A691E
:10EB70005ACB5ACB42288410738E42285ACB52AAC1
:10EB80004A495ACB9492CE79F7BEFFFFFFFFFFFFB1
:10EB9000FFFFFFFFFFFFFFFFFFFFFFFFFFFFFFFF85
:10EBA000FFFFFFFFFFFFFFFFFFFFFFFFFFFFFFFF75
:10EBB000FFFFFFFFFFFFFFFFFFFFFFFFFFFFFFFF65
:10EBC000FFFFFFFFFFFFFFFFFFFFFFFFFFFFFFFF55
:10EBD000FFFFFFFFFFFFFFFFFFFFFFFFFFFFFFFF45
:10EBE000FFFFFFFFFFFFFFFFF7FFFFFFFFDEF65610
:10EBF000F3A9FAE4F365FBE6FBC7FB88FB88FB8817
:10EC0000FBE7FBC6FBA7FBA8FBE8F3C7FBC6FBC6FD
:10EC1000F3C7FBC8FBC8FBC8FBC8FBC8FBC8FBC8E5
:10EC2000FBC8FBC8FBC8FBC8FBC8FBC8FBC8FBC8CC
:10EC3000FBC8FBC8FBC8FBC8FBC8FBC8FBC8FBC8BC
:10EC4000FBC8FBC8FBC8FBC8FBC8FBC8FBC8FBC8AC
:10EC5000FBC8FBC8FBC8FBC7FB65F591F7FFFFFFCF
:10EC6000FFFFFFFFFFFFDEFB630C52AA5AEB5AEBDC
:10EC700052AA5AEB5ACB5ACB5ACB42087BCFFFFF52
:10EC8000FFFFFFFF94B24A69630C5AEB4A49C6186A
:10EC9000FFFFBDF739C7632C5AEB4A699492E71C12
:10ECA000E73CDEFBDEFBFFFFFFFFFFFFFFFFFFFF99
:10ECB000AD754A495AEB5ACB5ACB4A694A49E73CA7
:10ECC000FFFFFFFFFFFFFFFF84104228632C630C50
:10ECD0005ACB528A528A5ACB52AA52AA52AA5AEBF9
:10ECE00052AA5AEB4A49528AFFDFFFDF630C4228DF
:10ECF00073AEFFFF738E4A694A697BEFFFFF94B2E0
:10ED000039E75AEBCE79FFFFFFFFFFFFFFFFFFFF61
:10ED1000FFFFFFFFFFFFFFFFD69A5ACB52AA5ACB45
:10ED20004A69A514FFFFFFFFFFFFFFFFFFFFFFFF83
:10ED3000E73C94B25AEB52AA5AEB4A49632CFFFFC4
:10ED4000FFFFFFFFE71C6B4D4A494A695AEB52AA85
:10ED5000422839E7AD55FFFFEF5D843042084A692C
:10ED60005ACB52AA4A494A696B6DFFDFFFFFFFFF8A
:10ED7000FFFFFFFFFFFFFFFFFFFFFFFFFFFFFFFFA3
:10ED8000FFFFFFFFFFFFFFFFFFFFFFFFFFFFFFFF93
:10ED9000FFFFFFFFFFFFFFFFFFFFFFFFFFFFFFFF83
:10EDA000FFFFFFFFFFFFFFFFFFFFFFFFFFFFFFFF73
:10EDB000FFFFFFFFFFFFFFFFFFFFFFFFFFFFFFFF63
:10EDC000FFFFFFFFFFFFFFFFFFFFFFFFF7FFFFFF5B
:10EDD000FFFEEE76E46CFB04FB04FB46FBA6FBC7E0
:10EDE000FB87FBE6FBE7FBA7FB88FBE8FBC8FB8890
:10EDF000FB88FBC8FBC8FBC8FBC8FBC8FBC8FBC83B
:10EE0000FBC8FBC8FBC8FBC8FBC8FBC8FBC8FBC8EA
:10EE1000FBC8FBC8FBC8FBC8FBC8FBC8FBC8FBC8DA
:10EE2000FBC8FBC8FBC8FBC8FBC8FBC8FBC8FBC8CA
:10EE3000FBC8FBC8FBC8F3C6FB65FD91FFFFFFFFE6
:10EE4000FFFFFFFFFFFFCE794A495ACB52AA52AAD1
:10EE500052AA52AA4A6952AA4A6939C76B4DFFFFA2
:10EE6000FFFFDEFB5ACB528A5ACB528A6B6DF79E5C
:10EE7000FFFFFFFF528A42285ACB5ACB4228420852
:10EE800039E731869492FFFFFFFFFFFFFFFFAD756B
:10EE9000422852AA5ACB5ACB528A4A69DEDBFFFF7C
:10EEA000FFFFFFFFFFFFFFFFBDF731865ACB5ACBB5
:10EEB0005ACB630C52AA52AA52AA52AA52AA52AAD6
:10EEC00052AA52AA4208A514FFFFEF5D5ACB42088E
:10EED0007BEFFFFF6B6D4A694A497BCFFFFF94B21E
:10EEE00039E752AACE59FFFFFFFFFFFFFFFFFFFFE9
:10EEF000FFFFFFFFFFFFFFFFD69A52AA528A52AAD6
:10EF00004A69A514FFFFFFFFFFFFFFFFFFFFFFFFA1
:10EF100094B231A65ACB632C5ACB31A6A514FFFF6D
:10EF2000FFFFFFFFDEFB528A5AEB52AA4A494228F2
:10EF30007BCFE71CFFFFFFFFFFFFFFFFCE795AEB00
:10EF400039E7528A5ACB4A6952AAFFDFFFFFFFFF17
:10EF5000FFFFFFFFFFFFFFFFFFFFFFFFFFFFFFFFC1
:10EF6000FFFFFFFFFFFFFFFFFFFFFFFFFFFFFFFFB1
:10EF7000FFFFFFFFFFFFFFFFFFFFFFFFFFFFFFFFA1
:10EF8000FFFFFFFFFFFFFFFFFFFFFFFFFFFFFFFF91
:10EF9000FFFFFFFFFFFFFFFFFFFFFFFFFFFFFFFF81
:10EFA000FFFFFFFFFFFFFFFFFFFFFFFEFFFEFFFF73
:10EFB000FFFFFFFFFFFFF6DAEDD3ECADF3C8FB6513
:10EFC000FB25FB87FB87FB87FB87FBE6F3C7FBE79C
:10EFD000FBA7FBC8FBC8FBC8FBC8FBC8FBC8FBC83A
:10EFE000FBC8FBC8FBC8FBC8FBC8FBC8FBC8FBC809
:10EFF000FBC8FBC8FBC8FBC8FBC8FBC8FBC8FBC8F9
:10F00000FBC8FBC8FBC8FBC8FBC8FBC8FBC8FBC8E8
:10F01000FBC8FBC8FBC7F3A6FB45FD93FFFFFFFF43
:10F02000FFFFFFFFFFFFCE7942284A69528A5ACB81
:10F03000632C6B6D738E841094B2A534C618FFFFD9
:10F04000FFFF9CD339C74A69528A39E7B596FFFF5B
:10F05000FFFFFFFFDEDB52AA4228528A528A528A01
:10F060004A4952AADEFBFFFFFFFFFFDF9CD3318638
:10F0700042084A69528A4228528ACE59FFFFFFFF4E
:10F08000FFFFFFFFFFFFFFFFFFFF94B242284A6927
:10F090004A694A694A49528A528A4A694A69528A7D
:10F0A0004A6942085ACBE73CFFFFDEFB4A4939C7B1
:10F0B0007BEFFFFF632C39E742086B6DFFFF9CD3AA
:10F0C000318639E7BDF7FFFFFFFFFFFFFFFFFFFFBF
:10F0D000FFFFFFFFFFFFFFFFCE794A494A49528AEF
:10F0E00042289CD3FFFFFFFFFFFFFFFFFFFFD6BAC1
:10F0F0004A694A494A694A4942088430FFFFFFFF8A
:10F10000FFFFFFFFDEDB4A4942285ACB8430CE792D
:10F11000FFFFFFFFFFFFFFFFFFFFFFFFFFFFFFFFFF
:10F12000B5B673AE52AA39E74A49FFDFFFFFFFFFCA
:10F13000FFFFFFFFFFFFFFFFFFFFFFFFFFFFFFFFDF
:10F14000FFFFFFFFFFFFFFFFFFFFFFFFFFFFFFFFCF
:10F15000FFFFFFFFFFFFFFFFFFFFFFFFFFFFFFFFBF
:10F16000FFFFFFFFFFFFFFFFFFFFFFFFFFFFFFFFAF
:10F17000FFFFFFFFFFFFFFFFFFFFFFFFFFFFFFFF9F
:10F18000FFFFFFFFFFFFFFFFFFFFFFFFFFFFFFFF8F
:10F19000FFFFFFFFFFFFFFFFFFFFF7DDFEF9FE555B
:10F1A000E570E46DFB88FB65F3A4FBA7FBC8FBC718
:10F1B000FBA7FBC8FBC8FBC8FBC8FBC8FBC8FBC858
:10F1C000FBC8FBC8FBC8FBC8FBC8FBC8FBC8FBC827
:10F1D000FBC8FBC8FBC8FBC8FBC8FBC8FBC8FBC817
:10F1E000FBC8FBC8FBC8FBC8FBC8FBC8FBC8FBC807
:10F1F000FBC8FBC8FBC7FBA6F366F615FFFFFFFFC6
:10F20000FFFFFFFFFFFFE73C9CF3BDD7C638D6BA30
:10F21000DEFBEF5DF7BEFFFFFFFFFFFFFFFFFFFF1E
:10F22000FFDFAD759CD3A534A534A514EF5DFFFFBA
:10F23000FFFFFFFFFFFFE73CAD55A534AD55AD55D2
:10F240009CF3B5B6F7BEFFFFFFFFEF5D9CD3A5347F
:10F25000B5B6AD75B596AD55CE59FFFFFFFFFFFFB3
:10F26000FFFFFFFFFFFFFFFFFFFFFFFFC618A534F3
:10F27000AD75AD75B596B596AD75B596AD75AD5523
:10F28000AD75A534BDF7FFDFFFFFF7BEBDD7B5B63F
:10F29000D69AFFFFCE59BDD7B5B6C638FFFFDEDB25
:10F2A000B5B6B5B6E73CFFFFFFFFFFFFFFFFFFFF6F
:10F2B000FFFFFFFFFFFFFFFFEF7DC638C618C61830
:10F2C000BDF7DEDBFFFFFFFFFFFFFFFFFFFFD69A6B
:10F2D0008C71949294B294B2B5B6F7BEFFFFFFFF63
:10F2E000FFDFFFFFE73C9CD3B596DEFBFFFFFFFF90
:10F2F000FFFFFFFFFFFFFFFFFFFFFFFFFFFFFFFF1E
:10F30000FFFFFFFFD69AAD7594B2F79EFFFFFFFF98
:10F31000FFFFFFFFFFFFFFFFFFFFFFFFFFFFFFFFFD
:10F32000FFFFFFFFFFFFFFFFFFFFFFFFFFFFFFFFED
:10F33000FFFFFFFFFFFFFFFFFFFFFFFFFFFFFFFFDD
:10F34000FFFFFFFFFFFFFFFFFFFFFFFFFFFFFFFFCD
:10F35000FFFFFFFFFFFFFFFFFFFFFFFFFFFFFFFFBD
:10F36000FFFFFFFFFFFFFFFFFFFFFFFFFFFFFFFFAD
:10F37000FFFFFFFFFFFEFFFEFFDFFFFFFFFFFFFFBF
:10F38000FFFFFF9DFEB8F5D2E46BF367FB26FB871A
:10F39000FBC7FBC8FBC8FBC8FBC8FBC8FBC8FBC856
:10F3A000FBC8FBC8FBC8FBC8FBC8FBC8FBC8FBC845
:10F3B000FBC8FBC8FBC8FBC8FBC8FBC8FBC8FBC835
:10F3C000FBC8FBC8FBC8FBC8FBC8FBC8FBC8FBC825
:10F3D000FBC8FBC8FBC7FBA6F386F697FFFFFFFF42
:10F3E000FFFFFFFFFFFFFFFFFFFFFFFFFFFFFFFF2D
:10F3F000FFFFFFFFFFFFFFFFFFFFFFFFFFFFFFFF1D
:10F40000FFFFFFFFFFFFFFFFFFFFFFFFFFFFFFFF0C
:10F41000FFFFFFFFFFFFFFFFFFFFFFFFFFFFFFFFFC
:10F42000FFFFFFFFFFFFFFFFFFFFFFFFFFFFFFFFEC
:10F43000FFFFFFFFFFFFFFFFFFFFFFFFFFFFFFFFDC
:10F44000FFFFFFFFFFFFFFFFFFFFFFFFFFFFFFFFCC
:10F45000FFFFFFFFFFFFFFFFFFFFFFFFFFFFFFFFBC
:10F46000FFFFFFFFFFFFFFFFFFFFFFFFFFFFFFFFAC
:10F47000FFFFFFFFFFFFFFFFFFFFFFFFFFFFFFFF9C
:10F48000FFFFFFFFFFFFFFFFFFFFFFFFFFFFFFFF8C
:10F49000FFFFFFFFFFFFFFFFFFFFFFFFFFFFFFFF7C
:10F4A000FFFFFFFFFFFFFFFFFFFFFFFFFFFFFFDF8C
:10F4B000FFFFFFFFFFFFFFFFFFFFFFFFFFFFFFFF5C
:10F4C000FFDFFFFFFFFFFFFFFFFFFFFFFFFFFFFF6C
:10F4D000FFFFFFFFFFFFFFFFFFFFFFFFFFFFFFFF3C
:10F4E000FFFFFFFFFFFFFFFFFFFFFFFFFFFFFFFF2C
:10F4F000FFFFFFFFFFFFFFFFFFFFFFFFFFFFFFFF1C
:10F50000FFFFFFFFFFFFFFFFFFFFFFFFFFFFFFFF0B
:10F51000FFFFFFFFFFFFFFFFFFFFFFFFFFFFF7FF03
:10F52000FFFFFFFFFFFFFFFFFFFFFFFFFFFFFFFFEB
:10F53000FFFFFFFFFFFFFFFFFFFFFFFFFFFFFFFFDB
:10F54000FFFFFFFFFFFFFFFEFFFEFFFFFFFFFFFFCD
:10F55000FFFFFFFEFFFFFFFFFFFFFFFFF7FFF7FFCC
:10F56000FFBFFFFFFFFFFFFFFF9EF6D6EC8BFB25E3
:10F57000FB44FBC7FBC8FBC8FBA7FBC8FBC8FBC819
:10F58000FBC8FBC8FBC8FBC8FBC8FBC8FBC8FBC863
:10F59000FBC8FBC8FBC8FBC8FBC8FBC8FBC8FBC853
:10F5A000FBC8FBC8FBC8FBC8FBC8FBC8FBC8FBC843
:10F5B000FBC8FBC8FBC8FBA7F3E8F71AFFFFFFFF78
:10F5C000FFFFFFFFFFFFFFFFFFFFFFFFFFFFFFFF4B
:10F5D000FFFFFFFFFFFFFFFFFFFFFFFFFFFFFFFF3B
:10F5E000FFFFFFFFFFFFFFFFFFFFFFFFFFFFFFFF2B
:10F5F000FFFFFFFFFFFFFFFFFFFFFFFFFFFFFFFF1B
:10F60000FFFFFFFFFFFFFFFFFFFFFFFFFFFFFFFF0A
:10F61000FFFFFFFFFFFFFFFFFFFFFFFFFFFFFFFFFA
:10F62000FFFFFFFFFFDFFFFFFFFFFFFFFFFFFFFF0A
:10F63000FFFFFFFFFFFFFFFFFFFFFFFFFFFFFFFFDA
:10F64000FFFFFFFFFFFFFFFFFFFFFFFFFFFFFFFFCA
:10F65000FFFFFFFFFFFFFFFFFFFFFFFFFFFFFFFFBA
:10F66000FFFFFFFFFFFFFFFFFFFFFFFFFFFFFFFFAA
:10F67000FFFFFFFFFFFFFFFFFFFFFFFFFFFFFFFF9A
:10F68000FFFFFFFFFFFFFFFFFFFFFFFFFFFFFFFF8A
:10F69000FFFFFFFFFFFFFFFFFFFFFFFFFFFFFFFF7A
:10F6A000FFFFFFFFFFFFFFFFFFFFFFFFFFFFFFFF6A
:10F6B000FFFFFFFFFFFFFFFFFFFFFFFFFFFFFFFF5A
:10F6C000FFFFFFFFFFFFFFFFFFFFFFFFFFFFFFFF4A
:10F6D000FFFFFFFFFFFFFFFFFFFFFFFFFFFFFFFF3A
:10F6E000FFFFFFFFFFFFFFFFFFFFFFFFFFFFFFFF2A
:10F6F000FFFFFFFFFFFFFFFFFFFFFFFFFFFFFFFF1A
:10F70000FFFFFFFFFFFFFFFFFFFFFFFFFFFFFFFF09
:10F71000FFFFFFFFFFFFFFFFFFFFFFFFFFFFFFFFF9
:10F72000FFFFFFFFFFFFFFFFFFFFFFFFFFFFFFFFE9
:10F73000FFFFFFFFFFFFFFFFFFFFFFFFFFFFFFFFD9
:10F74000FFFFFFFFFFFFFFFFFFFFFFFFF7FFFE963B
:10F75000EBEAFB04FBC6FBA7FBC7FBA7FBC8FBC68A
:10F76000FBC8FBC8FBC8FBC8FBC8FBC8FBC8FBC881
:10F77000FBC8FBC8FBC8FBC8FBC8FBC8FBC8FBC871
:10F78000FBC8FBC8FBC7FBC7FBC8FBC8FBC7FBC765
:10F79000FBA8FBC7FBC8FB47F469FFBCFFFFFFFFEB
:10F7A000FFFFFFFFFFFFFFFFFFFFFFFFFFFFFFFF69
:10F7B000FFFFFFFFFFFFFFFFFFFFFFFFFFFFFFFF59
:10F7C000FFFFFFFFFFFFFFFFFFFFFFFFFFFFFFFF49
:10F7D000FFFFFFFFFFFFFFFFFFFFFFFFFFFFFFFF39
:10F7E000FFFFFFFFFFFFFFFFFFFFFFFFFFFFFFFF29
:10F7F000FFFFFFFFFFFFFFFFFFFFFFFFFFFFFFFF19
:10F80000FFFFFFFFFFFFFFFFFFFFFFFFFFFFFFFF08
:10F81000FFFFFFFFFFFFFFFFFFFFFFFFFFFFFFFFF8
:10F82000FFFFFFFFFFFFFFFFFFFFFFFFFFFFFFFFE8
:10F83000FFFFFFFFFFFFFFFFFFFFFFFFFFFFFFFFD8
:10F84000FFFFFFFFFFFFFFFFFFFFFFFFFFFFFFFFC8
:10F85000FFFFFFFFFFFFFFFFFFFFFFFFFFFFFFFFB8
:10F86000FFFFFFFFFFFFFFFFFFFFFFFFFFFFFFFFA8
:10F87000FFFFFFFFFFFFFFFFFFFFFFFFFFFFFFFF98
:10F88000FFFFFFFFFFFFFFFFFFFFFFFFFFFFFFFF88
:10F89000FFFFFFFFFFFFFFFFFFFFFFFFFFFFFFFF78
:10F8A000FFFFFFFFFFFFFFFFFFFFFFFFFFFFFFFF68
:10F8B000FFFFFFFFFFFFFFFFFFFFFFFFFFFFFFFF58
:10F8C000FFFFFFFFFFFFFFFFFFFFFFFFFFFFFFFF48
:10F8D000FFFFFFFFFFFFFFFFFFFFFFFFFFFFFFFF38
:10F8E000FFFFFFFFFFFFFFFFFFFFFFFFFFFFFFFF28
:10F8F000FFFFFFFFFFFFFFFFFFFFFFFFFFFFFFFF18
:10F90000FFFFFFFFFFFFFFFFFFFFFFFFFFFFFFFF07
:10F91000FFFFFFFFFFFFFFFFFFFFFFFFFFFFFFFFF7
:10F92000FFFFFFFFFFFFFFFFFFFFFFBFF7FFFFFF2F
:10F93000FFDFED31F2E5FBC6FB87FBA7FBE7FB88AA
:10F94000FBC8FBC7FBC8FBC8FBC8FBC8FBC8FBC8A0
:10F95000FBC8FBC8FBC8FBC8FBC8FBC8FBC8FBC88F
:10F96000FBC8FBC8FBC8FBC8FBC7FBC6FB88FBA8E2
:10F97000FBE7FBE8FB88FB65FD30FFFFFFFFFFFFB8
:10F98000FFFFFFFEFFFFFFFFFFFFFFFFFFFFFFFF88
:10F99000FFFFFFFFFFFFFFFFFFFFFFFFFFFFFFFF77
:10F9A000FFFFFFFFFFFFFFFFFFFFFFFFFFFFFFFF67
:10F9B000FFFFFFFFFFFFFFFFFFFFFFFFFFFFFFFF57
:10F9C000FFFFFFFFFFFFFFFFFFFFFFFFFFFFFFFF47
:10F9D000FFFFFFFFFFFFFFFFFFFFFFFFFFFFFFFF37
:10F9E000FFFFFFFFFFFFFFFFFFFFFFFFFFFFFFFF27
:10F9F000FFFFFFFFFFFFFFFFFFFFFFFFFFFFFFFF17
:10FA0000FFFFFFFFFFFFFFFFFFFFFFFFFFFFFFFF06
:10FA1000FFFFFFFFFFFFFFFFFFFFFFFFFFFFFFFFF6
:10FA2000FFFFFFFFFFFFFFFFFFFFFFFFFFFFFFFFE6
:10FA3000FFFFFFFFFFFFFFFFFFFFFFFFFFFFFFFFD6
:10FA4000FFFFFFFFFFFFFFFFFFFFFFFFFFFFFFFFC6
:10FA5000FFFFFFFFFFFFFFFFFFFFFFFFFFFFFFFFB6
:10FA6000FFFFFFFFFFFFFFFFFFFFFFFFFFFFFFFFA6
:10FA7000FFFFFFFFFFFFFFFFFFFFFFFFFFFFFFFF96
:10FA8000FFFFFFFFFFFFFFFFFFFFFFFFFFFFFFFF86
:10FA9000FFFFFFFFFFFFFFFFFFFFFFFFFFFFFFFF76
:10FAA000FFFFFFFFFFFFFFFFFFFFFFFFFFFFFFFF66
:10FAB000FFFFFFFFFFFFFFFFFFFFFFFFFFFFFFFF56
:10FAC000FFFFFFFFFFFFFFFFFFFFFFFFFFFFFFFF46
:10FAD000FFFFFFFFFFFFFFFFFFFFFFFFFFFFFFFF36
:10FAE000FFFFFFFFFFFFFFFFFFFFFFFFFFFFFFFF26
:10FAF000FFFFFFFFFFFFFFFFFFFFFFFFFFFFFFFF16
:10FB0000FFFFFFFFFFFFFFFFFFFFFFFFFFFFFFFF05
:10FB1000FFFFFFFFECD0F324FBC7FBA7FBC6FBA84E
:10FB2000FBC7FBC7FBC8FBC8FBC8FBC8FBC8FBC8BF
:10FB3000FBC8FBC8FBC8FBC8FBC8FBC8FBC8FBC8AD
:10FB4000FBC8FBC7FBC8FBC7FBC6FBC7FB88FBC7E3
:10FB5000FBC6FBC8FB87F3A5F697F7FFFFBFFFFFC8
:10FB6000FFFFFFFEFFFFFFFFFFFFFFFFFFFFFFFFA6
:10FB7000FFFFFFFFFFFFFFFFFFFFFFFFFFFFFFFF95
:10FB8000FFFFFFFFFFFFFFFFFFFFFFFFFFFFFFFF85
:10FB9000FFFFFFFFFFFFFFFFFFFFFFFFFFFFFFFF75
:10FBA000FFFFFFFFFFFFFFFFFFFFFFFFFFFFFFFF65
:10FBB000FFFFFFFFFFFFFFFFFFFFFFFFFFFFFFFF55
:10FBC000FFFFFFFFFFFFFFFFFFFFFFFFFFFFFFFF45
:10FBD000FFFFFFFFFFFFFFFFFFFFFFFFFFFFFFFF35
:10FBE000FFFFFFFFFFFFFFFFFFFFFFFFFFFFFFFF25
:10FBF000FFFFFFFFFFFFFFFFFFFFFFFFFFFFFFFF15
:10FC0000FFFFFFFFFFFFFFFFFFFFFFFFFFFFFFFF04
:10FC1000FFFFFFFFFFFFFFFFFFFFFFFFFFFFFFFFF4
:10FC2000FFFFFFFFFFFFFFFFFFFFFFFFFFFFFFFFE4
:10FC3000FFFFFFFFFFFFFFFFFFFFFFFFFFFFFFFFD4
:10FC4000FFFFFFFFFFFFFFFFFFFFFFFFFFFFFFFFC4
:10FC5000FFFFFFFFFFFFFFFFFFFFFFFFFFFFFFFFB4
:10FC6000FFFFFFFFFFFFFFFFFFFFFFFFFFFFFFFFA4
:10FC7000FFFFFFFFFFFFFFFFFFFFFFFFFFFFFFFF94
:10FC8000FFFFFFFFFFFFFFFFFFFFFFFFFFFFFFFF84
:10FC9000FFFFFFFFFFFFFFFFFFFFFFFFFFFFFFFF74
:10FCA000FFFFFFFFFFFFFFFFFFFFFFFFFFFFFFFF64
:10FCB000FFFFFFFFFFFFFFFFFFFFFFFFFFFFFFFF54
:10FCC000FFFFFFFFFFFFFFFFFFFFFFFFFFFFFFFF44
:10FCD000FFFFFFFFFFFFFFFFFFFFFFFFFFFFFFFF34
:10FCE000FFFFFFFFFFFFFFFFFFFFFFFFFFFFFFFF24
:10FCF000FFFFF7FFFFDDF42CFB66FBA6FBC7FBC68F
:10FD0000FBC7FBC7FBC8FBC8FBC8FBC8FBC8FBC8DD
:10FD1000FBC8FBC8FBC8FBC8FBC8FBC8FBC8FBC8CB
:10FD2000FBC8FBC8FBC8FBC7FBC6FBC8FBA9FBC6DF
:10FD3000FBC6FBC8FB66FBEAF79DF7FFFFBFFFFFB3
:10FD4000FFFFFFFFFFFFFFFFFFFFFFFFFFFFFFFFC3
:10FD5000FFFFFFFFFFFFFFFFFFFFFFFFFFFFFFFFB3
:10FD6000FFFFFFFFFFFFFFFFFFFFFFFFFFFFFFFFA3
:10FD7000FFFFFFFFFFFFFFFFFFFFFFFFFFFFFFFF93
:10FD8000FFFFFFFFFFFFFFFFFFFFFFFFFFFFFFFF83
:10FD9000FFFFFFFFFFFFFFFFFFFFFFFFFFFFFFFF73
:10FDA000FFFFFFFFFFFFFFFFFFFFFFFFFFFFFFFF63
:10FDB000FFFFFFFFFFFFFFFFFFFFFFFFFFFFFFFF53
:10FDC000FFFFFFFFFFFFFFFFFFFFFFFFFFFFFFFF43
:10FDD000FFFFFFFFFFFFFFFFFFFFFFFFFFFFFFFF33
:10FDE000FFFFFFFFFFFFFFFFFFFFFFFFFFFFFFFF23
:10FDF000FFFFFFFFFFFFFFFFFFFFFFFFFFFFFFFF13
:10FE0000FFFFFFFFFFFFFFFFFFFFFFFFFFFFFFFF02
:10FE1000FFFFFFFFFFFFFFFFFFFFFFFFFFFFFFFFF2
:10FE2000FFFFFFFFFFFFFFFFFFFFFFFFFFFFFFFFE2
:10FE3000FFFFFFFFFFFFFFFFFFFFFFFFFFFFFFFFD2
:10FE4000FFFFFFFFFFFFFFFFFFFFFFFFFFFFFFFFC2
:10FE5000FFFFFFFFFFFFFFFFFFFFFFFFFFFFFFFFB2
:10FE6000FFFFFFFFFFFFFFFFFFFFFFFFFFFFFFFFA2
:10FE7000FFFFFFFFFFFFFFFFFFFFFFFFFFFFFFFF92
:10FE8000FFFFFFFFFFFFFFFFFFFFFFFFFFFFFFFF82
:10FE9000FFFFFFFFFFFFFFFFFFFFFFFFFFFFFFFF72
:10FEA000FFFFFFFFFFFFFFFFFFFFFFFFFFFFFFFF62
:10FEB000FFFFFFFFFFFFFFFFFFFFFFFFFFFFFFFF52
:10FEC000FFFFFFFFFFFFFFFFFFFFFFFFFFFFFFFF42
:10FED000FFFFF7FFFFFFFEB8F366FBA5FBC7FBC6FE
:10FEE000FBA7FBA8FBC8FBC8FBC8FBC8FBC8FBC83B
:10FEF000FBC8FBC8FBC8FBC8FBC8FBC8FBC8FBC8EA
:10FF0000FBC8FBC8FBC8FBC8FBC7FBC7FBC8FBC7DC
:10FF1000FBC7FBE7FB24F5B3FFFFFFFFFFFEFFFF7F
:10FF2000FFFFFFFFFFFFFFFFFFFFFFFFFFFFFFFFE1
:10FF3000FFFFFFFFFFFFFFFFFFFFFFFFFFFFFFFFD1
:10FF4000FFFFFFFFFFFFFFFFFFFFFFFFFFFFFFFFC1
:10FF5000FFFFFFFFFFFFFFFFFFFFFFFFFFFFFFFFB1
:10FF6000FFFFFFFFFFFFFFFFFFFFFFFFFFFFFFFFA1
:10FF7000FFFFFFFFFFFFFFFFFFFFFFFFFFFFFFFF91
:10FF8000FFFFFFFFFFFFFFFFFFFFFFFFFFFFFFFF81
:10FF9000FFFFFFFFFFFFFFFFFFFFFFFFFFFFFFFF71
:10FFA000FFFFFFFFFFFFFFFFFFFFFFFFFFFFFFFF61
:10FFB000FFFFFFFFFFFFFFFFFFFFFFFFFFFFFFFF51
:10FFC000FFFFFFFFFFFFFFFFFFFFFFFFFFFFFFFF41
:10FFD000FFFFFFFFFFFFFFFFFFFFFFFFFFFFFFFF31
:10FFE000FFFFFFFFFFFFFFFFFFFFFFFFFFFFFFFF21
:10FFF000FFFFFFFFFFFFFFFFFFFFFFFFFFFFFFFF11
:020000040801F1
:10000000FFFFFFFFFFFFFFFFFFFFFFFFFFFFFFFF00
:10001000FFFFFFFFFFFFFFFFFFFFFFFFFFFFFFFFF0
:10002000FFFFFFFFFFFFFFFFFFFFFFFFFFFFFFFFE0
:10003000FFFFFFFFFFFFFFFFFFFFFFFFFFFFFFFFD0
:10004000FFFFFFFFFFFFFFFFFFFFFFFFFFFFFFFFC0
:10005000FFFFFFFFFFFFFFFFFFFFFFFFFFFFFFFFB0
:10006000FFFFFFFFFFFFFFFFFFFFFFFFFFFFFFFFA0
:10007000FFFFFFFFFFFFFFFFFFFFFFFFFFFFFFFF90
:10008000FFFFFFFFFFFFFFFFFFFFFFFFFFFFFFFF80
:10009000FFFFFFFFFFFFFFFFFFFFFFFFFFFFFFFF70
:1000A000FFFFFFFFFFFFFFFFFFFFFFFFFFFFFFFF60
:1000B000FFFFFFFFFFFFF7BEF44AFB45FBE8FBE64F
:1000C000FB88FBA9FBC8FBC8FBC8FBC8FBC8FBC877
:1000D000FBC8FBC8FBC8FBC8FBC8FBC8FBC8FBC808
:1000E000FBC8FBC8FBC7FBA8FB88FBE6FBC6FB897C
:1000F000FBC8FB64EBA7F7DEFFFFFFDFFFFEFFFFA0
:10010000FFFFFFFFFFFFFFFFFFFFFFFFFFFFFFFFFF
:10011000FFFFFFFFFFFFFFFFFFFFFFFFFFFFFFFFEF
:10012000FFFFFFFFFFFFFFFFFFFFFFFFFFFFFFFFDF
:10013000FFFFFFFFFFFFFFFFFFFFFFFFFFFFFFFFCF
:10014000FFFFFFFFFFFFFFFFFFFFFFFFFFFFFFFFBF
:10015000FFFFFFFFFFFFFFFFFFFFFFFFFFFFFFFFAF
:10016000FFFFFFFFFFFFFFFFFFFFFFFFFFFFFFFF9F
:10017000FFFFFFFFFFFFFFFFFFFFFFFFFFFFFFFF8F
:10018000FFFFFFFFFFFFFFFFFFFFFFFFFFFFFFFF7F
:10019000FFFFFFFFFFFFFFFFFFFFFFFFFFFFFFFF6F
:1001A000FFFFFFFFFFFFFFFFFFFFFFFFFFFFFFFF5F
:1001B000FFFFFFFFFFFFFFFFFFDFFFFFFFFFFFFF6F
:1001C000FFFFFFFFFFFFFFFFFFFFFFFFFFFFFFFF3F
:1001D000FFFFFFFFFFFFFFFFFFFFFFFFFFFFFFFF2F
:1001E000FFFFFFFFFFFFFFFFFFFFFFFFFFFFFFFF1F
:1001F000FFFFFFFFFFFFFFFFFFFFFFFFFFFFFFFF0F
:10020000FFFFFFFFFFFFFFFFFFFFFFFFFFFFFFFFFE
:10021000FFFFFFFFFFFFFFFFFFFFFFFFFFFFFFFFEE
:10022000FFFFFFFFFFFFFFFFFFFFFFFFFFFFFFFFDE
:10023000FFFFFFFFFFFFFFFFFFFFFFFFFFFFFFFFCE
:10024000FFFFFFFFFFFFFFFFFFFFFFFFFFFFFFFFBE
:10025000FFFFFFFFFFFFFFFFFFFFFFFFFFFFFFFFAE
:10026000FFFFFFFFFFFFFFFFFFFFFFFFFFFFFFFF9E
:10027000FFFFFFFFFFFFFFFFFFFFFFFFFFFFFFFF8E
:10028000FFFFFFFFFFFFFFFFFFFFFFFFFFFFFFFF7E
:10029000FFFFFFFEFFBFFFFFFD70FB25F3C8FBC89C
:1002A000FBC8FBC8FBC8FBC8FBC8FBC8FBC8FBC836
:1002B000FBC8FBC8FBC8FBC8FBC8FBC8FBC8FBC826
:1002C000FBC8FBC8FBC7FBA6FBC9FBC8FBC6FB877B
:1002D000FB86F302EE78FFFFFFFFFFBFFFFFFFFF8C
:1002E000F7FFFFFFFFFFF79EA5149CF3A514A514CD
:1002F000A5149CF39CF3FFDFFFFFFFFFFFFFFFFF51
:10030000FFFFFFFFD6BA94B2DEDBFFFFFFFFFFFF68
:10031000FFFFFFFFFFFFFFFFFFFFFFFFFFFFAD55E9
:100320009CD3DEFBFFFFFFFFFFFFFFFFFFFFFFFF91
:10033000FFFFFFFFFFFFFFFFFFFFEF5DB5968C5153
:100340009CD3DEDBFFFFFFFFFFFFFFFFFFFFFFFF91
:10035000FFFFFFFFF79E94B29CF3A514AD55A514C3
:100360009CD3B596F79EFFFFFFFFFFFFFFFFFFFF48
:10037000FFFFC61894B2F79EFFFFFFFFE71C841033
:10038000D6BAFFFFFFFFFFFFFFFFFFFFFFFFFFFFEB
:10039000DEFB8C51DEDBFFFFFFFFCE598410AD7515
:1003A000FFFFFFFFFFFFFFFFFFFFFFFFFFFFFFFF5D
:1003B000F7BEBDD79CD39CF39CD3CE79FFFFFFFF44
:1003C000FFFFFFFFFFFFFFFFFFFFFFFFFFFFFFFF3D
:1003D000E71C8C51D69AFFFFFFFFFFFFFFFFFFFFD7
:1003E000FFFFFFFFDEFB8C71CE79FFFFFFFFFFFFFA
:1003F000FFFFFFFFFFFFFFFFFFFFFFFFFFFFFFFF0D
:10040000FFFFFFFFFFFFFFFFFFFFFFFFFFFFFFFFFC
:10041000FFFFFFFFFFFFFFFFFFFFFFFFFFFFFFFFEC
:10042000FFFFFFFFFFFFFFFFFFFFFFFFFFFFFFFFDC
:10043000FFFFFFFFFFFFFFFFFFFFFFFFFFFFFFFFCC
:10044000FFFFFFFFFFFFFFFFFFFFFFFFFFFFFFFFBC
:10045000FFFFFFFFFFFFFFFFFFFFFFFFFFFFFFFFAC
:10046000FFFFFFFFFFFFFFFFFFFFFFFFFFFFFFFF9C
:10047000FFFFFFFFFFFFF7FFFD51FB25FBC8FBC799
:10048000F3C6FBC7FBC8FBC8FBC8FBC8FBC8FBC85F
:10049000FBC8FBC8FBC8FBC8FBC8FBC8FBC8FBC844
:1004A000FBC8FBC7FBC7FBA7FBC7FBC9FBC8FBE738
:1004B000FB24F48CFFFFFFFFF7FFFFFFFFFFFFFFB1
:1004C000FFFFFFFFFFFFE71C52AA42084A694A49A3
:1004D0004A494A494A49F79EFFFFFFFFFFFFFFFFD6
:1004E000FFFFFFFFAD752124B5B6FFFFFFFFFFFF44
:1004F000FFFFFFFFFFFFFFFFFFFFFFFFE71C39C705
:10050000318694B2FFFFFFFFFFFFFFFFFFFFFFFFFA
:10051000FFFFFFFFFFFFFFFFD69A528A39C75AEB52
:100520004A4939C79CD3FFDFFFFFFFFFFFFFFFFFF3
:10053000FFFFFFFFE71C39E74A694A694228528AF0
:1005400042286B4DEF7DFFFFFFFFFFFFFFFFFFFF27
:10055000FFFF84102124EF7DFFFFFFFFC6380861F5
:10056000B5B6FFFFFFFFFFFFFFFFFFFFFFFFFFFF2E
:10057000BDF70861BDF7FFFFD69A420831A6D6BA8B
:10058000FFFFFFFFFFFFFFFFFFFFFFFFFFFFEF5D2D
:100590006B6D31A64A69528A39C7A514FFFFFFFF68
:1005A000FFFFFFFFFFFFFFFFFFFFFFFFFFFFFFFF5B
:1005B000C6180861AD55FFFFFFFFFFFFFFFFFFFFFC
:1005C000FFFFFFFFBDD72104A514FFFFFFFFFFFFC3
:1005D000FFFFFFFFFFFFFFFFFFFFFFFFFFFFFFFF2B
:1005E000FFFFFFFFFFFFFFFFFFFFFFFFFFFFFFFF1B
:1005F000FFFFFFFFFFFFFFFFFFFFFFFFFFFFFFFF0B
:10060000FFFFFFFFFFFFFFFFFFFFFFFFFFFFFFFFFA
:10061000FFFFFFFFFFFFFFFFFFFFFFFFFFFFFFFFEA
:10062000FFFFFFFFFFFFFFFFFFFFFFFFFFFFFFFFDA
:10063000FFFFFFFFFFFFFFFFFFFFFFFFFFFFFFFFCA
:10064000FFFFFFFFFFFFFFFFFFFFFFFFFFFFFFFFBA
:10065000FFFFF7FFF7DFFFFFFD50FB65FBA8FBA7E0
:10066000FBC7FBC7FBC8FBC8FBC8FBC8FBC8FBC874
:10067000FBC8FBC8FBC8FBC8FBC8FBC8FBC8FBC862
:10068000FBA8FBC8FBC8FBC7FBC6FBC8FBC8FB65D8
:10069000EC09FF3BFFFFFFFFFFFFF7FFFFFFFFFF3F
:1006A000FFFFFFFFFFFFFFDFDEFBE71CAD55528AB8
:1006B000AD75E71CDEFBFFFFFFFFFFFFFFFFFFFF46
:1006C000FFFFFFFFB5B639E7C638FFFFFFFFFFFFAB
:1006D000FFFFFFFFFFFFFFFFFFFFFFFFA514420823
:1006E00052AA630CE71CFFFFFFFFFFFFFFFFFFFFA6
:1006F000FFFFFFFFFFFFF79E632C4208BDD7FFDF20
:10070000DEDB6B6D39E7CE59FFFFFFFFFFFFFFFF19
:10071000FFFFFFFFFFDFDEDBE73C94924A49CE7923
:10072000DEFBE71CFFFFFFFFFFFFFFFFFFFFFFFFF9
:10073000FFFF8C7139E7EF7DFFFFFFFFCE592124CA
:10074000C618FFFFFFFFFFFFFFFFFFFFFFFFFFFFD9
:10075000C6382124CE59FFFF6B4D39E7C638FFFF5D
:10076000FFFFFFFFFFFFFFFFFFFFFFFFFFFF9CF308
:1007700039C79CF3EF5DE73CDEDBEF7DFFFFFFFF5A
:10078000FFFFFFFFFFFFFFFFFFFFFFFFFFFFFFFF79
:10079000D69A3186B5B6FFFFFFFFFFFFFFFFFFFFD1
:1007A000FFFFFFFFC6384208AD75FFFFFFFFFFFFE9
:1007B000FFFFFFFFFFFFFFFFFFFFFFFFFFFFFFFF49
:1007C000FFFFFFFFFFFFFFFFFFFFFFFFFFFFFFFF39
:1007D000FFFFFFFFFFFFFFFFFFFFFFFFFFFFFFFF29
:1007E000FFFFFFFFFFFFFFFFFFFFFFFFFFFFFFFF19
:1007F000FFFFFFFFFFFFFFFFFFFFFFFFFFFFFFFF09
:10080000FFFFFFFFFFFFFFFFFFFFFFFFFFFFFFFFF8
:10081000FFFFFFFFFFFFFFFFFFFFFFFFFFFFFFFFE8
:10082000FFFFFFFFFFFFFFFFFFFFFFFFFFFFFFFFD8
:10083000FFFFFFFFFFFFFFDFFCEDFB65FBC8FB8752
:10084000FBA7FBA8FBC8FBC8FBC8FBC8FBC8FBC8D1
:10085000FBC8FBC7FBC7FBC8FBC8FBC8FBA8FBC7A3
:10086000FBA7FBC7FBC8F3C8FBC7FBE7FB66F34668
:10087000F677FFFFFFFFFFFEFFDFFFFFFFFFFFFF3A
:10088000FFFFFFFFFFFFFFFFFFFFFFFFBDF7422856
:10089000CE59FFFFFFFFFFFFFFFFFFFFFFFFFFFF3F
:1008A000FFFFFFFFB5B639E7C638FFFFFFFFFFFFC9
:1008B000FFFFFFFFFFFFFFFFFFFFF79E5ACB6B6DB0
:1008C000B59639E7BDD7FFFFFFFFFFFFFFFFFFFF33
:1008D000FFFFFFFFFFFFDEFB42288410FFFFFFFF4B
:1008E000FFFFCE5942089CD3FFFFFFFFFFFFFFFF32
:1008F000FFFFFFFFFFFFFFFFFFFF9CF34228E73CE6
:10090000FFFFFFFFFFFFFFFFFFFFFFFFFFFFFFFFF7
:10091000FFFF8C7139E7EF7DFFFFFFFFCE592124E8
:10092000C618FFFFFFFFFFFFFFFFFFFFFFFFFFFFF7
:10093000C6382945E71CB59639C7AD75FFFFFFFFDF
:10094000FFFFFFFFFFFFFFFFFFFFFFFFEF5D630CF8
:100950005ACBFFFFFFDFFFDFFFDFFFFFFFFFFFFFE0
:10096000FFFFFFFFFFFFFFFFFFFFFFFFFFFFFFFF97
:10097000CE592965B5B6FFFFFFFFFFFFFFFFFFFF61
:10098000FFFFFFFFC6384208AD75FFFFFFFFFFFF07
:10099000FFFFFFFFFFFFFFFFFFFFFFFFFFFFFFFF67
:1009A000FFFFFFFFFFFFFFFFFFFFFFFFFFFFFFFF57
:1009B000FFFFFFFFFFFFFFFFFFFFFFFFFFFFFFFF47
:1009C000FFFFFFFFFFFFFFFFFFFFFFFFFFFFFFFF37
:1009D000FFFFFFFFFFFFFFFFFFFFFFFFFFFFFFFF27
:1009E000FFFFFFFFFFFFFFFFFFFFFFFFFFFFFFFF17
:1009F000FFFFFFFFFFFFFFFFFFFFFFFFFFFFFFFF07
:100A0000FFFFFFFFFFFFF7FFFFFFFFFFFFFFFFFFFE
:100A1000FFFFFFFFFFFFF7DCEC6BFB47FBC6FBC6EE
:100A2000FBC8FBC8FBC8FBC8FBC8FBC8FBC8FBC8AE
:100A3000FBC8FBC7FBC6FBC7FBC8FBC8FB88FBC7E3
:100A4000F3E6FBC6FBC7FBC9F3E8FB85F345FDF402
:100A5000F7FFF7FFFFFFFFFFFFFFFFFFFFFFFFFFB6
:100A6000FFFFFFFFFFFFFFFFFFFFFFFFB5B64228BD
:100A7000C638FFFFFFFFFFFFFFFFFFFFFFFFFFFF86
:100A8000FFFFFFFFB5B639E7C638FFFFFFFFFFFFE7
:100A9000FFFFFFFFFFFFFFFFFFFFC6383186B59660
:100AA000FFFF630C7BCFF7BEFFFFFFFFFFFFFFFFE2
:100AB000FFFFFFFFFFFFCE5939E794B2FFFFFFFFB3
:100AC000FFFFD6BA4A498430FFFFFFFFFFFFFFFF59
:100AD000FFFFFFFFFFFFFFFFFFFF9CD34208E73C44
:100AE000FFFFFFFFFFFFFFFFFFFFFFFFFFFFFFFF16
:100AF000FFFF8C7139E7EF7DFFFFFFFFCE59212407
:100B0000C618FFFFFFFFFFFFFFFFFFFFFFFFFFFF15
:100B1000C618422884104A498C51FFFFFFFFFFFF8F
:100B2000FFFFFFFFFFFFFFFFFFFFFFFFE71C632C3F
:100B3000528A5ACB5ACB4A694228A534FFFFFFFF9D
:100B4000FFFFFFFFFFFFFFFFFFFFFFFFFFFFFFFFB5
:100B5000CE792965B5B6FFFFFFFFFFFFFFFFFFFF5F
:100B6000FFFFFFFFC6384208AD75FFFFFFFFFFFF25
:100B7000FFFFFFFFFFFFFFFFFFFFFFFFFFFFFFFF85
:100B8000FFFFFFFFFFFFFFFFFFFFFFFFFFFFFFFF75
:100B9000FFFFFFFFFFFFFFFFFFFFFFFFFFFFFFFF65
:100BA000FFFFFFFFFFFFFFFFFFFFFFFFFFFFFFFF55
:100BB000FFFFFFFFFFFFFFFFFFFFFFFFFFFFFFFF45
:100BC000FFFFFFFFFFFFFFFFFFFFFFFFFFFFFFFF35
:100BD000FFFFFFFFFFFFFFFFFFFFFFFFFFFFFFFF25
:100BE000FFFFFFDFFFDFFFFFFFFFFFFFFFFFFFFF55
:100BF000FFFFFFBFEFFFF6B7FB66FBA7FBA7FBC638
:100C0000FBC8FBC8FBC8FBC8FBC8FBC8FBC8FBC8CC
:100C1000FBC7FBA7FB89FBE6FBC7FB88FBC7FBE623
:100C2000FB88FBA8FBC7FBE7FB85F2E2EDB2FFFF09
:100C3000FFFFFFFEFFBFFFFFFFFFFFFFFFFFFFFF05
:100C4000FFFFFFFFFFFFFFFFFFFFFFFFB5B64228DB
:100C5000C638FFFFFFFFFFFFFFFFFFFFFFFFFFFFA4
:100C6000FFFFFFFFB5B639E7C638FFFFFFFFFFFF05
:100C7000FFFFFFFFFFFFFFFFFFFF8C514228B5B6CC
:100C8000E71C6B6D4A69E71CFFFFFFFFFFFFFFFFDB
:100C9000FFFFFFFFFFFFD69A420894B2FFFFFFFF5E
:100CA000FFFFDEDB4A698410FFFFFFFFFFFFFFFF4E
:100CB000FFFFFFFFFFFFFFFFFFFF9CD34228DEFB8C
:100CC000FFFFFFFFFFFFFFFFFFFFFFFFFFFFFFFF34
:100CD000FFFF8C7139E7F79EFFFFFFFFD69A2124B3
:100CE000BDF7FFFFFFFFFFFFFFFFFFFFFFFFFFFF5E
:100CF000C61839C7B5965AEB738EF79EFFFFFFFFF4
:100D0000FFFFFFFFFFFFFFFFFFFFFFFFE73C630C5D
:100D100052AA8C718410841073AEBDF7FFFFFFFFE1
:100D2000FFFFFFFFFFFFFFFFFFFFFFFFFFFFFFFFD3
:100D3000D69A2965BDF7FFFFFFFFFFFFFFFFFFFF0B
:100D4000FFFFFFFFC6384208AD75FFFFFFFFFFFF43
:100D5000FFFFFFFFFFFFFFFFFFFFFFFFFFFFFFFFA3
:100D6000FFFFFFFFFFFFFFFFFFFFFFFFFFFFFFFF93
:100D7000FFFFFFFFFFFFFFFFFFFFFFFFFFFFFFFF83
:100D8000FFFFFFFFFFFFFFFFFFFFFFFFFFFFFFFF73
:100D9000FFFFFFFFFFFFFFFFFFFFFFFFFFFFFFFF63
:100DA000FFFFFFFFFFFFFFFFFFFFFFFFFFFFFFFF53
:100DB000FFFFFFFFFFFFFFFFFFFFFFFFFFFFFFFF43
:100DC000FFFFFFFFFFFFFFFFFFFFFFBFFFFFFFFE74
:100DD000FFFEFFFFFFFFF4EEFB45FBE8FBA7FB86F2
:100DE000FBE8FBC8FBC8FBC8FBC8FBC8FBC8FBC8CB
:100DF000FBC8FBE7FBA6FBA8FBC7F3E6FBC7FBC8EA
:100E0000FB88FBA8FBC8FB85FAC4EDD5FFFFFFFEFE
:100E1000FFFFFFFFFFFDFFFFFFFFFFFFFFFFFFFFE4
:100E2000FFFFFFFFFFFFFFFFFFFFFFFFB5B64228F9
:100E3000C638FFFFFFFFFFFFFFFFFFFFFFFFFFFFC2
:100E4000FFFFFFFFB5B639E7C638FFFFFFFFFFFF23
:100E5000FFFFFFFFFFFFFFFFDEFB5AEB4A694A4936
:100E600031A6528A4A49A534FFFFFFFFFFFFFFFF6B
:100E7000FFFFFFFFFFFFEF5D4A696B6DF79EFFFF0E
:100E8000FFFFB5B639C7A514FFFFFFFFFFFFFFFF48
:100E9000FFFFFFFFFFFFFFFFFFFF9CF34228DEFB8A
:100EA000FFFFFFFFFFFFFFFFFFFFFFFFFFFFFFFF52
:100EB000FFFF9CD339C7EF5DFFFFFFFFCE5918E35B
:100EC000C618FFFFFFFFFFFFFFFFFFFFFFFFFFFF52
:100ED000C6382124E71CCE5929658410FFFFFFFF87
:100EE000FFFFFFFFFFFFFFFFFFFFFFFFF79E738E78
:100EF00052AAF7BEFFFFFFFFFFFFFFFFFFFFFFFF4D
:100F0000FFFFFFFFFFFFFFFFFFFFFFFFFFFFFFFFF1
:100F1000BDF72104BDF7FFFFFFFFFFFFFFFFFFFF4E
:100F2000FFFFFFFFC6384208AD55FFFFFFFFFFFF81
:100F3000FFFFFFFFFFFFFFFFFFFFFFFFFFFFFFFFC1
:100F4000FFFFFFFFFFFFFFFFFFFFFFFFFFFFFFFFB1
:100F5000FFFFFFFFFFFFFFFFFFFFFFFFFFFFFFFFA1
:100F6000FFFFFFFFFFFFFFFFFFFFFFFFFFFFFFFF91
:100F7000FFFFFFFFFFFFFFFFFFFFFFFFFFFFFFFF81
:100F8000FFFFFFFFFFFFFFFFFFFFFFFFFFFFFFFF71
:100F9000FFFFFFFFFFFFFFFFFFFFFFFFFFFFFFFF61
:100FA000FFFFFFFFFFFFF7FFFFFFFFDFFFFFFFFE7A
:100FB000FFFFFFFFFF9CFB66FB85FBC8FBC7FBE752
:100FC000FBA7FBC7FBC8FBC8FBC8FBC8FBC8FBC82B
:100FD000FBC8FBC8FBE7FBC8FBA7FBC6FBE6FBA8FF
:100FE000FBA8FBC7FB44EB86F615FFFFFFFFFFFFE7
:100FF000FFFFFFFFFFFFFFFFFFFFFFFFFFFFFFFF01
:10100000FFFFFFFFFFFFFFFFFFFFFFFFB59639E781
:10101000C618FFFFFFFFFFFFFFFFFFFFFFFFFFFF00
:10102000FFFFFFFFB59631A6BDF7FFFFFFFFFFFFF4
:10103000FFFFFFFFFFFFFFFFB59631A68C51D6BA29
:10104000D6BABDF74A695AEBF7BEFFFFFFFFFFFFB5
:10105000FFFFFFFFFFFFFFDF8C7131A68C71DEDB2E
:10106000C6184A694A49DEDBFFFFFFFFFFFFFFFFAB
:10107000FFFFFFFFFFFFFFFFFFFF94B239C7DEFB5B
:10108000FFFFFFFFFFFFFFFFFFFFFFFFFFFFFFFF70
:10109000FFFFBDD729457BEFD6BACE796B4D42080D
:1010A000EF5DFFFFFFFFFFFFFFFFFFFFFFFFFFFF02
:1010B000C6182104BDF7FFFF84302965AD75FFFF19
:1010C000FFFFFFFFFFFFFFFFFFFFFFFFFFFFB5B6C3
:1010D00039E7632CC638CE59BDF7DEDBFFFFFFFFD3
:1010E000FFFFFFFFFFFFFFFFFFDFBDF7C618BDD704
:1010F0006B6D3186E71CFFFFFFFFFFFFFFFFFFFF68
:10110000FFFFFFFFC63839C7A514FFFFFFFFFFFF32
:10111000FFFFFFFFFFFFFFFFFFFFFFFFFFFFFFFFDF
:10112000FFFFFFFFFFFFFFFFFFFFFFFFFFFFFFFFCF
:10113000FFFFFFFFFFFFFFFFFFFFFFFFFFFFFFFFBF
:10114000FFFFFFFFFFFFFFFFFFFFFFFFFFFFFFFFAF
:10115000FFFFFFFFFFFFFFFFFFFFFFFFFFFFFFFF9F
:10116000FFFFFFFFFFFFFFFFFFFFFFFFFFFFFFFF8F
:10117000FFFFFFFFFFFFFFFFFFFFFFFFFFFFFFFF7F
:10118000FFFFFFFFFFFFFFFFFFFFF7FFFFFEFFFF78
:10119000FFFFFFFFF530FB05FBC7FBA6F3C7FBE82E
:1011A000FB87FBC7FBC8FBC8FBC8FBC8FBC8FBC869
:1011B000FBC8FBA8FBA8FBA7FBE7FBC7FBA7FBE95A
:1011C000F3A8F365F408F676FFFFFFFFFFFFFFFFCC
:1011D000FFFFFFFFFFFFFFFFFFFFFFFFFFFFFFFF1F
:1011E000FFFFFFFFFFFFFFFFFFFFFFFFAD7539E7C9
:1011F000C618FFFFFFFFFFFFFFFFFFFFFFFFFFFF1F
:10120000FFFFFFFFB5B639C7BDD7FFFFFFFFFFFFE9
:10121000FFFFFFFFFFFFF79E6B4D4208DEDBFFFF86
:10122000FFFFFFDF7BEF31A6C618FFFFFFFFFFFFC9
:10123000FFFFFFFFFFFFFFFFEF5D8C51528A528AD5
:101240004A695AEBBDD7FFFFFFFFFFFFFFFFFFFF1C
:10125000FFFFFFFFFFFFFFFFFFFF949239E7E71C4F
:10126000FFFFFFFFFFFFFFFFFFFFFFFFFFFFFFFF8E
:10127000FFFFFFFF8C714A49528A4A69528AB5B60C
:10128000FFFFFFFFFFFFFFFFFFFFFFFFFFFFFFFF6E
:10129000C6182104BDD7FFFFDEFB52AA39E7DEDB0B
:1012A000FFFFFFFFFFFFFFFFFFFFFFFFFFFFF7BE97
:1012B0009CF34A694A494A6939E7A514FFFFFFFFD1
:1012C000FFFFFFFFFFFFFFFFEF7D42284A494A492A
:1012D0004A699CF3FFFFFFFFFFFFFFFFFFFFFFFFD8
:1012E000FFFFFFFFC63839C7A534FFFFFFFFFFFF31
:1012F000FFFFFFFFFFFFFFFFFFFFFFFFFFFFFFFFFE
:10130000FFFFFFFFFFFFFFFFFFFFFFFFFFFFFFFFED
:10131000FFFFFFFFFFFFFFFFFFFFFFFFFFFFFFFFDD
:10132000FFFFFFFFFFFFFFFFFFFFFFFFFFFFFFFFCD
:10133000FFFFFFFFFFFFFFFFFFFFFFFFFFFFFFFFBD
:10134000FFFFFFFFFFFFFFFFFFFFFFFFFFFFFFFFAD
:10135000FFFFFFFFFFFFFFFFFFFFFFFFFFFFFFFF9D
:10136000FFFFFFFFFFFFFFFFFFFFFFFFFFDEFFFFAE
:10137000FFFFF73CEB65FB66FBA8FBC6FBC6FBE883
:10138000FB88FBC7FBC8FBC8FBC8FBC8FBC8FBC886
:10139000FBC8FBC8FB87FB86FBA6FBC8F3C9FB6742
:1013A000F2E4ECCCF75AFFFFFFFFFFFFFFFFFFFF68
:1013B000FFFFFFFFFFFEFFFFFFFFFFFFFFFFFFFF3E
:1013C000FFFFFFFFFFFFFFFFFFFFFFFFEF7DCE7976
:1013D000EF7DFFFFFFFFFFFFFFFFFFFFFFFFFFFFAF
:1013E000FFFFFFFFEF7DCE79EF5DFFFFFFFFFFFF08
:1013F000FFFFFFFFFFFFF79ECE79D6BAFFFFFFFF8B
:10140000FFFFFFFFE73CCE59E71CFFFFFFFFFFFF99
:10141000FFFFFFFFFFFFFFFFFFFFFFDFE71CC61817
:10142000D69AE73CFFFFFFFFFFFFFFFFFFFFFFFF35
:10143000FFFFFFFFFFFFFFFFFFFFE71CCE79FFDF8E
:10144000FFFFFFFFFFFFFFFFFFFFFFFFFFFFFFFFAC
:10145000FFFFFFFFFFDFDEFBC638C638E71CFFFFDC
:10146000FFDFFFFFFFFFFFFFFFFFFFFFFFFFFFFFAC
:10147000EF7DCE59F79EFFFFFFFFE73CC618DEFB6E
:10148000FFFFFFFFFFFFFFFFFFFFFFFFFFFFFFFF6C
:10149000FFDFE71CD69AD69ACE59E73CFFFFFFFF45
:1014A000FFFFFFFFFFFFFFFFFFFFCE79CE79D6BA28
:1014B000E71CFFDFFFFFFFFFFFFFFFFFFFFFFFFF57
:1014C000FFFFFFFFEF7DCE79E73CFFFFFFFFFFFF50
:1014D000FFFFFFFFFFFFFFFFFFFFFFFFFFFFFFFF1C
:1014E000FFFFFFFFFFFFFFFFFFFFFFFFFFFFFFFF0C
:1014F000FFFFFFFFFFFFFFFFFFFFFFFFFFFFFFFFFC
:10150000FFFFFFFFFFFFFFFFFFFFFFFFFFFFFFFFEB
:10151000FFFFFFFFFFFFFFFFFFFFFFFFFFFFFFFFDB
:10152000FFFFFFFFFFFFFFFFFFFFFFFFFFFFFFFFCB
:10153000FFFFFFFFFFFFFFFFFFFFFFFFFFFFFFFFBB
:10154000FFFFFFFFFFFFFFFFFFFFFFBEFFBFF7FF34
:10155000FFFFE511FB23FBE7FBA7FBA7FBA8FB872E
:10156000FBC7FBC8FBC8FBC8FBC8FBC8FBC8FBC864
:10157000FBA7FBC8FB89FBC7FBC7FBE8FB25FA827F
:10158000E5F1FFDEFFFFF7FFF7FFF7FFFFBFFFFF0C
:10159000FFFFFFFFFFFFFFFFFFFFFFFFFFFFFFFF5B
:1015A000FFFFFFFFFFFFFFFFFFFFFFFFFFFFFFFF4B
:1015B000FFFFFFFFFFFFFFFFFFFFFFFFFFFFFFFF3B
:1015C000FFFFFFFFFFFFFFFFFFFFFFFFFFFFFFFF2B
:1015D000FFFFFFFFFFFFFFFFFFFFFFFFFFFFFFFF1B
:1015E000FFFFFFFFFFFFFFFFFFFFFFFFFFFFFFFF0B
:1015F000FFFFFFFFFFFFFFFFFFFFFFFFFFFFFFFFFB
:10160000FFFFFFFFFFFFFFFFFFFFFFFFFFFFFFFFEA
:10161000FFFFFFFFFFFFFFFFFFFFFFFFFFFFFFFFDA
:10162000FFFFFFFFFFFFFFFFFFFFFFFFFFFFFFFFCA
:10163000FFFFFFFFFFFFFFFFFFFFFFFFFFFFFFFFBA
:10164000FFFFFFFFFFFFFFFFFFFFFFFFFFFFFFFFAA
:10165000FFFFFFFFFFFFFFFFFFFFFFFFFFFFFFFF9A
:10166000FFFFFFFFFFFFFFFFFFFFFFFFFFFFFFFF8A
:10167000FFFFFFFFFFFFFFFFFFFFFFFFFFFFFFFF7A
:10168000FFFFFFFFFFFFFFFFFFFFFFFFFFFFFFFF6A
:10169000FFFFFFFFF7BEFFFFFFFFFFFFFFFFFFFFA3
:1016A000FFFFFFFFFFFFFFFFFFFFFFFFFFFFFFFF4A
:1016B000FFFFFFFFFFFFFFFFFFFFFFFFFFFFFFFF3A
:1016C000FFFFFFFFFFFFFFFFFFFFFFFFFFFFFFFF2A
:1016D000FFFFFFFFFFFFFFFFFFFFFFFFFFFFFFFF1A
:1016E000FFFFFFFFFFFFFFFFFFFFFFFFFFFFFFFF0A
:1016F000FFFFFFFFFFFFFFFFFFFFFFFFFFFFFFFFFA
:10170000FFFFFFFFFFFFFFFFFFFFFFFFFFFFFFFFE9
:10171000FFFFFFFFFFFFFFFFFFFFFFFFFFFFFFFFD9
:10172000FFFFFFFFFFFFFFFFF7FEFFBFEFFFF7FF2A
:10173000F5D5EB45FB87FB87F3E8FBE8FB88FBC7A8
:10174000FBC7FBA9FBE8FBA8FB88FBC8FBC8FBA801
:10175000FB87FBC7FBE8F3C6FB86FB44EC29F75984
:10176000FFFFFFFFFFBFFFFFF7FFFFFFFFFFFFFFD1
:10177000FFFFFFFFFFFEFFFFFFFFFFFFFFFFFFFF7A
:10178000FFFFFFFFFFFFFFFFFFFFFFFFFFFFFFFF69
:10179000FFFFFFFFFFFFFFFFFFFFFFFFFFFFFFFF59
:1017A000FFFFFFFFFFFFFFFFFFFFFFFFFFFFFFFF49
:1017B000FFFFFFFFFFFFFFFFFFFFFFFFFFFFFFFF39
:1017C000FFFFFFFFFFFFFFFFFFFFFFFFFFFFFFFF29
:1017D000FFFFFFFFFFFFFFFFFFFFFFFFFFFFFFFF19
:1017E000FFFFFFFFFFFFFFFFFFFFFFFFFFFFFFFF09
:1017F000FFFFFFFFFFFFFFFFFFFFFFFFFFFFFFFFF9
:10180000FFFFFFFFFFFFFFFFFFFFFFFFFFFFFFFFE8
:10181000FFFFFFFFFFFFFFFFFFFFFFFFFFFFFFFFD8
:10182000FFFFFFFFFFFFFFFFFFFFFFFFFFFFFFFFC8
:10183000FFFFFFFFFFFFFFFFFFFFFFFFFFFFFFFFB8
:10184000FFFFFFFFFFFFFFFFFFFFFFFFFFFFFFFFA8
:10185000FFFFFFFFFFFFFFFFFFFFFFFFFFFFFFFF98
:10186000FFFFFFFFFFFFFFFFFFFFFFFFFFFFFFFF88
:10187000FFFFFFFFFFFFFFFFFFFFFFFFFFFFFFFF78
:10188000FFFFFFFFFFFFFFFFFFFFFFFFFFFFFFFF68
:10189000FFFFFFFFFFFFFFFFFFFFFFFFFFFFFFFF58
:1018A000FFFFFFFFFFFFFFFFFFFFFFFFFFFFFFFF48
:1018B000FFFFFFFFFFFFFFFFFFFFFFFFFFFFFFFF38
:1018C000FFFFFFFFFFFFFFFFFFFFFFFFFFFFFFFF28
:1018D000FFFFFFFFFFFFFFFFFFFFFFFFFFFFFFFF18
:1018E000FFFFFFFFFFFFFFFFFFFFFFFFFFFFFFFF08
:1018F000FFFFFFFFFFFFFFFFFFFFFFFFFFFFFFFFF8
:10190000FFFFFFFFFFFFFFFEFFFEFFFFF7FFF6FAFF
:10191000F3A9FB46FBA8FBA7FBC7FBC8FBA8FB87FB
:10192000FBC7FBA8FBC7FBC6FBE8FB88FB88FBE803
:10193000FBE8FB88FBA5FB25F3A9F5B3FFDDF7FF6B
:10194000FFFFFFFFFFFFFFFFFFFFFFFFFFFFFFFFA7
:10195000FFFFFFFFFFFFFFFFFFFFFFFFFFFFFFFF97
:10196000FFFFFFFFFFFFFFFFFFFFFFFFFFFFFFFF87
:10197000FFFFFFFFFFFFFFFFFFFFFFFFFFFFFFFF77
:10198000FFFFFFFFFFFFFFFFFFFFFFFFFFFFFFFF67
:10199000FFFFFFFFFFFFFFFFFFFFFFFFFFFFFFFF57
:1019A000FFFFFFFFFFFFFFFFFFFFFFFFFFFFFFFF47
:1019B000FFFFFFFFFFFFFFFFFFFFFFFFFFFFFFFF37
:1019C000FFFFFFFFFFFFFFFFFFFFFFFFFFFFFFFF27
:1019D000FFFFFFFFFFFFFFFFFFFFFFFFFFFFFFFF17
:1019E000FFFFFFFFFFFFFFFFFFFFFFFFFFFFFFFF07
:1019F000FFFFFFFFFFFFFFFFFFFFFFFFFFFFFFFFF7
:101A0000FFFFFFFFFFFFFFFFFFFFFFFFFFFFFFFFE6
:101A1000FFFFFFFFFFFFFFFFFFFFFFFFFFFFFFFFD6
:101A2000FFFFFFFFFFFFFFFFFFFFFFFFFFFFFFFFC6
:101A3000FFFFFFFFFFFFFFFFFFFFFFFFFFFFFFFFB6
:101A4000FFFFFFFFFFFFFFFFFFFFFFFFFFFFFFFFA6
:101A5000FFFFFFFFFFFFFFFFFFFFFFFFFFFFFFFF96
:101A6000FFFFFFFFFFFFFFFFFFFFFFFFFFFFFFFF86
:101A7000FFFFFFFFFFFFFFFFFFFFFFFFFFFFFFFF76
:101A8000FFFFFFFFFFFFFFFFFFFFFFFFFFFFFFFF66
:101A9000FFFFFFFFFFFFFFFFFFFFFFFFFFFFFFFF56
:101AA000FFFFFFFFFFFFFFFFFFFFFFFFFFFFFFFF46
:101AB000FFFFFFFFFFFFFFFFFFFFFFFFFFFFFFFF36
:101AC000FFFFFFFFFFFFFFFFFFFFFFFFFFFFFFFF26
:101AD000FFFFFFFFFFFFFFFFFFFFFFFFFFFFFFFF16
:101AE000FFFFFFFFFFFFFFFFFFFFFFFFFFBEF48EC3
:101AF000F345FBA7FBC8FBC8FBA7FBC7FBC7FBA7BE
:101B0000FBC7FBC7FBC8FBC7FBA8FBA8FBC7FBC801
:101B1000FB87FB45F387ED10F71AF7FFFFFFFFFF89
:101B2000FFFFFFFFFFFFFFFFFFFFFFFFFFFFFFFFC5
:101B3000FFFFFFFFFFFFFFFFFFFFFFFFFFFFFFFFB5
:101B4000FFFFFFFFFFFFFFFFFFFFFFFFFFFFFFFFA5
:101B5000FFFFFFFFFFFFFFFFFFFFFFFFFFFFFFFF95
:101B6000FFFFFFFFFFFFFFFFFFFFFFFFFFFFFFFF85
:101B7000FFFFFFFFFFFFFFFFFFFFFFFFFFFFFFFF75
:101B8000FFFFFFFFFFFFFFFFFFFFFFFFFFFFFFFF65
:101B9000FFFFFFFFFFFFFFFFFFFFFFFFFFFFFFFF55
:101BA000FFFFFFFFFFFFFFFFFFFFFFFFFFFFFFFF45
:101BB000FFFFFFFFFFFFFFFFFFFFFFFFFFFFFFFF35
:101BC000FFFFFFFFFFFFFFFFFFFFFFFFFFFFFFFF25
:101BD000FFFFFFFFFFFFFFFFFFFFFFFFFFFFFFFF15
:101BE000FFFFFFFFFFFFFFFFFFFFFFFFFFFFFFFF05
:101BF000FFFFFFFFFFFFFFFFFFFFFFFFFFFFFFFFF5
:101C0000FFFFFFFFFFFFFFFFFFFFFFFFFFFFFFFFE4
:101C1000FFFFFFFFFFFFFFFFFFFFFFFFFFFFFFFFD4
:101C2000FFFFFFFFFFFFFFFFFFFFFFFFFFFFFFFFC4
:101C3000FFFFFFFFFFFFFFFFFFFFFFFFFFFFFFFFB4
:101C4000FFFFFFFFFFFFFFFFFFFFFFFFFFFFFFFFA4
:101C5000FFFFFFFFFFFFFFFFFFFFFFFFFFFFFFFF94
:101C6000FFFFFFFFFFFFFFFFFFFFFFFFFFFFFFFF84
:101C7000FFFFFFFFFFFFFFFFFFFFFFFFFFFFFFFF74
:101C8000FFFFFFFFFFFFFFFFFFFFFFFFFFFFFFFF64
:101C9000FFFFFFFFFFFFFFFFFFFFFFFFFFFFFFFF54
:101CA000FFFFFFFFFFFFFFFFFFFFFFFFFFFFFFFF44
:101CB000FFFFFFFFFFFFFFFFFFFFFFFFFFFFFFFF34
:101CC000FFFFFFFFFFFFFFFFFFFFFFFFF592F34561
:101CD000FBC5FBC6FBC7FBC8FBC8FBC7FBC7FBE6D6
:101CE000FBC7FBC7FBA7FBC7FBA8FBE8FB86FB25E5
:101CF000F347F4CDFEF8FFFFFFFFFFFFFFFFFFFFFD
:101D0000FFDFFFFFFFFFFFFFFFFFFFFFFFFFFFFF03
:101D1000FFFFFFFFFFFFFFFFFFFFFFFFFFFFFFFFD3
:101D2000FFFFFFFFFFFFFFFFFFFFFFFFFFFFFFFFC3
:101D3000FFFFFFFFFFFFFFFFFFFFFFFFFFFFFFFFB3
:101D4000FFFFFFFFFFFFFFFFFFFFFFFFFFFFFFFFA3
:101D5000FFFFFFFFFFFFFFFFFFFFFFFFFFFFFFFF93
:101D6000FFFFFFFFFFFFFFFFFFFFFFFFFFFFFFFF83
:101D7000FFFFFFFFFFFFFFFFFFFFFFFFFFFFFFFF73
:101D8000FFFFFFFFFFFFFFFFFFFFFFFFFFFFFFFF63
:101D9000FFFFFFFFFFFFFFFFFFFFFFFFFFFFFFFF53
:101DA000FFFFFFFFFFFFFFFFFFFFFFFFFFFFFFFF43
:101DB000FFFFFFFFFFFFFFFFFFFFFFFFFFFFFFFF33
:101DC000FFFFFFFFFFFFFFFFFFFFFFFFFFFFFFFF23
:101DD000FFFFFFFFFFFFFFFFFFFFFFFFFFFFFFFF13
:101DE000FFFFFFFFFFFFFFFFFFFFFFFFFFFFFFFF03
:101DF000FFFFFFFFFFFFFFFFFFFFFFFFFFFFFFFFF3
:101E0000FFFFFFFFFFFFFFFFFFFFFFFFFFFFFFFFE2
:101E1000FFFFFFFFFFFFFFFFFFFFFFFFFFFFFFFFD2
:101E2000FFFFFFFFFFFFFFFFFFFFFFFFFFFFFFFFC2
:101E3000FFFFFFFFFFFFFFFFFFFFFFFFFFFFFFFFB2
:101E4000FFFFFFFFFFFFFFFFFFFFFFFFFFFFFFFFA2
:101E5000FFFFFFFFFFFFFFFFFFFFFFFFFFFFFFFF92
:101E6000FFFFFFFFFFFFFFFFFFFFFFFFFFFFFFFF82
:101E7000FFFFFFFFFFFFFFFFFFFFFFFFFFFFFFFF72
:101E8000FFFFFFFFFFFFFFFFFFFFFFFFFFFFFFFF62
:101E9000FFFFFFFFFFFFFFFFFFFFFFFFFFFFFFFF52
:101EA000FFFFFFFFFFBFFFFFFFFFEE16F364FB85A1
:101EB000FBE6FBC6FBC6FBC7FBE7FBA7FB86FB8875
:101EC000FBC8FBC8FBC8FBE7FBA6FB63EB85ED0D7E
:101ED000FED8FFDEFFFFFFFFFFFEFFFFFFDFFFBFBC
:101EE000FFFFFFFFFFFFFFFFFFFFFFFFFFFFFFFF02
:101EF000FFFFFFFFFFFFFFFFFFFFFFFFFFFFFFFFF2
:101F0000FFFFFFFFFFFFFFFFFFFFFFFFFFFFFFFFE1
:101F1000FFFFFFFFFFFFFFFFFFFFFFFFFFFFFFFFD1
:101F2000FFFFFFFFFFFFFFFFFFFFFFFFFFFFFFFFC1
:101F3000FFFFFFFFFFFFFFFFFFFFFFFFFFFFFFFFB1
:101F4000FFFFFFFFFFFFFFFFFFFFFFFFFFFFFFFFA1
:101F5000FFFFFFFFFFFFFFFFFFFFFFFFFFFFFFFF91
:101F6000FFFFFFFFFFFFFFFFFFFFFFFFFFFFFFFF81
:101F7000FFFFFFFFFFFFFFFFFFFFFFFFFFFFFFFF71
:101F8000FFFFFFFFFFFFFFFFFFFFFFFFFFFFFFFF61
:101F9000FFFFFFFFFFFFFFFFFFFFFFFFFFFFFFFF51
:101FA000FFFFFFFFFFFFFFFFFFFFFFFFFFFFFFFF41
:101FB000FFFFFFFFFFFFFFFFFFFFFFFFFFFFFFFF31
:101FC000FFFFFFFFFFFFFFFFFFFFFFFFFFFFFFFF21
:101FD000FFFFFFFFFFFFFFFFFFFFFFFFFFFFFFFF11
:101FE000FFFFFFFFFFFFFFFFFFFFFFFFFFFFFFFF01
:101FF000FFFFFFFFFFFFFFFFFFFFFFFFFFFFFFFFF1
:10200000FFFFFFFFFFFFFFFFFFFFFFFFFFFFFFFFE0
:10201000FFFFFFFFFFFFFFFFFFFFFFFFFFFFFFFFD0
:10202000FFFFFFFFFFFFFFFFFFFFFFFFFFFFFFFFC0
:10203000FFFFFFFFFFFFFFFFFFFFFFFFFFFFFFFFB0
:10204000FFFFFFFFFFFFFFFFFFFFFFFFFFFFFFFFA0
:10205000FFFFFFFFFFFFFFFFFFFFFFFFFFFFFFFF90
:10206000FFFFFFFFFFFFFFFFFFFFFFFFFFFFFFFF80
:10207000FFFFFFFFFFFFFFFFFFFFFFFFFFFFFFFF70
:10208000FFFFFFDEFFDFF7FFF73AEB26FB85FBE7FD
:10209000FBC8F3C9FBC8FBC6FBA7FBC7F3C8FBC85B
:1020A000FBC8FBA8FB46FB25E386ED4FFEF9F7FFD7
:1020B000F7FFF7FFFFFFFFFEFFFFFFFFF7FFFFFF49
:1020C000FFFEFFFFFFFFFFFFFFFFFFFFFFFFFFFF21
:1020D000FFFFFFFFFFFFFFFFFFFFFFFFFFFFFFFF10
:1020E000FFFFFFFFFFFFFFFFFFFFFFFFFFFFFFFF00
:1020F000FFFFFFFFFFFFFFFFFFFFFFFFFFFFFFFFF0
:10210000FFFFFFFFFFFFFFFFFFFFFFFFFFFFFFFFDF
:10211000FFFFFFFFFFFFFFFFFFFFFFFFFFFFFFFFCF
:10212000FFFFFFFFFFFFFFFFFFFFFFFFFFFFFFFFBF
:10213000FFFFFFFFFFFFFFFFFFFFFFFFFFFFFFFFAF
:10214000FFFFFFFFFFFFFFFFFFFFFFFFFFFFFFFF9F
:10215000FFFFFFFFFFFFFFFFFFFFFFFFFFFFFFFF8F
:10216000FFFFFFFFFFFFFFFFFFFFFFFFFFFFFFFF7F
:10217000FFFFFFFFFFFFFFFFFFFFFFFFFFFFFFFF6F
:10218000FFFFFFFFFFFFFFFFFFFFFFFFFFFFFFFF5F
:10219000FFFFFFFFFFFFFFFFFFFFFFFFFFFFFFFF4F
:1021A000FFFFFFFFFFFFFFFFFFFFFFFFFFFFFFFF3F
:1021B000FFFFFFFFFFFFFFFFFFFFFFFFFFFFFFFF2F
:1021C000FFFFFFFFFFFFFFFFFFFFFFFFFFFFFFFF1F
:1021D000FFFFFFFFFFFFFFFFFFFFFFFFFFFFFFFF0F
:1021E000FFFFFFFFFFFFFFFFFFFFFFFFFFFFFFFFFF
:1021F000FFFFFFFFFFFFFFFFFFFFFFFFFFFFFFFFEF
:10220000FFFFFFFFFFFFFFFFFFFFFFFFFFFFFFFFDE
:10221000FFFFFFFFFFFFFFFFFFFFFFFFFFFFFFFFCE
:10222000FFFFFFFFFFFFFFFFFFFFFFFFFFFFFFFFBE
:10223000FFFFFFFFFFFFFFFFFFFFFFFFFFFFFFFFAE
:10224000FFFFFFFFFFFFFFFFFFFFFFFFFFFFFFFF9E
:10225000FFFFFFFFFFFFFFFFFFFFFFFFFFFFFFFF8E
:10226000FFFFFFFFFFFFF73BFB88FB44FBC7FBC8FB
:10227000FBA7FBC8FB89FBA8FBA8FBE8F3C7FBA7F0
:10228000FB46F346F42BF572F71AFFFFFFFFFFFF43
:10229000FFDFFFFFF7FEFFFFFFFFFFFFFFFFF7FF7F
:1022A000FFFFFFFFFFFFFFFFFFFFFFFFFFFFFFFF3E
:1022B000FFFFFFFFFFFFFFFFFFFFFFFFFFFFFFFF2E
:1022C000FFFFFFFFFFFFFFFFFFFFFFFFFFFFFFFF1E
:1022D000FFFFFFFFFFFFFFFFFFFFFFFFFFFFFFFF0E
:1022E000FFFFFFFFFFFFFFFFFFFFFFFFFFFFFFFFFE
:1022F000FFFFFFFFFFFFFFFFFFFFFFFFFFFFFFFFEE
:10230000FFFFFFFFFFFFFFFFFFFFFFFFFFFFFFFFDD
:10231000FFFFFFFFFFFFFFFFFFFFFFFFFFFFFFFFCD
:10232000FFFFFFFFFFFFFFFFFFFFFFFFFFFFFFFFBD
:10233000FFFFFFFFFFFFFFFFFFFFFFFFFFFFFFFFAD
:10234000FFFFFFFFFFFFFFFFFFFFFFFFFFFFFFFF9D
:10235000FFFFFFFFFFFFFFFFFFFFFFFFFFFFFFFF8D
:10236000FFFFFFFFFFFFFFFFFFFFFFFFFFFFFFFF7D
:10237000FFFFFFFFFFFFFFFFFFFFFFFFFFFFFFFF6D
:10238000FFFFFFFFFFFFFFFFFFFFFFFFFFFFFFFF5D
:10239000FFFFFFFFFFFFFFFFFFFFFFFFFFFFFFFF4D
:1023A000FFFFFFFFFFFFFFFFFFFFFFFFFFFFFFFF3D
:1023B000FFFFFFFFFFFFFFFFFFFFFFFFFFFFFFFF2D
:1023C000FFFFFFFFFFFFFFFFFFFFFFFFFFFFFFFF1D
:1023D000FFFFFFFFFFFFFFFFFFFFFFFFFFFFFFFF0D
:1023E000FFFFFFFFFFFFFFFFFFFFFFFFFFFFFFFFFD
:1023F000FFFFFFFFFFFFFFFFFFFFFFFFFFFFFFFFED
:10240000FFFFFFFFFFFFFFFFFFFFFFFFFFFFFFFFDC
:10241000FFFFFFFFFFFFFFFFFFFFFFFFFFFFFFFFCC
:10242000FFFFFFFFFFFFFFFFFFFFFFFFFFFFFFFFBC
:10243000FFFFFFFFFFFFFFFFFFFFFFFFFFFFFFFFAC
:10244000FFFFFFFFF75BF44BFB64FBC6FBA8FBA79A
:10245000FBE6FBA6FBA6FBC7FBA5FB65F366E3C893
:10246000F4EFF635F79CFFFFFFFFFFFFFFFEFFFFD6
:10247000FFDFFFFFFFFFFFFFFFFFFFFFFFFFFFFF8C
:10248000FFFFFFFFFFFFFFFFFFFFFFFFFFFFFFFF5C
:10249000FFFFFFFFFFFFFFFFFFFFFFFFFFFFFFFF4C
:1024A000FFFFFFFFFFFFFFFFFFFFFFFFFFFFFFFF3C
:1024B000FFFFFFFFFFFFFFFFFFFFFFFFFFFFFFFF2C
:1024C000FFFFFFFFFFFFFFFFFFFFFFFFFFFFFFFF1C
:1024D000FFFFFFFFFFFFFFFFFFFFFFFFFFFFFFFF0C
:1024E000FFFFFFFFFFFFFFFFFFFFFFFFFFFFFFFFFC
:1024F000FFFFFFFFFFFFFFFFFFFFFFFFFFFFFFFFEC
:10250000FFFFFFFFFFFFFFFFFFFFFFFFFFFFFFFFDB
:10251000FFFFFFFFFFFFFFFFFFFFFFFFFFFFFFFFCB
:10252000FFFFFFFFFFFFFFFFFFFFFFFFFFFFFFFFBB
:10253000FFFFFFFFFFFFFFFFFFFFFFFFFFFFFFFFAB
:10254000FFFFFFFFFFFFFFFFFFFFFFFFFFFFFFFF9B
:10255000FFFFFFFFFFFFFFFFFFFFFFFFFFFFFFFF8B
:10256000FFFFFFFFFFFFFFFFFFFFFFFFFFFFFFFF7B
:10257000FFFFFFFFFFFFFFFFFFFFFFFFFFFFFFFF6B
:10258000FFFFFFFFFFFFFFFFFFFFFFFFFFFFFFFF5B
:10259000FFFFFFFFFFFFFFFFFFFFFFFFFFFFFFFF4B
:1025A000FFFFFFFFFFFFFFFFFFFFFFFFFFFFFFFF3B
:1025B000FFFFFFFFFFFFFFFFFFFFFFFFFFFFFFFF2B
:1025C000FFFFFFFFFFFFFFFFFFFFFFFFFFFFFFFF1B
:1025D000FFFFFFFFFFFFFFFFFFFFFFFFFFFFFFFF0B
:1025E000FFFFFFFFFFFFFFFFFFFFFFFFFFFFFFFFFB
:1025F000FFFFFFFFFFFFFFFFFFFFFFFFFFFFFFFFEB
:10260000FFFFFFFFFFFFFFFFFFFFFFFFFFFFFFFFDA
:10261000FFFFFFFFFFFFFFFFFFFFFFFFFFFFFFFFCA
:10262000FFFFFF9CF46EFB46F3E6FBC8FBA7FBA78E
:10263000FBC7FB85FB64F365EBE8F4ADFDF4F6FA4C
:10264000FFFEFFFFFFFFFFFFFFFFFFFFFFFFFFFF9B
:10265000FFFFFFFFFFFFFFFFFFFFFFFFFFFFFFFF8A
:10266000FFFFFFFFFFFFFFFFFFFFFFFFFFFFFFFF7A
:10267000FFFFFFFFFFFFFFFFFFFFFFFFFFFFFFFF6A
:10268000FFFFFFFFFFFFFFFFFFFFFFFFFFFFFFFF5A
:10269000FFFFFFFFFFFFFFFFFFFFFFFFFFFFFFFF4A
:1026A000FFFFFFFFFFFFFFFFFFFFFFFFFFFFFFFF3A
:1026B000FFFFFFFFFFFFFFFFFFFFFFFFFFFFFFFF2A
:1026C000FFFFFFFFFFFFFFFFFFFFFFFFFFFFFFFF1A
:1026D000FFFFFFFFFFFFFFFFFFFFFFFFFFFFFFFF0A
:1026E000FFFFFFFFFFFFFFFFFFFFFFFFFFFFFFFFFA
:1026F000FFFFFFFFFFFFFFFFFFFFFFFFFFFFFFFFEA
:10270000FFFFFFFFFFFFFFFFFFFFFFFFFFFFFFFFD9
:10271000FFFFFFFFFFFFFFFFFFFFFFFFFFFFFFFFC9
:10272000FFFFFFFFFFFFFFFFFFFFFFFFFFFFFFFFB9
:10273000FFFFFFFFFFFFFFFFFFFFFFFFFFFFFFFFA9
:10274000FFFFFFFFFFFFFFFFFFFFFFFFFFFFFFFF99
:10275000FFFFFFFFFFFFFFFFFFFFFFFFFFFFFFFF89
:10276000FFFFFFFFFFFFFFFFFFFFFFFFFFFFFFFF79
:10277000FFFFFFFFFFFFFFFFFFFFFFFFFFFFFFFF69
:10278000FFFFFFFFFFFFFFFFFFFFFFFFFFFFFFFF59
:10279000FFFFFFFFFFFFFFFFFFFFFFFFFFFFFFFF49
:1027A000FFFFFFFFFFFFFFFFFFFFFFFFFFFFFFFF39
:1027B000FFFFFFFFFFFFFFFFFFFFFFFFFFFFFFFF29
:1027C000FFFFFFFFFFFFFFFFFFFFFFFFFFFFFFFF19
:1027D000FFFFFFFFFFFFFFFFFFFFFFFFFFFFFFFF09
:1027E000FFFFFFFFFFFFFFFFFFFFFFFFFFFFFFFFF9
:1027F000FFFFFFFFFFFFFFFFFFFFFFDEFFFEFFFF0B
:10280000FFFEE4CEF325FBA6FBA7FBA6FB65F325A5
:10281000EB26EB88FC6CFDB3EF1AFFBEFFFFFFFF5A
:10282000FFFFFFFFFFFFFFFFFFFFF7FFFFFFFFFFC0
:10283000FFFFF7FFFFFFFFFFFFFEFFFFFFFFFFFFB1
:10284000FFFFFFFFFFFFFFFFFFFFFFFFFFFFFFFF98
:10285000FFFFFFFFFFFFFFFFFFFFFFFFFFFFFFFF88
:10286000FFFFFFFFFFFFFFFFFFFFFFFFFFFFFFFF78
:10287000FFFFFFFFFFFFFFFFFFFFFFFFFFFFFFFF68
:10288000FFFFFFFFFFFFFFFFFFFFFFFFFFFFFFFF58
:10289000FFFFFFFFFFFFFFFFFFFFFFFFFFFFFFFF48
:1028A000FFFFFFFFFFFFFFFFFFFFFFFFFFFFFFFF38
:1028B000FFFFFFFFFFFFFFFFFFFFFFFFFFFFFFFF28
:1028C000FFFFFFFFFFFFFFFFFFFFFFFFFFFFFFFF18
:1028D000FFFFFFFFFFFFFFFFFFFFFFFFFFFFFFFF08
:1028E000FFFFFFFFFFFFFFFFFFFFFFFFFFFFFFFFF8
:1028F000FFFFFFFFFFFFFFFFFFFFFFFFFFFFFFFFE8
:10290000FFFFFFFFFFFFFFFFFFFFFFFFFFFFFFFFD7
:10291000FFFFFFFFFFFFFFFFFFFFFFFFFFFFFFFFC7
:10292000FFFFFFFFFFFFFFFFFFFFFFFFFFFFFFFFB7
:10293000FFFFFFFFFFFFFFFFFFFFFFFFFFFFFFFFA7
:10294000FFFFFFFFFFFFFFFFFFFFFFFFFFFFFFFF97
:10295000FFFFFFFFFFFFFFFFFFFFFFFFFFFFFFFF87
:10296000FFFFFFFFFFFFFFFFFFFFFFFFFFFFFFFF77
:10297000FFFFFFFFFFFFFFFFFFFFFFFFFFFFFFFF67
:10298000FFFFFFFFFFFFFFFFFFFFFFFFFFFFFFFF57
:10299000FFFFFFFFFFFFFFFFFFFFFFFFFFFFFFFF47
:1029A000FFFFFFFFFFFFFFFFFFFFFFFFFFFFFFFF37
:1029B000FFFFFFFFFFFFFFFFFFFFFFFFFFFFFFFF27
:1029C000FFFFFFFFFFFFFFFFFFFFFFFFFFFFFFFF17
:1029D000FFFFFFFFFFFFFFFFFFFFFFDFFFFFFFFF27
:1029E000E44CFB03F3C6F385FB24EB04EBA8F4AD46
:1029F000F5D2EF3CFFFFFFFFFFFFF7FFFFFFFFFFF9
:102A0000FFFFFFFFFFFFFFFFFFFFFFFFFFFFFFFFD6
:102A1000FFFFFFFFFFFFFFFFFFFFFFFFFFFFFFFFC6
:102A2000FFFFFFFFFFFFFFFFFFFFFFFFFFFFFFFFB6
:102A3000FFFFFFFFFFFFFFFFFFFFFFFFFFFFFFFFA6
:102A4000FFFFFFFFFFFFFFFFFFFFFFFFFFFFFFFF96
:102A5000FFFFFFFFFFFFFFFFFFFFFFFFFFFFFFFF86
:102A6000FFFFFFFFFFFFFFFFFFFFFFFFFFFFFFFF76
:102A7000FFFFFFFFFFFFFFFFFFFFFFFFFFFFFFFF66
:102A8000FFFFFFFFFFFFFFFFFFFFFFFFFFFFFFFF56
:102A9000FFFFFFFFFFFFFFFFFFFFFFFFFFFFFFFF46
:102AA000FFFFFFFFFFFFFFFFFFFFFFFFFFFFFFFF36
:102AB000FFFFFFFFFFFFFFFFFFFFFFFFFFFFFFFF26
:102AC000FFFFFFFFFFFFFFFFFFFFFFFFFFFFFFFF16
:102AD000FFFFFFFFFFFFFFFFFFFFFFFFFFFFFFFF06
:102AE000FFFFFFFFFFFFFFFFFFFFFFFFFFFFFFFFF6
:102AF000FFFFFFFFFFFFFFFFFFFFFFFFFFFFFFFFE6
:102B0000FFFFFFFFFFFFFFFFFFFFFFFFFFFFFFFFD5
:102B1000FFFFFFFFFFFFFFFFFFFFFFFFFFFFFFFFC5
:102B2000FFFFFFFFFFFFFFFFFFFFFFFFFFFFFFFFB5
:102B3000FFFFFFFFFFFFFFFFFFFFFFFFFFFFFFFFA5
:102B4000FFFFFFFFFFFFFFFFFFFFFFFFFFFFFFFF95
:102B5000FFFFFFFFFFFFFFFFFFFFFFFFFFFFFFFF85
:102B6000FFFFFFFFFFFFFFFFFFFFFFFFFFFFFFFF75
:102B7000FFFFFFFFFFFFFFFFFFFFFFFFFFFFFFFF65
:102B8000FFFFFFFFFFFFFFFFFFFFFFFFFFFFFFFF55
:102B9000FFFFFFFFFFFFFFFFFFFFFFFFFFFFFFFF45
:102BA000FFFFFFFFFFFFFFFFFFFFFFFFFFFFFFFF35
:102BB000FFFFFFFFFFFFFFFFFFFFF7FFF7BEEC2B5D
:102BC000F2A0F367FBA8FC4BF570E6D9F7BEFFFF58
:102BD000FFFFFFFFFFFEFFFFFFFFFFFFFFFFFFFF06
:102BE000FFFFFFFFFFFFFFFFFFFFFFFFFFFFFFFFF5
:102BF000FFFFFFFFFFFFFFFFFFFFFFFFFFFFFFFFE5
:102C0000FFFFFFFFFFFFFFFFFFFFFFFFFFFFFFFFD4
:102C1000FFFFFFFFFFFFFFFFFFFFFFFFFFFFFFFFC4
:102C2000FFFFFFFFFFFFFFFFFFFFFFFFFFFFFFFFB4
:102C3000FFFFFFFFFFFFFFFFFFFFFFFFFFFFFFFFA4
:102C4000FFFFFFFFFFFFFFFFFFFFFFFFFFFFFFFF94
:102C5000FFFFFFFFFFFFFFFFFFFFFFFFFFFFFFFF84
:102C6000FFFFFFFFFFFFFFFFFFFFFFFFFFFFFFFF74
:102C7000FFFFFFFFFFFFFFFFFFFFFFFFFFFFFFFF64
:102C8000FFFFFFFFFFFFFFFFFFFFFFFFFFFFFFFF54
:102C9000FFFFFFFFFFFFFFFFFFFFFFFFFFFFFFFF44
:102CA000FFFFFFFFFFFFFFFFFFFFFFFFFFFFFFFF34
:102CB000FFFFFFFFFFFFFFFFFFFFFFFFFFFFFFFF24
:102CC000FFFFFFFFFFFFFFFFFFFFFFFFFFFFFFFF14
:102CD000FFFFFFFFFFFFFFFFFFFFFFFFFFFFFFFF04
:102CE000FFFFFFFFFFFFFFFFFFFFFFFFFFFFFFFFF4
:102CF000FFFFFFFFFFFFFFFFFFFFFFFFFFFFFFFFE4
:102D0000FFFFFFFFFFFFFFFFFFFFFFFFFFFFFFFFD3
:102D1000FFFFFFFFFFFFFFFFFFFFFFFFFFFFFFFFC3
:102D2000FFFFFFFFFFFFFFFFFFFFFFFFFFFFFFFFB3
:102D3000FFFFFFFFFFFFFFFFFFFFFFFFFFFFFFFFA3
:102D4000FFFFFFFFFFFFFFFFFFFFFFFFFFFFFFFF93
:102D5000FFFFFFFFFFFFFFFFFFFFFFFFFFFFFFFF83
:102D6000FFFFFFFFFFFFFFFFFFFFFFFFFFFFFFFF73
:102D7000FFFFFFFFFFFFFFFFFFFFFFFFFFFFFFFF63
:102D8000FFFFFFFFFFFFFFFFFFFFFFFFFFFFFFFF53
:102D9000FFFFFFFFFFFFFFFFFFFFF79CF4ECFB8748
:102DA000F591EE75EF1AF7FEFFFFFFFFFFFFFFFF44
:102DB000FFFFF7FFFFFFFFFFFFFFFFFFFFFFFFFF2B
:102DC000FFFFFFFFFFFFFFFFFFFFFFFFFFFFFFFF13
:102DD000FFFFFFFFFFFFFFFFFFFFFFFFFFFFFFFF03
:102DE000FFFFFFFFFFFFFFFFFFFFFFFFFFFFFFFFF3
:102DF000FFFFFFFFFFFFFFFFFFFFFFFFFFFFFFFFE3
:102E0000FFFFFFFFFFFFFFFFFFFFFFFFFFFFFFFFD2
:102E1000FFFFFFFFFFFFFFFFFFFFFFFFFFFFFFFFC2
:102E2000FFFFFFFFFFFFFFFFFFFFFFFFFFFFFFFFB2
:102E3000FFFFFFFFFFFFFFFFFFFFFFFFFFFFFFFFA2
:102E4000FFFFFFFFFFFFFFFFFFFFFFFFFFFFFFFF92
:102E5000FFFFFFFFFFFFFFFFFFFFFFFFFFFFFFFF82
:102E6000FFFFFFFFFFFFFFFFFFFFFFFFFFFFFFFF72
:102E7000FFFFFFFFFFFFFFFFFFFFFFFFFFFFFFFF62
:102E8000FFFFFFFFFFFFFFFFFFFFFFFFFFFFFFFF52
:102E9000FFFFFFFFFFFFFFFFFFFFFFFFFFFFFFFF42
:102EA000FFFFFFFFFFFFFFFFFFFFFFFFFFFFFFFF32
:102EB000FFFFFFFFFFFFFFFFFFFFFFFFFFFFFFFF22
:102EC000FFFFFFFFFFFFFFFFFFFFFFFFFFFFFFFF12
:102ED000FFFFFFFFFFFFFFFFFFFFFFFFFFFFFFFF02
:102EE000FFFFFFFFFFFFFFFFFFFFFFFFFFFFFFFFF2
:102EF000FFFFFFFFFFFFFFFFFFFFFFFFFFFFFFFFE2
:102F0000FFFFFFFFFFFFFFFFFFFFFFFFFFFFFFFFD1
:102F1000FFFFFFFFFFFFFFFFFFFFFFFFFFFFFFFFC1
:102F2000FFFFFFFFFFFFFFFFFFFFFFFFFFFFFFFFB1
:102F3000FFFFFFFFFFFFFFFFFFFFFFFFFFFFFFFFA1
:102F4000FFFFFFFFFFFFFFFFFFFFFFFFFFFFFFFF91
:102F5000FFFFFFFFFFFFFFFFFFFFFFFFFFFFFFFF81
:102F6000FFFFFFFFFFFFFFFFFFFFFFFFFFFFFFFF71
:102F7000FFFFFFFFFFFFFFFFFFFFF79DF6FAFFBE1A
:102F8000FFFFFFFFFFFFFFFFFFFFFFFFFFFFFFFF51
:102F9000FFFFFFFFFFFFFFFFFFFFFFFFFFFFFFFF41
:102FA000FFFFFFFFFFFFFFFFFFFFFFFFFFFFFFFF31
:102FB000FFFFFFFFFFFFFFFFFFFFFFFFFFFFFFFF21
:10497000FFFFFFFFFFFFFFFFFFFFFFFFFFFF000045
:10498000A049010800000020200000006C41000840
:10499000C04901082000002060080000884100088C
:1049A0000000000000140140001001400008014018
:1049B000040000000010000000800000000E270727
:04000005080041317D
:00000001FF
