:020000040800F2
:10400000A8080020D1410008D5430008CD4300088E
:10401000D1430008C7430008BD4400080000000069
:104020000000000000000000000000000344000841
:10403000CB430008000000000144000805440008CC
:10404000EB410008EB410008EB410008EB410008A0
:10405000EB410008EB410008EB410008EB41000890
:10406000EB410008EB410008EB410008EB41000880
:10407000EB410008EB410008EB410008EB41000870
:10408000EB410008EB410008EB410008EB41000860
:10409000EB410008EB410008EB410008EB41000850
:1040A000EB410008EB410008EB410008EB41000840
:1040B000EB410008EB410008EB410008EB41000830
:1040C000EB410008EB410008EB410008EB41000820
:1040D000EB410008EB410008EB410008EB41000810
:1040E000EB410008EB410008EB410008EB41000800
:1040F000EB410008EB410008EB410008EB410008F0
:10410000EB410008EB410008EB410008EB410008DF
:10411000EB410008EB410008EB410008EB410008CF
:10412000EB410008EB410008EB410008EB410008BF
:1041300000F002F800F03CF80AA090E8000C82447D
:104140008344AAF10107DA4501D100F031F8AFF25A
:10415000090EBAE80F0013F0010F18BFFB1A43F065
:10416000010318472413000044130000103A24BF31
:1041700078C878C1FAD8520724BF30C830C144BFCC
:1041800004680C607047000000230024002500260E
:10419000103A28BF78C1FBD8520728BF30C148BFAA
:1041A0000B6070471FB501F069F91FBD10B510BD58
:1041B00000F0CFF81146FFF7F5FF00F0BDFC00F06E
:1041C000EDF803B4FFF7F2FF03BC00F0F5F80000D0
:1041D0000948804709480047FEE7FEE7FEE7FEE79B
:1041E000FEE7FEE7FEE7FEE7FEE7FEE704480549D7
:1041F000054A064B7047000015440008314100088D
:10420000A8000020A8080020A8040020A80400207E
:10421000032A40F2308010F0030C00F0158011F8F2
:10422000013BBCF1020F624498BF11F801CB00F8CA
:10423000013B38BF11F8013BA2F1040298BF00F81E
:1042400001CB38BF00F8013B11F0030300F02580DB
:10425000083AC0F0088051F8043B083A51F804CB02
:10426000A0E80810F5E7121D5CBF51F8043B40F8C8
:10427000043BAFF30080D20724BF11F8013B11F8D3
:1042800001CB48BF11F8012B24BF00F8013B00F817
:1042900001CB48BF00F8012B704710B5203AC0F0A1
:1042A0000B80B1E81850203AA0E81850B1E8185037
:1042B000A0E81850BFF4F5AF5FEA027C24BFB1E874
:1042C0001850A0E8185044BF18C918C0BDE81040E5
:1042D0005FEA827C24BF51F8043B40F8043B08BFEE
:1042E0007047D20728BF31F8023B48BF11F8012BB5
:1042F00028BF20F8023B48BF00F8012B70474FF061
:10430000000200B5134694469646203922BFA0E825
:104310000C50A0E80C50B1F12001BFF4F7AF090731
:1043200028BFA0E80C5048BF0CC05DF804EB890022
:1043300028BF40F8042B08BF704748BF20F8022B65
:1043400011F0804F18BF00F8012B7047704770477D
:104350007047754600F02CF8AE4605006946534696
:1043600020F00700854618B020B5FFF73FFFBDE8F5
:1043700020404FF000064FF000074FF000084FF0CC
:10438000000B21F00701AC46ACE8C009ACE8C0095D
:10439000ACE8C009ACE8C0098D46704710B50446CA
:1043A000AFF300802046BDE81040FFF70ABF0000D1
:1043B000004870474800002001491820ABBEFEE7C6
:1043C00026000200704700BFFEE7704700BFFEE70F
:1043D00000BFFEE77047000010B5002807DA0A07A3
:1043E000140E054A00F00F031B1FD45403E00A0704
:1043F000130E024A135410BD18ED00E000E400E073
:104400007047704702480068401C014908607047C7
:104410000000002008B52648006840F470002449D8
:1044200008602448006840F001002249086000BF8D
:104430002048006800F002000028F9D000BF1D48A5
:10444000406840F080001B4948600020009002E076
:104450000098401C009000985028F9D315484068F7
:1044600040F09000134948600020009002E000985E
:10447000401C009000985028F9D300BF0D484068B8
:1044800020F003000B494860084600680A490840CC
:10449000084908604FF41F0088600846006820F44F
:1044A0008020086000204860C86200F0FBFD08BD65
:1044B00088ED00E000100240FFFFF6FE00BFFEE7BF
:1044C00010B540F2057000F01DFC10BD18490968D8
:1044D0004908184AB1FBF2F1491E174A1160164902
:1044E0001439096841F00101134A143A116000219E
:1044F000121F11601049091D08600F492839096809
:1045000041F008010C4A283A11601146096841F04F
:104510000101116000BF08491839096801F0010163
:104520000029F8D00021044A183A116070470000B1
:104530000400002040420F002814004070B50546DA
:104540000C462146284600F01FF908B900BFFEE7D7
:1045500004EB8400810005F10800405840F001019F
:1045600004EB8400820005F10800815070BD70B535
:1045700005460C462146284600F006F908B900BF5A
:10458000FEE704EB8400810005F10800405820F0AC
:10459000200104EB8400820005F10800815070BD09
:1045A00070B504460D462946204600F0EDF808B9DE
:1045B00000BFFEE705EB8500810004F108004058CC
:1045C00020F0010105EB8500820004F10800815014
:1045D000002105EB8500820004F10800815005EB05
:1045E0008500820004F10C00815005EB85008200FB
:1045F00004F11000815005EB8500820004F11400E5
:1046000081506068AA000F2191400843606070BD2E
:1046100030B503461C688D0002FA05F52C400CB13C
:10462000012000E0002030BD2DE9F04104460D4698
:1046300016462946204600F0A7F808B900BFFEE755
:1046400005EB8500820004F110003168815005EB14
:104650008500820004F11400B1688150308A81B273
:1046600005EB8500820004F10C00815005EB85000C
:10467000810004F10800475827F47C57F1687068FE
:10468000084371690843074305EB8500810004F185
:1046900008004750307E01280ED105EB85008100CF
:1046A00004F10800405840F0400105EB850082000D
:1046B00004F1080081500DE005EB8500810004F154
:1046C0000800405820F0400105EB8500820004F10D
:1046D00008008150707E01280ED105EB8500810015
:1046E00004F10800405840F0800105EB850082008D
:1046F00004F1080081500DE005EB8500810004F114
:104700000800405820F0800105EB8500820004F18C
:1047100008008150B07E70B905EB8500810004F17E
:104720000800405820F0100105EB8500820004F1DC
:10473000080081500DE005EB8500810004F10800C0
:10474000405840F0100105EB8500820004F108009C
:104750008150BDE8F08170B505460C4621462846DB
:1047600000F012F808B900BFFEE704EB84008100F6
:1047700005F10800405820F4804104EB84008200D9
:1047800005F10800815070BD02460120034B9A429A
:1047900002D1042900DD002070470000000402401F
:1047A00008B900BFFEE70021016041600176816029
:1047B000C160417601618176416170477CB50446F4
:1047C0000D4616464FF47A702B4601222146CDE95C
:1047D0000060A02000F06DF97CBD7CB504460D465C
:1047E00016464FF47A702B4601222146CDE900602F
:1047F000A02000F013F97CBD2DE9F04705460F46D7
:1048000014464FF00008C146C24600262846E91764
:1048100005EB5171C910A5EBC10101F0FF0ACAF106
:104820000800C6B22046E11704EB5171C1F3C70876
:10483000E11704EB5171C910A4EBC10101F0FF09AC
:10484000BAF1000F22D1B8F1000F05D14A4639461E
:104850002846FFF7B3FF54E008E00822394628460F
:10486000FFF7ACFF05F10800C5B20837B8F100004A
:10487000A8F1010101F0FF08EFD1B9F1000F40D01C
:104880004A4639462846FFF799FF3AE0B8F1000F4B
:1048900005D14A4639462846FFF790FF31E0A01B74
:1048A00084B22046E11704EB5171C1F3C708E11748
:1048B00004EB5171C910A4EBC10101F0FF093EB135
:1048C000324639462846FFF779FFA819C5B2374462
:1048D00008E0082239462846FFF770FF05F1080076
:1048E000C5B20837B8F10000A8F1010101F0FF08D6
:1048F000EFD1B9F1000F04D04A4639462846FFF7F8
:104900005DFFBDE8F0870AB1016100E041617047D9
:10491000F0B5044616460025002201F00F0501F00F
:10492000100747B1042E05D145F00305E76B1F437F
:10493000E76300E0354300201EE0012787401F4069
:10494000C7B122684FEA800C0F2707FA0CF7BA4369
:10495000870005FA07F73A43282904D10127874041
:104960001F40676105E0482903D1012787401F40A8
:1049700027612260471CB8B20828DED3082022E055
:10498000012787401F40E7B16268A0F108074FEA9E
:10499000870C0F2707FA0CF7BA43A0F10807BF00EE
:1049A00005FA07F73A43282904D1012787401F4019
:1049B000676105E0482903D1012787401F4027612F
:1049C0006260471CB8B21028DAD3F0BD0246906886
:1049D000084008B1012070470020FCE710B540F204
:1049E000036000F08FF94FF48073032210210A480E
:1049F000FFF78EFF4FF40073032214210648FFF7E0
:104A000087FF012251020448FFF77DFF01221102B6
:104A10000148FFF778FF10BD000C01402DE9F04779
:104A200004460D4690461E46DDE9087924F001044F
:104A300000F03CFAE0B200F005FA484600F07AFADD
:104A4000012801D1BDE8F087B8F1100F08D1280A7C
:104A500000F0F8F9484600F06DFA012800D1F1E7BE
:104A6000E8B200F0EFF9484600F064FA012800D1FE
:104A7000E8E700F01BFA44F00104E0B200F0E2F9CC
:104A8000484600F057FA012800D1DBE70BE000F0C0
:104A9000ABF93070761C781E87B217B900F084F934
:104AA00001E000F05FF9002FF1D100F01FFA0020C3
:104AB000C8E72DE9F04704460D4617461E46DDE9D6
:104AC000088924F0010400F0F1F9E0B200F0BAF92D
:104AD000484600F02FFA012801D1BDE8F087102FD9
:104AE00008D1280A00F0AEF9484600F023FA012860
:104AF00000D1F2E7E8B200F0A5F9484600F01AFA52
:104B0000012800D1E9E710E0307800F09BF9484631
:104B100000F010FA012800D1DFE7761CA8F10100AF
:104B20001FFA80F80A20FFF7D1FCB8F1000FEBD193
:104B300000F0DCF90020D0E78EB0182213A108A8FD
:104B4000FFF7ABFB20216846FFF7D9FB1548164954
:104B5000086062B600F0C8FAFFF7B2FCFFF73EFF4C
:104B600000F094FB152208A90020FFF745FE642001
:104B700000F09CFA152269460020FFF72EFE152151
:104B8000684600F02DFC00BFFEE700004D6F746F1B
:104B900072436F6E74726F6C556E69744744333232
:104BA000000000000040000808ED00E02DE9F04F93
:104BB0008CB0074600200A904AA090E8004CC068DC
:104BC000CDE905BECDF810A007900FF21C1ADAE966
:104BD000000ACDE9020A0FF2101ADAE9000ACDE95B
:104BE000000A44484068C0F381000B900B9820B144
:104BF000012804D002283FD103E03F4A3EE03E4A6C
:104C00003CE03C48406800F4803CBCF5803F12D159
:104C10003848C06A00F08048B8F1000F01D1364B27
:104C200000E0364B3348406800F40039B9F5003FE6
:104C300002D15B0800E0324B2E484068C0F383414C
:104C40002C48406800F0006008B141F0100129488C
:104C5000406800F0804008B141F020010F2901D2E6
:104C6000891C06E00F2903D33E2901D8491C00E026
:104C70003F2103FB01F201E01F4A00BF00BF1D48B6
:104C80004068C0F3031504A8465D22FA06F41948EB
:104C90004068C0F3022502A8465D24FA06F0099098
:104CA00014484068C0F3C2251DF8056024FA06F0D8
:104CB000089037B1012F06D0022F06D0032F0AD15A
:104CC00006E00A9208E00A9406E009980A9003E0D8
:104CD00008980A9000E000BF00BF0A980CB0BDE839
:104CE000F08F00000000000000000000010203043B
:104CF000060708090010024000127A00006CDC026E
:104D000000093D00064A02EB9011096800F01F03FC
:104D100001229A401143024B03EB9012116070473D
:104D200000100240064A02EB9011096800F01F03D0
:104D300001229A409143024B03EB9012116070479D
:104D400000100240064A02EB9011096800F01F03B0
:104D500001229A401143024B03EB901211607047FD
:104D60000010024010B500224FF480710D48FFF78B
:104D7000CAFD00224FF400710A48FFF7C4FD052068
:104D8000FFF7A4FB012211020648FFF7BCFD052036
:104D9000FFF79CFB00224FF480710248FFF7B3FD40
:104DA00010BD0000000C014010B500224FF48071CE
:104DB0000C48FFF7A8FD012251020A48FFF7A3FDA6
:104DC0000520FFF783FB012211020648FFF79BFD38
:104DD0000520FFF77BFB00224FF480710148FFF7AD
:104DE00092FD10BD000C014070B500250024012289
:104DF00051021348FFF787FD00BF1CE000224FF46B
:104E000080710F48FFF77FFD0520FFF75FFB012250
:104E100011020B48FFF777FD6006040E4FF4007196
:104E20000748FFF7D3FD08B1601CC4B20520FFF7A7
:104E30004DFB681CC5B2082DE0DB204670BD0000AC
:104E4000000C014070B50446002500224FF480712B
:104E50001548FFF758FD00BF22E0E00928B1012204
:104E600051021148FFF74FFD05E000224FF4007199
:104E70000D48FFF748FD6006040E0520FFF726FBEE
:104E8000012211020848FFF73EFD0520FFF71EFB37
:104E900000224FF480710448FFF735FD681CC5B24D
:104EA000082DDADB70BD0000000C014010B50122B6
:104EB00051020D48FFF727FD012211020A48FFF7B2
:104EC00022FD0520FFF702FB00224FF40071064887
:104ED000FFF719FD0520FFF7F9FA00224FF4807162
:104EE0000148FFF710FD10BD000C014010B5002275
:104EF0004FF400710E48FFF706FD00224FF4807159
:104F00000B48FFF700FD0520FFF7E0FA0122110230
:104F10000748FFF7F8FC0520FFF7D8FA01225102F5
:104F20000348FFF7F0FC0520FFF7D0FA10BD0000A2
:104F3000000C014010B50446012251021348FFF74E
:104F4000E2FC0520FFF7C2FA012211020F48FFF729
:104F5000DAFC0120FFF7BAFA09E0601E041E03D153
:104F6000FFF7C4FF012010BD0520FFF7AFFA4FF493
:104F700000710648FFF72AFD0028EED100224FF409
:104F800080710248FFF7BFFC0020ECE7000C0140F5
:104F9000002000213F4A126842F480323D4B1A60E3
:104FA00000BF401C3B4A126802F4003119B94FF6A9
:104FB000FF729042F5D1374A126802F400320AB902
:104FC00000BFFEE7334AD26942F08052314BDA61CA
:104FD000314A126842F440422F4B1A602D4A5268FF
:104FE0002C4B5A601A4652685A601A46526842F46C
:104FF00080625A601A46526822F440325A601A4659
:10500000526842F440325A601A465268234B1A40A2
:10501000204B5A601A465268214B1A431D4B5A6066
:105020001A46126842F080721A6000BF194A12686C
:1050300002F00072002AF9D0174A126842F4803256
:10504000154B1A6000BF144A526802F48032002ADD
:10505000F9D0114A126842F400320F4B1A6000BFB7
:105060000D4A526802F40032002AF9D0094A526807
:1050700022F00302074B5A601A46526842F00202BD
:105080005A6000BF034A526802F00802002AF9D0B1
:10509000704700000010024000700040FFFFC3B7DF
:1050A0000000340810B5FFF773FF10BD10B50346BC
:1050B00000F014F8014600F011F80246002400BF89
:1050C00000F00CF802468A4201D3501A02E0C1F106
:1050D000FF30104404469C42F2D310BD01480068E2
:1050E000704700000000002010B5124800684FF41F
:1050F0007A71B0FBF1F4601EB0F1807F01D3012022
:105100000FE0601E4FF0E02148610F214FF0FF30AB
:10511000FFF762F900204FF0E02188610720086165
:10512000002008B100BFFEE70021481EFFF754F938
:1051300010BD0000040000202DE9F04704460D4694
:105140000027B846B94600261D49601A8C421CD07B
:1051500006DC1C48204470B1B0F5806F1FD10FE011
:10516000B0F5806F16D0B0F56C4F18D10320FFF763
:105170001DFD074614E00220FFF718FD07460FE06B
:105180000220FFF713FD07460AE00220FFF70EFD9D
:10519000074605E00220FFF709FD074600E000BFD3
:1051A00000BF07EB5500B0FBF5F64FF6F07006EACE
:1051B000000806F00F0948EA0900A060BDE8F08782
:1051C000004C004000BCFFBF10B504462049601AE7
:1051D0008C4228D006DC1F48204490B1B0F5806F87
:1051E00033D117E0B0F5806F26D0B0F56C4F2CD1DD
:1051F00040F20E30FFF7A6FD40F20E30FFF792FDB1
:1052000024E040F21140FFF79DFD40F21140FFF70E
:1052100089FD1BE040F21240FFF794FD40F212407E
:10522000FFF780FD12E040F21340FFF78BFD40F2E4
:105230001340FFF777FD09E040F21440FFF782FDCD
:1052400040F21440FFF76EFD00E000BF00BF10BD4C
:10525000004C004000BCFFBF426922F040024261A6
:10526000426901F040031A4342617047426922F0EB
:1052700080024261426901F080031A434261704733
:10528000C16841F40051C1607047000000B587B0AB
:1052900040F20460FFF736FD40F20150FFF732FDA7
:1052A00040F21370FFF72EFD4FF4806303221821A4
:1052B0004148FFF72DFB4FF40063032204213E48D1
:1052C000FFF726FB3D48FFF77FFF4FF461213B4886
:1052D000FFF732FF0421394800F078F808213748F9
:1052E00000F0C2F83548FFF7CBFF04213448FFF740
:1052F00057F96846FFF754FA01208DF81A00314833
:10530000029001208DF819000020039020200490C5
:105310002A48001D009000208DF8180001904FF4DD
:10532000405005906A4604212548FFF77DF9022187
:105330002348FFF735F96846FFF732FA00208DF869
:105340001A002148029001208DF8190000200390D6
:10535000202004901948001D009000208DF81800AE
:1053600001904FF4405005906A4602211448FFF71F
:105370005BF904211248FFF7FAF804211048FFF7FF
:10538000EAF902210E48FFF7F2F802210C48FFF774
:10539000E2F940210948FFF75FFF04210848FFF7C1
:1053A000CDF880210548FFF761FF02210448FFF78F
:1053B000C5F807B000BD000000100140004C0040DF
:1053C000000402402800002008000020C26822F0EB
:1053D0000402C260C26801F004031A43C26070474D
:1053E00030B587B005460C46202C34D20222042169
:1053F0001A48FFF70DF901282DD1224629461848F1
:10540000FEF706FF04211548FFF7CAF86846FFF7C4
:10541000C7F901208DF81A001148029001208DF87B
:1054200019000020039004940E48009000208DF88D
:10543000180001904FF4405005906A460421074837
:10544000FFF7F2F804210548FFF791F8042103481B
:10545000FFF774F800BF07B030BD00000004024041
:1054600028000020044C0040C26822F00802C260FC
:10547000C26801F008031A43C26070474FF04070E1
:10548000E1EE100A70470000A85400080000002058
:10549000080000006C410008B0540008080000201B
:1054A000A00800008841000800000000000E270747
:04000005080041317D
:00000001FF
