:020000040800F2
:1040000080080020D141000875470008914200084F
:10401000714700088B4200085D480008000000005E
:10402000000000000000000000000000A34700089E
:104030008F42000800000000A1470008A5470008C3
:10404000EB410008EB410008EB410008EB410008A0
:10405000EB410008EB410008EB410008EB41000890
:10406000EB410008EB410008EB410008EB41000880
:10407000EB410008EB410008EB410008EB41000870
:10408000EB410008EB410008EB410008EB41000860
:10409000EB410008EB410008EB410008EB41000850
:1040A000EB410008EB410008EB410008EB41000840
:1040B000EB410008EB410008EB410008EB41000830
:1040C000EB410008EB410008EB410008EB41000820
:1040D000EB410008EB410008EB410008EB41000810
:1040E000EB410008EB410008EB410008EB41000800
:1040F000EB410008EB410008EB410008EB410008F0
:10410000EB410008EB410008EB410008EB410008DF
:10411000EB410008EB410008EB410008EB410008CF
:10412000EB410008EB410008EB410008EB410008BF
:1041300000F002F800F03CF80AA090E8000C82447D
:104140008344AAF10107DA4501D100F031F8AFF25A
:10415000090EBAE80F0013F0010F18BFFB1A43F065
:10416000010318479C400000BC400000103A24BFE7
:1041700078C878C1FAD8520724BF30C830C144BFCC
:1041800004680C607047000000230024002500260E
:10419000103A28BF78C1FBD8520728BF30C148BFAA
:1041A0000B6070471FB500F02BFE1FBD10B510BD92
:1041B00000F031F81146FFF7F5FF00F06BFC00F05E
:1041C0004FF803B4FFF7F2FF03BC00F057F800000C
:1041D0000948804709480047FEE7FEE7FEE7FEE79B
:1041E000FEE7FEE7FEE7FEE7FEE7FEE704480549D7
:1041F000054A064B70470000B547000831410008EA
:10420000800000208008002080040020800400201E
:10421000704770477047754600F02CF8AE460500B1
:104220006946534620F00700854618B020B5FFF7D1
:10423000DDFFBDE820404FF000064FF000074FF0D3
:1042400000084FF0000B21F00701AC46ACE8C009B4
:10425000ACE8C009ACE8C009ACE8C0098D467047BD
:1042600010B50446AFF300802046BDE81040FFF7CC
:10427000A8BF000000487047200000200149182016
:10428000ABBEFEE726000200704700BFFEE77047A6
:1042900000BFFEE72DE9F04104460D4616461F46D5
:1042A0002A2000F03FFA04F1280188B200F02BFA2E
:1042B00006F1280188B200F026FA2B2000F032FA2D
:1042C00005F1350188B200F01EFA07F1350188B218
:1042D00000F019FA2C2000F025FABDE8F08170B545
:1042E00004460D4616462B46224629462046FFF731
:1042F000D1FF304600F007FA70BD2DE9F0470646C1
:104300000F4614461D46DDF820A0681E83B2601ECD
:1043100082B239463046FFF7BDFFB8460EE0B146DF
:1043200006E0504600F0EFF909F101001FFA80F9AC
:10433000A145F6DB08F101001FFA80F8A845EEDB85
:10434000BDE8F08710B540F2046000F0FBFB40F2DE
:10435000036000F0F7FB4FF40053032210211648CE
:1043600000F083FA01225103134800F079FA4FF468
:10437000804303221021104800F077FA01229103B4
:104380000D4800F06DFA4FF40043032210210A4853
:1043900000F06BFA0122D103074800F061FA022312
:1043A00003221021044800F060FA01220221024891
:1043B00000F056FA10BD00000010014010B5FFF7E4
:1043C000C1FF00F0CFFB00224FF40041664800F02F
:1043D00047FA642000F0CEFC0122D103624800F0CD
:1043E0003FFA642000F0C6FC012251035E4800F051
:1043F00037FA642000F0BEFC112000F093F9782019
:1044000000F0B8FC362000F08DF9702000F084F93F
:104410003A2000F087F9052000F07EF9B22000F084
:1044200081F90C2000F078F90C2000F075F90020DB
:1044300000F072F9332000F06FF9332000F06CF9CE
:10444000B72000F06FF9352000F066F9BB2000F0CE
:1044500069F9192000F060F9C02000F063F92C2000
:1044600000F05AF9C22000F05DF9012000F054F983
:10447000C32000F057F9122000F04EF9C42000F0DC
:1044800051F9202000F048F9C62000F04BF90F2028
:1044900000F042F9D02000F045F9A42000F03CF9EA
:1044A000A12000F039F9E02000F03CF9D02000F024
:1044B00033F9042000F030F90D2000F02DF911201F
:1044C00000F02AF9132000F027F92B2000F024F93E
:1044D0003F2000F021F9542000F01EF94C2000F09C
:1044E0001BF9182000F018F90D2000F015F90B2029
:1044F00000F012F91F2000F00FF9232000F00CF952
:10450000E12000F00FF9D02000F006F9042000F0BF
:1045100003F90C2000F000F9112000F0FDF8132041
:1045200000F0FAF82C2000F0F7F83F2000F0F4F843
:10453000442000F0F1F8512000F0EEF82F2000F0B8
:10454000EBF81F2000F0E8F81F2000F0E5F820202D
:1045500000F0E2F8232000F0DFF8212000F0E2F87C
:10456000292000F0DFF810BD001001402DE9FF5FA9
:1045700080468A4617469B460F9D00200290CDF844
:104580000080284605EBD071C1F347042046E217AE
:1045900004EB5272D2102146E31704EB5373DB1085
:1045A000A4EBC3030BB1012300E000231A446A43C8
:1045B00092B20192A7F12000C7B20AEB0500401E9B
:1045C00083B208EB0400401E82B251464046FFF71A
:1045D00061FE002669E00C2D07D107EB4700354945
:1045E00001EB8000805D03901BE0102D05D1324867
:1045F00000EB0710805D039013E0182D07D107EB47
:1046000047002E4901EB0010805D039009E0202D4A
:1046100005D12B4800EB8710805D039001E0BDE8D9
:10462000FF9F4FF000093AE01098C8B9012000FA46
:1046300009F00399084018B1584600F064F802E008
:104640000E9800F060F80298401CC0B202900298E8
:1046500090FBF4F104FB1100E8B90020029021E086
:10466000012000FA09F00399084020B15A4651464A
:104670004046FFF734FE08F101001FFA80F8009869
:10468000A8EB0000A04206D1DDF800800AF101008D
:104690001FFA80FA06E009F1010000F0FF09B9F104
:1046A000080FC1DB00BF701C86B20198864292DB06
:1046B00000BFB4E70A4E00087E5200086E5800089A
:1046C0003E6A00082DE9FE4F06460F4614469846FE
:1046D000DDE90D5ADDF8309010E0CDE9015ACDF852
:1046E00000902278434639463046FFF73FFF284680
:1046F00005EBD07106EB61018EB2641C20780028B6
:10470000EBD1BDE8FE8F10B50446201200F01EF874
:10471000E0B200F01BF810BD10B50446204600F0D2
:1047200015F810BD10B5044600224FF4804106482C
:1047300000F096F8204600F009F8012291030248A3
:1047400000F08EF810BD00000010014010B50446C6
:1047500000220221054800F083F8204600F034FAD8
:1047600001220221014800F07BF810BD0010014039
:1047700000BFFEE77047000010B5002807DA0A07FF
:10478000140E054A00F00F031B1FD45403E00A0760
:10479000130E024A135410BD18ED00E000E400E0CF
:1047A0007047704702480068401C01490860704724
:1047B0000000002008B52648006840F47000244935
:1047C00008602448006840F001002249086000BFEA
:1047D0002048006800F002000028F9D000BF1D4802
:1047E000406840F080001B4948600020009002E0D3
:1047F0000098401C009000985028F9D31548406854
:1048000040F09000134948600020009002E00098BA
:10481000401C009000985028F9D300BF0D48406814
:1048200020F003000B494860084600680A49084028
:10483000084908604FF41F0088600846006820F4AB
:104840008020086000204860C86200F08FFA08BD30
:1048500088ED00E000100240FFFFF6FE00BFFEE71B
:104860000AB1016100E041617047F0B504461646A7
:104870000025002201F00F0501F0100747B1042EBA
:1048800005D145F00305E76B1F43E76300E03543BF
:1048900000201EE0012787401F40C7B122684FEA71
:1048A000800C0F2707FA0CF7BA43870005FA07F7C1
:1048B0003A43282904D1012787401F40676105E05A
:1048C000482903D1012787401F4027612260471CE8
:1048D000B8B20828DED3082022E0012787401F4015
:1048E000E7B16268A0F108074FEA870C0F2707FAC3
:1048F0000CF7BA43A0F10807BF0005FA07F73A43DF
:10490000282904D1012787401F40676105E0482915
:1049100003D1012787401F4027616260471CB8B25E
:104920001028DAD3F0BD0246D068084008B1012053
:1049300070470020FCE70000F0B50A460023002481
:104940000021002500F00046B6F1004F02D11D4EB7
:10495000F16901E01B4E7168C0F3034583B200F4B6
:104960004016B6F5401F08D121F0E061154E76687B
:1049700026F0E066134F7E6012E000F48016B6F574
:10498000801F06D1032606FA05F4A14341F0E06139
:1049900006E0460D360103FA06F6B14341F0E06148
:1049A00022B1460D360103FA06F6314300F0004607
:1049B000B6F1004F02D1034EF16101E0014E71608A
:1049C000F0BD00000000014010B540F2056000F0AD
:1049D000B9F840F2046000F0B5F840F2026000F06F
:1049E000B1F84FF4C06000F0ADF801211848FFF7AE
:1049F000A3FF18490B681849032208681021FFF724
:104A000034FF14494B681449032248681021FFF70A
:104A10002CFF10498B681049032288681021FFF78A
:104A200024FF0C4A11680C4A10680122FFF718FF96
:104A3000084A5168084A50680122FFF711FF054AE9
:104A40009168054A90680122FFF70AFF10BD000037
:104A500000023000100000200400002070B5044661
:104A60000A4A52F824100A4A52F82400FFF75BFF62
:104A7000C0F10100C5B2054A52F82410044A52F8A8
:104A800024002A46FFF7ECFE70BD00001000002055
:104A9000040000200EB51F481F49086062B600F0F0
:104AA00087F9FFF791FFFFF789FC4FF6FF70872327
:104AB000F022002100900846FFF71FFC0020202173
:104AC0004FF6FF720346CDE90021029013A2014682
:104AD000FFF7F8FD002020214FF6FF720346CDE9D5
:104AE000002102900FA2FFF7EDFD002020214FF6DC
:104AF000FF720346CDE9002102900EA24021FFF78C
:104B0000E1FD05E00120FFF7A9FF642000F032F984
:104B1000F8E700000040000808ED00E04D435F4763
:104B200044333200474433324633303352435436F1
:104B30000000000041524D20436F727465782D4D86
:104B400034460000064A02EB9011096800F01F038A
:104B500001229A401143024B03EB901211607047FF
:104B60000010024000B587B040F20360FFF7EAFF93
:104B700040F20F70FFF7E6FF01211048FFF7DCFE5F
:104B80002823032218210E48FFF76FFE0020019012
:104B90004FF4827000900020029005904FF4007056
:104BA00003900020069004906946064800F03BF808
:104BB000044800F025F807B000BD000000023000F6
:104BC000000C0140003C004010B5044600BF02212B
:104BD0000A4800F020F80028F9D02146074800F0E4
:104BE00018F800BF0121054800F015F80028F9D099
:104BF000024800F00AF8C0B210BD0000003C0040BE
:104C0000016841F04001016070470146C86880B208
:104C10007047C160704702469068084008B10120A3
:104C200070470020FCE702460020106800F4415065
:104C30000B6818434B6818438B681843CB681843BC
:104C40000B6918434B6918438B6918431060D3698B
:104C500023F40063D3617047002000213F4A1268AB
:104C600042F480323D4B1A6000BF401C3B4A126840
:104C700002F4003119B94FF6FF729042F5D1374A6C
:104C8000126802F400320AB900BFFEE7334AD26963
:104C900042F08052314BDA61314A126842F44042AC
:104CA0002F4B1A602D4A52682C4B5A601A46526894
:104CB0005A601A46526842F480625A601A46526834
:104CC00022F440325A601A46526842F440325A6026
:104CD0001A465268234B1A40204B5A601A465268B3
:104CE000214B1A431D4B5A601A46126842F08072DB
:104CF0001A6000BF194A126802F00072002AF9D047
:104D0000174A126842F48032154B1A6000BF144AE9
:104D1000526802F48032002AF9D0114A126842F433
:104D200000320F4B1A6000BF0D4A526802F4003285
:104D3000002AF9D0094A526822F00302074B5A6050
:104D40001A46526842F002025A6000BF034A526893
:104D500002F00802002AF9D070470000001002405B
:104D600000700040FFFFC3B70000340810B5FFF724
:104D700073FF10BD10B5034600F014F8014600F0B3
:104D800011F80246002400BF00F00CF802468A42E7
:104D900001D3501A02E0C1F1FF30104404469C4296
:104DA000F2D310BD014800687047000000000020E9
:104DB00010B5124800684FF47A71B0FBF1F4601E30
:104DC000B0F1807F01D301200FE0601E4FF0E021A1
:104DD00048610F214FF0FF30FFF7CEFC00204FF06D
:104DE000E021886107200861002008B100BFFEE7CC
:104DF0000021481EFFF7C0FC10BD00001C00002071
:104E00004FF04070E1EE100A704700000000000013
:104E1000000000000000000004040404040000047A
:104E2000000014140A000000000000000000000050
:104E30000A0A1F0A0A1F0A0A000000040E150506C6
:104E40000C14150E0400000012150D152E2C2A123C
:104E500000000000040A0A36151529160000020297
:104E60000100000000000000000010080804040415
:104E700004040808100002040408080808080404D0
:104E8000020000000004150E0E15040000000000D2
:104E90000008083E080800000000000000000000B4
:104EA00000000202010000000000003F00000000BE
:104EB00000000000000000000000000200000020D0
:104EC0001010080804040202010000000E11111164
:104ED0001111110E00000000040604040404040E65
:104EE000000000000E1111080402011F0000000064
:104EF0000E11100C1010110E00000000080C0C0A0E
:104F0000091F081C000000001F01010F1110110EE5
:104F1000000000000C12010D1311110E0000000022
:104F20001E10080804040404000000000E11110EF5
:104F30001111110E000000000E11111916100906B2
:104F40000000000000000400000000040000000059
:104F50000000000400000004040000001008040227
:104F6000020408100000000000003F003F000000A5
:104F700000000000020408101008040200000000F5
:104F80000E11110804040004000000001C22292D49
:104F90002D1D221C0000000004040C0A0A1E1233FE
:104FA000000000000F12120E1212120F000000007B
:104FB0001E1101010101110E000000000F1212125A
:104FC0001212120F000000001F120A0E0A02121F16
:104FD000000000001F120A0E0A0202070000000073
:104FE0001C1201013911120C000000003312121EB4
:104FF00012121233000000001F0404040404041FF2
:10500000000000003E08080808080808090700001A
:1050100037120A060A1212370000000007020202C5
:105020000202223F000000003B1B1B1B151515351B
:10503000000000003B1216161A1A1217000000009A
:105040000E1111111111110E000000000F12120E9D
:1050500002020207000000000E1111111117190EB3
:10506000180000000F12120E0A1212370000000082
:105070001E1101060810110F000000001F15040486
:105080000404040E00000000331212121212120C5B
:10509000000000003312120A0A0C04040000000091
:1050A000151515150E0A0A0A000000001B0A0A044D
:1050B000040A0A1B000000001B0A0A0A0404040E6A
:1050C000000000001F0908040402121F00001C0455
:1050D00004040404040404041C0000020204040484
:1050E0000808081010000E08080808080808080832
:1050F0000E00040A00000000000000000000000094
:105100000000000000000000003F0204000000005A
:1051100000000000000000000000000C121C123C07
:10512000000000030202020E1212120E0000000024
:105130000000001C1202120C000000181010101CBD
:105140001212123C000000000000000C121E021C93
:10515000000000182404041E0404041E00000000C3
:105160000000003C120C021C221C00030202020E72
:105170001212123700000004040000060404040E9A
:10518000000000080800000C0808080808070003D1
:105190000202021A0A060A130000000704040404AB
:1051A0000404041F000000000000000F1515151571
:1051B000000000000000000F121212370000000073
:1051C0000000000C1212120C000000000000000F82
:1051D0001212120E020700000000001C1212121C14
:1051E000103800000000001B06020207000000004B
:1051F0000000001E020C101E000000000004041E2F
:105200000404041C000000000000001B1212123CE9
:10521000000000000000001B0A0A04040000000057
:1052200000000015150E0A0A000000000000001B17
:105230000A040A1B000000000000003312120C08D0
:10524000040300000000001E0804041E00001808EB
:105250000808080C080808081800080808080808C2
:1052600008080808080806040404040804040404E0
:105270000600160900000000000000000000000009
:10528000000000000000000000000000000000001E
:10529000000808080808080800001818000000485E
:1052A0006C2412000000000000000000000000005C
:1052B000002424247F1212127F1212120000000018
:1052C000081C2A2A0A0C1828282A2A1C0808000068
:1052D0000022251515152A585454542200000000A8
:1052E000000C1212120A76252911916E0000000698
:1052F0000604030000000000000000000000004061
:1053000020101008080808080810102040000002AB
:105310000408081010101010100808040200000003
:10532000000008086B1C1C6B08080000000000004F
:105330000000080808087F080808080000000000AE
:10534000000000000000000000000606040300004A
:10535000000000000000FE0000000000000000004F
:105360000000000000000000000006060000000031
:1053700080404020201010080804040202000000B1
:1053800000182442424242424242241800000000D7
:1053900000080E08080808080808083E0000000079
:1053A000003C4242422020100804427E00000000DF
:1053B000003C4242201820404042221C00000000D5
:1053C00000203028242422227E20207800000000A3
:1053D000007E0202021A26404042221C0000000009
:1053E00000382402021A264242422418000000001B
:1053F000007E22221010080808080808000000009B
:10540000003C4242422418244242423C0000000038
:1054100000182442424264584040241C000000000E
:10542000000000001818000000001818000000001C
:105430000000000000080000000000080804000050
:105440000040201008040204081020400000000062
:10545000000000007F0000007F000000000000004E
:105460000002040810204020100804020000000080
:10547000003C424246402010100018180000000076
:10548000001C225A555555552D42221C0000000083
:10549000000808181414243C224242E700000000CF
:1054A000001F2222221E22424242221F0000000030
:1054B000007C4242010101010142221C0000000067
:1054C000001F2242424242424242221F000000008C
:1054D000003F4212121E12120242423F0000000020
:1054E000003F4212121E12120202020700000000C8
:1054F000003C2222010101712122221C0000000037
:1055000000E7424242427E42424242E7000000003F
:10551000003E0808080808080808083E00000000C7
:10552000007C10101010101010101010110F00003F
:10553000007722120A0E0A121222227700000000BF
:1055400000070202020202020202427F0000000083
:105550000077363636362A2A2A2A2A6B00000000BF
:1055600000E346464A4A5252526262470000000037
:10557000001C2241414141414141221C00000000E8
:10558000003F424242423E02020202070000000087
:10559000001C2241414141414D53321C600000003A
:1055A000003F4242423E1212222242C70000000047
:1055B000007C4242020418204042423E00000000AB
:1055C000007F4908080808080808081C00000000B7
:1055D00000E74242424242424242423C0000000056
:1055E00000E7424222242414141808080000000096
:1055F000006B4949494955553622222200000000D6
:1056000000E7422424181818242442E70000000070
:1056100000772222141408080808081C0000000063
:10562000007E2120101008040442423F0000007850
:105630000808080808080808080808087800000092
:105640000202040408080810102020204040001E18
:105650001010101010101010101010101E00003834
:1056600044000000000000000000000000000000F6
:1056700000000000000000000000000000FF000625
:105680000800000000000000000000000000000012
:1056900000000000003C4278444242FC0000000050
:1056A00000030202021A26424242261A00000000AB
:1056B00000000000003844020202443800000000EC
:1056C0000060404040784442424264D800000000FC
:1056D00000000000003C427E0202423C000000004C
:1056E00000F08808087E08080808083E000000004E
:1056F00000000000007C22221C023C42423C0000D0
:1057000000030202023A4642424242E70000000021
:10571000000C0C00000E08080808083E00000000FD
:10572000003030000038202020202020221E0000E1
:10573000000302020272120A161222770000000011
:10574000000E0808080808080808083E00000000C5
:1057500000000000007F9292929292B70000000039
:1057600000000000003B4642424242E700000000C9
:1057700000000000003C42424242423C0000000067
:1057800000000000001B26424242221E02070000C9
:1057900000000000007844424242447840E00000AB
:1057A0000000000000774C040404041F0000000007
:1057B00000000000007C42023C40423E000000002D
:1057C00000000008083E0808080808300000000033
:1057D0000000000000634242424262DC0000000020
:1057E0000000000000E74224241408080000000024
:1057F0000000000000EB494955552222000000003E
:1058000000000000007624181818246E0000000024
:105810000000000000E742242414180808070000D4
:1058200000000000007E22100808447E000000C036
:10583000202020202010202020202020C000101018
:105840001010101010101010101010101010000672
:1058500008080808081008080808080806000C329C
:10586000C200000000000000000000000000000076
:105870000000000000000000000000000000000028
:105880000000000000000000000000000000000018
:105890000000000000000000000000000000000008
:1058A0000000000000006000600060006000600018
:1058B0006000600040002000200020000000000088
:1058C00000006000600060000000000000000000B8
:1058D0000000600660063003980188004400000064
:1058E00000000000000000000000000000000000B8
:1058F00000000000000000000000000000000000A8
:105900000000000000001002100210021002FE074A
:10591000FE0708020801080108010801FE07FE074A
:105920000401040104010401000000000000000063
:105930000000000040004000F00158034C03CC037D
:105940004C0058007000E000C001C00140034C034F
:105950005C034C034801F0004000400000000000E0
:105960000000000000000E010A019100910091006A
:10597000510051003A00AE03A00250045004480404
:105980004804480484028403000000000000000072
:1059900000000000000038006C006C006C006C001F
:1059A0006C002C0098071C011A01330133016301BC
:1059B000E300C308C6093C07000000000000000027
:1059C00000000C001C001000100008000400000083
:1059D00000000000000000000000000000000000C7
:1059E00000000000000000000000000000000000B7
:1059F0000000000400020001800080004000400020
:105A00002000200020002000200020002000400076
:105A1000400080008000000100020004000000003F
:105A20000000020004000800100010002000200008
:105A30004000400040004000400040004000200086
:105A40002000100010000800040002000000000008
:105A5000000000000000000000004000C000400006
:105A6000460C4E0FD001F0015E0F460C4000400086
:105A700040000000000000000000000000000000E6
:105A80000000000000000000000000004000400096
:105A9000400040004000FE0F400040004000400039
:105AA00040000000000000000000000000000000B6
:105AB00000000000000000000000000000000000E6
:105AC00000000000000000000000000000000000D6
:105AD00000000C001C001000100008000400000072
:105AE00000000000000000000000000000000000B6
:105AF000000000000000FE070000000000000000A1
:105B00000000000000000000000000000000000095
:105B10000000000000000000000000000000000085
:105B20000000000000000000000000000000000075
:105B300000001C001C001C00000000000000000011
:105B400000000004000600020003000100018000C4
:105B50008000400040006000200020001000100085
:105B6000080008000C00040006000200000000000D
:105B70000000000000000000F00098010C030C037E
:105B800006060606060606060606060606060606B5
:105B90000C030C039801F00000000000000000005E
:105BA000000000000000000040007C006000600079
:105BB00060006000600060006000600060006000E5
:105BC000600060006000FC030000000000000000B6
:105BD0000000000000000000F8008401020306033A
:105BE0000603000300018001C000600020001000D7
:105BF000080204020602FE0300000000000000008C
:105C000000000000000000007800C6008601860148
:105C100080018001C00070008001000100030003CA
:105C2000060306038601F8000000000000000000E3
:105C3000000000000000000080018001C001A00100
:105C4000A00190018801880184018201FE0F80017A
:105C5000800180018001E0070000000000000000DA
:105C60000000000000000000FC0304000400040029
:105C700004000400F4008C01040300030003060385
:105C8000060382018401F80000000000000000000B
:105C90000000000000000000E00118030C030C00ED
:105CA00004000600E60116030E06060606060606B2
:105CB00004060C021803F0000000000000000000C1
:105CC0000000000000000000F8070C0604020401B8
:105CD00000010001800080004000400040006000A2
:105CE0006000600060006000000000000000000034
:105CF0000000000000000000F8010C030606060684
:105D000006060C021C03F000C8010C03060606067A
:105D1000060606060C03F00100000000000000006B
:105D20000000000000000000F0000C010C0306025F
:105D300006060606060606078C0678060006000319
:105D400000030C018C01780000000000000000003E
:105D50000000000000000000000000000000000043
:105D60000000E000E000E000000000000000000093
:105D70000000E000E000E000000000000000000083
:105D80000000000000000000000000000000000013
:105D90000000600060000000000000000000000043
:105DA00000000000600060004000200020000000B3
:105DB000000000000000000400020001800040001C
:105DC000200010000800040008001000200040001F
:105DD000800000010002000400000000000000003C
:105DE00000000000000000000000000000000000B3
:105DF0000000FE07000000000000FE070000000099
:105E00000000000000000000000000000000000092
:105E10000000000000000400080010002000400006
:105E20008000000100020004000200018000400028
:105E30002000100008000400000000000000000026
:105E40000000000000000000E0031806040C040C31
:105E50000C0C0C0C000780014000400040000000CA
:105E60000000E000E000E000000000000000000092
:105E7000000000000000E00018030C02CC056405DF
:105E80006605A605B604B604B604B604B602E40177
:105E90000C040C021803F0000000000000000000D9
:105EA0000000000000000000600060005000D00012
:105EB00090009000880088010801F80104030403A1
:105EC0000402020202060F0F0000000000000000A2
:105ED0000000000000000000FE008C030C030C0317
:105EE0000C030C038C01FC000C030C020C060C06CA
:105EF0000C060C060C03FE01000000000000000070
:105F00000000000000000000E00318030C060C0471
:105F1000040406000600060006000600060006044B
:105F20000C040C021803F000000000000000000048
:105F300000000000000000007F008C010C030C0337
:105F40000C060C060C060C060C060C060C060C06C1
:105F50000C030C038C017F00000000000000000017
:105F60000000000000000000FF0306030604060412
:105F7000060086008600FE00860086008600060079
:105F8000060406040602FF030000000000000000F3
:105F90000000000000000000FF03060306040604E2
:105FA000060086008600FE00860086008600060049
:105FB0000600060006001F000000000000000000B0
:105FC0000000000000000000F00018010C020C02AC
:105FD00004020600060006000600C60F06030603BC
:105FE0000C030C031803F000000000000000000088
:105FF00000000000000000000F0F0606060606065F
:10600000060606060606FE07060606060606060637
:106010000606060606060F0F00000000000000003E
:106020000000000000000000FC0360006000600051
:106030006000600060006000600060006000600060
:10604000600060006000FC03000000000000000031
:106050000000000000000000F807C000C000C00001
:10606000C000C000C000C000C000C000C000C00030
:10607000C000C000C000C000C60066003C000000B8
:106080000000000000000000CF038601C6004600AB
:106090002600160036002E006E004600C600860060
:1060A0008601060106038F070000000000000000C3
:1060B00000000000000000001F00060006000600AF
:1060C00006000600060006000600060006000600A0
:1060D000060406040602FF030000000000000000A2
:1060E00000000000000000000707860386038E03FF
:1060F0008E034E034E034A035A035A033A033203F4
:106100003203320312038707000000000000000082
:1061100000000000000000008E0F0C021C021C0298
:1061200034023402640264024402C402840284031E
:106130008403040304031F020000000000000000A9
:106140000000000000000000F00098010C030C02A9
:1061500006060606060606060606060606060606DF
:106160000C020C039801F000000000000000000089
:106170000000000000000000FF00060306060606FF
:106180000606060606068603FE0006000600060052
:106190000600060006001F000000000000000000CE
:1061A0000000000000000000F00098010C030C0249
:1061B000060606060606060606060606060676060F
:1061C0004C02CC039801F00080070003000000009F
:1061D0000000000000000000FF010603060606069E
:1061E000060606060603FE004600C6008600860177
:1061F0000603060306060F0E000000000000000064
:106200000000000000000000F8020C030602060275
:1062100006000E003C00F800E003800300070206C1
:10622000020606060C03F00100000000000000005A
:106230000000000000000000FE0762046108610821
:10624000600060006000600060006000600060004E
:10625000600060006000F801000000000000000025
:1062600000000000000000001E070C020C020C02DF
:106270000C020C020C020C020C020C020C020C02AE
:106280000C020C021801F0000000000000000000E9
:1062900000000000000000000F07060204010401D6
:1062A0000C010C01880088009800980050005000F4
:1062B00070003000200020000000000000000000FE
:1062C0000000000000000000F70E620442044604D3
:1062D000460464026402E402E4029C029C01980108
:1062E000980188018800880000000000000000007C
:1062F00000000000000000009E070C0108011801CA
:106300009000B0006000200060006000D0009000AD
:106310008801080104038E0700000000000000004F
:1063200000000000000000000F0F060404020C0231
:1063300008011801B800B000700060006000600043
:10634000600060006000F801000000000000000034
:106350000000000000000000FC070C020603020120
:106360008001800040004000200020001000180044
:1063700008040C040402FE030000000000000000FA
:106380000000E0032000200020002000200020006A
:1063900020002000200020002000200020002000FD
:1063A00020002000200020002000E003000000006A
:1063B00000000000000004000400080008001000B5
:1063C000100010002000200040004000C0008000AD
:1063D0008000000100010002000200020004000031
:1063E00000007C00400040004000400040004000B1
:1063F000400040004000400040004000400040009D
:10640000400040004000400040007C0000000000D0
:106410006000900008010000000000000000000083
:10642000000000000000000000000000000000006C
:10643000000000000000000000000000000000005C
:10644000000000000000000000000000000000004C
:10645000000000000000000000000000000000003C
:10646000000000000000000000000000FF0F00001E
:1064700000001800600000000000000000000000A4
:10648000000000000000000000000000000000000C
:1064900000000000000000000000000000000000FC
:1064A00000000000000000000000000000000000EC
:1064B0000000F0010C030C030003E0031C030E03B7
:1064C000060306038E0B7C0E000000000000000097
:1064D00000000000000008000E000C000C000C0082
:1064E0000C00CC013C031C060C060C060C060C062A
:1064F0000C060C021C03E401000000000000000078
:10650000000000000000000000000000000000008B
:106510000000F0008C018C018601060006000600D8
:1065200006020C020C01F000000000000000000058
:106530000000000000000002C0030003000300038D
:10654000000378038C030C0306030603060306030B
:10655000060304038C07780100000000000000001F
:10656000000000000000000000000000000000002B
:106570000000E001180308020C060C06FC070C00E2
:106580000C0018041802E0010000000000000000E8
:106590000000000000000000C0036006300630006C
:1065A0003000FE013000300030003000300030009C
:1065B000300030003000FC0100000000000000004E
:1065C00000000000000000000000000000000000CB
:1065D0000000F007D8068C018C018C019801F800AE
:1065E0000C00FC00CC03060306038E03F800000039
:1065F00000000000000008000E000C000C000C0061
:106600000C00EC011C030C030C030C030C030C0327
:106610000C030C030C039E070000000000000000A8
:1066200000000000000000006000600000000000AA
:1066300040007C006000600060006000600060005E
:10664000600060006000FC0300000000000000002B
:106650000000000000000000C001C00100000000B8
:106660000001F00180018001800180018001800132
:1066700080018001800180018001CC007C0000004D
:1066800000000000000008000E000C000C000C00D0
:106690000C008C038C008C004C006C005C008C00A7
:1066A0008C010C010C039E0700000000000000009C
:1066B00000000000000040007C00600060006000FE
:1066C00060006000600060006000600060006000CA
:1066D000600060006000FC0300000000000000009B
:1066E00000000000000000000000000000000000AA
:1066F00000003707EE06660666066606660666064C
:10670000660666066606FF0F000000000000000037
:106710000000000000000000000000000000000079
:106720000000EE011C030C030C030C030C030C0310
:106730000C030C030C039E07000000000000000087
:106740000000000000000000000000000000000049
:106750000000F00098010C03060606060606060671
:1067600006060C030C03F00000000000000000000F
:106770000000000000000000000000000000000019
:106780000000EE011C030C060C060C060C060C06A1
:106790000C060C031C03EC010C000C003E00000076
:1067A00000000000000000000000000000000000E9
:1067B000000078028C030C0306030603060306039D
:1067C000060304038C03780300030003C0070000E2
:1067D00000000000000000000000000000000000B9
:1067E00000009F035806380618001800180018000B
:1067F000180018001800FF00000000000000000052
:106800000000000000000000000000000000000088
:106810000000F0031C030C020C023800F000C0035F
:10682000040304038C03FC010000000000000000CE
:1068300000000000000000000000200020003000E8
:106840003000FE01300030003000300030003000F9
:10685000300030023002E0010000000000000000C3
:106860000000000000000000000000000000000028
:1068700008028E030C030C030C030C030C030C0323
:106880000C030C039C0778010000000000000000CE
:1068900000000000000000000000000000000000F8
:1068A00000001E070C020801080118019000B0004A
:1068B000B000600060002000000000000000000048
:1068C00000000000000000000000000000000000C8
:1068D0000000F70E6204460464026402EC029C01AC
:1068E00098019801980108000000000000000000D5
:1068F0000000000000000000000000000000000098
:106900000000BC0718011001B00060006000E0004A
:106910009000080108039E0700000000000000002E
:106920000000000000000000000000000000000067
:1069300000009E0708010801080190009000B000C7
:106940006000600060002000200024001C000000A7
:106950000000000000000000000000000000000037
:106960000000FC018401C4004400600020003000ED
:10697000180208020C03FC010000000000000000E7
:106980000000000380008000800080008000800004
:1069900080008000400020004000800080008000D7
:1069A0008000800080008000800000030000400024
:1069B00040004000400040004000400040004000D7
:1069C00040004000400040004000400040004000C7
:1069D00040004000400040004000400040000000F7
:1069E00000000C001000100010001000100010003B
:1069F00010001000200040002000100010001000C7
:106A0000100010001000100010000C00000000002A
:106A10001C002204C20480030000000000000000EB
:106A20000000000000000000000000000000000066
:106A30000000000000000000000000000000000056
:106A40000000000000000000000000000000000046
:106A50000000000000000000000000000000000036
:106A60000000000000000000000000000000000026
:106A70000000000000000000000000000000000016
:106A80000000000000000000C001C001C001C00102
:106A9000C001C001C0018000800080008000800033
:106AA0008000800000000000000000008001C003A2
:106AB000C003800100000000000000000000000092
:106AC00000000000E01CE01CF01E700E38071803E8
:106AD0000801840000000000000000000000000029
:106AE00000000000000000000000000000000000A6
:106AF0000000000000000000000000000000000096
:106B000000000000000000000000201020102010F5
:106B100020102010FE7FFE7F1008100810081008BB
:106B2000100810081008FE7FFE7F080408040804FF
:106B3000080408040000000000000000000000003D
:106B400000000000000000010001C00760191031C2
:106B500018311839183938017001E001C003800775
:106B6000000F001D003900311C311C310C310C119B
:106B7000180DE00700010001000100000000000006
:106B8000000000000000000000001C103618630820
:106B9000630C63046304630263026301361D9C3764
:106BA000802280634063406320632063306310224F
:106BB0001836081C00000000000000000000000063
:106BC00000000000000000000000F00098018C01AF
:106BD0008C018C018C018C00CC007800183E1C08C4
:106BE0003608320863046304C304C30383430643C3
:106BF0008E26781C0000000000000000000000004D
:106C0000000000001C003C003C0030003000100080
:106C10000C00060000000000000000000000000062
:106C20000000000000000000000000000000000064
:106C30000000000000000000000000000000000054
:106C4000000000000040002000100008000C0004BC
:106C50000006000300030003800180018001800121
:106C60008001800180018001000300030003000611
:106C70000006000C0008001000200040000000008A
:106C80000000000002000400080010003000200096
:106C90006000C000C000C000800180018001800150
:106CA0008001800180018001C000C000C000600040
:106CB0006000300010000800040002000000000026
:106CC00000000000000000000000000000000001C3
:106CD0008003800300011C713C79783DC0070001EE
:106CE000C007783D3C791C7100018003800380015E
:106CF0000000000000000000000000000000000094
:106D00000000000000000000000000000000000083
:106D10000001000100010001000100010001FC7FF1
:106D2000000100010001000100010001000100005C
:106D30000000000000000000000000000000000053
:106D40000000000000000000000000000000000043
:106D50000000000000000000000000000000000033
:106D600000000000000000000000000000001C0007
:106D70003C003C003000300010000C000600000019
:106D80000000000000000000000000000000000003
:106D90000000000000000000000000000000FE7F76
:106DA00000000000000000000000000000000000E3
:106DB00000000000000000000000000000000000D3
:106DC00000000000000000000000000000000000C3
:106DD00000000000000000000000000000000000B3
:106DE00000000000000000000000000018003C004F
:106DF0003C0018000000000000000000000000003F
:106E0000000000000040006000200030001000186A
:106E10000008000C000400060002000300018001CD
:106E20008000C0004000600020003000100018000A
:106E300008000C0004000600020000000000000032
:106E400000000000000000000000C007600C3018C7
:106E50001830183018200C600C600C600C600C604E
:106E60000C600C600C600C60182018301830301862
:106E7000600CC007000000000000000000000000DF
:106E80000000000000000000000000018001F80187
:106E900080018001800180018001800180018001EA
:106EA00080018001800180018001800180018001DA
:106EB000C003F81F000000000000000000000000F8
:106EC00000000000000000000000E007101C08188F
:106ED000043004300C300C3000300018000800047E
:106EE0000002000180004000202010200820043013
:106EF000FC1FFC1F0000000000000000000000005C
:106F000000000000000000000000E003180E0C0C60
:106F10000C180C180C180018000C0006C003000E0A
:106F200000180010003000300C300C300C100C1821
:106F3000180CE0030000000000000000000000004A
:106F400000000000000000000000000C000E000E19
:106F5000000F800E800E400E600E200E100E100EE0
:106F6000080E040E040EFE7F000E000E000E000E32
:106F7000000E000EC07F00000000000000000000B6
:106F800000000000000000000000F03FF03F100093
:106F90001000100008000800C807280C1818081076
:106FA00000300030003000300C300C300418041871
:106FB000080CF003000000000000000000000000CA
:106FC00000000000000000000000800FC010203012
:106FD00010301800180008000C008C0F6C183C30A2
:106FE0001C600C600C600C600C6018601820303065
:106FF0006018C00700000000000000000000000052
:1070000000000000000000000000F83FF83F1C10E6
:107010000C0804080404000400020002000100013E
:107020000001800080008000C000C000C000C000DF
:10703000C000C000000000000000000000000000D0
:1070400000000000000000000000E007300C1818ED
:107050000C300C300C301C3038187008E007B007CA
:10706000180E0C1C063806300630063006300C1898
:10707000180CE00300000000000000000000000009
:1070800000000000000000000000E00318040C08ED
:107090000C180610063006300630063006380C3C58
:1070A0001836F03100300018001800180C0C0C06CF
:1070B0000C03F001000000000000000000000000D0
:1070C00000000000000000000000000000000000C0
:1070D00000000000000000008001C003C003800128
:1070E0000000000000000000000000008001C0035C
:1070F000C00380010000000000000000000000004C
:10710000000000000000000000000000000000007F
:107110000000000000000000C000C00000000000EF
:10712000000000000000000000000000000000005F
:10713000C000C0008000800040004000000000004F
:107140000000000000000000002000100008000403
:10715000000600038001C0006000300018000C0031
:10716000180030006000C000800100030006000429
:1071700000080010002000000000000000000000D7
:1071800000000000000000000000000000000000FF
:107190000000000000000000FE7F00000000000072
:1071A00000000000FE7F0000000000000000000062
:1071B00000000000000000000000000000000000CF
:1071C0000000000000000000040008001000200083
:1071D0006000C000800100030006000C00180030B1
:1071E0000018000C000600038001C00060002000B1
:1071F0001000080004000000000000000000000073
:107200000000000000000000C007301808300860CF
:107210000C601C601C601C600030001C000600013B
:107220008000800080008000000000008001C0031A
:10723000C00380010000000000000000000000000A
:1072400000000000000000000000C00760181030BF
:1072500018200C2F8C4D864CC64CC64C664C664490
:107260006644662666266615CC1C0C40082018303D
:107270003018C007000000000000000000000000FF
:1072800000000000000000000001C001C001C001BA
:10729000400160032003200320033006100610067F
:1072A0001006F80F080C080C080C0C0C0418041835
:1072B00006181F7C00000000000000000000000015
:1072C00000000000000000000000FE07181C183835
:1072D00018301830183018301818180CF80718180B
:1072E000183018201860186018601860186018307E
:1072F0001818FE0F00000000000000000000000051
:1073000000000000000000000000C02760381030BE
:1073100018200C400C400400060006000600060081
:1073200006000600060006000C400C400C20183039
:107330003018C0070000000000000000000000003E
:1073400000000000000000000000FE03180E1818E6
:1073500018301830183018601860186018601860FD
:107360001860186018601860183018301810181855
:10737000180EFE03000000000000000000000000E6
:1073800000000000000000000000FE3F1830182040
:1073900018601840180018081808180CF80F180C76
:1073A000180818081800180018001840184018206D
:1073B0001830FE3F00000000000000000000000048
:1073C00000000000000000000000FE7F1870184060
:1073D00018C018801800181018101818F81F18185E
:1073E00018101810180018001800180018001800BD
:1073F00018007E00000000000000000000000000F7
:1074000000000000000000000000C013701C1010FD
:1074100018100C200C2004000600060006000600D0
:10742000060006FC063006300C300C3018301830E0
:107430003008C0070000000000000000000000004D
:10744000000000000000000000003F7E0C180C1837
:107450000C180C180C180C180C180C180C18FC1F15
:107460000C180C180C180C180C180C180C180C18FC
:107470000C183F7E0000000000000000000000002B
:1074800000000000000000000000F81F80018001E3
:1074900080018001800180018001800180018001E4
:1074A00080018001800180018001800180018001D4
:1074B0008001F81F00000000000000000000000034
:1074C00000000000000000000000E07F0006000651
:1074D000000600060006000600060006000600067C
:1074E000000600060006000600060006000600066C
:1074F0000006000600060E060E038E01FC000000CA
:10750000000000000000000000007E7C1818180831
:10751000180418061802180198019801D801B80338
:10752000380318071806180E180C181C18181830ED
:1075300018307EFC00000000000000000000000089
:10754000000000000000000000007E00180018008D
:10755000180018001800180018001800180018006B
:1075600018001800180018001800184018401820BB
:107570001830FE3F00000000000000000000000086
:10758000000000000000000000001FF81C381C383C
:107590001C381C3C34343434343434367432643261
:1075A000643264326431C431C431C431C430C43053
:1075B00084309FFC0000000000000000000000007C
:1075C000000000000000000000001F7C1C103C10A8
:1075D0003410341074106410E410C410C4118411F9
:1075E0008413041304170416041E041C041C041C36
:1075F00004181F1800000000000000000000000038
:1076000000000000000000000000C003300C18184B
:1076100008100C300C3006600660066006600660DC
:1076200006600660066006600C200C300810181812
:10763000300CC0030000000000000000000000004B
:1076400000000000000000000000FE0F18181830B5
:107650001860186018601860186018301818F80F53
:10766000180018001800180018001800180018005A
:1076700018007E0000000000000000000000000074
:1076800000000000000000000000C003300C1818CB
:107690000C100C300C200660066006600660066068
:1076A0000660066006600660E4612C331C32181622
:1076B000300EC007004C007C0038000000000000C5
:1076C00000000000000000000000FE07181C183831
:1076D00018301830183018301818180CF80798039C
:1076E0001803180718061806180E180C180C181C82
:1076F00018187E7800000000000000000000000064
:1077000000000000000000000000E02730381830C2
:107710000C200C200C000C0018007800E003800FF7
:10772000001E0038007000600460046008601830BB
:107730003818C80F00000000000000000000000022
:1077400000000000000000000000FC3F8C2184616C
:10775000824182418001800180018001800180019D
:107760008001800180018001800180018001800111
:107770008001E007000000000000000000000000A1
:10778000000000000000000000003F7C0C100C1006
:107790000C100C100C100C100C100C100C100C1009
:1077A0000C100C100C100C100C100C100C10080805
:1077B0003804E003000000000000000000000000AA
:1077C000000000000000000000003EF81820182013
:1077D0001820301030103010301060086008600839
:1077E000E00CC004C004C004800380038003800355
:1077F0000001000100000000000000000000000087
:1078000000000000000000000000DFF38661862118
:1078100086218C210C218C238C138C138C134C13FC
:1078200058125816580E380E380E380E300C1004F8
:107830001004100400000000000000000000000020
:10784000000000000000000000007E3E180838081C
:107850003004300470026002E001C001C001800108
:1078600080034003400720062006100C100C081867
:1078700008183E7C0000000000000000000000002E
:10788000000000000000000000007E7C1C101810AA
:1078900018083008300C700460046002C002C00296
:1078A000C001800180018001800180018001800190
:1078B0008001E00700000000000000000000000060
:1078C00000000000000000000000F83F1818081831
:1078D000040C040E00060007000380038001C001B1
:1078E000C000E000600070003000382018201C103C
:1078F0000C18FE1F00000000000000000000000047
:1079000000000000C03F4000400040004000400038
:107910004000400040004000400040004000400067
:107920004000400040004000400040004000400057
:107930004000400040004000C03F00000000000048
:1079400000000000000000000800180018001000EF
:1079500030002000600060004000C0008000800116
:107960008001000100030002000600060004000C74
:10797000000800180018001000300020000000006F
:1079800000000000FC0300020002000200020002EE
:1079900000020002000200020002000200020002D7
:1079A00000020002000200020002000200020002C7
:1079B0000002000200020002FC03000000000000C0
:1079C000000000008007C006200810100000000022
:1079D00000000000000000000000000000000000A7
:1079E0000000000000000000000000000000000097
:1079F0000000000000000000000000000000000087
:107A00000000000000000000000000000000000076
:107A10000000000000000000000000000000000066
:107A20000000000000000000000000000000000056
:107A3000000000000000000000000000FFFF000048
:107A4000000000007800C0000001000000000000FD
:107A50000000000000000000000000000000000026
:107A60000000000000000000000000000000000016
:107A70000000000000000000000000000000000006
:107A800000000000000000000000000000000000F6
:107A90000000000000000000F00318060C0C0C0CA5
:107AA000000C800F700C1C0C0C0C060C060C064C09
:107AB0000C4FF8380000000000000000000000003B
:107AC000000000000000000010001E001800180058
:107AD0001800180018001800180FD818383038602F
:107AE0001860186018601860186018601820383026
:107AF0007818C80700000000000000000000000027
:107B00000000000000000000000000000000000075
:107B10000000000000000000C007700C18181818C2
:107B20000C180C000C000C000C000C201820181075
:107B30003008C00700000000000000000000000046
:107B400000000000000000000010001E00180018D7
:107B50000018001800180018E01B301C181818181E
:107B60000C180C180C180C180C180C180818181CE9
:107B7000307AE00900000000000000000000000072
:107B800000000000000000000000000000000000F5
:107B90000000000000000000C007300C181808109A
:107BA0000C300C30FC3F0C000C000C00182018109E
:107BB0007018C00700000000000000000000000076
:107BC00000000000000000000000003E80C380C0F4
:107BD000C0C0C000C000C000FC1FC000C000C0008A
:107BE000C000C000C000C000C000C000C000C00095
:107BF000C000F80F000000000000000000000000BE
:107C00000000000000000000000000000000000074
:107C10000000000000000000C077306C1018181839
:107C2000181818181018300CF00718001800F00F6A
:107C3000F03F08700C600C600C603838E00F0000FA
:107C4000000000000000000010001E0018001800D6
:107C50001800180018001800980FD818383018307D
:107C600018301830183018301830183018301830D4
:107C700018307EFC00000000000000000000000042
:107C8000000000000000000000008003800380036B
:107C90000000000000000001F80180018001800167
:107CA00080018001800180018001800180018001CC
:107CB0008001F81F0000000000000000000000002C
:107CC000000000000000000000000038003800380C
:107CD0000000000000000010801F001800180018AD
:107CE00000180018001800180018001800180018D4
:107CF0000018001800180018180C1806F0030000EF
:107D0000000000000000000010001E001800180015
:107D10001800180018001800183E180C1806180350
:107D200018019801D801380318071806180C181CF8
:107D300018187E7C00000000000000000000000019
:107D400000000000000000000001F8018001800137
:107D5000800180018001800180018001800180011B
:107D6000800180018001800180018001800180010B
:107D70008001F81F0000000000000000000000006B
:107D800000000000000000000000000000000000F3
:107D90000000000000000800EE1C9C338C318C3188
:107DA0008C318C318C318C318C318C318C318C31EB
:107DB0008C31DE7B000000000000000000000000AD
:107DC00000000000000000000000000000000000B3
:107DD00000000000000010001E0FD81838301830C6
:107DE0001830183018301830183018301830183053
:107DF00018307EFC000000000000000000000000C1
:107E00000000000000000000000000000000000072
:107E10000000000000000000C007701C1030183087
:107E20000C600C600C600C600C600C60183018303A
:107E30003018C00700000000000000000000000033
:107E40000000000000000000000000000000000032
:107E500000000000000010009E0F58183830182055
:107E60001860186018601860186018601830383092
:107E70007818980718001800180018007E000000F5
:107E800000000000000000000000000000000000F2
:107E90000000000000000000C023303C18381830FB
:107EA0000C300C300C300C300C300C3008301838E2
:107EB000303CE033003000300030003000FC000087
:107EC00000000000000000000000000000000000B2
:107ED00000000000000060007E3C60666061E00021
:107EE000E000600060006000600060006000600012
:107EF0006000FE070000000000000000000000001D
:107F00000000000000000000000000000000000071
:107F10000000000000000000E02730381830182072
:107F200018007000E003800F001C043004300C3097
:107F30001C18EC0F00000000000000000000000012
:107F400000000000000000000000000000008000B1
:107F500080008000C000E000FC1FC000C000C00026
:107F6000C000C000C000C000C000C000C020C020D1
:107F70008011000F00000000000000000000000061
:107F800000000000000000000000000000000000F1
:107F900000000000000010201E3C1830183018307F
:107FA0001830183018301830183018301830183889
:107FB00030F4E013000000000000000000000000AA
:107FC00000000000000000000000000000000000B1
:107FD00000000000000000007E3C18181808380857
:107FE00030043004700260026002E001C001C00190
:107FF000C000800000000000000000000000000041
:108000000000000000000000000000000000000070
:108010000000000000000000DFF78E630C238C23BB
:108020008C239813981358165816700E700E700EF5
:1080300020042004000000000000000000000000F8
:108040000000000000000000000000000000000030
:108050000000000000000000FC3E70087004E00416
:10806000C002C0018003800340076006200C100C92
:1080700018183E7E00000000000000000000000014
:1080800000000000000000000000000000000000F0
:1080900000000000000000007E7C1818180830085E
:1080A0003008300460046004C002C002C0028001D5
:1080B000800180018000800080004C003C000000B6
:1080C00000000000000000000000000000000000B0
:1080D0000000000000000000FC1F0C0C040E040651
:1080E000000380038001C000E000702030203830A1
:1080F0001C18FC1F00000000000000000000000031
:108100000000000000300008000400040004000427
:1081100000040004000400040004000400028001C4
:108120000002000400040004000400040004000431
:1081300000040004000400040008003000000001F6
:108140000001000100010001000100010001000127
:108150000001000100010001000100010001000117
:108160000001000100010001000100010001000107
:1081700000010001000100010001000100010000F8
:10818000000000000C001000200020002000200053
:10819000200020002000200020002000400080015E
:1081A00040002000200020002000200020002000AF
:1081B000200020002000200010000C000000000023
:1081C0003800C400864002610022001C000000004C
:1081D000000000000000000000000000000000009F
:1081E000000000000000000000000000000000008F
:1081F000000000000000000000000000000000007F
:108200002082000800000020200000006C410008CF
:10821000408200082000002060080000884100081B
:10822000000000000014014000100140000801405F
:10823000040000000010000000800000000E27076E
:04000005080041317D
:00000001FF
