:020000040800F2
:1040000080080020D1410008994200089142000830
:10401000954200088B420008814300080000000020
:10402000000000000000000000000000C74200087F
:104030008F42000800000000C5420008C942000885
:10404000EB410008EB410008EB410008EB410008A0
:10405000EB410008EB410008EB410008EB41000890
:10406000EB410008EB410008EB410008EB41000880
:10407000EB410008EB410008EB410008EB41000870
:10408000EB410008EB410008EB410008EB41000860
:10409000EB410008EB410008EB410008EB41000850
:1040A000EB410008EB410008EB410008EB41000840
:1040B000EB410008EB410008EB410008EB41000830
:1040C000EB410008EB410008EB410008EB41000820
:1040D000EB410008EB410008EB410008EB41000810
:1040E000EB410008EB410008EB410008EB41000800
:1040F000EB410008EB410008EB410008EB410008F0
:10410000EB410008EB410008EB410008EB410008DF
:10411000EB410008EB410008EB410008EB410008CF
:10412000EB410008EB410008EB410008EB410008BF
:1041300000F002F800F03CF80AA090E8000C82447D
:104140008344AAF10107DA4501D100F031F8AFF25A
:10415000090EBAE80F0013F0010F18BFFB1A43F065
:10416000010318476006000080060000103A24BFD3
:1041700078C878C1FAD8520724BF30C830C144BFCC
:1041800004680C607047000000230024002500260E
:10419000103A28BF78C1FBD8520728BF30C148BFAA
:1041A0000B6070471FB500F007FB1FBD10B510BDB9
:1041B00000F031F81146FFF7F5FF00F0FDF900F0CF
:1041C0004FF803B4FFF7F2FF03BC00F057F800000C
:1041D0000948804709480047FEE7FEE7FEE7FEE79B
:1041E000FEE7FEE7FEE7FEE7FEE7FEE704480549D7
:1041F000054A064B70470000D942000831410008CB
:10420000800000208008002080040020800400201E
:10421000704770477047754600F02CF8AE460500B1
:104220006946534620F00700854618B020B5FFF7D1
:10423000DDFFBDE820404FF000064FF000074FF0D3
:1042400000084FF0000B21F00701AC46ACE8C009B4
:10425000ACE8C009ACE8C009ACE8C0098D467047BD
:1042600010B50446AFF300802046BDE81040FFF7CC
:10427000A8BF000000487047200000200149182016
:10428000ABBEFEE726000200704700BFFEE77047A6
:1042900000BFFEE700BFFEE77047000010B5002832
:1042A00007DA0A07140E054A00F00F031B1FD45447
:1042B00003E00A07130E024A135410BD18ED00E084
:1042C00000E400E07047704702480068401C014964
:1042D000086070470000002008B52648006840F4D8
:1042E0007000244908602448006840F00100224919
:1042F000086000BF2048006800F002000028F9D0E4
:1043000000BF1D48406840F080001B494860002005
:10431000009002E00098401C009000985028F9D3CB
:104320001548406840F09000134948600020009014
:1043300002E00098401C009000985028F9D300BF7C
:104340000D48406820F003000B49486008460068AB
:104350000A490840084908604FF41F008860084671
:10436000006820F48020086000204860C86200F0E7
:10437000D9F908BD88ED00E000100240FFFFF6FE0D
:1043800000BFFEE70AB1016100E041617047F0B58E
:10439000044616460025002201F00F0501F0100723
:1043A00047B1042E05D145F00305E76B1F43E763D2
:1043B00000E0354300201EE0012787401F40C7B1C1
:1043C00022684FEA800C0F2707FA0CF7BA438700E0
:1043D00005FA07F73A43282904D1012787401F40EF
:1043E000676105E0482903D1012787401F40276105
:1043F0002260471CB8B20828DED3082022E001273B
:1044000087401F40E7B16268A0F108074FEA870CB8
:104410000F2707FA0CF7BA43A0F10807BF0005FA07
:1044200007F73A43282904D1012787401F406761D5
:1044300005E0482903D1012787401F4027616260BA
:10444000471CB8B21028DAD3F0BD0246D068084045
:1044500008B1012070470020FCE70000F0B50A46D3
:10446000002300240021002500F00046B6F1004F93
:1044700002D11D4EF16901E01B4E7168C0F3034586
:1044800083B200F44016B6F5401F08D121F0E06178
:10449000154E766826F0E066134F7E6012E000F459
:1044A0008016B6F5801F06D1032606FA05F4A1434F
:1044B00041F0E06106E0460D360103FA06F6B1432D
:1044C00041F0E06122B1460D360103FA06F63143B0
:1044D00000F00046B6F1004F02D1034EF16101E059
:1044E000014E7160F0BD00000000014010B540F2C7
:1044F000056000F07DF840F2046000F079F840F2C9
:10450000026000F075F84FF4C06000F071F801210E
:104510001848FFF7A3FF18490B68184903220868D9
:104520001021FFF734FF14494B68144903224868EF
:104530001021FFF72CFF10498B681049032288686F
:104540001021FFF724FF0C4A11680C4A1068012261
:10455000FFF718FF084A5168084A50680122FFF720
:1045600011FF054A9168054A90680122FFF70AFF8A
:1045700010BD0000000230001000002004000020E8
:1045800070B504460A4A52F824100A4A52F8240028
:10459000FFF75BFFC0F10100C5B2054A52F82410D5
:1045A000044A52F824002A46FFF7ECFE70BD0000D2
:1045B00010000020040000200B480C49086062B67F
:1045C00000F0D2F8FFF792FF0CE00020FFF7D8FFD1
:1045D0000120FFF7D5FF0220FFF7D2FF4FF4FA705A
:1045E00000F0A4F8F1E700000040000808ED00E04A
:1045F000064A02EB9011096800F01F0301229A405D
:104600001143024B03EB90121160704700100240FF
:10461000002000213F4A126842F480323D4B1A606C
:1046200000BF401C3B4A126802F4003119B94FF632
:10463000FF729042F5D1374A126802F400320AB98B
:1046400000BFFEE7334AD26942F08052314BDA6153
:10465000314A126842F440422F4B1A602D4A526888
:104660002C4B5A601A4652685A601A46526842F4F5
:1046700080625A601A46526822F440325A601A46E2
:10468000526842F440325A601A465268234B1A402C
:10469000204B5A601A465268214B1A431D4B5A60F0
:1046A0001A46126842F080721A6000BF194A1268F6
:1046B00002F00072002AF9D0174A126842F48032E0
:1046C000154B1A6000BF144A526802F48032002A67
:1046D000F9D0114A126842F400320F4B1A6000BF41
:1046E0000D4A526802F40032002AF9D0094A526891
:1046F00022F00302074B5A601A46526842F0020247
:104700005A6000BF034A526802F00802002AF9D03A
:10471000704700000010024000700040FFFFC3B768
:104720000000340810B5FFF773FF10BD10B5034645
:1047300000F014F8014600F011F80246002400BF12
:1047400000F00CF802468A4201D3501A02E0C1F18F
:10475000FF30104404469C42F2D310BD014800686B
:10476000704700000000002010B5124800684FF4A8
:104770007A71B0FBF1F4601EB0F1807F01D30120AB
:104780000FE0601E4FF0E02148610F214FF0FF3035
:10479000FFF784FD00204FF0E021886107200861C9
:1047A000002008B100BFFEE70021481EFFF776FD9C
:1047B00010BD00001C0000204FF04070E1EE100A18
:1047C00070470000E44700080000002020000000BF
:1047D0006C41000804480008200000206008000028
:1047E0008841000800000000001401400010014052
:1047F00000080140040000000010000000800000DC
:04480000000E270778
:04000005080041317D
:00000001FF
